:020000021000EC
:10000000E03F082095010100FB000100E100010034
:10001000090101001901010029010100000000008F
:10002000000000000000000000000000D1B7010047
:10003000390101000000000031B801005901010040
:1000400011BE010011BE010011BE010011BE010070
:1000500011BE010011BE010011BE010011BE010060
:1000600011BE010011BE010011BE010011BE010050
:1000700011BE010011BE010011BE010011BE010040
:1000800011BE010011BE010011BE010011BE010030
:1000900011BE010011BE010011BE010011BE010020
:1000A00011BE010011BE010011BE010011BE010010
:1000B00011BE010011BE010011BE010011BE010000
:1000C00011BE010011BE010011BE0100408E0200F0
:1000D00000C00720F8020000F8C2072080050000D9
:1000E00004207146084203D0EFF309800BF0AEBE46
:1000F000EFF308800BF0AABE704708B5014808F07E
:100100007FFAFEE7C685020008B5024808F078FAD3
:10011000FEE700BFD185020008B5024808F070FA7A
:10012000FEE700BFDC85020008B5024808F068FA67
:10013000FEE700BFE785020008B5024808F060FA54
:10014000FEE700BFF485020008B5024808F058FA3F
:10015000FEE700BF0286020008B50BF0EDFA0BF0D7
:1001600089FBBDE808400BF0FBBA0B4610B5401AFE
:100170005C1AA24203D9C45843F8044BF8E710BDF7
:10018000034610B500221C1AA14202D943F8042BE1
:10019000F9E710BD16480BF00FFC15480BF00FFCEB
:1001A000144C154DAC4201D3144D07E094E8030004
:1001B0000C3454F8042CFFF7D8FFF3E7AC4206D216
:1001C00054F8080B54F8041CFFF7DAFFF6E70FF0B9
:1001D000EDFA0BF00BFC01F0DBFD03F0DFFA4FF45E
:1001E00016400BF051FF064808F00AFAFEE700BF80
:1001F000E03F0820CC000100D8000100E000010031
:10020000168602000BF0F8BA0BF006BB144B10B5C3
:100210001A68014612B94FF080521A60114C1868E2
:100220002468421894421A6007D20F4CA24204D8A4
:100230000E4A0B488C18046010460D4A1B68126861
:10024000934222BF064B00201A6039B1094A136855
:1002500001331360084B1860084B196010BD00BFD4
:10026000FCC2072004C30720FFBF072078C807206F
:1002700008C307200CC30720F8C2072000C30720CB
:100280000FF0CCBB0FF0D2BB0FF0D0BB30B50446A3
:100290008BB068460FF07EFE224B079A2360089BC6
:1002A000214DA36062602149214B52B90A68186848
:1002B00082428ABF02F1604202F17042A2F5E82256
:1002C000626062681B68B2F5803F82BF02F17042D3
:1002D000A2F5E82262600022E2600A68934206D337
:1002E000991AC5F1005303F504230B440BE0114B9D
:1002F0001B68934208D9991AC5F1005303F5F823F6
:100300000B44002B00DDE36020460B4BE2611B68D1
:10031000A3610A4B1B686361094B1B6823610BB027
:1003200030BD00BF7808000078C80720FCC2072055
:1003300004C3072008C30720F8C2072000C3072012
:100340000CC3072000207047034A044B1A60044A7C
:10035000044B1A60704700BF0080001004C30720E0
:100360000040082008C30720014B1860704700BFF9
:1003700018C30720014B1860704700BF10C3072047
:1003800008B5024810F0AEFDFEE700BF245D020094
:1003900008B5024810F0A6FDFEE700BF3E5D020072
:1003A0000020704701207047F8B5084B16461A68C0
:1003B0000F461C4642B10D46EB1B9E4204DD2368EE
:1003C00015F8010B9847F7E73046F8BD18C307202A
:1003D000F8B5094B0F46186816461C4658B10D462D
:1003E000EB1B9E4205DD23680020984705F8010BB2
:1003F000F6E726EAE670F8BD10C307207047002034
:100400007047FFFF074B1B689A68824207D05A6803
:10041000824204D0DB681B1A5842584170470120C1
:10042000704700BF3CC10720002070470020704784
:1004300030B504468DB0A8B3684609F043FA9DF87C
:100440000030002503F03F0303939DF8013003A81B
:1004500003F03F0304939DF802300B9503F01F0354
:1004600005939DF8043003F01F0306939DF80530B3
:1004700003F00F03013B0793BDF80630C3F30B03F2
:10048000A3F26C7308939DF8033003F007030993FC
:10049000BDF80830C3F30B03013B0A930FF008FCCF
:1004A00084E8210000200DB030BDFFFF70B50F4D76
:1004B0000F4E2C6814F0010415D128460CF084F975
:1004C00088B14FF40E70FFF7DBFE302380F8353231
:1004D0003A2380F8344280F8363280F83742306070
:1004E00028460CF07DF9306870BD00BF34C307208A
:1004F00038C3072070B50F4D0F4E2B6813F0010461
:1005000016D128460CF060F990B14FF40E70FFF749
:10051000B7FE012380F83432312380F835323A2394
:1005200080F8363280F83742306028460CF058F9AF
:10053000306870BD2CC3072030C307202DE9F04F71
:10054000ADF51B7D0F4608F07FFC041E04DD0BF0AB
:10055000BBF820460AF0FEFD0DF114094C462A4D69
:100560004FF0640B0FCD0FC42B6804AA2360102139
:1005700000240AA804940AF0ABFF244A82462449C6
:10058000384609F02FFC26460AAD4FF00008D0454A
:100590001CD06B69A34215D1AA69049B16441BB1F8
:1005A000B3FBFBF3B2FBF3F3297B039202932B8C97
:1005B00000949B00019359F821306A681549384628
:1005C00009F010FC08F101082435E0E701340A2C99
:1005D000DAD1049B64229E1BB3FBF2F30E49B6FBF7
:1005E000F3F30E4A0096384609F0FCFB0AF086FC4D
:1005F000102804D910220A49384609F0F3FB0120DB
:100600000DF51B7DBDE8F08F585D0200775D02009F
:100610007C5D0200A35D0200CB5D0200C05D0200B4
:10062000EA5D020010B50C46ADF5007D68460BF0A2
:1006300075FB20464FF0FF32694609F09DFB012013
:100640000DF5007D10BDFFFF30B50C4691B02C4973
:10065000054608F005FB002847D00CAB04930BAB14
:1006600003930AAB029309AB019308AB009306AA6C
:1006700007AB2449284608F05BFA072801D0002080
:100680003BE09DF83930069A0DA862F303038DF81C
:100690003930079A9DF8383062F304038DF838300A
:1006A000089ABDF83A3062F30B03ADF83A30099A74
:1006B0009DF8363062F304038DF836300A9A9DF8BF
:1006C000353062F305038DF835300B9A9DF83430E0
:1006D00062F305038DF834300C9A9DF8373062F3DD
:1006E00002038DF8373009F015F909F0AFF9064922
:1006F0000246204609F076FB012011B030BD00BF54
:10070000145E0200185E0200267E0200F7B50D4658
:100710004E49044608F094FB064640B107F008FE37
:100720004FF0FF324A49284609F026FB8BE0494941
:10073000204608F085FB60B307F01EFE46490246DE
:10074000284609F04FFB07F023FE4449024628469D
:1007500009F048FB07F016FE41490246284609F019
:1007600041FB304607F0FEFD0446012007F0FAFD8C
:100770000646022007F0F6FD0746032007F0F2FDCB
:1007800000970190334622463649284609F02AFB55
:1007900059E03549204608F063FA50B12022012182
:1007A000204608F0FBFA204608F04CFB07F008FF53
:1007B00049E02E49204608F053FA064620B92C4954
:1007C000204608F04DFA60B32A49204608F036FA70
:1007D00060B92949204608F031FA28B9204627494E
:1007E00008F02CFA044602E0032400E0022431461B
:1007F000204607F03DFE224A224B002E18BF1A4623
:100800003CB1012C07D01C491A4B022C18BF0B46D7
:1008100002E01D4B00E0194B1C49284609F0E2FAA2
:1008200011E0204608F00EFB194A1A490090F32304
:10083000012007F02BFE204608F004FB1649024673
:10084000284609F0CFFA012003B0F0BD535E020044
:10085000595E0200725E0200795E02008E5E020046
:10086000A35E0200C25E0200F25E0200F65E0200BB
:10087000FE5E02004E5E0200485E02004270020010
:10088000395E0200315E0200425E0200075F020034
:100890006C5D0200205F0200535F020030B589B03A
:1008A00004AB002400930D4603AB022218490394C5
:1008B000049408F04BF9022827D107AB009305AA4E
:1008C00006AB0499039805940694079404F03CFA47
:1008D000024638B1049B0F4900932846039B09F058
:1008E00081FA10E0059A069B002A079908BF0122A9
:1008F000002B08BF0123B1FBF3F3B1FBF2F2284652
:10090000054909F06FFA012000E0204609B030BD2A
:10091000E26F0200615F0200805F02002DE9F04794
:100920000E46ADF5856D3949054608F023FA38497C
:100930000746284608F047FA3549284608F063FA82
:10094000284608F07FFA0122014681A806F046FAFF
:10095000044640B1284608F075FA2E490246304652
:1009600009F040FA4CE00DF1040A01464FF4007220
:1009700050460FF0B8F800940BF0BAF9804689465B
:100980006B464FF40072514681A806F0C1FA08B9CF
:10099000009B23BB81A806F08AFCCFB10BF0A8F91D
:1009A0004FF47A7200230EF06FFC002305464FF4DB
:1009B0007A72404649460EF067FC281A14BF034677
:1009C0000123B4FBF3F322461349304609F00AFA37
:1009D0004FF0FF321149304609F0CEF910E01C44C7
:1009E000002FCDD13D46009B9D42C9D233681AF8F5
:1009F00005105B684FF0FF32304698470135F2E74B
:100A000001200DF5856DBDE8F08700BFAE5F0200E7
:100A1000E26F0200B75F0200CB5F0200596502007F
:100A20002DE9F0470023BEB00C46534905460C9310
:100A300008F006FA20B9284608F004FA064600E055
:100A40004E4E314615A806F0EBFC054630B1034684
:100A500032464B49204609F0C5F989E032464949FA
:100A6000204609F0BFF92F460DF1780880230DA923
:100A700015A8CDF84C80149306F016FD002861D11E
:100A80009DF83D30002B5DD09DF83C100DF13D00F0
:100A9000CA065BBF0D9B0C9A44229B185BBF0C934C
:100AA0002D220135013711F0010F14BF52232D23E0
:100AB000BDF83AA011F0020F09900D9814BF4FF045
:100AC000480E4FF02D0E11F0040F14BF4FF0530CD1
:100AD0004FF02D0C089011F0200FCAF34510BDF80F
:100AE000381007904FEAEA20069001F01F000590A9
:100AF000C1F343104FEA612114BF4FF041094FF099
:100B00002D0901F2BC71CDF804C0CDF800E00490CD
:100B10000391CDF808901C49204609F063F94FF085
:100B2000FF321A49204609F013F941464FF0FF32CF
:100B3000204609F00DF94FF0FF320F49204609F029
:100B40001BF991E73A46124900950C9B204609F0A3
:100B500049F90BAA0CA9304606F0D5FC40B90B9B0D
:100B60000C499A780C9B20465A43520809F03AF9EE
:100B700001203EB0BDE8F08759650200E65F020043
:100B8000E95F02000D60020028600200556002006B
:100B9000596002008360020070B50C46064608F0FA
:100BA00051F90546304608F04DF906F06EFD064A4B
:100BB000064B0749002808BF13462A46204609F07D
:100BC00011F9012070BD00BF3962020043620200CA
:100BD0009760020070B50C46064608F033F90546EA
:100BE000304608F02FF906F0F3FC064A064B074999
:100BF000002808BF13462A46204609F0F3F80120D2
:100C000070BD00BF3962020043620200B36002009F
:100C10007FB503AB002400930E4602AB02220F49BE
:100C20000294039407F092FF022814D1029C039DC2
:100C30002046294606F0D2FD094B0A4922460028E3
:100C40000CBF084618462B4600900749304609F06D
:100C5000C9F8012000E0204604B070BDE26F020038
:100C60004362020039620200C560020030B5ADF592
:100C70000D7D0C46054608F0E5F80A22014603A85A
:100C800006F0ACF840B1284608F0DCF81F490246EF
:100C9000204609F0A7F834E08DF8070002901C49BF
:100CA00042F210737E22204609F09CF81949204632
:100CB00009F098F8236842F210721B680DF10701E1
:100CC0002046984718B19DF807307E2B03D103A822
:100CD00006F0EDFA15E002AB01220DF1070103A8C1
:100CE00006F0CEF958B9029B012B08D123684FF0CA
:100CF000FF325B689DF8071020469847DAE70649FF
:100D0000D5E701200DF50D7D30BD00BFDD6002008F
:100D1000046102003C6102005C6102002DE9F04FB9
:100D2000ADF5417D002304AC236003930D46009490
:100D300003AB0222414907F009FF022806D04FF019
:100D4000FF323F49284609F017F872E0216817A8DA
:100D500006F066FB10B122683A4906E0039917A82D
:100D600006F05EFB28B1039A3749284609F03AF8A5
:100D70005FE04FF480720DEB020105A807F0A8FEBA
:100D80004FF4807280A90AA807F0A2FE20AE802747
:100D90000FA917A81596169706F086FB002842D1D2
:100DA0009DF84530002B3ED09DF8443003F01003F1
:100DB00003F0FF0A002BEBD10DF14503039A234901
:100DC00005A808F089F80DF1450322681F490AA813
:100DD00008F082F805A808F035F807460AA808F0D8
:100DE00031F8804605A8DDF83C9008F02BF88346E2
:100DF0000AA808F027F8534652460146CDF800A04D
:100E0000584603F0A1FF124A124BCDF8009000287B
:100E10000CBF184610461049019043463A462846F2
:100E200008F0E0FFB3E70AA807F067FE05A807F09F
:100E300064FE01200DF5417DBDE8F08FE26F0200F8
:100E400083610200C8610200ED6102000D620200D0
:100E5000436202003962020013620200F8B50D46D7
:100E60002449064607F0ECFF0446074618B1FFF791
:100E700041FB002208E02049304607F0E1FF04462C
:100E800060B1FFF713FB3A46114600F2352006F039
:100E900035FD4FF0FF32194B194922E01949304610
:100EA00007F0CEFF044658B1FFF724FB012200F201
:100EB000352105F055FF4FF0FF32134B134910E079
:100EC0001349304607F0BCFF044680B1FFF7EEFA45
:100ED000012200F2352105F043FF0E4B0E494FF081
:100EE000FF32002818BF1946284608F045FF204663
:100EF000F8BD00BF9A620200A46202003C620200D8
:100F000032620200B16202005962020049620200CC
:100F1000BA6202007E6202007062020008B50846F2
:100F20004FF0FF32084908F027FF07F001FA4FF4AD
:100F3000FA600AF00FF94FF08043AA221A720022D9
:100F40001A70012008BD00BFC662020010B5012062
:100F50000C4607F0B1FD40B100231A46194609F0CE
:100F60000BFC4FF0FF32054902E005494FF0FF321C
:100F7000204608F001FF012010BD00BFD76202002B
:100F8000ED62020038B5064C236833B91C20FFF728
:100F900077F9054608F09EFB2560206838BD00BF44
:100FA00024C307202DE9F04F5F4C91B023680E4613
:100FB00033B92C20FFF764F9054608F01FFE2560C1
:100FC0002768FFF773FA00240CAA0DA900F2352058
:100FD0000D9406F098FA48B90C9A0D9C956993788F
:100FE000023D5C435D4364086D0800E025464F4BBD
:100FF0001A6898467AB90C20FFF742F98146FFF744
:10100000C1FF902389F804300023C9F80000C9F813
:101010000830C8F80090D8F8000003F083FE81463D
:101020000EF0ECF80A900DF0CFFE014648460DF0A8
:1010300015FE3F490DF01CFF0EF0E0F881460DA8AB
:101040000AF0CAFC04F0C4FD68B308F079FD04F0AE
:10105000A9FD4FF0000A0346D346D0469A450B93AC
:101060000BD0504604F002FE804538BFD3460B9BA0
:1010700038BF80460AF1010AF0E708F079FD6423E1
:1010800003FB08F32B4ACDF80880B3FBF2F3C3F15E
:1010900064030093CDF804B02B462246264930461F
:1010A00008F0A0FE05E02B4622462449304608F011
:1010B00099FE234C23681BB90120FFF7E1F820605B
:1010C000206803F0F4FD044608F0C0FCFB8C0A9A8B
:1010D0000993BB8C1B4908939DF83430019003F0B1
:1010E0003F0307939DF83530009403F03F030693C8
:1010F0009DF83630304603F01F030593BDF83A30B3
:10110000C3F30B0304939DF8383003F01F030393DC
:101110009DF8393003F00F0302934B4608F062FE4E
:10112000012011B0BDE8F08F28C307201CC30720A1
:1011300000002041A0860100266302005A630200DD
:1011400020C30720686302002DE9F04F0D46C7B0A9
:101150005549814607F09BFD54498246484607F0B1
:1011600096FD53498346484607F091FD00270DF14F
:10117000100805AE044602970397C8F80070376060
:10118000BAF1000F45D0009603AB02AA4949484680
:1011900007F0CEFC012807DC28464FF0FF32464915
:1011A00008F0EAFD38467CE00DF118084FF4807431
:1011B0002246394640460EF096FC336813B90123A7
:1011C000336003E0B3F5807F88BF3460FFF7DAFE59
:1011D00033689DF80C209DF808100093434608F0F2
:1011E000C7FE364A364B3749002818BF1346029AC5
:1011F000284608F0F7FD002433689C424ED2039A3B
:1012000018F8043022443049284608F0EBFD013438
:10121000F2E7BBF1000F2CD0CDF8008003AB02AA9F
:101220002A49484607F084FC032807D028464FF097
:10123000FF32274908F0A0FD504632E0FFF7A2FE3A
:1012400098F800309DF80C209DF8081008F0A5FED5
:1012500048B1039B1F490093D8F80020029B284601
:1012600008F0C0FD1AE0029A1B49284608F0BAFDB2
:1012700014E0A8B102230293029BFE2B10DCFFF7BF
:1012800081FE9DF8081008F093FE20B1029A1349E0
:10129000284608F0A7FD029B0233ECE7012000E09E
:1012A000204647B0BDE8F08F01710200D163020013
:1012B000D7630200E0630200EF63020039620200BC
:1012C00043620200106402003464020044640200BD
:1012D000546402007B64020095640200B264020060
:1012E00070B5ADF50A7D05460C4607F018FC0B28D5
:1012F00002DD0C2222493CE0284607F0A3FD012232
:10130000014601A805F06AFD064668BB01A805F084
:10131000CEFF284607F096FD1A490246049B204658
:1013200008F060FD236820469B6898470A2009F072
:1013300011FF4FF0100383F31188BFF36F8FBFF3DA
:101340004F8F284607F07EFD02460F4B006851681C
:1013500003C390680D4A186043F80C2C4FF080438B
:10136000AA221A721E7007E0284607F06BFD02469B
:101370000749204608F036FD01200DF50A7D70BDB5
:10138000EC64020013650200484002400DD0ADDE5F
:101390005A6502002DE9F041404CA4B0236806468E
:1013A000DB070D460CD420460BF00EFA40B14FF48B
:1013B00080600EF033FB3A4B186020460BF010FAB9
:1013C0003849304607F063FC0746044600B38022E4
:1013D000002104A80EF087FB00230293039303ABC4
:1013E000009304AA02AB3049304607F0A1FB2C4918
:1013F000029B039A096804A813B903F041FD01E0B8
:1014000003F060FD294B2A49002818BF194638E02F
:101410002849304607F03BFC074600283AD004AB89
:10142000304603AA2449039404948DF8084007F039
:101430007FFB039E049B3344B3F5806F02DCDFF82F
:1014400060800CE04FF480621C4920E0D8F8003046
:101450009DF808209A559DF8083001361C44039BDE
:10146000049AF31A934210DAB6F5806F0DDA2B68FE
:101470004FF4FA621B6802A9284698470028E5D174
:101480000F49284608F0AEFC04E022460D492846E4
:1014900008F0A8FC384624B0BDE8F08140C307201E
:1014A0003CC30720856502008C650200736502005D
:1014B0006F6502009C650200A3650200AD65020035
:1014C000D1650200E165020038B50D4607F0BCFCAD
:1014D0000446C0B202F06EFB054A064B06490028DE
:1014E00018BF13462246284608F07CFC012038BD70
:1014F00039620200F2650200F965020030B50C465F
:10150000054687B00A4908F06DFCA188238804913C
:10151000218962880391E18828460291E17A01914C
:10152000A17A0091034908F05DFC07B030BD00BF0F
:1015300010660200466602002DE9F0418CB003AB54
:10154000002600930D46904602AB022238490296CF
:10155000039607F0FBFAB04266DD02980EF02EF813
:10156000C7B2039818B10FF0BFFFC4B200E0044641
:10157000002104A803F0BEF930B14FF0FF322D492D
:10158000284608F0F9FBF3E7022318F10001009365
:10159000039A234618BF0121384602F04FFC064645
:1015A00038B94FF0FF322449284608F0E5FB012600
:1015B0003AE0B8F1000F37D04FF47A7104A803F085
:1015C000A1F960B39DF81030BB4228D19DF81730C7
:1015D0000C2B04D13A4606A92846FFF78FFFBCB969
:1015E0001649284608F0FEFB9DF817309C420ADA9F
:1015F00004AB19192B684FF0FF325B68097A284653
:1016000098470134F0E70E49284608F0EBFB0BE061
:101610004FF0FF320B49284608F0AEFB04E0029A77
:101620000949284608F0DEFB30460CB0BDE8F081E1
:10163000E26F02006466020086660200AE66020087
:10164000DB6C0200C2660200DF6602001FB501A863
:101650000C4602F0D1FD02F0B9FA01A9024620467B
:10166000FFF74CFF012004B010BDFFFF30B58BB079
:101670000AAA4FF47A730C4642F8243D174907F042
:1016800057FA0025019902A803F034F9D8B19DF862
:1016900008201349204608F0A5FB00259DF80F30CF
:1016A0009D420ADA02AB591923684FF0FF325B689A
:1016B000097A204698470135F0E70A49204608F0A4
:1016C00091FB0125DEE72DB94FF0FF320649204698
:1016D00008F052FB01200BB030BD00BFAA6502002C
:1016E00005670200586502001C67020037B50C460A
:1016F00002F0E6FB05461649204608F073FB154943
:101700002A46204608F06EFB1149204608F06AFB85
:10171000D5B11149204608F065FB0D49204608F077
:1017200061FB0025E8B202F0B5FB013540B18178DC
:101730004378027800912046084908F053FBF1E70E
:101740000349204608F04EFB012003B030BD00BF26
:101750002D67020048670200626702007D67020091
:101760002DE9F3473C4C074626688946002E62D196
:101770002420FEF785FD0423054680E848008660A6
:10178000C660202130460FF017FCAE68E8604FEAD3
:101790008608072E0ED81020FEF772FD8246102212
:1017A00000210EF0A0F9EB68013643F808A008F11B
:1017B0000408EEE7002608236B604FF00108274B72
:1017C000274A28492846009685F82080256006F09B
:1017D00021FB254B254A26492068009606F01AFB76
:1017E000244B254A25492068009606F013FB244B1C
:1017F000244A25492068009606F00CFB234B244A16
:1018000024492068009606F005FB234B234A24490F
:101810002068CDF8008006F0FDFA224B224A2049CC
:101820002068009606F0F6FA0096204B204A2149DF
:10183000206806F0EFFA2049384607F001FB18B19E
:101840001E49384607F0B6FB4A463946206802B0C2
:10185000BDE8F04706F0BEBB48C30720986702000A
:10186000D26702000D1B0100D96702002D6802003B
:10187000E118010036680200596802006D16010087
:101880005C680200BB6D0200C9140100866802009A
:10189000A2680200ED160100A968020010690200AA
:1018A00039150100EA6802000F690200146902009C
:1018B0002F6902004D1601005965020035690200CA
:1018C00038B5064C236833B95820FEF7D9FC0546D5
:1018D00007F0D8FF2560206838BD00BF44C307204B
:1018E0002DE9F04F0446ADF2DC5D802288460DA85C
:1018F00000210EF0F8F8802200212DA80EF0F3F858
:1019000006AE002333600DAA00962DAB7549204624
:1019100007F00EF9032801D00020DFE001220DA915
:10192000EDA805F05BFA05460028F5D1FFF7C8FFE2
:101930003368802280F853304DA9044608A88DF8FA
:101940001750079507F0C4F82DAB009333680DAA24
:101950006549404608F046FAA94607AE33464FF4BB
:1019600000726DA9EDA805F0D3FA002840F0AF8011
:101970003368002B00F0AB806F1C32685B49204657
:1019800008F030FA236820469B6898477D1E0DF5C5
:10199000DA7B4FF0000A6DAB3268C3EB0B039A425F
:1019A00023680CD9CDF80CB05B684FF0FF321BF800
:1019B000011B20469847039B1B789A44EBE79B68E2
:1019C0002046984708A807F03DFA834608A807F084
:1019D000A9F84FF47A7302465946204608F0DAF91E
:1019E000202201210DEB020007F0D8F908A807F02A
:1019F0002BFA824520D008A807F026FA5246034663
:101A00003B49404608F0EEF93A49204608F0EAF929
:101A1000236820469B68984723684FF47A721B68B6
:101A20000DF11701204698470028F5D1022F07F144
:101A300001034CD81F46A0E733682DAA2E49009316
:101A400020464B4608F0CEF9236820469B6898470D
:101A500008A807F0F7F9824608A807F063F851468E
:101A600002464FF47A73204608F094F9234908A8F7
:101A700007F0E4F8D0B908A807F0E4F920490246D5
:101A8000404608F0AFF91B49204608F0ABF923683F
:101A900020469B68984723684FF47A721B680DF1C3
:101AA0001701204698470028F5D1BFE7154908A837
:101AB00007F080FA3368144999444A46F09B40463F
:101AC00008F090F9002D3FF448AFBD1E45E7EDA8A2
:101AD00005F0EDFB08A807F010F801200DF2DC5D21
:101AE000BDE8F08F3A6902004969020060690200AE
:101AF000726902005865020099690200AF6902002C
:101B0000B269020059650200EA6902002DE9F04756
:101B1000074686B006AA002442F80C4D0E463D4901
:101B200007F006F820220121384607F037F9039B19
:101B3000002B65D0384606F0F2FF002860D0FFF792
:101B4000BFFE05460DF1180808F80D4D2B6805225B
:101B50001B6841462846984704460028F6D1039B57
:101B6000384685F8533007F06DF9274601464FF0A7
:101B7000FF32284608F000F92B6828469B689847F2
:101B8000254B0DF11809186849F8044D04902B688D
:101B90004FF47A721B68414628469847D0B1032219
:101BA0000DF1150148460DF083FF9DF80BA00422AE
:101BB00004A948468DF817A00DF060FF50B13368B6
:101BC00001225B6851463046013798470028DED134
:101BD0000134DCE71822B7FBF2F302FB137202B107
:101BE00001333A460D49304608F0FCF874B16123E0
:101BF000009322460A4B0B49304608F0F3F805E003
:101C00004FF0FF320849304608F0B6F8012006B020
:101C1000BDE8F087AA650200EE650200F6690200E1
:101C20001D6A0200596A0200126B020001480FF09F
:101C300059B900BF3E6B020038B504460D460AF0A4
:101C4000D1F9074BB0FBF3F00223B0FBF3F2AA4249
:101C500004D9B3F5807F01D00233F6E7236138BDA4
:101C600040420F007FB500F235260C460122314676
:101C700005F076F8054648BB039002AA03A9304652
:101C800005F041FC00BB0298039A837802FB03F144
:101C900082691348023A5A435208B2F5004F38BFDE
:101CA0000120104B4FEA510124BF03464FF48060DE
:101CB000B1FBF0F1B2FBF0F20091019321460A482A
:101CC0000FF09EF8012008E0084B00E0084B2A4680
:101CD000214608480FF094F8002004B070BD00BF02
:101CE0007C6B0200796B0200866B0200826B020043
:101CF0007F6B0200B46B020038B5074C23684BB908
:101D00000820FEF7BDFA0546FFF73CF9402328609E
:101D10002B712560206838BD54C3072038B5054CA9
:101D2000256825B90120FEF7ABFA05702060206810
:101D300038BD00BF50C3072038B5084C23685BB9D5
:101D40000C20FEF79DFA0546FFF71CF990232B7136
:101D500000232860AB602560206838BD1CC30720C5
:101D600010B5044C23681BB90120FEF789FA2060E6
:101D7000206810BD20C3072010B5044C23681BB990
:101D80000120FEF77DFA2060206810BD4CC30720BB
:101D9000AD49AE4A4023F0B58B614FF000739361BB
:101DA0004FF480338B61AA4BADF5057D186807258C
:101DB00020F0F00018601868022440F0500018600D
:101DC000186820F440501860086840F0400008602F
:101DD000186820F47C201860186840F428201860E7
:101DE000186820F470001860186840F4200018602B
:101DF000186820F040401860186840F000401860F3
:101E0000586820F03C005860586840F0280058603E
:101E1000586820F003005860086840F4803008607B
:101E2000586820F440505860086820F4800008602A
:101E3000D96821F44031D960116841F08071116096
:101E4000596821F440215960596841F48021596052
:101E50009868804901409960116841F4897141F0A6
:101E600001011160996821F470119960996821F05D
:101E700070419960116821F446411160D96821F0E0
:101E80003001D960D96841F03001D960D96821F4B6
:101E90007011D960136843F000731360136823F066
:101EA0008063136007F0E4F801210A2009F0BAFE0C
:101EB00001210A2009F0CEFE674801210560446037
:101EC000FFF7BAFE07F0CCFD0121152009F0AAFEAC
:101ED0000121152009F0BEFE604801210560446023
:101EE000FFF7AAFEFFF74EF8642107F0BFFB10B919
:101EF0005B480EF0F7FF09F0D1FE02F0D5FC10B9F7
:101F000058480EF0EFFF4FF4FA6007F06AF8FFF759
:101F10008DFE0AF067F80CF053FF53490DF05CF8A2
:101F20000CF0FCFA02460B4650480EF069FF09F02F
:101F30004DFD052804AC14D1002363604C4B1B6895
:101F40002360FFF773FE4B4B4B48D96C1A6D5B6DEA
:101F500000940EF055FFFFF769FE41F2883007F05C
:101F600040F8FEF7A3FA4549FFF77CFE054668BB3B
:101F700043480EF045FF03F0A3FEFEF797FA29460B
:101F80002A4600F2352005F0B9FC3E4B3E4A0028B7
:101F90000CBF104618460EF0A5FFFEF787FA37492A
:101FA000FFF760FE90B939480EF09CFF03F00AFE7F
:101FB000014637480EF024FF03F0F4FD054603F018
:101FC00001FE00FB05F133480EF01AFF324E334F8D
:101FD000336813F0010516D130460AF0F5FB90B1D5
:101FE0004FF40E70FEF74CF9012380F834323123A0
:101FF00080F835323A2380F8363280F8375238602C
:1020000030460AF0EDFB26493868264DFFF72AFED8
:1020100018211148FFF710FEFFF708FE2B684BB997
:102020000820FEF72DF90646FEF7ACFF3823306096
:1020300033712E60286802F015FD0546B0BB1A48C2
:102040000EF050FF33E000BF00C0092020C009207F
:1020500000C00240F0FCFCFF00000340008008408C
:10206000F86B0200296C0200002474494E6C0200D7
:102070004440024000400240666C0200DE6C0200F8
:10208000E66C0200EC6B0200E76B0200236D0200BD
:10209000426D0200516D02002CC3072030C307209F
:1020A000686202005CC307206C6D02000125FFF727
:1020B00043FE02F00DFE064618B972480EF012FFFC
:1020C0003546FFF719FE02F04FFD064618B96E4877
:1020D0000EF008FF35466D4E33681BB90120FEF740
:1020E000CFF83060306802F00DFDFFF739FE02F0E6
:1020F000DCFDFFF713FE02F07BFDFFF73DFE02F073
:10210000D9FDFFF70BFE002102F074FD8DB9FFF73A
:102110008DFDFFF7F1FD2D2102F00EFDFFF7ECFD27
:102120002D2102F015FDFFF7F9FDFF2102F062FD00
:102130000CE0FFF7E1FD0546FFF7FEFD02F0F2FDC2
:102140000DF082F8C1B2284602F035FD10220021C0
:1021500020460DF0C8FC00230F2221464C4802F017
:102160006DFE80B920460DF029FAC5B2284601F06F
:1021700021FD484A484B2946002818BF1346444AC7
:1021800046480EF03DFEFFF7EBFD02F090FD0546E0
:10219000002010F045F928440EF0ACFE4FF4007218
:1021A000002120460DF09FFC204609F0B7FD214696
:1021B0003B480EF025FEFFF739FD80220021204626
:1021C0000DF091FC204603F0D9FC2278FF2A04D0C0
:1021D000214634480EF014FE29E0FFF7CDFD02F051
:1021E0006BFD09281DD130480EF07CFE21462F489A
:1021F0000EF08CFF21462E480EF002FE2D480EF008
:1022000071FE002303A92C4803930EF07FFF9DF875
:102210000C30592B03D1204603F08EFC07E02748F1
:1022200003E027480EF05EFE26480EF05BFE4FF2FC
:1022300008031D684FF20C031C684FF210031E6860
:102240004FF470431A684FF20403AD0A1968A40AE8
:102250001D480EF0D5FD2A4621461C480EF0D0FD43
:1022600031461B480EF0CCFDFFF7E0FC012006F0E4
:1022700095F818480EF036FEFFF7D8FC0DF5057DF1
:10228000F0BD00BF876D0200A16D020058C307209A
:10229000BA6D0200F26B0200F2650200C06D02002E
:1022A000267E0200F46D0200106E0200326E020003
:1022B000376E0200526E0200956E0200996E0200A7
:1022C000B16E0200DF6E0200116F02003D6F02006E
:1022D0006A6F0200876F020001207047012070477B
:1022E0000120704710B5044C23681BB90120FDF78D
:1022F000C7FF2060206810BD58C307200120704729
:1023000038B504460F4B00250360636DE06DAB42AA
:1023100005D950F82500FDF7B5FF0135F5E708B1FF
:10232000FDF7B2FF0025A36B206CAB4205D950F836
:102330002500FDF7A7FF0135F5E708B1FDF7A4FF7C
:10234000204638BDC06F020010B50446FFF7D8FF25
:102350002046FDF797FF204610BD2DE9F0410446C9
:102360000E46C06889000EF027FEA568E060AF0049
:102370004FF00008AE420DD90C20FDF781FFE36855
:10238000C0F80080C0F8048080F808800135D8517A
:102390000437EFE76660BDE8F081FFFFF7B504465C
:1023A00000250B464FF480520095254906F06AFB44
:1023B000244B042623606663A563E563256402213C
:1023C00004F13400FFF7C9FF26656565A565E5657D
:1023D000284660210EF0F0FDA56DE065AE00172DDA
:1023E0000CD81020FDF74CFF0746102200210DF0FD
:1023F0007AFBE36D01359F510436F0E718236365DE
:10240000012384F87030104E0023A4F87430A4F82F
:102410007630A367002200230027C4E92023C4E903
:10242000226709F065FC4FF47A7200230CF02CFF50
:1024300080197941C4E92001204603B0F0BD00BFF6
:10244000D86F0200C06F0200C0D401002DE9F04136
:102450000F7A14464D680E688FB1082A23D128469A
:1024600006F05DFB00281CDD4FF0FF3213493046BB
:1024700007F06EFC0121284606F050FC08E00A2A0D
:1024800019D00D2A12D02146284606F068FD97B1D2
:10249000336821463046BDE8F0415B684FF0FF32BB
:1024A00018470724F4E70A2A02D1F1E7BDE8F081D2
:1024B0000D2AEDD0E7E7BDE8F08100BFE16F020033
:1024C000F8B50446142015460F46FDF7D9FE8021C5
:1024D000064606F0F4FCA36BE26B9A4206D3616BEE
:1024E000591803D204F13400FFF737FFE36B226C75
:1024F000591C52F82330E1631F605E601D72F8BD05
:102500002DE9FF47CF6B06460D4601AC3FB94FF4AE
:102510007A7008F01FFE01976760A76047E00B6CB8
:102520000DF110081B6893E8070084E807000023FA
:1025300008F80D3D08F0D6FC81460027EB6B9F4262
:1025400063D22B6C4FEA870A53F827301868037C54
:10255000002B34D0036800221B684146984770B3B3
:10256000EB6B9F422DD22B6C53F80A3093E8070097
:1025700084E807009DF8032021462846FFF766FF00
:1025800009F0B6FB4FF47A7200230CF07DFED5E91A
:10259000222380185941C5E92001029806F0BFFAAC
:1025A0000746029806F0BEFA013887420CDB94E831
:1025B000070086E80700304604B0BDE8F087013721
:1025C000BCE705F14403D1E7D5E92223134324D026
:1025D00009F08EFB4FF47A7200230CF055FED5E91A
:1025E0002023994208BF904217D309F081FB4FF492
:1025F0007A7200230CF048FED5E922238018594155
:102600000023C5E920010193D1E708F06BFC814567
:10261000C3D1022008F09EFDBFE79DF803300A2BCE
:1026200088D1C4E7F0B5054685B020480EF0E8FB38
:10263000294601A8FFF764FF019C1CB91C480EF055
:1026400051FC30E0029E304606F069FA00282ADD8F
:1026500009F04EFB0746F8B1B5F8743005F15000AB
:102660000133A5F874302246314605F0B3FC114B16
:1026700000251868009023681DF805105B684FF06E
:10268000FF32204601359847042DF4D109F030FB84
:10269000C11B09480EF0B4FB304606F045FA23682A
:1026A00020469B689847012005B0F0BDE46F02000A
:1026B00059650200B46F0200EA6F020038B5064C9B
:1026C000236833B92C20FDF7DBFD054607F096FAA9
:1026D0002560206838BD00BF28C3072010B5044618
:1026E000FFF7ECFF03682146BDE810405B684FF040
:1026F000FF32184713B5002302AC04F8013DFFF781
:10270000DDFF03684FF0FF321B68214698479DF8B4
:10271000070002B010BDFFFF2DE9F04100F15004A9
:102720008AB000250646009520465B4B5B4A5C4913
:1027300005F070FB009520465A4B5B4A5B4905F05B
:1027400069FB009520465A4B5A4A5B4905F062FBEB
:1027500000952046594B5A4A5A4905F05BFB0095B3
:102760002046594B594A5A4905F054FB00952046DA
:10277000584B594A594905F04DFB00952046584B96
:10278000584A594905F046FB00952046574B584A90
:10279000584905F03FFB00952046574B574A58498A
:1027A00005F038FB00952046564B574A574905F02F
:1027B00031FB00952046564B564A574905F02AFBF7
:1027C00000952046554B564A564905F023FB009587
:1027D0002046554B554A564905F01CFB00952046AE
:1027E000544B554A554905F015FB00952046544B6E
:1027F000544A554905F00EFB00952046534B544A68
:10280000544905F007FB00952046534B534A544961
:1028100005F000FB00952046524B534A534905F002
:10282000F9FA00952046524B524A534905F0F2FA04
:102830000095524B524A5349204605F0EBFAFFF7F8
:102840003DFF4FF4807320224FF41641054607F0F8
:10285000B5F9804601272F744B48FDF78BFD4B4897
:10286000FDF782FD3A4629463046FFF729FE082249
:1028700003A905A806F02CF905A8454906F09AFB1E
:102880002A4605A9204605F0A5FB05A806F035F95E
:1028900040460AB0BDE8F0810070020042700200BC
:1028A0003D05010037700200477002002506010057
:1028B0004F7002005D700200A50F010064700200FD
:1028C000A570020049060100AA700200067102000C
:1028D0001D0901000A710200987102009D080100A3
:1028E0004C710200977102001D0D01009B710200E6
:1028F000C9710200210A0100CC710200F1710200CD
:10290000990B0100F771020024720200110C010002
:1029100027720200C98A02006D0C01004C7202008D
:102920006F720200D50B0100727202004573020043
:1029300049110100497302008C7302005D0E010011
:1029400094730200A77302001D0F0100AE73020012
:10295000AD7402000D070100B1740200D9740200C9
:102960004D0F0100DF740200456C02006117010089
:1029700009750200FD75020095130100C67502007D
:10298000AB620200E1120100F5260100DD26010024
:102990003569020008B5044802F00AF800F0E8FCC6
:1029A00000F0F6F9012008BD60C307200120704740
:1029B00008B500F015FC00F0BDF900F06BFBBDE8B8
:1029C000084000F04BBB08B500F0E0FC00F080FBD5
:1029D00000F0ECFCBDE8084000F092BA00F0F4B959
:1029E0007047FFFF10B5064C3D21204601F0B8FFAF
:1029F0002046BDE81040034A0349FDF7A3BC00BFD1
:102A000060C3072014C30720154A01007047FFF771
:102A1000C1BFFFF7CBBF10B50446FDF733FC20461E
:102A200010BDFFFF70B50B4E05010B4B741953F829
:102A30002010201D08F062FBE368A0689847A36897
:102A400070590133A36000231A46BDE8704019464F
:102A500007F092BEE8C30720D476020008B5002034
:102A6000FFF7E0FFFBE708B50120FFF7DBFFFBE71F
:102A700008B50220FFF7D6FFFBE708B50320FFF7F4
:102A8000D1FFFBE7F7B507460D462D4A00240D237D
:102A900012682C49009405F0F5FF2B4B87F8315054
:102AA0003B602A4D2A4B0322EB602A4B2146EB6107
:102AB000294B0120EB62294BEB6307F03BFE03221D
:102AC00028602146012007F035FE032228612146B7
:102AD000012007F02FFE224B28621E680523C6F353
:102AE0008F060093324623461E4901941E4808F083
:102AF000B3F806230093324623461C4901941C4830
:102B000008F0AAF807230093019423463246194996
:102B1000194808F0A1F897F8313073B10322214623
:102B2000012007F007FE0823286332460093019432
:102B300023461249124808F08FF8384603B0F0BD1A
:102B40002476020038760200EC760200E8C3072003
:102B5000B1290100C7290100DD290100E129010097
:102B6000207602003F7602005D2A010043760200D3
:102B7000672A010048760200712A01004E760200A1
:102B80007B2A010038B517480C46415C002301310F
:102B9000C9B2914202D00155184638BD124D0355B5
:102BA000200128581A46194607F0ECFE0546B0B930
:102BB0000E4B53F8244020460EF094F920460EF0B8
:102BC00093FC2B4602462146094802F07BF9094A4C
:102BD000094B9A644FF08043AA221A721D7001209B
:102BE00038BD00BF28C40720E8C3072028760200AC
:102BF00055760200EFBEADDE00400240044608B547
:102C0000012008F0A7FA94F8313023B10122032102
:102C10002046FFF7B7FF0A2202212046FFF7B2FF46
:102C20000028EDD00A2201212046FFF7ABFF002843
:102C3000E6D00A2200212046FFF7A4FFE0E7FFFFCD
:102C400007B5002302AA22F8043D02231946C0203A
:102C500000F0DEFA70B19DF805309DF8040003EB3A
:102C600000200BF049FC0022044B0BF0D5FD0BF0CB
:102C7000A1FF00E0002003B05DF804FB0000244049
:102C800007B5124B00211A889B78ADF804208DF807
:102C9000063001AA0123C02000F0C9FA1E2006F068
:102CA000A0F90DF1050201230021C02000F0BFFAB8
:102CB0001E2006F096F901230DF106020021C02026
:102CC00000F0B5FA03B05DF804FB00BF0477020022
:102CD00007B5F82302AA02F8043D00210123C02011
:102CE00000F0A5FA03B05DF804FB13B5202302AC95
:102CF00004F8043D224601230021C02000F097FA89
:102D00001E2006F06EF92A2322468DF80430002199
:102D10000123C02000F08BFA1E2006F062F9602328
:102D20008DF80430224601230021C02000F07FFAF4
:102D300002B010BD08B500F0B6FA0138072825D852
:102D4000DFE800F0040C24142424241C012108468C
:102D500000F07CFABDE80840FFF792BF0121022095
:102D600000F074FABDE80840FFF7B2BF012103206C
:102D700000F06CFABDE80840FFF7B7BF012104205E
:102D800000F064FABDE80840FFF75ABF08BDFFFF36
:102D900013B564230024019400941A461946204672
:102DA00006F05AFA28B106F0D1FB204606F0C2FB25
:102DB0000120034B1A7860F300021A7002B010BDB4
:102DC0003CC40720FFFFFFFF30B585B000F0DAFC00
:102DD000044600F0DDFC0021054620460CF0DCF93D
:102DE0003F4A137810B143F0180303E060F3041373
:102DF00060F3C30313700021102268460CF073FEC9
:102E0000384920460CF0D2F930B9374920460CF049
:102E1000EBF910B1344C00E0324C20460BF07EFB55
:102E20000022324B0BF01CFA2BA3D3E900230BF04A
:102E3000F3FC2F4B00220BF013FA0BF09BFE20F05B
:102E40007040030A8DF808008DF80930040E030C59
:102E5000284928468DF80A300CF0A8F930B92649DF
:102E600028460CF0C1F910B1234D00E0214D284651
:102E70000BF054FB0022214B0BF0F2F916A3D3E91F
:102E800000230BF0C9FC0022194B0BF0E9F90BF001
:102E900071FE20F060431A098DF80C201A0B8DF892
:102EA0000D201A0D1B0F8DF80F306C2301939DF828
:102EB00002308DF80E20082262F3030344EA00106A
:102EC00000228DF80B00694610468DF8023006F09E
:102ED000DFFA05B030BD00BF8DEDB5A0F7C6B03E3E
:102EE0003CC407200000B4C20000B4420080564039
:102EF0000000E03F000034C300003443008066401F
:102F0000F0B585B01022002168460CF0ECFDFFF70B
:102F100097FE4D4F4D4E05463968306800F0D4FAA3
:102F20000021044628460CF037F9494B1A7810B1B5
:102F300042F0200201E060F34512396830681A70EF
:102F400000F072FB00230646002120468DF80F306A
:102F50008DF80E300CF02AF900B1002420460BF059
:102F6000DDFA33A3D3E900230BF0BCFD00B1394CEB
:102F700020460BF0D3FA30A3D3E900230BF04CFC2E
:102F80000022354B0BF06CF90BF0F4FDC0F30B0095
:102F90008DF80800040A002128460CF007F900B15A
:102FA000002528460BF0BAFA21A3D3E900230BF041
:102FB00099FD00B1274D28460BF0B0FA1EA3D3E9C6
:102FC00000230BF029FC0022234B0BF049F90BF0F6
:102FD000D1FD44EA001400098DF80A0030468DF84E
:102FE00009400BF09BFA16A3D3E900230BF014FC65
:102FF0000022194B0BF034F90BF0BCFDC0F31000AC
:10300000030A8DF80C306D2301939DF802300822DD
:1030100062F303038DF80B000022000C8DF80D0005
:10302000694610468DF8023006F032FA05B0F0BD60
:1030300066666666667E76409A9999999999B93FCF
:103040007B14AE47E17A843F2CC4072038C40720A4
:103050003CC4072033F3B3430000E03F1FB5102208
:10306000002168460CF03FFD094B00221B786946A1
:1030700003F03F038DF808307623019310460123B7
:103080008DF8023006F004FA05B05DF804FB00BFCD
:103090003CC407201FB51022002168460CF023FD18
:1030A0007122019200220123694610468DF80830F2
:1030B0008DF8023006F0ECF9044A137860F341030E
:1030C000C3F34000137005B05DF804FB3CC4072057
:1030D00030B585B000226946104606F085F9002813
:1030E0006BD0019A9DF802306B2A03F00F0317D0C2
:1030F0006E2AEFD1012B344B09D11A789DF80810B4
:1031000061F300021A705A686FF35F025A6019780F
:10311000042011F0010118BF012100F097F8D9E750
:10312000082B2A4C42D19DF80A209DF80B509DF89F
:10313000093012049DF8081042EA032328060B43C5
:1031400000F0706018430BF0C7F91DA3D3E900230A
:103150000BF038FA00221E4B0BF080F80BF02AFD22
:103160009DF80C3020601B019DF80D0043EA1513FB
:1031700043EA00339DF80E0043EA00539DF80F0028
:10318000000700F0805018430BF0A6F90CA3D3E918
:1031900000230BF017FA0F4B00220BF05FF80BF037
:1031A00009FDA36860606FF35F03A36022680A4BA8
:1031B0001A606268094B1A608CE705B030BD00BF29
:1031C0008DEDB5A0F7C6B03E30C4072040C407203F
:1031D000008056400080664038C407202CC4072079
:1031E00008B5002006F046F9084B1A7848B142F0BD
:1031F000040200201A7006F09DF9BDE8084006F0B0
:10320000A5B960F382021A7008BD00BF3CC4072054
:10321000F7B50D4616461F460446FDF7B3FE009768
:1032200033462A46214606F0A3FE03B0F0BDF7B5AB
:103230000D4616461F460446FDF7A4FE009733468A
:103240002A46214606F0A5FE03B0F0BDF8B5084CAD
:10325000064625680F4625B90120FDF711F80570CF
:1032600020603A4631462068BDE8F84001F018BDBC
:1032700050C3072010B50446FEF73EFD2146BDE8C9
:10328000104001F059BC10B50446FEF735FD21464B
:10329000BDE8104001F05CBC08B5FEF72DFDBDE8AF
:1032A000084001F07DBC08B5FEF766FDBDE80840AA
:1032B00001F002BD2DE9F0410A4C054623680E4697
:1032C00017463BB92C20FCF7DBFF804606F0EAFCF2
:1032D000C4F800803B46324629462068BDE8F041EC
:1032E00006F0C0BC4CC4072038B5064C236833B97F
:1032F0002C20FCF7C5FF054606F0D4FC25602068AD
:1033000038BD00BF4CC4072038B50D460446FFF752
:10331000EBFF2A462146BDE8384006F02DBD70B5CA
:103320000D4616460446FFF7DFFF33462A46214680
:10333000BDE8704006F02EBD08B51E210848FFF715
:10334000E3FF0A210748FFF7DFFF0A210648FFF7DE
:10335000DBFFBDE808400A210448FFF7D5BF00BFE6
:1033600007770200197702004B7702005B770200B3
:1033700008B5FFF791FF3C2278214FF46140FFF739
:1033800099FFBDE80840FFF7D7BFFFFF08B532221D
:1033900078210548FFF7C3FF28B1BDE808400121A7
:1033A0000220FFF753BF08BD6CC307202DE9F04191
:1033B0003F4C86B006223F4920460CF05FFB3E4F53
:1033C00005463E4E002865D1A37C412B62D1A37FE8
:1033D0004E2B5FD194F82B30572B5BD13020FFF769
:1033E00049FF4620FFF74FFF22466B4652F8140F65
:1033F000ADF808505168127A03C354F8200F1A70C0
:10340000616803ABCDF8135003C3228968461A8064
:103410000CF0D1F80BF0CEFB294980460BF0DCFD17
:103420000BF0ECFE6425044668430BF0CDFC01462E
:1034300040460BF013FC23490BF0CEFD804620469E
:103440000BF0C2FC014640460BF00AFC386003A8B2
:103450000CF0B1F80BF0AEFB194907460BF0BCFDC0
:103460000BF0CCFE044668430BF0AEFC0146384638
:103470000BF0F4FB13490BF0AFFD054620460BF0B3
:10348000A3FC014628460BF0EBFB00F10040306046
:10349000012009E03020FFF7EDFE3020FFF7F3FEBA
:1034A00000233B603360002006B0BDE8F08100BF20
:1034B0006CC3072073770200E4C3072068C30720AA
:1034C0000000C842000070422DE9F04F0E4685B062
:1034D000002104460BF060FE30B1002130460BF0B5
:1034E0005BFE002840F08E8020460BF017F848A3C2
:1034F000D3E900230BF066F80022474B0BF08CF960
:103500008046894609F084F9444B04460D4630460E
:1035100019680BF0A3FB0BF001F83DA3D3E90023DE
:103520000BF050F800223C4B0BF076F9CDE902018C
:1035300009F0B6F93A4BCDE9000118680AF0EEFF40
:1035400033A3D3E900230BF03DF80022324B0BF0FC
:1035500063F982468B4609F05BF906460F46404602
:10356000494609F09DF9804689465046594609F07A
:1035700097F982468B46DDE9020109F049F9424696
:10358000CDE902014B46304639460BF01BF8524656
:1035900006460F465B46204629460BF013F8DDE948
:1035A00002230BF00FF802460B46304639460AF06C
:1035B00055FE0BF0FFFA0AF0B1FFDDE900230646E5
:1035C0000F46204629460AF0FDFF0BF0F3FA0AF0F9
:1035D000A5FF32463B4609F0ABF900220E4B0AF03C
:1035E000F1FF0BA3D3E900230BF016F90BF0E2FA7D
:1035F000002104460BF0DAFD30B10A4920460BF0F9
:103600002FFB02E0002000E0204605B0BDE8F08F6F
:103610006E861BF0F92109400080664068C30720D0
:10362000E4C307200000B4432DE9F84F504B0D468A
:103630001C68064621460BF011FB0AF06FFF0022C2
:103640004C4B0AF0BFFF44A3D3E900230AF0BAFFB2
:1036500009F026F9824630468B460AF05FFF40A308
:10366000D3E900230AF0AEFF0022434B0BF0D4F85D
:1036700009F0CEF8064620460F460AF04FFF38A361
:10368000D3E900230AF09EFF00223B4B0BF0C4F865
:1036900009F0BEF8394B80468946284619680BF078
:1036A000DDFA0AF03BFF0022324B0AF08BFF2AA31F
:1036B000D3E900230AF086FF09F0F2F802460B4630
:1036C0000AF080FF424604460D464B4630463946D6
:1036D0000AF078FF02460B46204629460AF072FFA0
:1036E000524604460D465B46504659460AF06AFF6C
:1036F00002460B46204629460AF0B2FD0BF05AFA64
:1037000006460AF00BFF09F015F904460D464FF086
:103710007E5031460BF0A2FA0AF000FF09F00AF9D8
:1037200002460B462046294609F002F902460B469E
:103730000AF096FD0BF03EFA0AF0F0FE0AA3D3E978
:1037400000230AF03FFF00220D4B0AF03BFF0BF075
:1037500031FABDE8F88F00BF70E20DA545DF913F5B
:103760006E861BF0F92109400000000000E3B8401C
:10377000E4C307200000E03F0080664068C30720E4
:1037800000408F40014B1868704700BFE4C307201A
:10379000014B1868704700BF68C3072010B5902020
:1037A000FCF76EFD04460321FEF7F8FD204605F008
:1037B0003BF93420FCF764FD04460021FFF762F971
:1037C000204605F031F90021084605F03BF94FF09D
:1037D000FF3010BD10B54FF6FF74242303FB010129
:1037E000884209D043782BB1038C1344A34228BFED
:1037F000234603842430F3E710BDFFFF37B50023D1
:1038000002A840F8043D0C4B04215B6898470B4B21
:10381000019A1C680546141B1A60042122460848B8
:10382000FFF7D8FF224602210648FFF7D3FF281CE6
:1038300018BF012003B030BD50C4072020C50720A9
:1038400064C407203DC5072008B50B4B19780378E1
:103850008B420A4B0BBF1A889A880132013214BF7F
:103860009A801A80064B8170DB68202198470030CF
:1038700018BF012008BD00BF05C00720F5C4072000
:1038800050C407200A4B02781B789A42094B0BBFA1
:10389000DA881A89013201320CBFDA801A81037981
:1038A000C3F3C202073262F3C5030371FFF7CCBF53
:1038B00005C00720F5C4072010B50749002311F8FB
:1038C00023409A00844202D10348104410BD0133C2
:1038D000042BF4D1002010BD0FC5072070B1C378B0
:1038E0000133DBB2FF2BC37008D105480023C11898
:1038F000CA7804335208102BCA70F8D1704700BF41
:103900000FC50720242202FB01010346024630B501
:10391000914206D01446243212F8235C002DF7D1D0
:103920000FE00446002599420BD01A79C2F3C20079
:103930001A8C42EA0042AA4284BF1C461546243330
:10394000F1E7204630BDFFFF38B50546C90001F15B
:103950000804FFF753FF1C4B2A781B789A4204D1C6
:1039600002211A48FFF7CEFF0CE004211848FFF7A8
:10397000C9FFEB7833B990F82330042443F0800377
:1039800080F82330002380F8203080F82130024670
:103990002B4690F8231080F8224021F07F01C4F3D9
:1039A00006240C4380F8234005F1200153F8044B12
:1039B0008B4242F8044BF9D1064A0379127862F33C
:1039C000C503037138BD00BF05C007203DC50720F2
:1039D00064C4072004C0072008B5FFF76DFF034645
:1039E000D8B9FFF769FF0346B8B90D4AD378D17942
:1039F000D07A8B4296BF1946131D1346814294BF5D
:103A00000846084BD17B084A814238BF1346074914
:103A100000221A60CA7A0132CA72184608BD00BF75
:103A20000FC5072017C507201BC50720F5C40720B1
:103A30002DE9F84F05460C464FF0240909FB021901
:103A4000DFF868A1DFF868B14E1C4FF000084C4564
:103A500000F09A8094F823301A0624D5B5B12A785C
:103A600061788A4205D16F7816F8010C874200F020
:103A70008D80E87850B16878884207D116F8011C2B
:103A8000914203D1A979A27991427FD094F8222062
:103A9000218C03F07F0342EA0323994271DB204625
:103AA000FFF7D2FE72E06278002A6AD06DB32979FE
:103AB00001F0C001C02917D116F8010C69788842BD
:103AC00002D12878904261D0E778A87887420CD15B
:103AD00091420AD116F8010C2978884205D1A079C3
:103AE000A979884201D151E079B1A878E17888427A
:103AF0000BD16978914208D116F8010C29788842D7
:103B000003D1A079A979884246D094F82210208C5C
:103B100003F07F0341EA0323984232DB237984F8E0
:103B20002080C3F3C201CFB284F821801FB12046A8
:103B3000FFF7A8FE25E003F0C003C02B19D016F84C
:103B4000010C9AF80030984213D1E3789A4210D0D1
:103B50007BB16379032262F307136371E17020463E
:103B6000FFF790FE23799BF8002062F3C5032371D1
:103B700000E001276078FFF79FFE08B1C0F80080E1
:103B800027B92434243662E7BDE8F88F24220021C7
:103B900020460BF0A8FFF4E7237984F820806FF328
:103BA000C50384F821802371EBE700BF05C007201F
:103BB00004C00720431EDBB2FD2B9DBF024B1870D3
:103BC00001200020704700BF05C00720014B187876
:103BD000704700BF05C0072007289CBF014B187025
:103BE000704700BF04C007202DE9F7430446914603
:103BF0001E469DF828500F46002966D0364B93F894
:103C00000080414563D00F2E61D8002861D020226A
:103C100000210BF068FFFF2F237914BF09F0030286
:103C2000002262F38713032262F302032B4A6770B8
:103C3000127884F8008062F3C503294A237113784F
:103C400084F802800133DBB21370A3710BAB0193D4
:103C500015B94FF001081BE004F10809019AE07959
:103C60001346526853F8081B00EB02085FFA88F805
:103C7000013DB8F1180F0193EDB207D848440BF09D
:103C80000CFF84F80780002DE8D1E2E74FF0000830
:103C9000DFF850900123384689F80030FFF70CFE1A
:103CA0000546FFF71BFE002389F80030637925B92C
:103CB00066F307136371E57005E0AA7862F30713F2
:103CC00063716B78E370404603E0084601E0002032
:103CD000FFE703B0BDE8F08305C0072004C007205C
:103CE000F4C4072001C50720124B012270B51A70D9
:103CF00004461E4608B9002518E0FFF7A5FD054655
:103D00000028F8D0237903F0C003402B06D0C02B45
:103D10000AD1E37853B162789A4207D0617920469C
:103D20000909FFF711FE01E0802BF7D00023337063
:103D3000284670BD01C5072082B02DE9F0439146A9
:103D4000421ED2B28DB0FD2A05460E4615939DF84F
:103D5000688001D9002057E0002BFBD0179F002F6F
:103D6000F8D0199B002BF5D0189B002BF2D0169B96
:103D7000002BEFD04822002126480BF0B4FE902201
:103D8000002125480BF0AFFE1022002123480BF044
:103D9000AAFE234B00241C605C609C60214B1C60CD
:103DA0005C609C60204B1D70204B214D1E7015AE39
:103DB0000FCE0FC53368182221461E482B600BF02A
:103DC00092FE494617221B480DF0D4FB214620469F
:103DD000B8470028BED0B8F1000F02D1FFF70EFDA2
:103DE00012E006230293144B224601930123009311
:103DF000FF2104A8FFF7F8FE0028ABD004A8FFF7C6
:103E000073FF0028A6D0E9E70DB0BDE8F04302B08B
:103E1000704700BF3DC5072064C407200FC50720B9
:103E200003C50720F5C4072005C0072002C50720E9
:103E300050C4072024C507207A77020030B5182B1C
:103E40008DB016D8B2FA82F41D1C18BF0125640982
:103E5000AC420ED00293019200950A469DF8403084
:103E6000014604A8FFF7C0FE18B104A8FFF73CFF05
:103E700000E000200DB030BD13B5537914781B0954
:103E8000009302460B4620460321FFF7D7FF02B0FE
:103E900010BDFFFF00231A4630B5084C14F823501C
:103EA000990035B1904202D10448084430BD013236
:103EB000D2B20133042BF1D1002030BD0FC5072051
:103EC00000231846044A12F8231009B10130C0B289
:103ED0000133042BF7D170470FC507202DE9F041BE
:103EE00088B02022002168460BF0FDFDA14B1B7815
:103EF00003F0FF04002B40F039819F4F20213B69E4
:103F000068469847002800F084809C4D6B880133F8
:103F10006B80FFF7D5FF9DF80420A87202F007031D
:103F2000032B04D0964A137843F0010309E0954B24
:103F30001D789DF80230AB4205D1914A137843F0C9
:103F400002031370E4E0C2F3C2029DF800E09DF8A2
:103F500006008D49D6B204EB440313F801C0F445C2
:103F60000BD10B4493F801C0844506D19978012404
:103F70008E1B18BF01269A7018E00134042CEAD178
:103F800082490B689A70804A587002F10900834296
:103F900083F800E040F0C9800A609DF800009DF8B9
:103FA0000230834240F0C480002426469DF802007F
:103FB000FFF712FD9DF8022002709DF8022042706A
:103FC00000228270FFF78AFC04B116B39DF800301E
:103FD000AB4200F09C809DF80160FF2E1BD13B6836
:103FE00020216846984720B9654A137843F00403B6
:103FF00013709DF8053003F00F02511C61F30303A9
:104000008DF80530C3F303139A4202DA6846FFF7CE
:104010001BFC00247CE0B5422BD164B99DF807302D
:104020004BB13B6820216846984720B9544A137821
:1040300043F0040313709DF8043003F0C003402BD9
:1040400012D19DF807306A4613B91821504808E08C
:104050000C214A48FFF710FF002858D100216A467A
:104060000846FFF709FF52E09DF80330002B4ED1C0
:10407000F4E7484B1B78002BCBD09DF8054004F0AB
:104080000F074FEA14184745C3DA013767F30304F3
:104090003046FFF711FC8DF805409DF80340A5421E
:1040A00021D19DF8041001F0C001402906D0A1F1F2
:1040B00080035A425A41144610B90CE0012260B103
:1040C000C029437805D19E4203D0003318BF012395
:1040D00004E0002302E0C0290ED10346134303F09D
:1040E000010420B908E094B908B941460CE04378CE
:1040F0008DF80330857802E000258DF8035068467E
:10410000FFF7A2FB1CB129466846FFF71DFC6C4671
:10411000FFF774FB204604221F49FFF789FC0222A7
:104120001E492046FFF784FC20E003330B6034E790
:1041300085423FF439AFFFF74FFC0446FFF7CEFB53
:1041400023783BB19DF80530A27803F00F0393422A
:104150003FF72AAF9DF8003023709DF8023063705E
:104160009DF80530C3F30303A3701DE708B0BDE855
:10417000F08100BF01C5072050C40720F5C4072007
:104180003CC5072005C0072003C5072000C0072045
:1041900024C5072002C5072064C407203DC50720A9
:1041A00000231846094AD118497809B10130C0B234
:1041B0002433902BF7D1064B5A780AB10130C0B2A4
:1041C00093F825300BB10130C0B2704764C40720AA
:1041D0003DC5072008B5FFF76FFB064B28B1827875
:1041E000187802FB0000C00008BD18781823584357
:1041F00008BD00BF04C0072003490B6803604B687B
:1042000043608B6883607047F5C4072070B53E4CEF
:104210004FF48035E5613D4CA0602046C5683B4CBD
:10422000ED06FBD4A0680D46C0B20BB923465FE093
:104230002346002A63D0072A0E782DDD9E604E7833
:10424000083A9E608E789E60CE789E600E799E6061
:104250004E799E608E799E6001F10806C979996059
:1042600099694907FCD5A1682970A1686970A1689E
:10427000A970A168E970D968C906FCD4A16808359D
:1042800005F8041CA16805F8031CA16805F8021CC8
:10429000A16805F8011C1AE0032A1ADD9E604E7819
:1042A000043A9E608E789E600E1DC9789960D96828
:1042B000C906FCD4A168043505F8041CA16805F8FA
:1042C000031CA16805F8021CA16805F8011C314611
:1042D000AFE701319E60013ADE68F606FCD4A668BD
:1042E000013505F8016CA4E7E668F606FCD4A6687B
:1042F0006E1AB24203DD15F8016B9E60F4E7024BC3
:104300004FF480329A6170BD00C0092000800840DF
:1043100007B5002302A901F8013D01231A4600F068
:104320001F00FFF773FF9DF8070003B05DF804FB63
:1043300013B502AC04F8011D00F01F000023012298
:10434000214640F02000FFF761FF02B010BD08B524
:104350001720FFF7DDFFC0F3001008BD7021072014
:10436000FFF7E6BF0A4600230146A020FFF74EBF35
:1043700008B50020FFF7CCFFBDE8084000F0FE01C3
:104380000020FFF7D5BFFFFF024B4FF08072DA61CC
:10439000704700BF20C0092008B50020FFF7B8FF14
:1043A00040F00101C9B20020FFF7C2FF024B4FF0FD
:1043B00080729A6108BD00BF20C00920202107201B
:1043C000FFF7B6BF00231A461946E120FFF71EBFCC
:1043D00037B504460D46FFF7F5FF20462946FFF79F
:1043E000C1FF0D4B4FF080721C469A610022ADF860
:1043F0000620BDF8063001339BB2ADF8063033B964
:104400004FF08073E361FFF7DDFF03B030BDFFF7CE
:104410009EFF0028EDD0F3E720C0092008B5172043
:10442000FFF776FF00F0010080F0010008BD402199
:104430000720FFF77DBF08B50A460123014661202A
:10444000FFF7E4FEC0F3420008BD00231A461946F8
:10445000E220FFF7DBBE70B5064600200D4614468D
:10446000FFF756FF16B100F0BF0002E040F0400039
:10447000C0B215B100F0DF0101E040F0200114B13D
:1044800001F0EF0101E041F010010020BDE87040B3
:10449000FFF74EBF10B504460020FFF739FF14B9EF
:1044A00000F0F7010DE0012C04D100F0FB0141F018
:1044B000080106E0022C14BF40F0080140F00C0196
:1044C000C9B20020BDE81040FFF732BF08B5002098
:1044D000FFF71EFFBDE8084040F00201C9B200200E
:1044E000FFF726BF08B50020FFF712FFBDE8084020
:1044F00000F0FD010020FFF71BBF40F6DD139842DE
:1045000006D840F66213B0F5166F38BF184600E0C3
:104510001846A0F51661C9B20520FFF709BF10B50E
:1045200004460620FFF7F4FEFA2C00F0D70102D172
:1045300041F0200104E0B4F5FA6F08BF41F0080132
:104540000620BDE81040FFF7F3BE10B50446062074
:10455000FFF7DEFE032C28BF032420F0060040EA0C
:104560004401C9B20620BDE81040FFF7E1BEF928BA
:104570004FF0FA0305D9B0F57A6F88BF4FF47A602F
:1045800000E01846B0FBF3F00F2900F1FF30C0B295
:1045900028BF0F2141EA0011C9B20420FFF7C8BEAD
:1045A0001130C0B2162804D8202928BF2021FFF7D7
:1045B000BFBE7047032804D0042814BF0321022182
:1045C00000E001210320FFF7B3BE0A4600230146A5
:1045D0003020FFF71BBE0A46002301462A20FFF7C2
:1045E00015BEFFFF73B50E4615460446FFF72DFFB7
:1045F000FFF7E8FE2B4B4FF08072DA61FFF772FF96
:10460000002211460120FFF726FFFFF7A7FE022038
:10461000FFF740FF3046FFF770FF2846FFF77FFFA8
:104620000320FFF792FF03210220FFF781FE002104
:104630000120FFF77DFE03214FF4FA70FFF797FF8B
:1046400021460020FFF7ACFF00211220FFF770FE8B
:1046500000211320FFF76CFE00211420FFF768FEF5
:1046600000211520FFF764FE00211620FFF760FEF1
:104670000D4B18681B79009005208DF80430FFF76A
:1046800099FF68460521FFF7A0FF05216846FFF75F
:10469000A2FFFFF71BFF4FF4FA6004F08DFC02B09D
:1046A00070BD00BF20C009208177020070B5174E91
:1046B000326822B92021032006F03CF83060144D06
:1046C0002A6822B92021012006F034F82860114C14
:1046D000216821B90322012006F02CF820604FF454
:1046E000FA6240F6C3112020FFF77CFFFFF754FE6B
:1046F0001620094A012104F0A1FF306828B128687A
:1047000018B12068003018BF012070BD8CC507208B
:1047100088C5072090C50720C547010070B50379FB
:10472000014603F0C003C02B0CBF0E4B0E4B88B0EC
:104730001D68002306461A46284606F01DF8044662
:1047400060B9034602466946284606F01BF923462F
:1047500022463146284606F00FF80446204608B0A7
:1047600070BD00BF88C507208CC5072038B504463A
:104770000D46FFF72BFA237883420AD0E37843B93A
:104780000CF0E0FBBD2300F0030000FB033004F05D
:1047900013FCFFF7F9FDFFF7EBFDA9B22046FFF789
:1047A00017FEFFF70BFEFFF7F7FD06F0EFFE0228FE
:1047B00004D1034B0021186806F0B2F8012038BD7F
:1047C00090C5072007B5002302A941F8043D084B16
:1047D000186806F0A5F8019B3BB1064B4FF08052DC
:1047E0001A60BFF34F8FBFF36F8F03B05DF804FB08
:1047F00090C5072004ED00E038B504460D46FFF7EC
:104800000DFE48B1A9B22046FFF715FEFFF706FEE0
:1048100008B9FFF70CFE012038BD2DE970430546AD
:104820000E46144606F0B2FE022807D122460023A7
:104830003146284606F0A6F8C4B21DE007F058FA43
:104840004FF47A7200230AF01FFD10EB040841F1C7
:10485000000900231A463146284606F093F8C4B2F0
:1048600054B907F045FA4FF47A7200230AF00CFDB0
:10487000894508BF8045ECD22046BDE870830429F5
:1048800038B5054603D1041C18BF012400E00024FC
:1048900007F02EFA2CB14FF47A7200230AF0F4FCE0
:1048A0002860204638BDFFFF00B50C4B8DB0099342
:1048B0000B4B0C4A0B930C4B0A930CAB43F8102D8B
:1048C000002204920FCB8DE80F00084B084A01210B
:1048D0006A20FFF731FA0DB05DF804FBAD46010028
:1048E000F94701007F4801006D4701001D470100A5
:1048F00086770200024B0A4601461868FFF78DBF13
:104900008CC50720024B0A4601461868FFF785BF91
:1049100088C5072008B506F039FE0F4B02285B69F1
:1049200013D15A020DD5FFF73BFC00280B484FF07E
:10493000000314BF01224FF0FF321946006806F051
:1049400021F8BDE80840FFF7C9BA5B02F9D5FFF7C7
:1049500027FC0028F5D108BD00C0092090C507201C
:10496000F0B5864687B0114F4C1101F01F0501AE1E
:10497000457004700FCF0FC670463B68032133604B
:1049800006AB03EB840353F8143C6D00CEF80430FF
:10499000E30003F1804303F530331A6801FA05F5AB
:1049A00022EA05051D6007B0F0BD00BF8C7702004C
:1049B000416840780A680123834022EA03030B60C0
:1049C0007047FFFF30B543780578064C5B0054F81C
:1049D0003520032101FA03F322EA030344F83530BA
:1049E00030BD00BF40C0024010B5094A0478012321
:1049F000407821B152F8241083400B4304E052F870
:104A00002410834021EA030342F8243010BD00BF84
:104A100068C0024010B50446FFF7CAFF00212046D7
:104A2000FFF7E2FF2046FFF7CDFF204610BD1346FB
:104A30000A460179006805F0B0BA1FB5002204AB40
:104A4000047923F8042D0222009200680A462146C8
:104A500005F08EFA9DF80C009DF80D3043EA002019
:104A600004B010BD10B5044619222A21FFF7DFFF5C
:104A70000D222179206805F07FFAA0F12A0358421F
:104A8000584110BD044A13881F2B9FBF581C10802B
:104A9000024A42F82310704798C507209CC507209A
:104AA000154AF0B513881646012B21D9134A002068
:104AB0001546013B984206DA516814680130091B1B
:104AC00042F8041BF6E700210C466A684FF0010E1D
:104AD00002EB52008AB2934208DD55F82270013190
:104AE000B8423CBF0EFA02F21443F3E7044B1C60D9
:104AF00000233380F0BD00BF98C507209CC5072068
:104B000094C5072008B50121022007F08BF8084B57
:104B100001209A6A22F007029A629A6A42F006021B
:104B20009A62044AD36843F03003D36008BD00BFE3
:104B30000080004000C0024008B5044B417101F004
:104B40007F015A5C0321FFF772FF08BDA0770200C6
:104B500008B5044B817101F07F015A5C0221FFF717
:104B600066FF08BDA077020038B5044601790068E9
:104B700005F01EFA054688B1002206212046FFF7FF
:104B800056FF002207212046FFF751FF2E21204625
:104B9000FFF7D2FF2E212046FFF7DAFF284638BD67
:104BA00010B504462021FFF7C7FF2046BDE810409E
:104BB0002021FFF7CDBF642370B5B1FBF3F404FBF4
:104BC0001311CCB20A21B4FBF1F501FB15413031D0
:104BD000C9B20646FFF7BCFF092C88BF05F13001BA
:104BE0003046BDE8704094BF2021C9B2FFF7A4BF92
:104BF0000120704738B50D46044606F0FDFD05F06E
:104C00000F032370114B15F0010F4FF0010214BF79
:104C1000DA619A61227812F0020F4FF0020214BF9B
:104C2000DA619A61227812F0040F4FF0100214BF7B
:104C3000DA619A61227812F0080F4FF4807214BF83
:104C4000DA619A61BDE8384006F0E6BD20C009206F
:104C500038B50D46044606F0CFFD691E012303FA60
:104C600001F1237820461943C9B22170FFF7C2FF32
:104C7000BDE8384006F0D0BD38B50D46044606F014
:104C8000BBFD691E012303FA01F12378204623EAC4
:104C900001012170FFF7AEFFBDE8384006F0BCBD52
:104CA0000AB1FFF7D5BFFFF7E7BF01207047022029
:104CB00004F018BA01207047044B5B69180B00F030
:104CC0000C00C3F341231843704700BF20C00920E4
:104CD00010B5044681220121FFF7A9FE01222179A6
:104CE000206805F049F910F0600F14BF0120002082
:104CF00010BD38B500210446FFF79FFE812205B2A2
:104D000001212046FFF793FE102095FBF0F00AF0FA
:104D10005BF84FF076510AF0ABF8A16809F0A0FFFC
:104D200038BDFFFF08B5FFF7E4FF05490AF0A0F81A
:104D300004490AF051F94FF0844109F091FF08BD90
:104D4000000010410000A0402DE9F04FADF2546D7D
:104D50000C4690460146012282A8994602F03EF890
:104D6000002867D121460A220DF22C4002F036F8C5
:104D7000044620B182A802F09AFA20465AE06D4615
:104D8000064607462860019006F0B2FF4FF47A729B
:104D900000230AF079FA2B4683464FF4007202A9E9
:104DA00082A802F0B5F88246E0B92A68D2B106F0CE
:104DB0009FFF4FF47A7200230AF066FAB0EB0B0003
:104DC000074406F095FF4FF47A7200230AF05CFA6C
:104DD00001AB83462A6802A90DF22C4002F050F97B
:104DE0008246B0B1B8F1000F01D0C8F80070B9F137
:104DF000000F01D0C9F80060DDF8783603B11C60FF
:104E000082A802F054FA0DF22C4002F050FA5046FB
:104E100010E001992A689142E4D106F069FF00236D
:104E20004FF47A720AF030FA2B68B0EB0B000644AC
:104E30001C44A9E70DF2546DBDE8F08FF0B5ADF557
:104E40000B7D0E46174601461D460122002301A890
:104E5000009301F0C3FF044670B91DB1294601A8B3
:104E600002F037FA6B463A46314601A802F050F894
:104E7000044601A802F01BFA20460DF50B7DF0BD9B
:104E8000F0B5ADF50B7D0E46174601461D460A22CC
:104E9000002301A8009301F0A1FF044670B91DB1E1
:104EA000294601A802F015FA6B463A46314601A898
:104EB00002F0E6F8044601A802F0F9F920460DF5E3
:104EC0000B7DF0BDF0B5ADF50B7D0E4617460146E6
:104ED0001D461222002301A8009301F07FFF044623
:104EE00080B90DB1294600E0049901A802F0F1F95A
:104EF0006B463A46314601A802F0C2F8044601A8C2
:104F000002F0D5F920460DF50B7DF0BD7F2810B5D8
:104F100016D931B1FF2812D80A4B803833F8100067
:104F200010BD084A32F811408BB2844203D00131DF
:104F30008029F7D10B4603F18000C0B210BD0020DC
:104F400010BD00BF207802000649002331F813206D
:104F500032B1824201D00133F8E7034A32F813003C
:104F6000704700BF20790200007B020010B50120CD
:104F70000C4605F085FC2060003018BF012010BDF4
:104F80000120704710B5044606F000FB02280AD144
:104F9000002319464FF0FF32204605F0F3FC431E74
:104FA0005842584110BD012010BD10B5044606F00E
:104FB000EDFA022807D100232046BDE810401A462A
:104FC000194605F0D9BB10BD10B5044604F0B8FD74
:104FD00024B1012C06D100F081F901E000F002FDBE
:104FE000044600E0042404F0C3FD204610BD28B1AF
:104FF000012801D00420704700F028BA7047F8B5A6
:1050000007460C4615461E4604F09AFD3FB1012F97
:105010000CD132462946204600F020FA04E0324600
:105020002946204600F02AFD044600E0042404F04E
:105030009FFD2046F8BDF8B507460C4615461E46AE
:1050400004F07EFD3FB1012F0CD1324629462046A7
:1050500000F050FA04E032462946204600F030FDC8
:10506000044600E0042404F083FD2046F8BD70B53A
:1050700006460C46154604F063FD36B1012E0AD1F2
:105080002946204600F090FA03E02946204600F029
:1050900037FD044600E0042404F06AFD204670BD9C
:1050A00008B506F025FE4FF47A7200230AF0ECF8FA
:1050B00008BDFFFF10B5044606F094FF074BB0FB98
:1050C000F3F00223B0FBF3F2944202D3044A1361DB
:1050D00010BDB3F5807FF9D00233F3E740420F00F3
:1050E00000000340044B9860DA68D206FCD4024BFF
:1050F0009868C0B2704700BF0000034070B5FFF76A
:10510000CFFF00F5FA74FF20FFF7ECFF0025FF202A
:10511000FFF7E8FFFF28064605D0FFF7C1FFA942C9
:1051200008BFA042F3D3304670BDFFFF38B5064C30
:105130004FF00075E561FFF7E1FF044AA5611378C0
:1051400043F00103137038BD20C0092006C00720BA
:105150002DE9704306460D46FFF7A2FF64308046F6
:105160004FF00009FF20FFF7BDFFFF2808D1FFF730
:1051700097FF494508BF4045F4D30020BDE8708340
:10518000FE28FAD1102D06D900224FF400713046C6
:1051900004F074FC19E0341D0435FF20FFF7A2FF72
:1051A00004F8040CFF20FFF79DFF04F8030CFF2018
:1051B000FFF798FF04F8020CFF20FFF793FF043479
:1051C00004F8050C2B1BDE42E7D1FF20FFF78AFF16
:1051D000FF20FFF787FF0120BDE8708370B506460A
:1051E0000D46FFF78BFFFF28044619D12846FFF72D
:1051F00079FFFD2D16D022464FF40071304604F0A1
:105200003DFC2046FFF76EFF2046FFF76BFF204670
:10521000FFF768FF00F01F00431F5842584170BD60
:10522000002070BD012070BD020638B504460D4651
:1052300007D500217720FFF7F7FF012838D804F0C1
:105240007F041C4B4FF000729A61DA61FFF756FF42
:10525000FF28014628D12046FFF744FF280EFFF71C
:1052600041FFC5F30740FFF73DFFC5F30720FFF7F8
:1052700039FFE8B2FFF736FF402C17D0482C14BF97
:1052800001208720FFF72EFF4C2C02D10846FFF7A4
:1052900029FF0A21FF20FFF725FF030608D5013962
:1052A00011F0FF01F6D138BDFF2038BD9520EEE7A3
:1052B00038BD00BF20C00920064A07491378496954
:1052C000DBB2490154BF03F0FD0343F00303137045
:1052D000704700BF06C0072020C009202DE9F74312
:1052E000FFF7EAFF564B1A781E4612F0020F01D064
:1052F0001878A1E00120FFF7DDFE0A24FF20013C21
:10530000FFF7F0FE14F0FF04F8D14E4F4FF000739A
:10531000FB6121464020FFF787FF012802D04FF0B4
:10532000000875E0FFF7BCFE4FF4D57100F57A7503
:105330004820FFF779FF012841D10DF10408FF2033
:10534000FFF7D0FE08F804000134042CF7D19DF8D3
:105350000630012BE3D19DF80730AA2BDFD12C4674
:105360000025FFF79DFEA94208BFA04206D3FFF724
:1053700097FEA94208BFA042D1D207E04FF080417A
:10538000E920FFF751FF0028EBD1F0E700217A2058
:10539000FFF74AFF0028C2D10146FF20FFF7A2FE17
:1053A00008F8010001310429F7D19DF8043013F009
:1053B000400F14BF4FF00C084FF0040828E02146BE
:1053C000E920FFF731FF02282C4635BF4FF00208D5
:1053D0004FF001084FF0E9094FF041090025FFF7B0
:1053E0005FFEA94208BFA0420BD3FFF759FEA942B6
:1053F00008BFA0420CD34FF400715020FFF714FFF8
:1054000006E000214846FFF70FFF0028E7D1ECE750
:105410000D4B83F800804FF00073BB61B8F1000FB3
:1054200007D03378182003F0FE033370FFF742FEF5
:1054300001E0FFF77BFE3078C0B203B0BDE8F08337
:1054400006C0072020C009201CC6072008B5FFF7AA
:1054500033FF014B187808BD06C0072070B514460D
:1054600006460846FFF728FF002C39D01E4B1B7854
:10547000DB0737D41D4B4FF00072DA611C4A1D4622
:10548000127812F0080F08BF4002012C01460CD11F
:105490005120FFF7C9FEE0B94FF400713046FFF725
:1054A00057FEB0FA80F4640913E05220FFF7BCFE07
:1054B00078B94FF400713046FFF74AFE28B1013C3D
:1054C00014F0FF0406F50076F3D100214C20FFF71D
:1054D000ABFE4FF00073201CAB6118BF012070BD04
:1054E000042070BD032070BD06C0072020C0092025
:1054F0001CC60720F8B5144606460F46FFF7DCFE2B
:10550000002C44D0254B1A78D20742D41B785B0775
:1055100041D4234B4FF00072DA61224A1D461278C3
:1055200012F0080F08BF7F02012C0CD13946582019
:10553000FFF77AFE18BBFE213046FFF74FFEB0FAA8
:1055400080F464091CE012F0060F03D02146D72036
:10555000FFF76AFE39465920FFF766FE80B9FC2145
:105560003046FFF73BFE28B1013C14F0FF0406F57E
:105570000076F4D1FD210020FFF730FE00B90124B0
:105580004FF00073201CAB6118BF0120F8BD042050
:10559000F8BD0320F8BD0220F8BD00BF06C00720FB
:1055A00020C009201CC607207FB50D46FFF784FEEA
:1055B00005281AD12B78012B00F0048103D3022B8C
:1055C0000BD0042001E1824B586910F0806440F058
:1055D000F980FFF7ABFD2046F7E07D4B5B6983F078
:1055E0008063C3F380636B70ECE07A4B1B78DB075E
:1055F00000F1EA800E2800F2DF80DFE800F00812F8
:105600004F53DDDDDDDDDDDDAAAFB2BBCB00704B7E
:105610004FF00072DA61FFF771FDFF3818BF01200B
:10562000CBE000214920FFF7FFFD044608B101202F
:10563000C3E010216846FFF78BFD0028F7D09DF8E6
:1056400000309DF808109B09012B9DF8093006D108
:10565000013303EB012189B2890229606BE09DF8D7
:1056600007209DF80500920002EB91119DF806209D
:105670000131920202F4406211449DF80A2000F0C8
:105680000F0000EBD2105A00023002F0060283181D
:10569000DBB289B2093B01FA03F34BE04FF400732C
:1056A0002B8059E04C4E337803F0040303F0FF01E4
:1056B000F3B10021CD20FFF7B7FD0028B7D1FF20BF
:1056C000FFF710FD10216846FFF742FD0028AED01D
:1056D0003021FF20FFF706FD481E10F0FF01F8D132
:1056E0009DF80A3008461A09102393402B6064E0A5
:1056F0004920FFF799FD0446002898D110216846FB
:10570000FFF726FD002892D036789DF80A2006F093
:10571000020606F0FF009DF80B3076B1520002F051
:105720007E0202EBD3135A1C9DF80D309B09013BFE
:1057300002FA03F32B6020463FE0D90001F0180184
:10574000C2F3840201EB5311531C01FB03332B60A2
:1057500033E0214B1B782B7000202EE000214920E4
:1057600001E000214A20FFF75FFD00287FF45FAFD2
:1057700010211AE000217A20FFF756FD00287FF45F
:1057800056AF291DFF20FFF7ADFC05F8010B8D4238
:10579000F8D1E1E70021CD20FFF746FD00287FF496
:1057A00046AFFF20FFF79EFC40212846FFF7D0FCC4
:1057B000B0FA80F0400900E00420054B4FF0007281
:1057C0009A6102E0002000E0032004B070BD00BF39
:1057D00020C0092006C007201CC60720054B1B78E7
:1057E000253BDBB2032B9ABF034A52F8230000206B
:1057F000704700BF20C60720E87C02001B4B2DE944
:10580000F0411D880646B5F5007F0F46144602D1CB
:105810002A46214613E0B5F5807F09D12A46214664
:105820003846B0472A4604F5807107F5807016E0C7
:10583000B5F5047F05D1510A89024FF4007238464C
:105840000DE0B5F5847F0ED1140A61024FF4807229
:105850003846B047611C4FF480724902B81833468D
:10586000BDE8F0411847BDE8F08100BF1EC6072023
:1058700030B52F4C03462546002958DD07291A78F4
:105880002DDDA2605A780839A2609A78A260DA7891
:10589000A2601A79A2605A79A2609A79A26003F193
:1058A0000802DB79A360A3695B07FCD5AB680370D2
:1058B000AB684370AB688370AB68C370E368DB06AA
:1058C000FCD4AB68083000F8043CAB6800F8033C3B
:1058D000AB6800F8023CAB6800F8013C1AE0032911
:1058E0001ADDA2605A780439A2609A78A2601A1D63
:1058F000DB78A360E368DB06FCD4AB68043000F817
:10590000043CAB6800F8033CAB6800F8023CAB68B1
:1059100000F8013C1346AFE70133A2600139E268A9
:10592000D206FCD4AA68013000F8012CA4E730BDEF
:105930000000034007B50B0C8DF805308DF80710FB
:105940000B0A04218DF804000DEB01008DF80630E0
:10595000FFF78EFF03B05DF804FBFFFFF7B51746B6
:1059600006460E4C40250323E5618DF804300B0CF0
:105970008DF805308DF807100B0A04210DEB01009E
:105980008DF80630FFF774FF00223946304604F0E8
:1059900075F8A561A561A56103B0F0BD00C009203F
:1059A0000E4B4022DA610E4BD7229A601A46D1681C
:1059B0000B4BC906FBD49A681A46FF219960D06840
:1059C000C006FCD4906810F0800FF7D0034B402243
:1059D0009A61C0B29A619A61704700BF00C0092005
:1059E00000000340F7B5FFF7DBFF1F4C00232380C7
:1059F0001E4B1F4E40271A889B78F76103210546EE
:105A000001A8ADF804208DF80630FFF731FF9DF8AE
:105A100005209DF806301F2AB7612146B761B7619E
:105A20001CD1A3F12502032A18D8124A252B137082
:105A300005F0010006D1002814BF4FF480734FF425
:105A4000847305E0002814BF4FF400734FF404730F
:105A50000B80FFF7C3FE084B400A18600888B0FAB5
:105A600080F0400903B0F0BD1EC60720E07C0200B4
:105A700000C0092020C6072024C60720F8B58B18CF
:105A800017460D4A013B12680446934210D84D0256
:105A9000FFF786FF00262D1BBE4204EB050209DA44
:105AA00021460648FFF7AAFE04F500740136F3E725
:105AB0000120F8BD0020F8BD24C607205D59010073
:105AC000F8B58B1817460C4A013B126893420FD861
:105AD00004460026C0EB4125BE4204EB050209DA6C
