:020000021000EC
:10000000E03F082095010100FB000100E100010034
:10001000090101001901010029010100000000008F
:1000200000000000000000000000000031BB0100E3
:10003000390101000000000091BB010059010100DD
:1000400071C1010071C1010071C1010071C10100E4
:1000500071C1010071C1010071C1010071C10100D4
:1000600071C1010071C1010071C1010071C10100C4
:1000700071C1010071C1010071C1010071C10100B4
:1000800071C1010071C1010071C1010071C10100A4
:1000900071C1010071C1010071C1010071C1010094
:1000A00071C1010071C1010071C1010071C1010084
:1000B00071C1010071C1010071C1010071C1010074
:1000C00071C1010071C1010071C101006C92020097
:1000D00000C00720FC02000000C30720CC05000080
:1000E00004207146084203D0EFF309800CF05EB89B
:1000F000EFF308800CF05AB8704708B5014808F0D3
:1001000031FCFEE7F289020008B5024808F02AFC3B
:10011000FEE700BFFD89020008B5024808F022FC96
:10012000FEE700BF088A020008B5024808F01AFC82
:10013000FEE700BF138A020008B5024808F012FC6F
:10014000FEE700BF208A020008B5024808F00AFC5A
:10015000FEE700BF2E8A020008B50BF09FFC0BF0F3
:1001600039FDBDE808400BF0ADBC0B4610B5401A98
:100170005C1AA24203D9C45843F8044BF8E710BDF7
:10018000034610B500221C1AA14202D943F8042BE1
:10019000F9E710BD16480BF0BFFD15480BF0BFFD89
:1001A000144C154DAC4201D3144D07E094E8030004
:1001B0000C3454F8042CFFF7D8FFF3E7AC4206D216
:1001C00054F8080B54F8041CFFF7DAFFF6E70FF0B9
:1001D00099FC0BF0BBFD01F0DBFD03F069FC4FF473
:1001E00016400CF001F9064808F0BCFBFEE700BF22
:1001F000E03F0820CC000100D8000100E000010031
:10020000428A02000BF0A8BC0BF0B6BC144B10B530
:100210001A68014612B94FF080521A60114C1868E2
:100220002468421894421A6007D20F4CA24204D8A4
:100230000E4A0B488C18046010460D4A1B68126861
:10024000934222BF064B00201A6039B1094A136855
:1002500001331360084B1860084B196010BD00BFD4
:1002600004C307200CC30720FFBF0720CCC807200A
:1002700010C3072014C3072000C3072008C30720AA
:100280000FF078BD0FF07EBD0FF07CBD30B5044699
:100290008BB0684610F02AF8224B079A2360089B1F
:1002A000214DA36062602149214B52B90A68186848
:1002B00082428ABF02F1604202F17042A2F5E82256
:1002C000626062681B68B2F5803F82BF02F17042D3
:1002D000A2F5E82262600022E2600A68934206D337
:1002E000991AC5F1005303F504230B440BE0114B9D
:1002F0001B68934208D9991AC5F1005303F5F823F6
:100300000B44002B00DDE36020460B4BE2611B68D1
:10031000A3610A4B1B686361094B1B6823610BB027
:1003200030BD00BFCC080000CCC8072004C30720A4
:100330000CC3072010C3072000C3072008C30720F1
:1003400014C3072000207047034A044B1A60044A74
:10035000044B1A60704700BF008000100CC30720D8
:100360000040082010C30720014B1860704700BFF1
:1003700020C30720014B1860704700BF18C3072037
:1003800008B5024810F05AFFFEE700BF54600200B3
:1003900008B5024810F052FFFEE700BF6E60020091
:1003A0000020704701207047F8B5084B16461A68C0
:1003B0000F461C4642B10D46EB1B9E4204DD2368EE
:1003C00015F8010B9847F7E73046F8BD20C3072022
:1003D000F8B5094B0F46186816461C4658B10D462D
:1003E000EB1B9E4205DD23680020984705F8010BB2
:1003F000F6E726EAE670F8BD18C30720704700202C
:100400007047FFFF074B1B689A68824207D05A6803
:10041000824204D0DB681B1A5842584170470120C1
:10042000704700BF40C10720002070470020704780
:1004300030B504468DB0A8B3684609F0F5FB9DF8C9
:100440000030002503F03F0303939DF8013003A81B
:1004500003F03F0304939DF802300B9503F01F0354
:1004600005939DF8043003F01F0306939DF80530B3
:1004700003F00F03013B0793BDF80630C3F30B03F2
:10048000A3F26C7308939DF8033003F007030993FC
:10049000BDF80830C3F30B03013B0A930FF0B4FD22
:1004A00084E8210000200DB030BDFFFF70B50F4D76
:1004B0000F4E2C6814F0010415D128460CF034FBC3
:1004C00088B14FF40E70FFF7DBFE302380F8353231
:1004D0003A2380F8344280F8363280F83742306070
:1004E00028460CF02DFB306870BD00BF3CC30720D0
:1004F00040C3072070B50F4D0F4E2B6813F0010459
:1005000016D128460CF010FB90B14FF40E70FFF797
:10051000B7FE012380F83432312380F835323A2394
:1005200080F8363280F83742306028460CF008FBFD
:10053000306870BD34C3072038C307202DE9F04F61
:10054000ADF51B7D0F4608F031FE041E04DD0BF0F7
:100550006DFA20460AF0B0FF0DF114094C462A4D01
:100560004FF0640B0FCD0FC42B6804AA2360102139
:1005700000240AA804940BF05DF9244A8246244919
:10058000384609F0E1FD26460AAD4FF00008D04597
:100590001CD06B69A34215D1AA69049B16441BB1F8
:1005A000B3FBFBF3B2FBF3F3297B039202932B8C97
:1005B00000949B00019359F821306A681549384628
:1005C00009F0C2FD08F101082435E0E701340A2CE6
:1005D000DAD1049B64229E1BB3FBF2F30E49B6FBF7
:1005E000F3F30E4A0096384609F0AEFD0AF038FEE5
:1005F000102804D910220A49384609F0A5FD012027
:100600000DF51B7DBDE8F08F88600200A760020039
:10061000AC600200D3600200FB600200F0600200E8
:100620001A61020010B50C46ADF5007D68460BF06E
:1006300025FD20464FF0FF32694609F04FFD0120AD
:100640000DF5007D10BDFFFF30B50C4691B02C4973
:10065000054608F0B7FC002847D00CAB04930BAB61
:1006600003930AAB029309AB019308AB009306AA6C
:1006700007AB2449284608F00DFC072801D00020CC
:100680003BE09DF83930069A0DA862F303038DF81C
:100690003930079A9DF8383062F304038DF838300A
:1006A000089ABDF83A3062F30B03ADF83A30099A74
:1006B0009DF8363062F304038DF836300A9A9DF8BF
:1006C000353062F305038DF835300B9A9DF83430E0
:1006D00062F305038DF834300C9A9DF8373062F3DD
:1006E00002038DF8373009F0C7FA09F061FB0649BB
:1006F0000246204609F028FD012011B030BD00BFA0
:10070000446102004861020052820200F7B50D46C2
:100710004E49044608F046FD064640B107F0BAFFD0
:100720004FF0FF324A49284609F0D8FC8BE049498E
:10073000204608F037FD60B307F0D0FF4649024677
:10074000284609F001FD07F0D5FF44490246284636
:1007500009F0FAFC07F0C8FF41490246284609F0B3
:10076000F3FC304607F0B0FF0446012007F0ACFF71
:100770000646022007F0A8FF0746032007F0A4FF63
:1007800000970190334622463649284609F0DCFCA2
:1007900059E03549204608F015FC50B120220121CE
:1007A000204608F0ADFC204608F0FEFC08F0BAF840
:1007B00049E02E49204608F005FC064620B92C49A0
:1007C000204608F0FFFB60B32A49204608F0E8FB0A
:1007D00060B92949204608F0E3FB28B9204627499B
:1007E00008F0DEFB044602E0032400E00224314668
:1007F000204607F0EFFF224A224B002E18BF1A4670
:100800003CB1012C07D01C491A4B022C18BF0B46D7
:1008100002E01D4B00E0194B1C49284609F094FCEE
:1008200011E0204608F0C0FC194A1A490090F32351
:10083000012007F0DDFF204608F0B6FC164902460D
:10084000284609F081FC012003B0F0BD836102005D
:1008500089610200A2610200A9610200BE6102007A
:10086000D3610200F26102002262020026620200ED
:100870002E6202007E610200786102007273020043
:100880006961020061610200726102003762020068
:100890009C600200506202008362020030B589B0A1
:1008A00004AB002400930D4603AB022218490394C5
:1008B000049408F0FDFA022827D107AB009305AA9B
:1008C00006AB0499039805940694079404F0EEFB94
:1008D000024638B1049B0F4900932846039B09F058
:1008E00033FC10E0059A069B002A079908BF0122F5
:1008F000002B08BF0123B1FBF3F3B1FBF2F2284652
:10090000054909F021FC012000E0204609B030BD76
:100910001273020091620200B06202002DE9F047FA
:100920000E46ADF5856D3949054608F0D5FB3849C9
:100930000746284608F0F9FB3549284608F015FC1B
:10094000284608F031FC0122014681A806F0F8FB98
:10095000044640B1284608F027FC2E49024630469E
:1009600009F0F2FB4CE00DF1040A01464FF400726D
:1009700050460FF064FA00940BF06AFB80468946FB
:100980006B464FF40072514681A806F073FC08B91B
:10099000009B23BB81A806F03CFECFB10BF058FBB7
:1009A0004FF47A7200230EF01FFE002305464FF429
:1009B0007A72404649460EF017FE281A14BF0346C5
:1009C0000123B4FBF3F322461349304609F0BCFB84
:1009D0004FF0FF321149304609F080FB10E01C4413
:1009E000002FCDD13D46009B9D42C9D233681AF8F5
:1009F00005105B684FF0FF32304698470135F2E74B
:100A000001200DF5856DBDE8F08700BFDE620200B4
:100A100012730200E7620200FB62020089680200B2
:100A20002DE9F0470023BEB00C46534905460C9310
:100A300008F0B8FB20B9284608F0B6FB064600E0EF
:100A40004E4E314615A806F09DFE054630B10346D0
:100A500032464B49204609F077FB89E03246494946
:100A6000204609F071FB2F460DF1780880230DA96F
:100A700015A8CDF84C80149306F0C8FE002861D16B
:100A80009DF83D30002B5DD09DF83C100DF13D00F0
:100A9000CA065BBF0D9B0C9A44229B185BBF0C934C
:100AA0002D220135013711F0010F14BF52232D23E0
:100AB000BDF83AA011F0020F09900D9814BF4FF045
:100AC000480E4FF02D0E11F0040F14BF4FF0530CD1
:100AD0004FF02D0C089011F0200FCAF34510BDF80F
:100AE000381007904FEAEA20069001F01F000590A9
:100AF000C1F343104FEA612114BF4FF041094FF099
:100B00002D0901F2BC71CDF804C0CDF800E00490CD
:100B10000391CDF808901C49204609F015FB4FF0D1
:100B2000FF321A49204609F0C5FA41464FF0FF321C
:100B3000204609F0BFFA4FF0FF320F49204609F076
:100B4000CDFA91E73A46124900950C9B204609F0F0
:100B5000FBFA0BAA0CA9304606F087FE40B90B9BA6
:100B60000C499A780C9B20465A43520809F0ECFA3B
:100B700001203EB0BDE8F0878968020016630200DC
:100B8000196302003D63020058630200856302009E
:100B900089630200B363020070B50C46064608F094
:100BA00003FB0546304608F0FFFA06F020FF064A30
:100BB000064B0749002808BF13462A46204609F07D
:100BC000C3FA012070BD00BF6965020073650200B1
:100BD000C763020070B50C46064608F0E5FA054604
:100BE000304608F0E1FA06F0A5FE064A064B074932
:100BF000002808BF13462A46204609F0A5FA01201E
:100C000070BD00BF6965020073650200E363020006
:100C10007FB503AB002400930E4602AB02220F49BE
:100C20000294039408F044F9022814D1029C039D15
:100C30002046294606F084FF094B0A49224600282F
:100C40000CBF084618462B4600900749304609F06D
:100C50007BFA012000E0204604B070BD1273020050
:100C60007365020069650200F563020030B5ADF5F9
:100C70000D7D0C46054608F097FA0A22014603A8A6
:100C800006F05EFA40B1284608F08EFA1F49024687
:100C9000204609F059FA34E08DF8070002901C490B
:100CA00042F210737E22204609F04EFA194920467E
:100CB00009F04AFA236842F210721B680DF107012D
:100CC0002046984718B19DF807307E2B03D103A822
:100CD00006F09FFC15E002AB01220DF1070103A80D
:100CE00006F080FB58B9029B012B08D123684FF016
:100CF000FF325B689DF8071020469847DAE70649FF
:100D0000D5E701200DF50D7D30BD00BF0D6402005B
:100D1000346402006C6402008C6402002DE9F04F20
:100D2000ADF5417D002304AC236003930D46009490
:100D300003AB0222414908F0BBF8022806D04FF06D
:100D4000FF323F49284609F0C9F972E0216817A827
:100D500006F018FD10B122683A4906E0039917A879
:100D600006F010FD28B1039A3749284609F0ECF93E
:100D70005FE04FF480720DEB020105A808F05AF80D
:100D80004FF4807280A90AA808F054F820AE80279A
:100D90000FA917A81596169706F038FD002842D11E
:100DA0009DF84530002B3ED09DF8443003F01003F1
:100DB00003F0FF0A002BEBD10DF14503039A234901
:100DC00005A808F03BFA0DF1450322681F490AA85F
:100DD00008F034FA05A808F0E7F907460AA808F071
:100DE000E3F9804605A8DDF83C9008F0DDF983467C
:100DF0000AA808F0D9F9534652460146CDF800A09A
:100E0000584604F053F9124A124BCDF800900028CE
:100E10000CBF184610461049019043463A462846F2
:100E200009F092F9B3E70AA808F019F805A808F044
:100E300016F801200DF5417DBDE8F08F1273020018
:100E4000B3640200F86402001D6502003D65020003
:100E5000736502006965020043650200F8B50D463E
:100E60002449064608F09EF90446074618B1FFF7E4
:100E700041FB002208E02049304608F093F904467F
:100E800060B1FFF713FB3A46114600F2352006F039
:100E9000E7FE4FF0FF32194B194922E0194930465D
:100EA00008F080F9044658B1FFF724FB012200F254
:100EB000352106F007F94FF0FF32134B134910E0CC
:100EC0001349304608F06EF9044680B1FFF7EEFA98
:100ED000012200F2352106F0F5F80E4B0E494FF0D5
:100EE000FF32002818BF1946284609F0F7F82046B7
:100EF000F8BD00BFCA650200D46502006C6502003F
:100F000062650200E1650200896502007965020000
:100F1000EA650200AE650200A065020008B5084659
:100F20004FF0FF32084909F0D9F807F0B3FB4FF44E
:100F3000FA600AF0C1FA4FF08043AA221A72002226
:100F40001A70012008BD00BFF665020010B501202F
:100F50000C4607F063FF40B100231A46194609F01A
:100F6000BDFD4FF0FF32054902E005494FF0FF3269
:100F7000204609F0B3F8012010BD00BF076602004B
:100F80001D66020038B5064C236833B91C20FFF7F4
:100F900077F9054608F050FD2560206838BD00BF90
:100FA0002CC307202DE9F04F5F4C91B023680E460B
:100FB00033B92C20FFF764F9054608F0D1FF25600E
:100FC0002768FFF773FA00240CAA0DA900F2352058
:100FD0000D9406F04AFC48B90C9A0D9C95699378DB
:100FE000023D5C435D4364086D0800E025464F4BBD
:100FF0001A6898467AB90C20FFF742F98146FFF744
:10100000C1FF902389F804300023C9F80000C9F813
:101010000830C8F80090D8F8000004F035F8814690
:101020000EF09CFA0A900EF07FF8014648460DF04B
:10103000C5FF3F490EF0CCF80EF090FA81460DA89E
:101040000AF07AFE04F076FF68B308F02BFF04F094
:101050005BFF4FF0000A0346D346D0469A450B93F8
:101060000BD0504604F0B4FF804538BFD3460B9BED
:1010700038BF80460AF1010AF0E708F02BFF64232D
:1010800003FB08F32B4ACDF80880B3FBF2F3C3F15E
:1010900064030093CDF804B02B462246264930461F
:1010A00009F052F805E02B4622462449304609F063
:1010B0004BF8234C23681BB90120FFF7E1F82060AF
:1010C000206803F0A6FF044608F072FEFB8C0A9A23
:1010D0000993BB8C1B4908939DF83430019003F0B1
:1010E0003F0307939DF83530009403F03F030693C8
:1010F0009DF83630304603F01F030593BDF83A30B3
:10110000C3F30B0304939DF8383003F01F030393DC
:101110009DF8393003F00F0302934B4609F014F8A1
:10112000012011B0BDE8F08F30C3072024C3072091
:1011300000002041A0860100566602008A66020077
:1011400028C30720986602002DE9F04F0D46C7B06E
:101150005549814607F04DFF54498246484607F0FD
:1011600048FF53498346484607F043FF00270DF1E7
:10117000100805AE044602970397C8F80070376060
:10118000BAF1000F45D0009603AB02AA4949484680
:1011900007F080FE012807DC28464FF0FF32464961
:1011A00008F09CFF38467CE00DF118084FF480747D
:1011B0002246394640460EF042FE336813B90123F9
:1011C000336003E0B3F5807F88BF3460FFF7DAFE59
:1011D00033689DF80C209DF808100093434609F0F1
:1011E00079F8364A364B3749002818BF1346029A19
:1011F000284608F0A9FF002433689C424ED2039A87
:1012000018F8043022443049284608F09DFF013484
:10121000F2E7BBF1000F2CD0CDF8008003AB02AA9F
:101220002A49484607F036FE032807D028464FF0E3
:10123000FF32274908F052FF504632E0FFF7A2FE86
:1012400098F800309DF80C209DF8081009F057F828
:1012500048B1039B1F490093D8F80020029B284601
:1012600008F072FF1AE0029A1B49284608F06CFF4A
:1012700014E0A8B102230293029BFE2B10DCFFF7BF
:1012800081FE9DF8081009F045F820B1029A134933
:10129000284608F059FF029B0233ECE7012000E0EA
:1012A000204647B0BDE8F08F3174020001670200AC
:1012B00007670200106702001F67020069650200ED
:1012C00073650200406702006467020074670200F1
:1012D00084670200AB670200C5670200E267020094
:1012E00070B5ADF50A7D05460C4607F0CAFD0B2822
:1012F00002DD0C2222493CE0284607F055FF01227E
:10130000014601A805F01CFF064668BB01A806F0CF
:1013100080F9284607F048FF1A490246049B2046F8
:1013200008F012FF236820469B6898470A200AF0BD
:10133000C3F84FF0100383F31188BFF36F8FBFF32F
:101340004F8F284607F030FF02460F4B0068516868
:1013500003C390680D4A186043F80C2C4FF080438B
:10136000AA221A721E7007E0284607F01DFF0246E7
:101370000749204608F0E8FE01200DF50A7D70BD02
:101380001C68020043680200484002400DD0ADDEF8
:101390008A6802002DE9F041404CA4B0236806465B
:1013A000DB070D460CD420460BF0BEFB40B14FF4DA
:1013B00080600EF0DFFC3A4B186020460BF0C0FB5B
:1013C0003849304607F015FE0746044600B3802230
:1013D000002104A80EF033FD00230293039303AB16
:1013E000009304AA02AB3049304607F053FD2C4964
:1013F000029B039A096804A813B903F0F3FE01E005
:1014000003F012FF294B2A49002818BF194638E07B
:101410002849304607F0EDFD074600283AD004ABD6
:10142000304603AA2449039404948DF8084007F039
:1014300031FD039E049B3344B3F5806F02DCDFF87B
:1014400060800CE04FF480621C4920E0D8F8003046
:101450009DF808209A559DF8083001361C44039BDE
:10146000049AF31A934210DAB6F5806F0DDA2B68FE
:101470004FF4FA621B6802A9284698470028E5D174
:101480000F49284608F060FE04E022460D49284630
:1014900008F05AFE384624B0BDE8F08148C3072062
:1014A00044C30720B5680200BC680200A3680200BC
:1014B0009F680200CC680200D3680200DD68020069
:1014C000016902001169020038B50D4607F06EFE91
:1014D0000446C0B202F008FD054A064B0649002842
:1014E00018BF13462246284608F02EFE012038BDBC
:1014F00069650200226902002969020030B50C46C4
:10150000054687B00A4908F01FFEA1882388049188
:10151000218962880391E18828460291E17A01914C
:10152000A17A0091034908F00FFE07B030BD00BF5B
:1015300040690200766902002DE9F0418CB003ABEE
:10154000002600930D46904602AB022238490296CF
:10155000039607F0ADFCB04266DD02980EF0DBF9B1
:10156000C7B2039818B110F06BF9C4B200E004469A
:10157000002104A803F058FB30B14FF0FF322D4991
:10158000284608F0ABFDF3E7022318F100010093B1
:10159000039A234618BF0121384602F0E9FD0646AA
:1015A00038B94FF0FF322449284608F097FD01264C
:1015B0003AE0B8F1000F37D04FF47A7104A803F085
:1015C0003BFB60B39DF81030BB4228D19DF817302B
:1015D0000C2B04D13A4606A92846FFF78FFFBCB969
:1015E0001649284608F0B0FD9DF817309C420ADAEB
:1015F00004AB19192B684FF0FF325B68097A284653
:1016000098470134F0E70E49284608F09DFD0BE0AD
:101610004FF0FF320B49284608F060FD04E0029AC3
:101620000949284608F090FD30460CB0BDE8F0812D
:101630001273020094690200B6690200DE690200BA
:101640000B700200F26902000F6A02001FB501A8C8
:101650000C4602F06BFF02F053FC01A90246204643
:10166000FFF74CFF012004B010BDFFFF30B58BB079
:101670000AAA4FF47A730C4642F8243D174907F042
:1016800009FC0025019902A803F0CEFAD8B19DF813
:1016900008201349204608F057FD00259DF80F301B
:1016A0009D420ADA02AB591923684FF0FF325B689A
:1016B000097A204698470135F0E70A49204608F0A4
:1016C00043FD0125DEE72DB94FF0FF3206492046E4
:1016D00008F004FD01200BB030BD00BFDA68020045
:1016E000356A0200886802004C6A020037B50C4671
:1016F00002F080FD05461649204608F025FD1549F3
:101700002A46204608F020FD1149204608F01CFD1D
:10171000D5B11149204608F017FD0D49204608F0C3
:1017200013FD0025E8B202F04FFD013540B181788C
:101730004378027800912046084908F005FDF1E75A
:101740000349204608F000FD012003B030BD00BF72
:101750005D6A0200786A0200926A0200AD6A0200C5
:101760002DE9F3473C4C074626688946002E62D196
:101770002420FEF785FD0423054680E848008660A6
:10178000C660202130460FF0C3FDAE68E8604FEA26
:101790008608072E0ED81020FEF772FD8246102212
:1017A00000210EF04CFBEB68013643F808A008F16D
:1017B0000408EEE7002608236B604FF00108274B72
:1017C000274A28492846009685F82080256006F09B
:1017D000D3FC254B254A26492068009606F0CCFC10
:1017E000244B254A25492068009606F0C5FC244B69
:1017F000244A25492068009606F0BEFC234B244A63
:1018000024492068009606F0B7FC234B234A24495C
:101810002068CDF8008006F0AFFC224B224A204918
:101820002068009606F0A8FC0096204B204A21492B
:10183000206806F0A1FC2049384607F0B3FC18B137
:101840001E49384607F068FD4A463946206802B00E
:10185000BDE8F04706F070BD50C30720C86A02001B
:10186000026B02000D1B0100096B02005D6B0200A0
:10187000E1180100666B0200896B02006D16010021
:101880008C6B0200EB700200C9140100B66B020001
:10189000D26B0200ED160100D96B0200406C020011
:1018A000391501001A6C02003F6C0200446C020002
:1018B0005F6C02004D16010089680200656C020031
:1018C00038B5064C236833B95820FEF7D9FC0546D5
:1018D00008F08AF92560206838BD00BF4CC3072096
:1018E0002DE9F04F0446ADF2DC5D802288460DA85C
:1018F00000210EF0A4FA802200212DA80EF09FFAFC
:1019000006AE002333600DAA00962DAB7549204624
:1019100007F0C0FA032801D00020DFE001220DA962
:10192000EDA805F00DFC05460028F5D1FFF7C8FF2E
:101930003368802280F853304DA9044608A88DF8FA
:101940001750079507F076FA2DAB009333680DAA70
:101950006549404608F0F8FBA94607AE33464FF408
:1019600000726DA9EDA805F085FC002840F0AF805D
:101970003368002B00F0AB806F1C32685B49204657
:1019800008F0E2FB236820469B6898477D1E0DF512
:10199000DA7B4FF0000A6DAB3268C3EB0B039A425F
:1019A00023680CD9CDF80CB05B684FF0FF321BF800
:1019B000011B20469847039B1B789A44EBE79B68E2
:1019C0002046984708A807F0EFFB834608A807F0D1
:1019D0005BFA4FF47A7302465946204608F08CFBB6
:1019E000202201210DEB020007F08AFB08A807F076
:1019F000DDFB824520D008A807F0D8FB52460346FD
:101A00003B49404608F0A0FB3A49204608F09CFBC1
:101A1000236820469B68984723684FF47A721B68B6
:101A20000DF11701204698470028F5D1022F07F144
:101A300001034CD81F46A0E733682DAA2E49009316
:101A400020464B4608F080FB236820469B68984759
:101A500008A807F0A9FB824608A807F015FA514626
:101A600002464FF47A73204608F046FB234908A843
:101A700007F096FAD0B908A807F096FB204902466D
:101A8000404608F061FB1B49204608F05DFB2368D7
:101A900020469B68984723684FF47A721B680DF1C3
:101AA0001701204698470028F5D1BFE7154908A837
:101AB00007F032FC3368144999444A46F09B40468B
:101AC00008F042FB002D3FF448AFBD1E45E7EDA8EE
:101AD00005F09FFD08A807F0C2F901200DF2DC5DBA
:101AE000BDE8F08F6A6C0200796C0200906C020015
:101AF000A26C020088680200C96C0200DF6C020060
:101B0000E26C0200896802001A6D02002DE9F047BC
:101B1000074686B006AA002442F80C4D0E463D4901
:101B200007F0B8F920220121384607F0E9FA039BB3
:101B3000002B65D0384607F0A4F9002860D0FFF7E5
:101B4000BFFE05460DF1180808F80D4D2B6805225B
:101B50001B6841462846984704460028F6D1039B57
:101B6000384685F8533007F01FFB274601464FF0F3
:101B7000FF32284608F0B2FA2B6828469B6898473F
:101B8000254B0DF11809186849F8044D04902B688D
:101B90004FF47A721B68414628469847D0B1032219
:101BA0000DF1150148460EF02FF99DF80BA0042207
:101BB00004A948468DF817A00EF00CF950B133680F
:101BC00001225B6851463046013798470028DED134
:101BD0000134DCE71822B7FBF2F302FB137202B107
:101BE00001333A460D49304608F0AEFA74B161232C
:101BF000009322460A4B0B49304608F0A5FA05E04F
:101C00004FF0FF320849304608F068FA012006B06C
:101C1000BDE8F087DA6802001E690200266D020046
:101C20004D6D0200896D0200426E020001480FF006
:101C300005BB00BF6E6E020038B504460D460AF0C3
:101C400081FB074BB0FBF3F00223B0FBF3F2AA4297
:101C500004D9B3F5807F01D00233F6E7236138BDA4
:101C600040420F007FB500F235260C460122314676
:101C700005F028FA054648BB039002AA03A930469E
:101C800005F0F3FD00BB0298039A837802FB03F191
:101C900082691348023A5A435208B2F5004F38BFDE
:101CA0000120104B4FEA510124BF03464FF48060DE
:101CB000B1FBF0F1B2FBF0F20091019321460A482A
:101CC0000FF04AFA012008E0084B00E0084B2A46D2
:101CD000214608480FF040FA002004B070BD00BF54
:101CE000AC6E0200A96E0200B66E0200B26E020077
:101CF000AF6E0200E46E020038B5074C23684BB9A2
:101D00000820FEF7BDFA0546FFF73CF9402328609E
:101D10002B712560206838BD5CC3072038B5054CA1
:101D2000256825B90120FEF7ABFA05702060206810
:101D300038BD00BF58C3072038B5084C23685BB9CD
:101D40000C20FEF79DFA0546FFF71CF990232B7136
:101D500000232860AB602560206838BD24C30720BD
:101D600010B5044C23681BB90120FEF789FA2060E6
:101D7000206810BD28C3072010B5044C23681BB988
:101D80000120FEF77DFA2060206810BD54C30720B3
:101D9000AD49AE4A4023F0B58B614FF000739361BB
:101DA0004FF480338B61AA4BADF5057D186807258C
:101DB00020F0F00018601868022440F0500018600D
:101DC000186820F440501860086840F0400008602F
:101DD000186820F47C201860186840F428201860E7
:101DE000186820F470001860186840F4200018602B
:101DF000186820F040401860186840F000401860F3
:101E0000586820F03C005860586840F0280058603E
:101E1000586820F003005860086840F4803008607B
:101E2000586820F440505860086820F4800008602A
:101E3000D96821F44031D960116841F08071116096
:101E4000596821F440215960596841F48021596052
:101E50009868804901409960116841F4897141F0A6
:101E600001011160996821F470119960996821F05D
:101E700070419960116821F446411160D96821F0E0
:101E80003001D960D96841F03001D960D96821F4B6
:101E90007011D960136843F000731360136823F066
:101EA0008063136007F096FA01210A200AF06AF8AD
:101EB00001210A200AF07EF867480121056044608C
:101EC000FFF7BAFE07F07EFF012115200AF05AF84D
:101ED000012115200AF06EF8604801210560446078
:101EE000FFF7AAFEFFF74EF8642107F071FD10B965
:101EF0005B480FF0A3F90AF081F802F06FFE10B909
:101F000058480FF09BF94FF4FA6007F01CFAFFF7FE
:101F10008DFE0AF017FA0DF003F953490DF00CFA93
:101F20000CF0ACFC02460B4650480FF015F909F0D6
:101F3000FDFE052804AC14D1002363604C4B1B68E4
:101F40002360FFF773FE4B4B4B48D96C1A6D5B6DEA
:101F500000940FF001F9FFF769FE41F2883007F0B5
:101F6000F2F9FEF7A3FA4549FFF77CFE054668BB88
:101F700043480FF0F1F804F055F8FEF797FA2946B8
:101F80002A4600F2352005F06BFE3E4B3E4A002803
:101F90000CBF104618460FF051F9FEF787FA374983
:101FA000FFF760FE90B939480FF048F903F0BCFF25
:101FB000014637480FF0D0F803F0A6FF054603F0BE
:101FC000B3FF00FB05F133480FF0C6F8324E334F34
:101FD000336813F0010516D130460AF0A5FD90B123
:101FE0004FF40E70FEF74CF9012380F834323123A0
:101FF00080F835323A2380F8363280F8375238602C
:1020000030460AF09DFD26493868264DFFF72AFE26
:1020100018211148FFF710FEFFF708FE2B684BB997
:102020000820FEF72DF90646FEF7ACFF3823306096
:1020300033712E60286802F0C7FE0546B0BB1A480F
:102040000FF0FCF833E000BF00C0092020C00920D9
:1020500000C00240F0FCFCFF00000340008008408C
:10206000286F0200596F0200002474497E6F02003D
:102070004440024000400240966F02000E70020091
:10208000167002001C6F0200176F020053700200EE
:10209000727002008170020034C3072038C3072029
:1020A0009865020064C307209C7002000125FFF7B9
:1020B00043FE02F0BFFF064618B972480FF0BEF8A3
:1020C0003546FFF719FE02F001FF064618B96E48C3
:1020D0000FF0B4F835466D4E33681BB90120FEF79A
:1020E000CFF83060306802F0BFFEFFF739FE02F033
:1020F0008EFFFFF713FE02F02DFFFFF73DFE02F00B
:102100008BFFFFF70BFE002102F026FF8DB9FFF7D2
:102110008DFDFFF7F1FD2D2102F0C0FEFFF7ECFD74
:102120002D2102F0C7FEFFF7F9FDFF2102F014FF99
:102130000CE0FFF7E1FD0546FFF7FEFD02F0A4FF0E
:102140000DF032FAC1B2284602F0E7FE102200215B
:1021500020460DF074FE00230F2221464C4803F068
:102160001FF880B920460DF0D6FBC5B2284601F015
:10217000BBFE484A484B2946002818BF1346444A2C
:1021800046480EF0E9FFFFF7EBFD02F042FF05467F
:10219000002010F0DFFA28440FF058F84FF40072D6
:1021A000002120460DF04BFE204609F067FF214636
:1021B0003B480EF0D1FFFFF739FD80220021204679
:1021C0000DF03DFE204603F08BFE2278FF2A04D05E
:1021D000214634480EF0C0FF29E0FFF7CDFD02F0A4
:1021E0001DFF09281DD130480FF028F821462F483F
:1021F0000FF038F921462E480EF0AEFF2D480FF0B3
:102200001DF8002303A92C4803930FF02BF99DF828
:102210000C30592B03D1204603F040FE07E027483D
:1022200003E027480FF00AF826480FF007F84FF2AE
:1022300008031D684FF20C031C684FF210031E6860
:102240004FF470431A684FF20403AD0A1968A40AE8
:102250001D480EF081FF2A4621461C480EF07CFFE7
:1022600031461B480EF078FFFFF7E0FC012006F036
:1022700047FA18480EF0E2FFFFF7D8FC0DF5057D90
:10228000F0BD00BFB7700200D170020060C307202C
:10229000EA700200226F020022690200F070020060
:1022A0005282020024710200407102006271020039
:1022B0006771020082710200C5710200C9710200DB
:1022C000E17102000F720200417202006D720200A1
:1022D0009A720200B7720200012070470120704715
:1022E0000120704710B5044C23681BB90120FDF78D
:1022F000C7FF2060206810BD60C307200120704721
:1023000038B504460F4B00250360636DE06DAB42AA
:1023100005D950F82500FDF7B5FF0135F5E708B1FF
:10232000FDF7B2FF0025A36B206CAB4205D950F836
:102330002500FDF7A7FF0135F5E708B1FDF7A4FF7C
:10234000204638BDF072020010B50446FFF7D8FFF2
:102350002046FDF797FF204610BD2DE9F0410446C9
:102360000E46C06889000EF0D3FFA568E060AF009C
:102370004FF00008AE420DD90C20FDF781FFE36855
:10238000C0F80080C0F8048080F808800135D8517A
:102390000437EFE76660BDE8F081FFFFF7B504465C
:1023A00000250B464FF480520095254906F01CFD90
:1023B000244B042623606663A563E563256402213C
:1023C00004F13400FFF7C9FF26656565A565E5657D
:1023D000284660210EF09CFFA56DE065AE00172D2C
:1023E0000CD81020FDF74CFF0746102200210DF0FD
:1023F00026FDE36D01359F510436F0E71823636530
:10240000012384F87030104E0023A4F87430A4F82F
:102410007630A367002200230027C4E92023C4E903
:10242000226709F015FE4FF47A7200230DF0DCF8F4
:1024300080197941C4E92001204603B0F0BD00BFF6
:1024400008730200F0720200C0D401002DE9F041CF
:102450000F7A14464D680E688FB1082A23D128469A
:1024600006F00FFD00281CDD4FF0FF321349304607
:1024700007F020FE0121284606F002FE08E00A2AA5
:1024800019D00D2A12D02146284606F01AFF97B11E
:10249000336821463046BDE8F0415B684FF0FF32BB
:1024A00018470724F4E70A2A02D1F1E7BDE8F081D2
:1024B0000D2AEDD0E7E7BDE8F08100BF11730200FF
:1024C000F8B50446142015460F46FDF7D9FE8021C5
:1024D000064606F0A6FEA36BE26B9A4206D3616B3A
:1024E000591803D204F13400FFF737FFE36B226C75
:1024F000591C52F82330E1631F605E601D72F8BD05
:102500002DE9FF47CF6B06460D4601AC3FB94FF4AE
:102510007A7008F0D1FF01976760A76047E00B6C05
:102520000DF110081B6893E8070084E807000023FA
:1025300008F80D3D08F088FE81460027EB6B9F42AE
:1025400063D22B6C4FEA870A53F827301868037C54
:10255000002B34D0036800221B684146984770B3B3
:10256000EB6B9F422DD22B6C53F80A3093E8070097
:1025700084E807009DF8032021462846FFF766FF00
:1025800009F066FD4FF47A7200230DF02DF8D5E9BD
:10259000222380185941C5E92001029806F071FCF8
:1025A0000746029806F070FC013887420CDB94E87D
:1025B000070086E80700304604B0BDE8F087013721
:1025C000BCE705F14403D1E7D5E92223134324D026
:1025D00009F03EFD4FF47A7200230DF005F8D5E9BD
:1025E0002023994208BF904217D309F031FD4FF4E0
:1025F0007A7200230CF0F8FFD5E9222380185941A4
:102600000023C5E920010193D1E708F01DFE8145B3
:10261000C3D1022008F050FFBFE79DF803300A2B1A
:1026200088D1C4E7F0B5054685B020480EF094FD8A
:10263000294601A8FFF764FF019C1CB91C480EF055
:10264000FDFD30E0029E304606F01BFC00282ADD2E
:1026500009F0FEFC0746F8B1B5F8743005F15000FA
:102660000133A5F874302246314605F065FE114B62
:1026700000251868009023681DF805105B684FF06E
:10268000FF32204601359847042DF4D109F0E0FCD3
:10269000C11B09480EF060FD304606F0F7FB2368C9
:1026A00020469B689847012005B0F0BD14730200D6
:1026B00089680200E47202001A73020038B5064C01
:1026C000236833B92C20FDF7DBFD054607F048FCF5
:1026D0002560206838BD00BF30C3072010B5044610
:1026E000FFF7ECFF03682146BDE810405B684FF040
:1026F000FF32184713B5002302AC04F8013DFFF781
:10270000DDFF03684FF0FF321B68214698479DF8B4
:10271000070002B010BDFFFF2DE9F04100F15004A9
:102720008AB000250646009520465B4B5B4A5C4913
:1027300005F022FD009520465A4B5B4A5B4905F0A7
:102740001BFD009520465A4B5A4A5B4905F014FD83
:1027500000952046594B5A4A5A4905F00DFD0095FF
:102760002046594B594A5A4905F006FD0095204626
:10277000584B594A594905F0FFFC00952046584BE3
:10278000584A594905F0F8FC00952046574B584ADD
:10279000584905F0F1FC00952046574B574A5849D7
:1027A00005F0EAFC00952046564B574A574905F07C
:1027B000E3FC00952046564B564A574905F0DCFC91
:1027C00000952046554B564A564905F0D5FC0095D4
:1027D0002046554B554A564905F0CEFC00952046FB
:1027E000544B554A554905F0C7FC00952046544BBB
:1027F000544A554905F0C0FC00952046534B544AB5
:10280000544905F0B9FC00952046534B534A5449AE
:1028100005F0B2FC00952046524B534A534905F04F
:10282000ABFC00952046524B524A534905F0A4FC9C
:102830000095524B524A5349204605F09DFCFFF744
:102840003DFF4FF4807320224FF41641054607F0F8
:1028500067FB804601272F744B48FDF78BFD4B48E3
:10286000FDF782FD3A4629463046FFF729FE082249
:1028700003A905A806F0DEFA05A8454906F04CFDB7
:102880002A4605A9204605F057FD05A806F0E7FAF7
:1028900040460AB0BDE8F081307302007273020056
:1028A0003D050100677302007773020025060100F1
:1028B0007F7302008D730200A50F01009473020064
:1028C000D573020049060100DA7302003674020073
:1028D0001D0901003A740200C87402009D0801003D
:1028E0007C740200C77402001D0D0100CB7402004D
:1028F000F9740200210A0100FC7402002175020033
:10290000990B01002775020054750200110C01009B
:1029100057750200F18E02006D0C01007C750200FB
:102920009F750200D50B0100A275020075760200AA
:102930004911010079760200BC7602005D0E0100AB
:10294000C4760200D77602001D0F0100DE76020079
:10295000DD7702000D070100E1770200097802002F
:102960004D0F01000F780200756F02006117010022
:10297000397802002D79020095130100F6780200E3
:10298000DB650200E1120100F5260100DD260100F1
:10299000656C020008B5054802F0A4F900F07AFE63
:1029A00000F004FA00F09EFD012008BD68C3072076
:1029B0000120704708B500F0AFFB00F0C9F900F046
:1029C000CBFA00F0ADFA034B03481978BDE8084094
:1029D0000EF0C2BB00C007205479020008B500F019
:1029E000DBFABDE8084000F053BC00F0F9B97047CD
:1029F00008B500F05DFEFCE710B5064C3D21204611
:102A000002F048F92046BDE81040034A0349FDF7AB
:102A100099BC00BF68C307201CC30720794D010083
:102A20007047FFF7B7BFFFF7C3BF10B50446FDF708
:102A300029FC204610BDFFFF70B50B4E05010B4B66
:102A4000741953F82010201D08F00AFDE368A068EF
:102A50009847A36870590133A36000231A46BDE864
:102A60007040194608F03AB8F8C30720107A0200FF
:102A700008B50020FFF7E0FFFBE708B50120FFF7EE
:102A8000DBFFFBE708B50220FFF7D6FFFBE708B541
:102A90000320FFF7D1FFFBE7F7B507460D462D4AA8
:102AA00000240D2312682C49009406F09DF92B4B4D
:102AB00087F831503B602A4D2A4B0322EB602A4BAA
:102AC0002146EB61294B0120EB62294BEB6307F0B8
:102AD000E3FF032228602146012007F0DDFF0322E7
:102AE00028612146012007F0D7FF224B28621E688B
:102AF0000523C6F38F060093324623461E490194F0
:102B00001E4808F05BFA06230093324623461C4910
:102B100001941C4808F052FA0723009301942346BD
:102B200032461949194808F049FA97F8313073B11B
:102B300003222146012007F0AFFF08232863324615
:102B40000093019423461249124808F037FA384698
:102B500003B0F0BD6079020074790200287A0200A7
:102B6000F8C30720B5290100DD290100EB29010088
:102B7000EF290100507902007B790200712A0100DF
:102B80007F7902007B2A010084790200852A0100F6
:102B90008A7902008F2A010038B517480C46415C3B
:102BA00000230131C9B2914202D00155184638BD07
:102BB000124D0355200128581A46194608F094F87A
:102BC0000546B0B90E4B53F8244020460EF036FBB4
:102BD00020460EF035FE2B4602462146094802F0FB
:102BE00023FB094A094B9A644FF08043AA221A72C8
:102BF0001D70012038BD00BF38C40720F8C307206E
:102C00006479020091790200EFBEADDE004002401F
:102C1000044608B5012008F04FFC94F8313023B188
:102C2000012203212046FFF7B7FF0A220221204696
:102C3000FFF7B2FF0028EDD00A2201212046FFF75E
:102C4000ABFF0028E6D00A2200212046FFF7A4FFB0
:102C5000E0E7FFFF07B5002302AA22F8043D0223A4
:102C60001946C02000F020FC90B10121032000F0A3
:102C70004BFC9DF805309DF8040003EB00200BF0A1
:102C8000EBFD0022044B0BF077FF0CF043F900E062
:102C9000002003B05DF804FB0000244007B5124B90
:102CA00000211A889B78ADF804208DF8063001AA1F
:102CB0000123C02000F007FC1E2006F044FB0DF1AC
:102CC000050201230021C02000F0FDFB1E2006F0BC
:102CD0003AFB01230DF106020021C02000F0F3FBB6
:102CE00003B05DF804FB00BF407A020007B5F8238B
:102CF00002AA02F8043D00210123C02000F0E3FBFA
:102D000003B05DF804FB13B5202302AC04F8043DC6
:102D1000224601230021C02000F0D5FB1E2006F032
:102D200012FB2A2322468DF8043000210123C02003
:102D300000F0C9FB1E2006F006FB60238DF804306E
:102D4000224601230021C02000F0BDFB02B010BDCF
:102D500008B500F011FC0138072825D8DFE800F09D
:102D6000040C24142424241C0121084600F0E0FB58
:102D7000BDE80840FFF792BF0121022000F0D8FB18
:102D8000BDE80840FFF7B2BF0121032000F0D0FBEF
:102D9000BDE80840FFF7B7BF0121042000F0C8FBE1
:102DA000BDE80840FFF756BF08BDFFFF13B5642319
:102DB0000024019400941A461946204606F0FEFBB2
:102DC00028B106F075FD204606F066FD0120034B94
:102DD0001A7860F300021A7002B010BD54C40720C4
:102DE00030B585B000F058FE0CF094F8044600F0C1
:102DF00059FE0CF08FF80021054620460CF07CFBB4
:102E00003F4A137810B143F0180303E060F3041352
:102E100060F3C30313700021102268460DF00FF811
:102E2000384920460CF072FB30B9374920460CF087
:102E30008BFB10B1344C00E0324C20460BF01EFDF1
:102E40000022324B0BF0BCFB2BA3D3E900230BF089
:102E500093FE2F4B00220BF0B3FB0CF03BF820F05D
:102E60007040030A8DF808008DF80930040E030C39
:102E7000284928468DF80A300CF048FB30B926491D
:102E800028460CF061FB10B1234D00E0214D28468F
:102E90000BF0F4FC0022214B0BF092FB16A3D3E9BC
:102EA00000230BF069FE0022194B0BF089FB0CF09C
:102EB00011F820F060431A098DF80C201A0B8DF8D8
:102EC0000D201A0D1B0F8DF80F306C2301939DF808
:102ED00002308DF80E20082262F3030344EA00104A
:102EE00000228DF80B00694610468DF8023006F07E
:102EF00081FC05B030BD00BF8DEDB5A0F7C6B03E7A
:102F000054C407200000B4C20000B4420080564000
:102F10000000E03F000034C30000344300806640FE
:102F20001FB51022002168460CF089FF094B0022D2
:102F30001B78694603F03F038DF808307623019330
:102F4000104601238DF8023006F054FC05B05DF800
:102F500004FB00BF54C407201FB51022002168469F
:102F60000CF06DFF71220192002201236946104688
:102F70008DF808308DF8023006F03CFC044A1378D6
:102F800060F34103C3F34000137005B05DF804FB28
:102F900054C40720FFFFFFFF30B585B0002269460B
:102FA000104606F0D3FB002875D0019A9DF8023038
:102FB0006B2A03F00F0316D06E2AEFD1012B4E4B74
:102FC00009D11A789DF8081061F300021A705A6846
:102FD0006FF35F025A601B78DC07DFD50121022006
:102FE00000F092FADAE7082B444C42D19DF80A200F
:102FF0009DF80B509DF809309DF80810120442EA24
:10300000032328060B4300F0706018430BF014FCF8
:1030100037A3D3E900230BF085FC0022384B0BF0DB
:10302000CDFA0BF077FF9DF80C3020601B019DF866
:103030000D0043EA151343EA00339DF80E0043EAFE
:1030400000539DF80F00000700F0805018430BF06C
:10305000F3FB27A3D3E900230BF064FC294B0022E8
:103060000BF0ACFA0BF056FFA36860606FF35F03E0
:10307000A36020680BF002FC234BC3E900016068E9
:103080000BF0FCFB214B224AC3E900011A23137009
:10309000204A137082E740F6B734174B5968187905
:1030A000C1F35E02A24294BF0024012464F3000035
:1030B0001871C00705D45968193262F35F0159606D
:1030C00011E011F001010ED140F6B8300A4660F36C
:1030D0005F025A6002F0710242F0010202201960A0
:1030E0001A7100F011FA05B030BD00BFAFF30080D7
:1030F0008DEDB5A0F7C6B03E48C4072058C40720E0
:103100000080564000806640C0C80720B8C807202D
:1031100000C0072001C0072008B5002006F05CFBB6
:10312000084B1A7848B142F0040200201A7006F0E9
:10313000B3FBBDE8084006F0BBBB60F382021A7027
:1031400008BD00BF54C407202DE9F04F4C4C8FB090
:10315000CDE90C23CDE90A01D4E9000100220023C6
:103160000BF048FE474D40B1D5E900010022002395
:103170000BF040FE08B11A2078E0012000F0ECF9D5
:10318000D5E90023DDE90A01CDE90223D4E90023D2
:10319000CDE90023DDE90C2300F0CAFB36A3D3E917
:1031A0000023002482468B4626462546CDE9082387
:1031B000354F57F835000BF061FB4FEAC508B844AE
:1031C000CDE90401D8F804000BF058FBDDE9042335
:1031D00080468946DDE90A01CDE90023DDE90C23BB
:1031E000CDE9028900F0A4FB264BCDE90601D3E925
:1031F0000023DDE90401CDE90223214BD3E90023BB
:10320000CDE9002342464B4600F092FB02460B46B6
:10321000504659460BF016FEE0B1DDE90823DDE922
:1032200006010BF0F1FDA8B100224FF0804350469B
:1032300059460BF007FE68B10121084600F078F905
:10324000124B1B78AB4205D0DDE90623CDE90823FC
:10325000ECB2012601351A2DABD1002E8BD0012006
:10326000002100F065F92046084B1C700FB0BDE846
:10327000F08F00BFAFF3008033333333F387C340A5
:10328000C0C80720B8C80720447A020001C0072040
:103290002DE9F04F8BB01022002106A80CF0CFFDD5
:1032A000FFF7D8FC002105460CF026F9744B1A787C
:1032B00010B142F0200201E060F34512714C1A7027
:1032C0002378714F192BDFF8D8B1DFF8D8A106D8D1
:1032D000D7E9000100226D4B0BF0A0FD30B1DBE916
:1032E0000023DAE90001FFF72FFF20702378684EF2
:1032F000059306EBC30250680BF0C0FA804689467E
:10330000059B56F833000BF0B9FADBE90023CDE951
:103310000223DAE90023CDE9002342464B4600F0C0
:1033200007FB2478C7E9000106EBC40358680BF0DB
:10333000A5FA8046894656F834000BF09FFA4246BB
:103340004B4600F045FA0BF0E5FD0446D7E90001D5
:103350000BF0E0FD4F4905230A680646013292FB57
:10336000F3F303EB8303D31A01D00A6006E00B608A
:1033700000F0FBF8434B187800F0EEF80023002132
:1033800020468DF827308DF826300CF0BFF800B1BC
:10339000002420460BF072FA33A3D3E900230BF08C
:1033A00051FD00B13C4C20460BF068FA30A3D3E944
:1033B00000230BF0E1FB0022384B0BF001F90BF07E
:1033C00089FDC0F30B008DF82000040A0021284677
:1033D0000CF09CF800B1002528460BF04FFA22A310
:1033E000D3E900230BF02EFD00B12B4D28460BF046
:1033F00045FA1FA3D3E900230BF0BEFB0022274BA5
:103400000BF0DEF80BF066FD44EA001400098DF8BD
:10341000220030468DF821400BF030FA16A3D3E994
:1034200000230BF0A9FB00221C4B0BF0C9F80BF09A
:1034300051FDC0F31000030A8DF824306D2307936B
:103440009DF81A30082262F303038DF8230000224E
:10345000000C8DF8250006A910468DF81A3006F0EC
:10346000C9F90BB0BDE8F08F66666666667E764089
:103470009A9999999999B93F7B14AE47E17A843F1B
:1034800054C4072000C0072040C407200000144097
:10349000447A020050C4072033F3B3430000E03FF6
:1034A00070C30720F0C30720F7B50D4616461F4628
:1034B0000446FDF767FD009733462A46214606F08D
:1034C00009FF03B0F0BDF7B50D4616461F4604468A
:1034D000FDF758FD009733462A46214606F00BFFBC
:1034E00003B0F0BD08B5054801F005FC044801F043
:1034F00002FCBDE80840034801F0FDBB74C407208E
:1035000064C407206CC40720022805D0032805D016
:10351000012806D1034802E0034800E0034801F017
:10352000FEBB704774C4072064C407206CC4072026
:10353000F8B5084C064625680F4625B90120FCF76A
:103540009FFE057020603A4631462068BDE8F8408D
:1035500001F058BD58C3072010B50446FEF7CCFB58
:103560002146BDE8104001F0D8BC08B5FEF7C4FB09
:10357000BDE8084001F0C6BC08B5FEF7FDFBBDE89C
:10358000084001F04BBDFFFF70B5114E114D124CBC
:103590001E21304601F07EFB3046104E2A46214661
:1035A000FCF7D0FE1D21304601F074FB30460C4E76
:1035B0002A462146FCF7C6FE3321304601F06AFB5D
:1035C0002A4621463046BDE87040FCF7BBBE00BF2E
:1035D00074C407201CC30720794D010064C4072070
:1035E0006CC407202DE9F0410A4C054623680E46BD
:1035F00017463BB92C20FCF743FE804606F004FD3D
:10360000C4F800803B46324629462068BDE8F041B8
:1036100006F0DABC7CC4072038B5064C236833B901
:103620002C20FCF72DFE054606F0EEFC25602068F8
:1036300038BD00BF7CC4072038B50D460446FFF7EF
:10364000EBFF2A462146BDE8384006F047BD70B57D
:103650000D4616460446FFF7DFFF33462A4621464D
:10366000BDE8704006F048BD08B50A210648FFF7DE
:10367000E3FF0A210548FFF7DFFFBDE808400A2104
:103680000348FFF7D9BF00BF1C7B02004E7B02003E
:103690005E7B020008B5FFF768FF3C2278214FF4FB
:1036A0001650FFF79FFFBDE80840FFF7DDBFFFFFA3
:1036B0002DE9F04164208EB005F045FE64227821AA
:1036C0003C48FFF7C4FF002871D008AB029305AB5C
:1036D000019306AB002400930BAA04AB364935488E
:1036E000ADF81040ADF814400DF0ECFF05285AD1AC
:1036F00008F032FA01210846FFF706FFDDE9066708
:1037000000222E4B304639460BF036FA0BF0BAFB4E
:103710004FF06408044608FB00F00BF09DF80246E9
:103720000B46304639460AF049FF0022244B0BF085
:1037300023FA064620460F460BF08EF802460B464B
:10374000304639460AF03CFFDDE908671D4B002290
:10375000C3E90001194B304639460BF00DFA0BF066
:1037600091FB054608FB00F00BF076F802460B468D
:10377000304639460AF022FF0022114B0BF0FCF9CB
:10378000064628460F460BF067F802460B463046C1
:1037900039460AF015FF0C4C01F1004120606160D0
:1037A00008F0EAF903E021460120FFF7ADFE0EB074
:1037B000BDE8F08178C30720767B02000000594005
:1037C00000004E40F0C3072070C30720FFFFFFFF3B
:1037D0002DE9F04F164685B01F460022002304460F
:1037E0000D460BF007FB40B100220023304639465E
:1037F0000BF000FB002840F0868047A3D3E90023AC
:10380000204629460BF08EF80022454B0BF0B4F908
:103810008046894609F0ACF9424B0446D3E90023BF
:103820000D46304639460AF0C9FE3BA3D3E90023D2
:103830000BF078F800223A4B0BF09EF9CDE902012B
:1038400009F0DEF934A3D3E90023CDE900013649BC
:10385000D1E900010BF066F80022314B0BF08CF936
:1038600082468B4609F084F906460F464046494693
:1038700009F0C6F9804689465046594609F0C0F914
:1038800082468B46DDE9020109F072F94246CDE934
:1038900002014B46304639460BF044F85246064684
:1038A0000F465B46204629460BF03CF8DDE9022333
:1038B0000BF038F802460B46304639460AF07EFED9
:1038C000DDE9002306460F46204629460BF02AF87C
:1038D00032463B4609F0DCF90022114B0BF022F88E
:1038E0000DA3D3E900230BF047F90022002304467F
:1038F0000D460BF089FA48B100220C4B20462946B0
:103900000AF05EFE04E00020002101E02046294686
:1039100005B0BDE8F08F00BF6E861BF0F9210940AD
:103920000080664070C30720F0C307200080764007
:103930002DE9F84F14461D460022002306460F4687
:103940000BF058FA40B100220023204629460BF024
:1039500051FA002840F08580DDE90A2330463946D7
:103960000AF02CFE0022484B0AF0DCFF40A3D3E90A
:1039700000230AF0D7FF09F043F93FA3D3E900235E
:1039800082468B46304639460AF0CCFF00223F4B38
:103990000BF0F2F809F0ECF837A3D3E90023064660
:1039A0000F46DDE90A010AF0BDFF0022374B0BF09C
:1039B000E3F809F0DDF8DDE90C238046894620466E
:1039C00029460AF0FBFD00222F4B0AF0ABFF28A38B
:1039D000D3E900230AF0A6FF09F012F902460B46CC
:1039E0000AF0A0FF424604460D464B463046394693
:1039F0000AF098FF02460B46204629460AF092FF3D
:103A0000524604460D465B46504659460AF08AFF28
:103A100002460B46204629460AF0D2FD06460F46CE
:103A200009F038F932463B4604460D460020184955
:103A30000AF0C4FD09F02EF902460B46204629463D
:103A400009F026F902460B460AF0BAFD0CA3D3E9A9
:103A500000230AF067FF00220E4B0AF063FFBDE867
:103A6000F88F00200021BDE8F88F00BFAFF3008081
:103A700070E20DA545DF913F6E861BF0F9210940EC
:103A80000000000000E3B8400000E03F0080664016
:103A90000000F03F00408F40014BD3E90001704728
:103AA000F0C30720014BD3E90001704770C3072022
:103AB00037B59020FCF7E4FB04460321FEF76EFCCB
:103AC000204605F063F9002401234FF400728DE8CD
:103AD00018000B4923460B4807F070FA3420FCF716
:103AE000CFFB05462146FEF7D7FF284605F04EF9E5
:103AF0002046214605F058F94FF0FF3003B030BDA5
:103B0000A07B0200F129010010B54FF6FF742423B9
:103B100003FB0101884209D043782BB1038C134485
:103B2000A34228BF234603842430F3E710BDFFFFE0
:103B300037B5002302A840F8043D0C4B04215B6814
:103B400098470B4B019A1C680546141B1A60042108
:103B500022460848FFF7D8FF224602210648FFF711
:103B6000D3FF281C18BF012003B030BD80C407203C
:103B700050C5072094C407206DC5072008B50B4B1E
:103B8000197803788B420A4B0BBF1A889A88013246
:103B9000013214BF9A801A80064B8170DB682021A5
:103BA0009847003018BF012008BD00BF09C007209A
:103BB00025C5072080C407200A4B02781B789A424B
:103BC000094B0BBFDA881A89013201320CBFDA8047
:103BD0001A810379C3F3C202073262F3C50303718A
:103BE000FFF7CCBF09C0072025C5072010B507493E
:103BF000002311F823409A00844202D10348104464
:103C000010BD0133042BF4D1002010BD3FC50720A7
:103C100070B1C3780133DBB2FF2BC37008D1054804
:103C20000023C118CA7804335208102BCA70F8D187
:103C3000704700BF3FC50720242202FB0101034655
:103C4000024630B5914206D01446243212F8235C65
:103C5000002DF7D10FE00446002599420BD01A79C8
:103C6000C2F3C2001A8C42EA0042AA4284BF1C4638
:103C700015462433F1E7204630BDFFFF38B5054631
:103C8000C90001F10804FFF753FF1C4B2A781B7889
:103C90009A4204D102211A48FFF7CEFF0CE004211A
:103CA0001848FFF7C9FFEB7833B990F823300424A4
:103CB00043F0800380F82330002380F8203080F820
:103CC000213002462B4690F8231080F8224021F044
:103CD0007F01C4F306240C4380F8234005F1200142
:103CE00053F8044B8B4242F8044BF9D1064A03794E
:103CF000127862F3C503037138BD00BF09C0072005
:103D00006DC5072094C4072008C0072008B5FFF739
:103D10006DFF0346D8B9FFF769FF0346B8B90D4AEE
:103D2000D378D179D07A8B4296BF1946131D1346AA
:103D3000814294BF0846084BD17B084A814238BF74
:103D40001346074900221A60CA7A0132CA7218461D
:103D500008BD00BF3FC5072047C507204BC507204A
:103D600025C507202DE9F84F05460C464FF02409DC
:103D700009FB0219DFF868A1DFF868B14E1C4FF0AB
:103D800000084C4500F09A8094F823301A0624D598
:103D9000B5B12A7861788A4205D16F7816F8010C9E
:103DA000874200F08D80E87850B16878884207D16A
:103DB00016F8011C914203D1A979A27991427FD0D2
:103DC00094F82220218C03F07F0342EA03239942D6
:103DD00071DB2046FFF7D2FE72E06278002A6AD0DB
:103DE0006DB3297901F0C001C02917D116F8010C73
:103DF0006978884202D12878904261D0E778A87823
:103E000087420CD191420AD116F8010C29788842D8
:103E100005D1A079A979884201D151E079B1A8787A
:103E2000E17888420BD16978914208D116F8010CEB
:103E30002978884203D1A079A979884246D094F89C
:103E40002210208C03F07F0341EA0323984232DBE7
:103E5000237984F82080C3F3C201CFB284F8218093
:103E60001FB12046FFF7A8FE25E003F0C003C02BDA
:103E700019D016F8010C9AF80030984213D1E37863
:103E80009A4210D07BB16379032262F30713637106
:103E9000E1702046FFF790FE23799BF8002062F343
:103EA000C503237100E001276078FFF79FFE08B18A
:103EB000C0F8008027B92434243662E7BDE8F88FC3
:103EC0002422002120460BF0BAFFF4E7237984F87E
:103ED00020806FF3C50384F821802371EBE700BFD6
:103EE00009C0072008C00720431EDBB2FD2B9DBF81
:103EF000024B187001200020704700BF09C0072046
:103F0000014B1878704700BF09C0072007289CBFE5
:103F1000014B1870704700BF08C007202DE9F74318
:103F2000044691461E469DF828500F46002966D04B
:103F3000364B93F80080414563D00F2E61D800289E
:103F400061D0202200210BF07AFFFF2F237914BFCC
:103F500009F00302002262F38713032262F30203D3
:103F60002B4A6770127884F8008062F3C503294AEF
:103F70002371137884F802800133DBB21370A371CC
:103F80000BAB019315B94FF001081BE004F10809D0
:103F9000019AE0791346526853F8081B00EB0208B7
:103FA0005FFA88F8013DB8F1180F0193EDB207D818
:103FB00048440BF01EFF84F80780002DE8D1E2E7AB
:103FC0004FF00008DFF850900123384689F80030A0
:103FD000FFF70CFE0546FFF71BFE002389F80030B3
:103FE000637925B966F307136371E57005E0AA7874
:103FF00062F3071363716B78E370404603E0084691
:1040000001E00020FFE703B0BDE8F08309C007200E
:1040100008C0072024C5072031C50720124B012204
:1040200070B51A7004461E4608B9002518E0FFF75F
:10403000A5FD05460028F8D0237903F0C003402BE6
:1040400006D0C02B0AD1E37853B162789A4207D0E8
:10405000617920460909FFF711FE01E0802BF7D0B6
:1040600000233370284670BD31C5072082B02DE98A
:10407000F0439146421ED2B28DB0FD2A05460E464F
:1040800015939DF8688001D9002057E0002BFBD0E4
:10409000179F002FF8D0199B002BF5D0189B002BF1
:1040A000F2D0169B002BEFD04822002126480BF0BF
:1040B000C6FE9022002125480BF0C1FE10220021EF
:1040C00023480BF0BCFE234B00241C605C609C600A
:1040D000214B1C605C609C60204B1D70204B214D6F
:1040E0001E7015AE0FCE0FC53368182221461E482C
:1040F0002B600BF0A4FE494617221B480DF0E6FB8F
:1041000021462046B8470028BED0B8F1000F02D1A2
:10411000FFF70EFD12E006230293144B2246019393
:1041200001230093FF2104A8FFF7F8FE0028ABD07D
:1041300004A8FFF773FF0028A6D0E9E70DB0BDE89B
:10414000F04302B0704700BF6DC5072094C407203C
:104150003FC5072033C5072025C5072009C0072014
:1041600032C5072080C4072054C50720A47B020065
:1041700030B5182B8DB016D8B2FA82F41D1C18BFBA
:1041800001256409AC420ED00293019200950A46C3
:104190009DF84030014604A8FFF7C0FE18B104A8FE
:1041A000FFF73CFF00E000200DB030BD13B55379A0
:1041B00014781B09009302460B4620460321FFF7A3
:1041C000D7FF02B010BDFFFF00231A4630B5084CE0
:1041D00014F82350990035B1904202D104480844A4
:1041E00030BD0132D2B20133042BF1D1002030BDF9
:1041F0003FC5072000231846044A12F8231009B1CE
:104200000130C0B20133042BF7D170473FC50720FE
:104210002DE9F04188B02022002168460BF00FFE06
:10422000A14B1B7803F0FF04002B40F039819F4F16
:1042300020213B6968469847002800F084809C4D07
:104240006B8801336B80FFF7D5FF9DF80420A872BF
:1042500002F00703032B04D0964A137843F00103BE
:1042600009E0954B1D789DF80230AB4205D1914A8B
:10427000137843F002031370E4E0C2F3C2029DF826
:1042800000E09DF806008D49D6B204EB440313F814
:1042900001C0F4450BD10B4493F801C0844506D10D
:1042A000997801248E1B18BF01269A7018E00134FA
:1042B000042CEAD182490B689A70804A587002F146
:1042C0000900834283F800E040F0C9800A609DF84D
:1042D00000009DF80230834240F0C480002426464E
:1042E0009DF80200FFF712FD9DF8022002709DF874
:1042F0000220427000228270FFF78AFC04B116B3DC
:104300009DF80030AB4200F09C809DF80160FF2ECC
:104310001BD13B6820216846984720B9654A13782D
:1043200043F0040313709DF8053003F00F02511C95
:1043300061F303038DF80530C3F303139A4202DAE5
:104340006846FFF71BFC00247CE0B5422BD164B922
:104350009DF807304BB13B6820216846984720B94B
:10436000544A137843F0040313709DF8043003F0AB
:10437000C003402B12D19DF807306A4613B91821AB
:10438000504808E00C214A48FFF710FF002858D198
:1043900000216A460846FFF709FF52E09DF8033006
:1043A000002B4ED1F4E7484B1B78002BCBD09DF867
:1043B000054004F00F074FEA14184745C3DA0137E8
:1043C00067F303043046FFF711FC8DF805409DF8B4
:1043D0000340A54221D19DF8041001F0C0014029FD
:1043E00006D0A1F180035A425A41144610B90CE09C
:1043F000012260B1C029437805D19E4203D0003329
:1044000018BF012304E0002302E0C0290ED10346B7
:10441000134303F0010420B908E094B908B94146F8
:104420000CE043788DF80330857802E000258DF8A4
:1044300003506846FFF7A2FB1CB129466846FFF708
:104440001DFC6C46FFF774FB204604221F49FFF752
:1044500089FC02221E492046FFF784FC20E003333A
:104460000B6034E785423FF439AFFFF74FFC044659
:10447000FFF7CEFB23783BB19DF80530A27803F01F
:104480000F0393423FF72AAF9DF8003023709DF849
:10449000023063709DF80530C3F30303A3701DE77A
:1044A00008B0BDE8F08100BF31C5072080C40720F7
:1044B00025C507206CC5072009C0072033C5072084
:1044C00004C0072054C5072032C5072094C4072024
:1044D0006DC5072000231846094AD118497809B14B
:1044E0000130C0B22433902BF7D1064B5A780AB171
:1044F0000130C0B293F825300BB10130C0B2704723
:1045000094C407206DC5072008B5FFF76FFB064B65
:1045100028B18278187802FB0000C00008BD187826
:104520001823584308BD00BF08C0072003490B6883
:1045300003604B6843608B688360704725C5072024
:1045400070B53E4C4FF48035E5613D4CA06020468F
:10455000C5683B4CED06FBD4A0680D46C0B20BB954
:1045600023465FE02346002A63D0072A0E782DDD1C
:104570009E604E78083A9E608E789E60CE789E60EF
:104580000E799E604E799E608E799E6001F10806DC
:10459000C979996099694907FCD5A1682970A16812
:1045A0006970A168A970A168E970D968C906FCD4CE
:1045B000A168083505F8041CA16805F8031CA1686A
:1045C00005F8021CA16805F8011C1AE0032A1ADD8F
:1045D0009E604E78043A9E608E789E600E1DC9786B
:1045E0009960D968C906FCD4A168043505F8041C93
:1045F000A16805F8031CA16805F8021CA16805F86C
:10460000011C3146AFE701319E60013ADE68F606D3
:10461000FCD4A668013505F8016CA4E7E668F60647
:10462000FCD4A6686E1AB24203DD15F8016B9E60D9
:10463000F4E7024B4FF480329A6170BD00C009204C
:104640000080084007B5002302A901F8013D0123BD
:104650001A4600F01F00FFF773FF9DF8070003B034
:104660005DF804FB13B502AC04F8011D00F01F0057
:1046700000230122214640F02000FFF761FF02B035
:1046800010BD08B51720FFF7DDFFC0F3001008BD0F
:1046900070210720FFF7E6BF0A4600230146A0204D
:1046A000FFF74EBF08B50020FFF7CCFFBDE808407C
:1046B00000F0FE010020FFF7D5BFFFFF024B4FF0D7
:1046C0008072DA61704700BF20C0092008B5002061
:1046D000FFF7B8FF40F00101C9B20020FFF7C2FFA9
:1046E000024B4FF080729A6108BD00BF20C00920C4
:1046F00020210720FFF7B6BF00231A461946E12004
:10470000FFF71EBF37B504460D46FFF7F5FF2046FD
:104710002946FFF7C1FF0D4B4FF080721C469A618E
:104720000022ADF80620BDF8063001339BB2ADF88B
:10473000063033B94FF08073E361FFF7DDFF03B05C
:1047400030BDFFF79EFF0028EDD0F3E720C0092021
:1047500008B51720FFF776FF00F0010080F0010098
:1047600008BD40210720FFF77DBF08B50A46012399
:1047700001466120FFF7E4FEC0F3420008BD0023BC
:104780001A461946E220FFF7DBBE70B50646002048
:104790000D461446FFF756FF16B100F0BF0002E0C9
:1047A00040F04000C0B215B100F0DF0101E040F080
:1047B000200114B101F0EF0101E041F010010020EF
:1047C000BDE87040FFF74EBF10B504460020FFF76C
:1047D00039FF14B900F0F7010DE0012C04D100F00D
:1047E000FB0141F0080106E0022C14BF40F0080173
:1047F00040F00C01C9B20020BDE81040FFF732BF05
:1048000008B50020FFF71EFFBDE8084040F0020198
:10481000C9B20020FFF726BF08B50020FFF712FF3E
:10482000BDE8084000F0FD010020FFF71BBF40F687
:10483000DD13984206D840F66213B0F5166F38BF04
:10484000184600E01846A0F51661C9B20520FFF72A
:1048500009BF10B504460620FFF7F4FEFA2C00F05D
:10486000D70102D141F0200104E0B4F5FA6F08BF8E
:1048700041F008010620BDE81040FFF7F3BE10B577
:1048800004460620FFF7DEFE032C28BF032420F099
:10489000060040EA4401C9B20620BDE81040FFF717
:1048A000E1BEF9284FF0FA0305D9B0F57A6F88BF59
:1048B0004FF47A6000E01846B0FBF3F00F2900F1E6
:1048C000FF30C0B228BF0F2141EA0011C9B2042055
:1048D000FFF7C8BE1130C0B2162804D8202928BF5F
:1048E0002021FFF7BFBE7047032804D0042814BF5F
:1048F0000321022100E001210320FFF7B3BE0A4695
:10490000002301463020FFF71BBE0A460023014664
:104910002A20FFF715BEFFFF73B50E461546044665
:10492000FFF72DFFFFF7E8FE2B4B4FF08072DA61A7
:10493000FFF772FF002211460120FFF726FFFFF765
:10494000A7FE0220FFF740FF3046FFF770FF284622
:10495000FFF77FFF0320FFF792FF03210220FFF7FD
:1049600081FE00210120FFF77DFE03214FF4FA7044
:10497000FFF797FF21460020FFF7ACFF0021122030
:10498000FFF770FE00211320FFF76CFE00211420BA
:10499000FFF768FE00211520FFF764FE00211620B6
:1049A000FFF760FE0D4B18681B79009005208DF80D
:1049B0000430FFF799FF68460521FFF7A0FF0521A6
:1049C0006846FFF7A2FFFFF71BFF4FF4FA6004F001
:1049D000A5FC02B070BD00BF20C00920AB7B020067
:1049E00070B5174E326822B92021032006F054F822
:1049F0003060144D2A6822B92021012006F04CF8BD
:104A00002860114C216821B90322012006F044F8E6
:104A100020604FF4FA6240F6C3112020FFF77CFFBC
:104A2000FFF754FE1620094A012104F0B9FF30684F
:104A300028B1286818B12068003018BF012070BD67
:104A4000BCC50720B8C50720C0C50720F94A01002A
:104A500070B50379014603F0C003C02B0CBF0E4BA9
:104A60000E4B88B01D68002306461A46284606F0FD
:104A700035F8044660B9034602466946284606F002
:104A800033F9234622463146284606F027F80446E5
:104A9000204608B070BD00BFB8C50720BCC50720C0
:104AA00038B504460D46FFF72BFA237883420AD027
:104AB000E37843B90CF0F2FBBD2300F0030000FBE8
:104AC000033004F02BFCFFF7F9FDFFF7EBFDA9B273
:104AD0002046FFF717FEFFF70BFEFFF7F7FD06F086
:104AE00007FF022804D1034B0021186806F0CAF81A
:104AF000012038BDC0C5072007B5002302A941F831
:104B0000043D084B186806F0BDF8019B3BB1064B0D
:104B10004FF080521A60BFF34F8FBFF36F8F03B017
:104B20005DF804FBC0C5072004ED00E038B504467D
:104B30000D46FFF70DFE48B1A9B22046FFF715FE5E
:104B4000FFF706FE08B9FFF70CFE012038BD2DE97E
:104B5000704305460E46144606F0CAFE022807D1E9
:104B6000224600233146284606F0BEF8C4B21DE0B6
:104B700007F06EFA4FF47A7200230AF035FD10EB5D
:104B8000040841F1000900231A463146284606F080
:104B9000ABF8C4B254B907F05BFA4FF47A72002351
:104BA0000AF022FD894508BF8045ECD22046BDE8C9
:104BB0007083042938B5054603D1041C18BF0124AD
:104BC00000E0002407F044FA2CB14FF47A7200237D
:104BD0000AF00AFD2860204638BDFFFF00B50C4BE7
:104BE0008DB009930B4B0C4A0B930C4B0A930CABF7
:104BF00043F8102D002204920FCB8DE80F00084BD4
:104C0000084A01216A20FFF731FA0DB05DF804FB74
:104C1000E14901002D4B0100B34B0100A14A010005
:104C2000514A0100B07B0200024B0A460146186857
:104C3000FFF78DBFBCC50720024B0A460146186826
:104C4000FFF785BFB8C5072008B506F051FE0F4B2A
:104C500002285B6913D15A020DD5FFF73BFC0028EF
:104C60000B484FF0000314BF01224FF0FF321946EA
:104C7000006806F039F8BDE80840FFF7C9BA5B02E2
:104C8000F9D5FFF727FC0028F5D108BD00C00920A1
:104C9000C0C50720F0B5864687B0114F4C1101F012
:104CA0001F0501AE457004700FCF0FC670463B68FC
:104CB0000321336006AB03EB840353F8143C6D000F
:104CC000CEF80430E30003F1804303F530331A6873
:104CD00001FA05F522EA05051D6007B0F0BD00BF29
:104CE000B87B0200416840780A680123834022EAC9
:104CF00003030B607047416840780A6801238340D2
:104D000013430B6070474178426801238B409361E5
:104D100070474178426801238B40D361704709B1E5
:104D2000FFF7F1BFFFF7F5BF30B543780578064CC4
:104D30005B0054F83520032101FA03F322EA030350
:104D400044F8353030BD00BF40C0024010B5094ABC
:104D500004780123407821B152F8241083400B439A
:104D600004E052F82410834021EA030342F824307F
:104D700010BD00BF68C0024010B50446FFF7B2FF87
:104D800000212046FFF7E2FF2046FFF7CDFF204637
:104D900010BD13460A460179006805F0B0BA1FB588
:104DA000002204AB047923F8042D0222009200684B
:104DB0000A46214605F08EFA9DF80C009DF80D304C
:104DC00043EA002004B010BD10B5044619222A2180
:104DD000FFF7DFFF0D222179206805F07FFAA0F1AF
:104DE0002A035842584110BD044A13881F2B9FBF05
:104DF000581C1080024A42F823107047C8C507208B
:104E0000CCC50720154AF0B513881646012B21D9C9
:104E1000134A00201546013B984206DA516814688F
:104E20000130091B42F8041BF6E700210C466A68B2
:104E30004FF0010E02EB52008AB2934208DD55F8A2
:104E400022700131B8423CBF0EFA02F21443F3E77C
:104E5000044B1C6000233380F0BD00BFC8C5072091
:104E6000CCC50720C4C5072008B50121022007F0E2
:104E700089F8084B01209A6A22F007029A629A6A1E
:104E800042F006029A62044AD36843F03003D360CA
:104E900008BD00BF0080004000C0024008B5044BC0
:104EA000417101F07F015A5C0321FFF772FF08BDD9
:104EB000CC7B020008B5044B817101F07F015A5C84
:104EC0000221FFF766FF08BDCC7B020038B504461F
:104ED0000179006805F01EFA054688B10022062116
:104EE0002046FFF756FF002207212046FFF751FF1B
:104EF0002E212046FFF7D2FF2E212046FFF7DAFFB2
:104F0000284638BD10B504462021FFF7C7FF2046CC
:104F1000BDE810402021FFF7CDBF642370B5B1FB81
:104F2000F3F404FB1311CCB20A21B4FBF1F501FB3D
:104F300015413031C9B20646FFF7BCFF092C88BFC6
:104F400005F130013046BDE8704094BF2021C9B260
:104F5000FFF7A4BF0120704738B50D46044606F0A0
:104F6000FBFD05F00F032370114B15F0010F4FF0FF
:104F7000010214BFDA619A61227812F0020F4FF039
:104F8000020214BFDA619A61227812F0040F4FF026
:104F9000100214BFDA619A61227812F0080F4FF400
:104FA000807214BFDA619A61BDE8384006F0E4BD52
:104FB00020C0092038B50D46044606F0CDFD691E17
:104FC000012303FA01F1237820461943C9B2217065
:104FD000FFF7C2FFBDE8384006F0CEBD38B50D463C
:104FE000044606F0B9FD691E012303FA01F1237896
:104FF000204623EA01012170FFF7AEFFBDE83840EB
:1050000006F0BABD0AB1FFF7D5BFFFF7E7BF012031
:105010007047022004F018BA01207047044B5B6906
:10502000180B00F00C00C3F341231843704700BF76
:1050300020C0092010B5044681220121FFF7A9FEF6
:1050400001222179206805F049F910F0600F14BFA2
:105050000120002010BD38B500210446FFF79FFE57
:10506000812205B201212046FFF793FE102095FB17
:10507000F0F00AF059F84FF076510AF0A9F8A1685B
:1050800009F09EFF38BDFFFF08B5FFF7E4FF0549B3
:105090000AF09EF804490AF04FF94FF0844109F0F4
:1050A0008FFF08BD000010410000A0402DE9F04F27
:1050B000ADF2546D0C4690460146012282A89946F5
:1050C00002F03EF8002867D121460A220DF22C405A
:1050D00002F036F8044620B182A802F09AFA20467F
:1050E0005AE06D46064607462860019006F0B0FF7C
:1050F0004FF47A7200230AF077FA2B4683464FF476
:10510000007202A982A802F0B5F88246E0B92A68C6
:10511000D2B106F09DFF4FF47A7200230AF064FAD0
:10512000B0EB0B00074406F093FF4FF47A720023B4
:105130000AF05AFA01AB83462A6802A90DF22C4004
:1051400002F050F98246B0B1B8F1000F01D0C8F8B2
:105150000070B9F1000F01D0C9F80060DDF87836B1
:1051600003B11C6082A802F054FA0DF22C4002F048
:1051700050FA504610E001992A689142E4D106F0B5
:1051800067FF00234FF47A720AF02EFA2B68B0EB17
:105190000B0006441C44A9E70DF2546DBDE8F08FE6
:1051A000F0B5ADF50B7D0E46174601461D460122B2
:1051B000002301A8009301F0C3FF044670B91DB19C
:1051C000294601A802F037FA6B463A46314601A853
:1051D00002F050F8044601A802F01BFA20460DF533
:1051E0000B7DF0BDF0B5ADF50B7D0E4617460146C3
:1051F0001D460A22002301A8009301F0A1FF0446E6
:1052000070B91DB1294601A802F015FA6B463A465D
:10521000314601A802F0E6F8044601A802F0F9F9C7
:1052200020460DF50B7DF0BDF0B5ADF50B7D0E46BE
:10523000174601461D461222002301A8009301F0E3
:105240007FFF044680B90DB1294600E0049901A80A
:1052500002F0F1F96B463A46314601A802F0C2F875
:10526000044601A802F0D5F920460DF50B7DF0BDEE
:105270007F2810B516D931B1FF2812D80A4B8038D3
:1052800033F8100010BD084A32F811408BB2844246
:1052900003D001318029F7D10B4603F18000C0B261
:1052A00010BD002010BD00BF4C7C02000649002349
:1052B00031F8132032B1824201D00133F8E7034ABA
:1052C00032F81300704700BF4C7D02002C7F0200B3
:1052D00010B501200C4605F085FC2060003018BF99
:1052E000012010BD0120704710B5044606F000FBF8
:1052F00002280AD1002319464FF0FF32204605F05C
:10530000F3FC431E5842584110BD012010BD10B59A
:10531000044606F0EDFA022807D100232046BDE836
:1053200010401A46194605F0D9BB10BD10B5044609
:1053300004F0B8FD24B1012C06D100F081F901E0A0
:1053400000F002FD044600E0042404F0C3FD204602
:1053500010BD28B1012801D00420704700F028BA00
:105360007047F8B507460C4615461E4604F09AFDF0
:105370003FB1012F0CD132462946204600F020FAD9
:1053800004E032462946204600F02AFD044600E0AB
:10539000042404F09FFD2046F8BDF8B507460C46EE
:1053A00015461E4604F07EFD3FB1012F0CD132465A
:1053B0002946204600F050FA04E0324629462046AD
:1053C00000F030FD044600E0042404F083FD204694
:1053D000F8BD70B506460C46154604F063FD36B1BF
:1053E000012E0AD12946204600F090FA03E0294612
:1053F000204600F037FD044600E0042404F06AFD76
:10540000204670BD08B506F023FE4FF47A720023E3
:105410000AF0EAF808BDFFFF10B5044606F092FF57
:10542000074BB0FBF3F00223B0FBF3F2944202D33C
:10543000044A136110BDB3F5807FF9D00233F3E75E
:1054400040420F0000000340044B9860DA68D20627
:10545000FCD4024B9868C0B2704700BF0000034004
:1054600070B5FFF7CFFF00F5FA74FF20FFF7ECFFF0
:105470000025FF20FFF7E8FFFF28064605D0FFF7CD
:10548000C1FFA94208BFA042F3D3304670BDFFFF61
:1054900038B5064C4FF00075E561FFF7E1FF044AAF
:1054A000A561137843F00103137038BD20C00920B3
:1054B0000AC007202DE9704306460D46FFF7A2FFFC
:1054C000643080464FF00009FF20FFF7BDFFFF2842
:1054D00008D1FFF797FF494508BF4045F4D30020A6
:1054E000BDE87083FE28FAD1102D06D900224FF4B2
:1054F0000071304604F074FC19E0341D0435FF20BF
:10550000FFF7A2FF04F8040CFF20FFF79DFF04F84B
:10551000030CFF20FFF798FF04F8020CFF20FFF7B1
:1055200093FF043404F8050C2B1BDE42E7D1FF2067
:10553000FFF78AFFFF20FFF787FF0120BDE8708398
:1055400070B506460D46FFF78BFFFF28044619D1BC
:105550002846FFF779FFFD2D16D022464FF4007143
:10556000304604F03DFC2046FFF76EFF2046FFF773
:105570006BFF2046FFF768FF00F01F00431F5842F3
:10558000584170BD002070BD012070BD020638B5C5
:1055900004460D4607D500217720FFF7F7FF0128C5
:1055A00038D804F07F041C4B4FF000729A61DA6126
:1055B000FFF756FFFF28014628D12046FFF744FF9A
:1055C000280EFFF741FFC5F30740FFF73DFFC5F386
:1055D0000720FFF739FFE8B2FFF736FF402C17D05E
:1055E000482C14BF01208720FFF72EFF4C2C02D13E
:1055F0000846FFF729FF0A21FF20FFF725FF0306D2
:1056000008D5013911F0FF01F6D138BDFF2038BDB2
:105610009520EEE738BD00BF20C00920064A0749A3
:1056200013784969DBB2490154BF03F0FD0343F02D
:1056300003031370704700BF0AC0072020C0092071
:105640002DE9F743FFF7EAFF564B1A781E4612F092
:10565000020F01D01878A1E00120FFF7DDFE0A2437
:10566000FF20013CFFF7F0FE14F0FF04F8D14E4F8D
:105670004FF00073FB6121464020FFF787FF0128B0
:1056800002D04FF0000875E0FFF7BCFE4FF4D57173
:1056900000F57A754820FFF779FF012841D10DF117
:1056A0000408FF20FFF7D0FE08F804000134042CA2
:1056B000F7D19DF80630012BE3D19DF80730AA2BD6
:1056C000DFD12C460025FFF79DFEA94208BFA0426E
:1056D00006D3FFF797FEA94208BFA042D1D207E048
:1056E0004FF08041E920FFF751FF0028EBD1F0E7B0
:1056F00000217A20FFF74AFF0028C2D10146FF208F
:10570000FFF7A2FE08F8010001310429F7D19DF846
:10571000043013F0400F14BF4FF00C084FF0040892
:1057200028E02146E920FFF731FF02282C4635BF4B
:105730004FF002084FF001084FF0E9094FF041091E
:105740000025FFF75FFEA94208BFA0420BD3FFF779
:1057500059FEA94208BFA0420CD34FF4007150205B
:10576000FFF714FF06E000214846FFF70FFF00286F
:10577000E7D1ECE70D4B83F800804FF00073BB617D
:10578000B8F1000F07D03378182003F0FE03337010
:10579000FFF742FE01E0FFF77BFE3078C0B203B0B6
:1057A000BDE8F0830AC0072020C009204CC60720AE
:1057B00008B5FFF733FF014B187808BD0AC0072072
:1057C00070B5144606460846FFF728FF002C39D06E
:1057D0001E4B1B78DB0737D41D4B4FF00072DA618C
:1057E0001C4A1D46127812F0080F08BF4002012C17
:1057F00001460CD15120FFF7C9FEE0B94FF400710A
:105800003046FFF757FEB0FA80F4640913E05220E7
:10581000FFF7BCFE78B94FF400713046FFF74AFE3F
:1058200028B1013C14F0FF0406F50076F3D1002105
:105830004C20FFF7ABFE4FF00073201CAB6118BF8C
:10584000012070BD042070BD032070BD0AC0072078
:1058500020C009204CC60720F8B5144606460F465E
:10586000FFF7DCFE002C44D0254B1A78D20742D437
:105870001B785B0741D4234B4FF00072DA61224A58
:105880001D46127812F0080F08BF7F02012C0CD1C0
:1058900039465820FFF77AFE18BBFE213046FFF745
:1058A0004FFEB0FA80F464091CE012F0060F03D03A
:1058B0002146D720FFF76AFE39465920FFF766FEDA
:1058C00080B9FC213046FFF73BFE28B1013C14F0C3
:1058D000FF0406F50076F4D1FD210020FFF730FE2D
:1058E00000B901244FF00073201CAB6118BF0120E8
:1058F000F8BD0420F8BD0320F8BD0220F8BD00BFAC
:105900000AC0072020C009204CC607207FB50D46DD
:10591000FFF784FE05281AD12B78012B00F00481B3
:1059200003D3022B0BD0042001E1824B586910F005
:10593000806440F0F980FFF7ABFD2046F7E07D4B37
:105940005B6983F08063C3F380636B70ECE07A4B38
:105950001B78DB0700F1EA800E2800F2DF80DFE829
:1059600000F008124F53DDDDDDDDDDDDAAAFB2BB97
:10597000CB00704B4FF00072DA61FFF771FDFF381A
:1059800018BF0120CBE000214920FFF7FFFD0446AE
:1059900008B10120C3E010216846FFF78BFD002805
:1059A000F7D09DF800309DF808109B09012B9DF859
:1059B000093006D1013303EB012189B28902296044
:1059C0006BE09DF807209DF80500920002EB911115
:1059D0009DF806200131920202F4406211449DF8C4
:1059E0000A2000F00F0000EBD2105A00023002F043
:1059F00006028318DBB289B2093B01FA03F34BE0DC
:105A00004FF400732B8059E04C4E337803F00403BD
:105A100003F0FF01F3B10021CD20FFF7B7FD00280F
:105A2000B7D1FF20FFF710FD10216846FFF742FDB8
:105A30000028AED03021FF20FFF706FD481E10F0F1
:105A4000FF01F8D19DF80A3008461A091023934047
:105A50002B6064E04920FFF799FD0446002898D1A7
:105A600010216846FFF726FD002892D036789DF871
:105A70000A2006F0020606F0FF009DF80B3076B112
:105A8000520002F07E0202EBD3135A1C9DF80D3037
:105A90009B09013B02FA03F32B6020463FE0D9004B
:105AA00001F01801C2F3840201EB5311531C01FBF6
:105AB00003332B6033E0214B1B782B7000202EE04A
:105AC0000021492001E000214A20FFF75FFD002866
:105AD0007FF45FAF10211AE000217A20FFF756FD16
