:020000021000EC
:10000000E03F082095010100FB000100E100010034
:10001000090101001901010029010100000000008F
:10002000000000000000000000000000C1B101005D
:10003000390101000000000021B201005901010056
:1000400001B8010001B8010001B8010001B80100C8
:1000500001B8010001B8010001B8010001B80100B8
:1000600001B8010001B8010001B8010001B80100A8
:1000700001B8010001B8010001B8010001B8010098
:1000800001B8010001B8010001B8010001B8010088
:1000900001B8010001B8010001B8010001B8010078
:1000A00001B8010001B8010001B8010001B8010068
:1000B00001B8010001B8010001B8010001B8010058
:1000C00001B8010001B8010001B80100C06B0200D5
:1000D00000C00720F4020000F8C2072068050000F5
:1000E00004207146084203D0EFF309800BF0A6BB51
:1000F000EFF308800BF0A2BB704708B5014807F08A
:10010000BBFFFEE76E65020008B5024807F0B4FFCA
:10011000FEE700BF7965020008B5024807F0ACFFB2
:10012000FEE700BF8465020008B5024807F0A4FF9F
:10013000FEE700BF8F65020008B5024807F09CFF8C
:10014000FEE700BF9C65020008B5024807F094FF77
:10015000FEE700BFAA65020008B50AF0E3FF0BF056
:1001600081F8BDE808400AF0F1BF0B4610B5401A0F
:100170005C1AA24203D9C45843F8044BF8E710BDF7
:10018000034610B500221C1AA14202D943F8042BE1
:10019000F9E710BD16480BF007F915480BF007F901
:1001A000144C154DAC4201D3144D07E094E8030004
:1001B0000C3454F8042CFFF7D8FFF3E7AC4206D216
:1001C00054F8080B54F8041CFFF7DAFFF6E70DF0BB
:1001D0008BFA0BF003F901F0DBFD03F01BF84FF491
:1001E00016400BF049FC064807F046FFFEE700BF4B
:1001F000E03F0820CC000100D8000100E000010031
:10020000BE6502000AF0F0BF0AF0FEBF144B10B545
:100210001A68014612B94FF080521A60114C1868E2
:100220002468421894421A6007D20F4CA24204D8A4
:100230000E4A0B488C18046010460D4A1B68126861
:10024000934222BF064B00201A6039B1094A136855
:1002500001331360084B1860084B196010BD00BFD4
:10026000FCC2072004C30720FFBF072060C8072087
:1002700008C307200CC30720F8C2072000C30720CB
:100280000DF06ABB0DF070BB0DF06EBB30B50446CF
:100290008BB068460DF01CFE224B079A2360089B2A
:1002A000214DA36062602149214B52B90A68186848
:1002B00082428ABF02F1604202F17042A2F5E82256
:1002C000626062681B68B2F5803F82BF02F17042D3
:1002D000A2F5E82262600022E2600A68934206D337
:1002E000991AC5F1005303F504230B440BE0114B9D
:1002F0001B68934208D9991AC5F1005303F5F823F6
:100300000B44002B00DDE36020460B4BE2611B68D1
:10031000A3610A4B1B686361094B1B6823610BB027
:1003200030BD00BF6008000060C80720FCC2072085
:1003300004C3072008C30720F8C2072000C3072012
:100340000CC3072000207047034A044B1A60044A7C
:10035000044B1A60704700BF0080001004C30720E0
:100360000040082008C30720014B1860704700BFF9
:1003700018C30720014B1860704700BF10C3072047
:1003800008B502480EF04CFDFEE700BFE03C02005D
:1003900008B502480EF044FDFEE700BFFA3C02003B
:1003A0000020704701207047F8B5084B16461A68C0
:1003B0000F461C4642B10D46EB1B9E4204DD2368EE
:1003C00015F8010B9847F7E73046F8BD18C307202A
:1003D000F8B5094B0F46186816461C4658B10D462D
:1003E000EB1B9E4205DD23680020984705F8010BB2
:1003F000F6E726EAE670F8BD10C307207047002034
:100400007047FFFF074B1B689A68824207D05A6803
:10041000824204D0DB681B1A5842584170470120C1
:10042000704700BF38C10720002070470020704788
:1004300030B504468DB0A8B3684608F039FF9DF882
:100440000030002503F03F0303939DF8013003A81B
:1004500003F03F0304939DF802300B9503F01F0354
:1004600005939DF8043003F01F0306939DF80530B3
:1004700003F00F03013B0793BDF80630C3F30B03F2
:10048000A3F26C7308939DF8033003F007030993FC
:10049000BDF80830C3F30B03013B0A930DF0A6FB34
:1004A00084E8210000200DB030BDFFFF70B50F4D76
:1004B0000F4E2C6814F0010415D128460BF07CFE79
:1004C00088B14FF40E70FFF7DBFE302380F8353231
:1004D0003A2380F8344280F8363280F83742306070
:1004E00028460BF075FE306870BD00BF34C307208E
:1004F00038C3072070B50F4D0F4E2B6813F0010461
:1005000016D128460BF058FE90B14FF40E70FFF74D
:10051000B7FE012380F83432312380F835323A2394
:1005200080F8363280F83742306028460BF050FEB3
:10053000306870BD2CC3072030C307202DE9F04F71
:10054000ADF51B7D0F4608F0BBF9041E04DD0AF073
:10055000B1FD20460AF0F4FA0DF114094C462A4D7B
:100560004FF0640B0FCD0FC42B6804AA2360102139
:1005700000240AA804940AF0A1FC244A82462449D3
:10058000384609F025F926460AAD4FF00008D04557
:100590001CD06B69A34215D1AA69049B16441BB1F8
:1005A000B3FBFBF3B2FBF3F3297B039202932B8C97
:1005B00000949B00019359F821306A681549384628
:1005C00009F006F908F101082435E0E701340A2CA6
:1005D000DAD1049B64229E1BB3FBF2F30E49B6FBF7
:1005E000F3F30E4A0096384609F0F2F80AF07CF967
:1005F000102804D910220A49384609F0E9F80120E8
:100600000DF51B7DBDE8F08F143D0200333D020067
:10061000383D02005F3D0200873D02007C3D020044
:10062000A63D020010B50C46ADF5007D68460BF006
:100630006DF820464FF0FF32694609F093F801202B
:100640000DF5007D10BDFFFF30B50C4691B02C4973
:10065000054608F041F8002847D00CAB04930BABDB
:1006600003930AAB029309AB019308AB009306AA6C
:1006700007AB2449284607F097FF072801D0002040
:100680003BE09DF83930069A0DA862F303038DF81C
:100690003930079A9DF8383062F304038DF838300A
:1006A000089ABDF83A3062F30B03ADF83A30099A74
:1006B0009DF8363062F304038DF836300A9A9DF8BF
:1006C000353062F305038DF835300B9A9DF83430E0
:1006D00062F305038DF834300C9A9DF8373062F3DD
:1006E00002038DF8373008F00BFE08F0A5FE06492E
:1006F0000246204609F06CF8012011B030BD00BF61
:10070000D03D0200D43D0200CE5D0200F7B50D469B
:100710004E49044608F0D0F8064640B107F044FBC5
:100720004FF0FF324A49284609F01CF88BE049494E
:10073000204608F0C1F860B307F05AFB464902466C
:10074000284609F045F807F05FFB44490246284671
:1007500009F03EF807F052FB41490246284609F0ED
:1007600037F8304607F03AFB0446012007F036FB25
:100770000646022007F032FB0746032007F02EFB57
:1007800000970190334622463649284609F020F862
:1007900059E03549204607F09FFF50B12022012142
:1007A000204608F037F8204608F088F807F044FCA7
:1007B00049E02E49204607F08FFF064620B92C4914
:1007C000204607F089FF60B32A49204607F072FFF0
:1007D00060B92949204607F06DFF28B9204627490E
:1007E00007F068FF044602E0032400E002243146DB
:1007F000204607F079FB224A224B002E18BF1A46EA
:100800003CB1012C07D01C491A4B022C18BF0B46D7
:1008100002E01D4B00E0194B1C49284608F0D8FFA8
:1008200011E0204608F04AF8194A1A490090F323CB
:10083000012007F067FB204608F040F81649024601
:10084000284608F0C5FF012003B0F0BD0F3E0200AE
:10085000153E02002E3E0200353E02004A3E0200D6
:100860005F3E02007E3E0200AE3E0200B23E02004B
:10087000BA3E02000A3E0200043E0200FE4F0200A1
:10088000F53D0200ED3D0200FE3D0200C33E0200C8
:10089000283D0200DC3E02000F3F020030B589B067
:1008A00004AB002400930D4603AB022218490394C5
:1008B000049407F087FE022827D107AB009305AA0E
:1008C00006AB0499039805940694079403F078FF07
:1008D000024638B1049B0F4900932846039B08F059
:1008E00077FF10E0059A069B002A079908BF0122AE
:1008F000002B08BF0123B1FBF3F3B1FBF2F2284652
:10090000054908F065FF012000E0204609B030BD30
:100910009E4F02001D3F02003C3F02002DE9F047C0
:100920000E46ADF5856D3949054607F05FFF38493C
:100930000746284607F083FF3549284607F09FFF02
:10094000284607F0BBFF0122014681A805F082FF7F
:10095000044640B1284607F0B1FF2E490246304612
:1009600008F036FF4CE00DF1040A01464FF4007226
:1009700050460DF056F800940AF0B2FE80468946C3
:100980006B464FF40072514681A805F0FDFF08B98F
:10099000009B23BB81A806F0C6F9CFB10AF0A0FEE8
:1009A0004FF47A7200230CF013FC002305464FF439
:1009B0007A72404649460CF00BFC281A14BF0346D5
:1009C0000123B4FBF3F322461349304608F000FF3D
:1009D0004FF0FF321149304608F0C4FE10E01C44CD
:1009E000002FCDD13D46009B9D42C9D233681AF8F5
:1009F00005105B684FF0FF32304698470135F2E74B
:100A000001200DF5856DBDE8F08700BF6A3F02004B
:100A10009E4F0200733F0200873F0200154502000F
:100A20002DE9F0470023BEB00C46534905460C9310
:100A300007F042FF20B9284607F040FF064600E0D5
:100A40004E4E314615A806F027FA054630B103464A
:100A500032464B49204608F0BBFE89E03246494900
:100A6000204608F0B5FE2F460DF1780880230DA929
:100A700015A8CDF84C80149306F052FA002861D1E5
:100A80009DF83D30002B5DD09DF83C100DF13D00F0
:100A9000CA065BBF0D9B0C9A44229B185BBF0C934C
:100AA0002D220135013711F0010F14BF52232D23E0
:100AB000BDF83AA011F0020F09900D9814BF4FF045
:100AC000480E4FF02D0E11F0040F14BF4FF0530CD1
:100AD0004FF02D0C089011F0200FCAF34510BDF80F
:100AE000381007904FEAEA20069001F01F000590A9
:100AF000C1F343104FEA612114BF4FF041094FF099
:100B00002D0901F2BC71CDF804C0CDF800E00490CD
:100B10000391CDF808901C49204608F059FE4FF08B
:100B2000FF321A49204608F009FE41464FF0FF32D5
:100B3000204608F003FE4FF0FF320F49204608F030
:100B400011FE91E73A46124900950C9B204608F0A9
:100B50003FFE0BAA0CA9304606F011FA40B90B9BD8
:100B60000C499A780C9B20465A43520808F030FEF4
:100B700001203EB0BDE8F08715450200A23F02000B
:100B8000A53F0200C93F0200E43F020011400200FD
:100B9000154002003F40020070B50C46064607F0C3
:100BA0008DFE0546304607F089FE06F0AAFA064A91
:100BB000064B0749002808BF13462A46204608F07E
:100BC00007FE012070BD00BFF5410200FF41020099
:100BD0005340020070B50C46064607F06FFE05460E
:100BE000304607F06BFE06F02FFA064A064B07491F
:100BF000002808BF13462A46204608F0E9FD0120D8
:100C000070BD00BFF5410200FF4102006F400200CD
:100C10007FB503AB002400930E4602AB02220F49BE
:100C20000294039407F0CEFC022814D1029C039D89
:100C30002046294606F00EFB094B0A4922460028A9
:100C40000CBF084618462B4600900749304608F06E
:100C5000BFFD012000E0204604B070BD9E4F0200A1
:100C6000FF410200F54102008140020030B5ADF5C0
:100C70000D7D0C46054607F021FE0A22014603A819
:100C800005F0E8FD40B1284607F018FE1F4902466E
:100C9000204608F09DFD34E08DF8070002901C49C5
:100CA00042F210737E22204608F092FD1949204638
:100CB00008F08EFD236842F210721B680DF10701E7
:100CC0002046984718B19DF807307E2B03D103A822
:100CD00006F029F815E002AB01220DF1070103A887
:100CE00005F00AFF58B9029B012B08D123684FF089
:100CF000FF325B689DF8071020469847DAE70649FF
:100D0000D5E701200DF50D7D30BD00BF99400200F3
:100D1000C0400200F8400200184102002DE9F04FE7
:100D2000ADF5417D002304AC236003930D46009490
:100D300003AB0222414907F045FC022806D04FF0E0
:100D4000FF323F49284608F00DFD72E0216817A8E0
:100D500006F0A2F810B122683A4906E0039917A8F4
:100D600006F09AF828B1039A3749284608F030FD72
:100D70005FE04FF480720DEB020105A807F0E4FB81
:100D80004FF4807280A90AA807F0DEFB20AE80270E
:100D90000FA917A81596169706F0C2F8002842D199
:100DA0009DF84530002B3ED09DF8443003F01003F1
:100DB00003F0FF0A002BEBD10DF14503039A234901
:100DC00005A807F0C5FD0DF1450322681F490AA8D3
:100DD00007F0BEFD05A807F071FD07460AA807F059
:100DE0006DFD804605A8DDF83C9007F067FD834661
:100DF0000AA807F063FD534652460146CDF800A00D
:100E0000584603F0DDFC124A124BCDF80090002842
:100E10000CBF184610461049019043463A462846F2
:100E200008F0D6FCB3E70AA807F0A3FB05A807F073
:100E3000A0FB01200DF5417DBDE8F08F9E4F020023
:100E40003F41020084410200A9410200C941020061
:100E5000FF410200F5410200CF410200F8B50D4606
:100E60002449064607F028FD0446074618B1FFF757
:100E700041FB002208E02049304607F01DFD0446F2
:100E800060B1FFF713FB3A46114600F2352006F039
:100E900071FA4FF0FF32194B194922E019493046D7
:100EA00007F00AFD044658B1FFF724FB012200F2C7
:100EB000352105F091FC4FF0FF32134B134910E040
:100EC0001349304607F0F8FC044680B1FFF7EEFA0C
:100ED000012200F2352105F07FFC0E4B0E494FF048
:100EE000FF32002818BF1946284608F03BFC204670
:100EF000F8BD00BF5642020060420200F841020005
:100F0000EE4102006D42020015420200054202005D
:100F1000764202003A4202002C42020008B508461E
:100F20004FF0FF32084908F01DFC06F03DFF4FF47A
:100F3000FA6009F005FE4FF08043AA221A720022DF
:100F40001A70012008BD00BF8242020010B50120C6
:100F50000C4607F0EDFA40B100231A46194609F095
:100F600001F94FF0FF32054902E005494FF0FF3229
:100F7000204608F0F7FB012010BD00BF934202009D
:100F8000A942020038B5064C236833B91C20FFF78C
:100F900077F9054608F094F82560206838BD00BF51
:100FA00024C307202DE9F04F5F4C91B023680E4613
:100FB00033B92C20FFF764F9054608F015FB2560CE
:100FC0002768FFF773FA00240CAA0DA900F2352058
:100FD0000D9405F0D4FF48B90C9A0D9C956993784F
:100FE000023D5C435D4364086D0800E025464F4BBD
:100FF0001A6898467AB90C20FFF742F98146FFF744
:10100000C1FF902389F804300023C9F80000C9F813
:101010000830C8F80090D8F8000003F0BFFB814604
:101020000CF090F80A900BF073FE014648460BF066
:10103000B9FD3F490BF0C0FE0CF084F881460DA8C5
:101040000AF0C2F904F000FB68B308F06FFA04F08C
:10105000E5FA4FF0000A0346D346D0469A450B9373
:101060000BD0504604F03EFB804538BFD3460B9B67
:1010700038BF80460AF1010AF0E708F06FFA6423EE
:1010800003FB08F32B4ACDF80880B3FBF2F3C3F15E
:1010900064030093CDF804B02B462246264930461F
:1010A00008F096FB05E02B4622462449304608F01E
:1010B0008FFB234C23681BB90120FFF7E1F8206068
:1010C000206803F030FB044608F0B6F9FB8C0A9A5E
:1010D0000993BB8C1B4908939DF83430019003F0B1
:1010E0003F0307939DF83530009403F03F030693C8
:1010F0009DF83630304603F01F030593BDF83A30B3
:10110000C3F30B0304939DF8383003F01F030393DC
:101110009DF8393003F00F0302934B4608F058FB5B
:10112000012011B0BDE8F08F28C307201CC30720A1
:1011300000002041A0860100E242020016430200A6
:1011400020C30720244302002DE9F04F0D46C7B00D
:101150005549814607F0D7FA54498246484607F078
:10116000D2FA53498346484607F0CDFA00270DF1DD
:10117000100805AE044602970397C8F80070376060
:10118000BAF1000F45D0009603AB02AA4949484680
:1011900007F00AFA012807DC28464FF0FF324649DB
:1011A00008F0E0FA38467CE00DF118084FF480743E
:1011B0002246394640460CF034FC336813B901230B
:1011C000336003E0B3F5807F88BF3460FFF7DAFE59
:1011D00033689DF80C209DF808100093434608F0F2
:1011E000BDFB364A364B3749002818BF1346029AD2
:1011F000284608F0EDFA002433689C424ED2039A48
:1012000018F8043022443049284608F0E1FA013445
:10121000F2E7BBF1000F2CD0CDF8008003AB02AA9F
:101220002A49484607F0C0F9032807D028464FF05E
:10123000FF32274908F096FA504632E0FFF7A2FE47
:1012400098F800309DF80C209DF8081008F09BFBE2
:1012500048B1039B1F490093D8F80020029B284601
:1012600008F0B6FA1AE0029A1B49284608F0B0FACC
:1012700014E0A8B102230293029BFE2B10DCFFF7BF
:1012800081FE9DF8081008F089FB20B1029A1349ED
:10129000284608F09DFA029B0233ECE7012000E0AB
:1012A000204647B0BDE8F08FBD5002008D430200DC
:1012B000934302009C430200AB430200F54102004D
:1012C000FF410200CC430200F04302000044020050
:1012D0001044020037440200514402006E440200F0
:1012E00070B5ADF50A7D05460C4607F054F90B289C
:1012F00002DD0C2222493CE0284607F0DFFA0122F9
:10130000014601A805F0A6FA064668BB01A805F04B
:101310000AFD284607F0D2FA1A490246049B2046E5
:1013200008F056FA236820469B6898470A2009F07F
:1013300007FC4FF0100383F31188BFF36F8FBFF3E7
:101340004F8F284607F0BAFA02460F4B00685168E3
:1013500003C390680D4A186043F80C2C4FF080438B
:10136000AA221A721E7007E0284607F0A7FA024662
:101370000749204608F02CFA01200DF50A7D70BDC2
:10138000A8440200CF440200484002400DD0ADDE28
:10139000164502002DE9F041404CA4B023680646F2
:1013A000DB070D460CD420460AF006FF40B14FF48F
:1013B00080600CF0D1FA3A4B186020460AF008FF22
:1013C0003849304607F09FF90746044600B38022AB
:1013D000002104A80CF025FB00230293039303AB28
:1013E000009304AA02AB3049304607F0DDF82C49DF
:1013F000029B039A096804A813B903F07DFA01E07F
:1014000003F09CFA294B2A49002818BF194638E0F6
:101410002849304607F077F9074600283AD004AB50
:10142000304603AA2449039404948DF8084007F039
:10143000BBF8039E049B3344B3F5806F02DCDFF8F6
:1014400060800CE04FF480621C4920E0D8F8003046
:101450009DF808209A559DF8083001361C44039BDE
:10146000049AF31A934210DAB6F5806F0DDA2B68FE
:101470004FF4FA621B6802A9284698470028E5D174
:101480000F49284608F0A4F904E022460D492846F1
:1014900008F09EF9384624B0BDE8F08140C307202B
:1014A0003CC3072041450200484502002F45020089
:1014B0002B450200584502005F45020069450200C5
:1014C0008D4502009D45020038B50D4607F0F8F93C
:1014D0000446C0B202F0AAF8054A064B06490028A5
:1014E00018BF13462246284608F072F9012038BD7D
:1014F000F5410200AE450200B545020030B50C468C
:10150000054687B00A4908F063F9A1882388049149
:10151000218962880391E18828460291E17A01914C
:10152000A17A0091034908F053F907B030BD00BF1C
:10153000CC450200024602002DE9F0418CB003AB1D
:10154000002600930D46904602AB022238490296CF
:10155000039607F037F8B04266DD02980BF0D2FF31
:10156000C7B2039818B10DF05DFFC4B200E00446A5
:10157000002104A802F0FAFE30B14FF0FF322D49ED
:10158000284608F0EFF8F3E7022318F10001009372
:10159000039A234618BF0121384602F08BF906460C
:1015A00038B94FF0FF322449284608F0DBF801260D
:1015B0003AE0B8F1000F37D04FF47A7104A802F086
:1015C000DDFE60B39DF81030BB4228D19DF8173086
:1015D0000C2B04D13A4606A92846FFF78FFFBCB969
:1015E0001649284608F0F4F89DF817309C420ADAAC
:1015F00004AB19192B684FF0FF325B68097A284653
:1016000098470134F0E70E49284608F0E1F80BE06E
:101610004FF0FF320B49284608F0A4F804E0029A84
:101620000949284608F0D4F830460CB0BDE8F081EE
:101630009E4F020020460200424602006A46020017
:10164000974C02007E4602009B4602001FB501A88F
:101650000C4602F00DFB01F0F5FF01A90246204601
:10166000FFF74CFF012004B010BDFFFF30B58BB079
:101670000AAA4FF47A730C4642F8243D174906F043
:1016800093FF0025019902A802F070FED8B19DF8E1
:1016900008201349204608F09BF800259DF80F30DC
:1016A0009D420ADA02AB591923684FF0FF325B689A
:1016B000097A204698470135F0E70A49204608F0A4
:1016C00087F80125DEE72DB94FF0FF3206492046A5
:1016D00008F048F801200BB030BD00BF664502009D
:1016E000C146020014450200D846020037B50C4638
:1016F00002F022F905461649204608F069F8154916
:101700002A46204608F064F81149204608F060F89F
:10171000D5B11149204608F05BF80D49204608F084
:1017200057F80025E8B202F0F1F8013540B18178B0
:101730004378027800912046084908F049F8F1E71B
:101740000349204608F044F8012003B030BD00BF33
:10175000E9460200044702001E4702003947020022
:101760002DE9F3473C4C074626688946002E62D196
:101770002420FEF785FD0423054680E848008660A6
:10178000C660202130460DF0B5FBAE68E8604FEA38
:101790008608072E0ED81020FEF772FD8246102212
:1017A00000210CF03EF9EB68013643F808A008F17F
:1017B0000408EEE7002608236B604FF00108274B72
:1017C000274A28492846009685F82080256006F09B
:1017D0005DF8254B254A26492068009606F056F804
:1017E000244B254A25492068009606F04FF8244BE3
:1017F000244A25492068009606F048F8234B244ADD
:1018000024492068009606F041F8234B234A2449D6
:101810002068CDF8008006F039F8224B224A204992
:101820002068009606F032F80096204B204A2149A5
:10183000206806F02BF82049384607F03DF818B12B
:101840001E49384607F0F2F84A463946206802B089
:10185000BDE8F04706F0FAB848C307205447020035
:101860008E4702000D1B010095470200E947020068
:10187000E1180100F2470200154802006D16010050
:1018800018480200774D0200C914010042480200C6
:101890005E480200ED16010065480200CC480200D7
:1018A00039150100A6480200CB480200D0480200CA
:1018B000EB4802004D16010015450200F1480200F8
:1018C00038B5064C236833B95820FEF7D9FC0546D5
:1018D00007F0CEFC2560206838BD00BF44C3072058
:1018E0002DE9F04F0446ADF2DC5D802288460DA85C
:1018F00000210CF096F8802200212DA80CF091F820
:1019000006AE002333600DAA00962DAB7549204624
:1019100006F04AFE032801D00020DFE001220DA9D5
:10192000EDA804F097FF05460028F5D1FFF7C8FFA2
:101930003368802280F853304DA9044608A88DF8FA
:101940001750079506F000FE2DAB009333680DAAE3
:101950006549404607F03CFFA94607AE33464FF4C1
:1019600000726DA9EDA805F00FF8002840F0AF80D7
:101970003368002B00F0AB806F1C32685B49204657
:1019800007F026FF236820469B6898477D1E0DF5CB
:10199000DA7B4FF0000A6DAB3268C3EB0B039A425F
:1019A00023680CD9CDF80CB05B684FF0FF321BF800
:1019B000011B20469847039B1B789A44EBE79B68E2
:1019C0002046984708A806F079FF834608A806F045
:1019D000E5FD4FF47A7302465946204607F0D0FEE3
:1019E000202201210DEB020006F014FF08A806F0EA
:1019F00067FF824520D008A806F062FF52460346E2
:101A00003B49404607F0E4FE3A49204607F0E0FE35
:101A1000236820469B68984723684FF47A721B68B6
:101A20000DF11701204698470028F5D1022F07F144
:101A300001034CD81F46A0E733682DAA2E49009316
:101A400020464B4607F0C4FE236820469B68984713
:101A500008A806F033FF824608A806F09FFD51460D
:101A600002464FF47A73204607F08AFE234908A8FD
:101A700006F020FED0B908A806F020FF2049024653
:101A8000404607F0A5FE1B49204607F0A1FE23684B
:101A900020469B68984723684FF47A721B680DF1C3
:101AA0001701204698470028F5D1BFE7154908A837
:101AB00006F0BCFF3368144999444A46F09B4046FF
:101AC00007F086FE002D3FF448AFBD1E45E7EDA8A8
:101AD00005F029F908A806F04CFD01200DF2DC5DA7
:101AE000BDE8F08FF6480200054902001C490200DB
:101AF0002E49020014450200554902006B490200BC
:101B00006E49020015450200A64902002DE9F04782
:101B1000074686B006AA002442F80C4D0E463D4901
:101B200006F042FD20220121384606F073FE039B99
:101B3000002B65D0384606F02EFD002860D0FFF758
:101B4000BFFE05460DF1180808F80D4D2B6805225B
:101B50001B6841462846984704460028F6D1039B57
:101B6000384685F8533006F0A9FE274601464FF067
:101B7000FF32284607F0F6FD2B6828469B689847F9
:101B8000254B0DF11809186849F8044D04902B688D
:101B90004FF47A721B68414628469847D0B1032219
:101BA0000DF1150148460BF021FF9DF80BA0042212
:101BB00004A948468DF817A00BF0FEFE50B133681B
:101BC00001225B6851463046013798470028DED134
:101BD0000134DCE71822B7FBF2F302FB137202B107
:101BE00001333A460D49304607F0F2FD74B16123E6
:101BF000009322460A4B0B49304607F0E9FD05E009
:101C00004FF0FF320849304607F0ACFD012006B026
:101C1000BDE8F08766450200AA450200B24902000D
:101C2000D9490200154A0200CE4A020001480DF0CF
:101C3000F7B800BFFA4A020038B504460D4609F06D
:101C4000C9FE074BB0FBF3F00223B0FBF3F2AA424C
:101C500004D9B3F5807F01D00233F6E7236138BDA4
:101C600040420F007FB500F235260C460122314676
:101C700004F0B2FD054648BB039002AA03A9304612
:101C800005F07DF900BB0298039A837802FB03F10B
:101C900082691348023A5A435208B2F5004F38BFDE
:101CA0000120104B4FEA510124BF03464FF48060DE
:101CB000B1FBF0F1B2FBF0F20091019321460A482A
:101CC0000DF03CF8012008E0084B00E0084B2A46E4
:101CD000214608480DF032F8002004B070BD00BF66
:101CE000384B0200354B0200424B02003E4B0200D3
:101CF0003B4B0200704B020038B5074C23684BB9D0
:101D00000820FEF7BDFA0546FFF73CF9402328609E
:101D10002B712560206838BD54C3072038B5054CA9
:101D2000256825B90120FEF7ABFA05702060206810
:101D300038BD00BF50C3072038B5084C23685BB9D5
:101D40000C20FEF79DFA0546FFF71CF990232B7136
:101D500000232860AB602560206838BD1CC30720C5
:101D600010B5044C23681BB90120FEF789FA2060E6
:101D7000206810BD20C3072010B5044C23681BB990
:101D80000120FEF77DFA2060206810BD4CC30720BB
:101D9000AD49AE4A4023F0B58B614FF000739361BB
:101DA0004FF480338B61AA4BADF5057D186807258C
:101DB00020F0F00018601868022440F0500018600D
:101DC000186820F440501860086840F0400008602F
:101DD000186820F47C201860186840F428201860E7
:101DE000186820F470001860186840F4200018602B
:101DF000186820F040401860186840F000401860F3
:101E0000586820F03C005860586840F0280058603E
:101E1000586820F003005860086840F4803008607B
:101E2000586820F440505860086820F4800008602A
:101E3000D96821F44031D960116841F08071116096
:101E4000596821F440215960596841F48021596052
:101E50009868804901409960116841F4897141F0A6
:101E600001011160996821F470119960996821F05D
:101E700070419960116821F446411160D96821F0E0
:101E80003001D960D96841F03001D960D96821F4B6
:101E90007011D960136843F000731360136823F066
:101EA0008063136006F020FE01210A2009F0B2FBD6
:101EB00001210A2009F0C6FB674801210560446042
:101EC000FFF7BAFE07F0C2FA0121152009F0A2FBC4
:101ED0000121152009F0B6FB60480121056044602E
:101EE000FFF7AAFEFFF74EF8642107F0B5F810B926
:101EF0005B480CF095FF09F0C9FB02F011FA10B92C
:101F000058480CF08DFF4FF4FA6006F0A6FDFFF77D
:101F10008DFE09F05FFD0AF0F7FE53490BF000F863
:101F20000AF0DEFA02460B4650480CF007FF09F0B3
:101F300045FA052804AC14D1002363604C4B1B68A0
:101F40002360FFF773FE4B4B4B48D96C1A6D5B6DEA
:101F500000940CF0F3FEFFF769FE41F2883006F0C2
:101F60007CFDFEF7A3FA4549FFF77CFE054668BBFA
:101F700043480CF0E3FE03F0DFFBFEF797FA294637
:101F80002A4600F2352005F0F5F93E4B3E4A00287E
:101F90000CBF104618460CF043FFFEF787FA37498E
:101FA000FFF760FE90B939480CF03AFF03F046FBAA
:101FB000014637480CF0C2FE03F030FB054603F043
:101FC0003DFB00FB05F133480CF0B8FE324E334FB9
:101FD000336813F0010516D130460AF0EDF890B1E0
:101FE0004FF40E70FEF74CF9012380F834323123A0
:101FF00080F835323A2380F8363280F8375238602C
:1020000030460AF0E5F826493868264DFFF72AFEE3
:1020100018211148FFF710FEFFF708FE2B684BB997
:102020000820FEF72DF90646FEF7ACFF3823306096
:1020300033712E60286802F051FA0546B0BB1A4889
:102040000CF0EEFE33E000BF00C0092020C00920E4
:1020500000C00240F0FCFCFF00000340008008408C
:10206000B44B0200E54B0200002474490A4C020004
:102070004440024000400240224C02009A4C0200C0
:10208000A24C0200A84B0200A34B0200DF4C02004E
:10209000FE4C02000D4D02002CC3072030C3072068
:1020A000244202005CC30720284D02000125FFF7EF
:1020B00043FE02F049FB064618B972480CF0B0FE28
:1020C0003546FFF719FE02F08BFA064618B96E483E
:1020D0000CF0A6FE35466D4E33681BB90120FEF7A5
:1020E000CFF83060306802F049FAFFF739FE02F0AD
:1020F00018FBFFF713FE02F0B7FAFFF73DFE02F000
:1021000015FBFFF70BFE002102F0B0FA8DB9FFF7C7
:102110008DFDFFF7F1FD2D2102F04AFAFFF7ECFDEE
:102120002D2102F051FAFFF7F9FDFF2102F09EFA8E
:102130000CE0FFF7E1FD0546FFF7FEFD02F02EFB88
:102140000BF026F8C1B2284602F071FA10220021E5
:1021500020460BF066FC00230F2221464C4802F07B
:10216000A9FB80B920460BF0CDF9C5B2284601F095
:102170005DFA484A484B2946002818BF1346444A8E
:1021800046480CF0DBFDFFF7EBFD02F0CCFA05460C
:1021900000200EF0E5F828440CF04AFE4FF40072DF
:1021A000002120460BF03DFC204609F0AFFA214605
:1021B0003B480CF0C3FDFFF739FD8022002120468B
:1021C0000BF02FFC204603F015FA2278FF2A04D0EA
:1021D000214634480CF0B2FD29E0FFF7CDFD02F0B6
:1021E000A7FA09281DD130480CF01AFE21462F48C5
:1021F0000CF02AFF21462E480CF0A0FD2D480CF0D3
:102200000FFE002303A92C4803930CF01DFF9DF83B
:102210000C30592B03D1204603F0CAF907E02748B8
:1022200003E027480CF0FCFD26480CF0F9FD4FF2C6
:1022300008031D684FF20C031C684FF210031E6860
:102240004FF470431A684FF20403AD0A1968A40AE8
:102250001D480CF073FD2A4621461C480CF06EFD0B
:1022600031461B480CF06AFDFFF7E0FC012005F049
:10227000D1FD18480CF0D4FDFFF7D8FC0DF5057D15
:10228000F0BD00BF434D02005D4D020058C3072062
:10229000764D0200AE4B0200AE4502007C4D0200BE
:1022A000CE5D0200B04D0200CC4D0200EE4D0200AA
:1022B000F34D02000E4E0200514E0200554E020038
:1022C0006D4E02009B4E0200CD4E0200F94E020000
:1022D000264F0200434F0200012070470120704743
:1022E0000120704710B5044C23681BB90120FDF78D
:1022F000C7FF2060206810BD58C307200120704729
:1023000038B504460F4B00250360636DE06DAB42AA
:1023100005D950F82500FDF7B5FF0135F5E708B1FF
:10232000FDF7B2FF0025A36B206CAB4205D950F836
:102330002500FDF7A7FF0135F5E708B1FDF7A4FF7C
:10234000204638BD7C4F020010B50446FFF7D8FF89
:102350002046FDF797FF204610BD2DE9F0410446C9
:102360000E46C06889000CF0C5FDA568E060AF00AE
:102370004FF00008AE420DD90C20FDF781FFE36855
:10238000C0F80080C0F8048080F808800135D8517A
:102390000437EFE76660BDE8F081FFFFF7B504465C
:1023A00000250B464FF480520095254906F0A6F80B
:1023B000244B042623606663A563E563256402213C
:1023C00004F13400FFF7C9FF26656565A565E5657D
:1023D000284660210CF08EFDA56DE065AE00172D3E
:1023E0000CD81020FDF74CFF0746102200210BF0FF
:1023F00018FBE36D01359F510436F0E71823636540
:10240000012384F87030104E0023A4F87430A4F82F
:102410007630A367002200230027C4E92023C4E903
:10242000226709F05DF94FF47A7200230AF0D0FEBA
:1024300080197941C4E92001204603B0F0BD00BFF6
:10244000944F02007C4F0200C0D401002DE9F041FE
:102450000F7A14464D680E688FB1082A23D128469A
:1024600006F099F800281CDD4FF0FF321349304682
:1024700007F064F90121284606F08CF908E00A2AE1
:1024800019D00D2A12D02146284606F0A4FA97B199
:10249000336821463046BDE8F0415B684FF0FF32BB
:1024A00018470724F4E70A2A02D1F1E7BDE8F081D2
:1024B0000D2AEDD0E7E7BDE8F08100BF9D4F020097
:1024C000F8B50446142015460F46FDF7D9FE8021C5
:1024D000064606F030FAA36BE26B9A4206D3616BB4
:1024E000591803D204F13400FFF737FFE36B226C75
:1024F000591C52F82330E1631F605E601D72F8BD05
:102500002DE9FF47CF6B06460D4601AC3FB94FF4AE
:102510007A7008F015FB01976760A76047E00B6CC5
:102520000DF110081B6893E8070084E807000023FA
:1025300008F80D3D08F0CCF981460027EB6B9F426F
:1025400063D22B6C4FEA870A53F827301868037C54
:10255000002B34D0036800221B684146984770B3B3
:10256000EB6B9F422DD22B6C53F80A3093E8070097
:1025700084E807009DF8032021462846FFF766FF00
:1025800009F0AEF84FF47A7200230AF021FED5E983
:10259000222380185941C5E92001029805F0FBFF6C
:1025A0000746029805F0FAFF013887420CDB94E8F1
:1025B000070086E80700304604B0BDE8F087013721
:1025C000BCE705F14403D1E7D5E92223134324D026
:1025D00009F086F84FF47A7200230AF0F9FDD5E984
:1025E0002023994208BF904217D309F079F84FF49D
:1025F0007A7200230AF0ECFDD5E9222380185941B4
:102600000023C5E920010193D1E708F061F9814574
:10261000C3D1022008F094FABFE79DF803300A2BDB
:1026200088D1C4E7F0B5054685B020480CF086FB9C
:10263000294601A8FFF764FF019C1CB91C480CF057
:10264000EFFB30E0029E304605F0A5FF00282ADDB2
:1026500009F046F80746F8B1B5F8743005F15000B6
:102660000133A5F874302246314605F0EFF9114BDD
:1026700000251868009023681DF805105B684FF06E
:10268000FF32204601359847042DF4D109F028F88F
:10269000C11B09480CF052FB304605F081FF23684E
:1026A00020469B689847012005B0F0BDA04F02006E
:1026B00015450200704F0200A64F020038B5064CC7
:1026C000236833B92C20FDF7DBFD054606F08CFFAF
:1026D0002560206838BD00BF28C3072010B5044618
:1026E000FFF7ECFF03682146BDE810405B684FF040
:1026F000FF32184713B5002302AC04F8013DFFF781
:10270000DDFF03684FF0FF321B68214698479DF8B4
:10271000070002B010BDFFFF2DE9F04100F15004A9
:102720008AB000250646009520465B4B5B4A5C4913
:1027300005F0ACF8009520465A4B5B4A5B4905F022
:10274000A5F8009520465A4B5A4A5B4905F09EF879
:1027500000952046594B5A4A5A4905F097F800957A
:102760002046594B594A5A4905F090F800952046A1
:10277000584B594A594905F089F800952046584B5D
:10278000584A594905F082F800952046574B584A57
:10279000584905F07BF800952046574B574A584951
:1027A00005F074F800952046564B574A574905F0F6
:1027B0006DF800952046564B564A574905F066F885
:1027C00000952046554B564A564905F05FF800954E
:1027D0002046554B554A564905F058F80095204675
:1027E000544B554A554905F051F800952046544B35
:1027F000544A554905F04AF800952046534B544A2F
:10280000544905F043F800952046534B534A544928
:1028100005F03CF800952046524B534A534905F0C9
:1028200035F800952046524B524A534905F02EF890
:102830000095524B524A5349204605F027F8FFF7BE
:102840003DFF4FF4807320224FF41641054606F0F9
:10285000ABFE804601272F744B48FDF78BFD4B489C
:10286000FDF782FD3A4629463046FFF729FE082249
:1028700003A905A805F068FE05A8454906F0D6F8A5
:102880002A4605A9204605F0E1F805A805F071FEE5
:1028900040460AB0BDE8F081BC4F0200FE4F020086
:1028A0003D050100F34F0200035002002506010020
:1028B0000B50020019500200A50F01002050020029
:1028C000615002004906010066500200C250020039
:1028D0001D090100C6500200545102009D0801006C
:1028E00008510200535102001D0D01005751020012
:1028F00085510200210A010088510200AD510200F9
:10290000990B0100B3510200E0510200110C0100CB
:10291000E35102004D6802006D0C010008520200F4
:102920002B520200D50B01002E520200015302006F
:102930004911010005530200485302005D0E0100D9
:1029400050530200635302001D0F01006A5302003E
:10295000695402000D0701006D54020095540200F5
:102960004D0F01009B540200014C02006117010051
:10297000C5540200B95502009513010082550200AA
:1029800067420200E1120100F5260100DD26010088
:10299000F148020008B5044801F046FD00F06EF968
:1029A00000F074FB012008BD60C3072001207047C0
:1029B00008B500F0BDFA00F099FABDE8084000F053
:1029C00079BA08B500F01CFCBDE8084000F00CBA6C
:1029D00000F06EB97047FFFF10B5064C3D21204650
:1029E00001F0FAFC2046BDE81040034A0349FDF718
:1029F000A9BC00BF60C3072014C307208D44010099
:102A00007047FFF7C7BFFFF7D1BF10B50446FDF70A
:102A100039FC204610BDFFFF70B50B4E05010B4B76
:102A2000741953F82010201D08F05EF8E368A068C0
:102A30009847A36870590133A36000231A46BDE884
:102A40007040194607F08EBBE8C30720905602007D
:102A500008B50020FFF7E0FFFBE708B50120FFF70E
:102A6000DBFFFBE708B50220FFF7D6FFFBE708B561
:102A70000320FFF7D1FFFBE7F7B507460D462D4AC8
:102A800000240D2312682C49009405F037FD2B4BD0
:102A900087F831503B602A4D2A4B0322EB602A4BCA
:102AA0002146EB61294B0120EB62294BEB6307F0D8
:102AB00037FB032228602146012007F031FB032267
:102AC00028612146012007F02BFB224B28621E685B
:102AD0000523C6F38F060093324623461E49019410
:102AE0001E4807F0AFFD06230093324623461C49DB
:102AF00001941C4807F0A6FD072300930194234688
:102B000032461949194807F09DFD97F8313073B1E5
:102B100003222146012007F003FB082328633246E5
:102B20000093019423461249124807F08BFD384662
:102B300003B0F0BDE0550200F4550200A8560200B3
:102B4000E8C30720B1290100C3290100D1290100F0
:102B5000D5290100DC550200FB550200512A010075
:102B6000FF5502005B2A010004560200652A01009D
:102B70000A5602006F2A010038B517480C46415C1E
:102B800000230131C9B2914202D00155184638BD27
:102B9000124D0355200128581A46194607F0E8FB44
:102BA0000546B0B90E4B53F8244020460CF038F9D6
:102BB00020460CF037FC2B4602462146094801F01E
:102BC000BDFE094A094B9A644FF08043AA221A724B
:102BD0001D70012038BD00BF28C40720E8C30720AE
:102BE000E455020011560200EFBEADDE0040024087
:102BF000044608B5012007F0A3FF94F8313023B153
:102C0000012203212046FFF7B7FF0A2202212046B6
:102C1000FFF7B2FF0028EDD00A2201212046FFF77E
:102C2000ABFF0028E6D00A2200212046FFF7A4FFD0
:102C3000E0E7FFFF07B5002302AA22F8043D0223C4
:102C40001946C02000F08CF990B10121032000F05A
:102C500097F99DF805309DF8040003EB002009F07A
:102C60002DFC0022044B09F0B9FD09F047FF00E0FC
:102C7000002003B05DF804FB0000244013B564237A
:102C80000024019400941A461946204606F020F8C4
:102C900018B1204606F044F90120034B1A7860F37E
:102CA00000021A7002B010BD2CC40720FFFFFFFF06
:102CB00030B585B000F098FA044600F09BFA002188
:102CC000054620460AF00CFA3F4A137810B143F04B
:102CD000180303E060F3041360F3C30313700021CF
:102CE000102268460AF09DFE384920460AF002FA92
:102CF00030B9374920460AF01BFA10B1344C00E0D5
:102D0000324C204609F0ECFB0022324B09F08AFAE3
:102D10002BA3D3E9002309F061FD2F4B002209F01A
:102D200081FA09F0CBFE20F07040030A8DF808000C
:102D30008DF80930040E030C284928468DF80A3016
:102D40000AF0D8F930B9264928460AF0F1F910B14D
:102D5000234D00E0214D284609F0C2FB0022214B03
:102D600009F060FA16A3D3E9002309F037FD002229
:102D7000194B09F057FA09F0A1FE20F060431A0937
:102D80008DF80C201A0B8DF80D201A0D1B0F8DF8E5
:102D90000F306C2301939DF802308DF80E2008222D
:102DA00062F3030344EA001000228DF80B00694629
:102DB00010468DF8023006F061F805B030BD00BF56
:102DC0008DEDB5A0F7C6B03E2CC407200000B4C2FC
:102DD0000000B442008056400000E03F000034C3D1
:102DE00000003443008066401FB510220021684671
:102DF0000AF017FEFFF71EFF002104460AF070F9E3
:102E0000294B1A7810B142F0200201E060F345121C
:102E10001A700021002320468DF80F308DF80E30F7
:102E20008DF80D308DF80C308DF80B308DF80830A2
:102E30000AF060F900B10024204609F051FB16A306
:102E4000D3E9002309F030FE00B1184C204609F008
:102E500047FB13A3D3E9002309F0C0FC0022144B65
:102E600009F0E0F909F02AFE03018DF809306D231D
:102E700001939DF80230082262F303030009002247
:102E80008DF80A00694610468DF8023005F0F6FF0D
:102E900004B010BDAFF3008066666666667E76405D
:102EA0009A9999999999B93F2CC4072033F3B34360
:102EB0000000E03F1FB51022002168460AF0B1FD76
:102EC000094B00221B78694603F03F038DF8083058
:102ED00076230193104601238DF8023005F0CEFFD2
:102EE00005B05DF804FB00BF2CC407201FB51022FD
:102EF000002168460AF095FD012171230420019309
:102F00008DF808108DF8021000F03AF8002269469A
:102F1000104605F0B3FF054A137860F34103C3F38D
:102F20004000137005B05DF804FB00BF2CC40720FF
:102F300008B5002005F094FF084B1A7848B142F01C
:102F4000040200201A7005F0EBFFBDE8084005F010
:102F5000F3BF60F382021A7008BD00BF2CC40720C3
:102F6000F7B50D4616461F460446FEF70BF80097C8
:102F700033462A46214606F0F1FC03B0F0BDFFFFC0
:102F8000F8B5084C064625680F4625B90120FDF71F
:102F900077F9057020603A4631462068BDE8F84070
:102FA00001F0BABB50C3072010B50446FEF7A4FEDB
:102FB0002146BDE8104001F0FBBA10B50446FEF70B
:102FC0009BFE2146BDE8104001F0FEBA08B5FEF7B1
:102FD00093FEBDE8084001F01FBBFFFF2DE9F04163
:102FE0000A4C054623680E4617463BB92C20FDF7D0
:102FF00047F9804606F04CFBC4F800803B46324659
:1030000029462068BDE8F04106F022BB30C4072005
:1030100038B5064C236833B92C20FDF731F9054645
:1030200006F036FB2560206838BD00BF30C407209D
:1030300038B50D460446FFF7EBFF2A462146BDE8AA
:10304000384006F08FBB70B50D4616460446FFF7B4
:10305000DFFF33462A462146BDE8704006F090BBAC
:1030600008B50A210648FFF7E3FF0A210548FFF7E4
:10307000DFFFBDE808400A210348FFF7D9BF00BFC2
:10308000C0560200F25602000257020008B5FFF7D0
:103090009DFF3C2278214FF46140FFF79FFFBDE880
:1030A0000840FFF7DDBFFFFF08B532227821054851
:1030B000FFF7C9FF28B1BDE8084001210320FFF751
:1030C0005FBF08BD6CC307202DE9F041404C86B0BE
:1030D0000622404920460AF06FFC3F4F05463F4E0E
:1030E000002869D1A37C412B66D1A37F4E2B63D1ED
:1030F00094F82B30572B5FD13020FFF755FF462037
:10310000FFF75BFF22466B4652F8140FADF80850EC
:103110005168127A03C354F8200F1A70616803AB28
:10312000CDF8135003C3228968461A800AF0E7F9E4
:1031300009F0E4FC2A49804609F0F2FE0AF002F8A0
:1031400064250446684309F0E3FD0146404609F062
:1031500029FD244909F0E4FE8046204609F0D8FD07
:103160000146404609F020FD386003A80AF0C7F97F
:1031700009F0C4FC1A49074609F0D2FE09F0E2FF43
:103180000446684309F0C4FD0146384609F00AFDCB
:10319000144909F0C5FE0546204609F0B9FD01466F
:1031A000284609F001FD00F10040306001210220B5
:1031B000FFF7E6FE012007E00023022000213B602C
:1031C0003360FFF7DDFE002006B0BDE8F08100BFF0
:1031D0006CC307201A570200E4C3072068C3072006
:1031E0000000C84200007042014B1868704700BFE1
:1031F000E4C30720014B1868704700BF68C307206D
:1032000008B5FFF751FF012005F027FCBDE8084095
:10321000FFF75ABF10B59020FDF732F8044603219E
:10322000FFF7BCF8204605F03BF93420FDF728F8FD
:1032300004460021FFF720FC204605F031F900216B
:10324000084605F03BF94FF0FF3010BD10B54FF6C2
:10325000FF74242303FB0101884209D043782BB17A
:10326000038C1344A34228BF234603842430F3E78E
:1032700010BDFFFF37B5002302A840F8043D0C4BFA
:1032800004215B6898470B4B019A1C680546141B88
:103290001A60042122460848FFF7D8FF224602217F
:1032A0000648FFF7D3FF281C18BF012003B030BD2C
:1032B00034C4072004C5072048C4072021C50720BF
:1032C00008B50B4B197803788B420A4B0BBF1A8851
:1032D0009A880132013214BF9A801A80064B81709D
:1032E000DB6820219847003018BF012008BD00BFCF
:1032F00005C00720D9C4072034C407200A4B027830
:103300001B789A42094B0BBFDA881A8901320132C5
:103310000CBFDA801A810379C3F3C202073262F369
:10332000C5030371FFF7CCBF05C00720D9C4072030
:1033300010B50749002311F823409A00844202D1B6
:103340000348104410BD0133042BF4D1002010BDFC
:10335000F3C4072070B1C3780133DBB2FF2BC37015
:1033600008D105480023C118CA7804335208102B2D
:10337000CA70F8D1704700BFF3C40720242202FBB3
:1033800001010346024630B5914206D0144624326C
:1033900012F8235C002DF7D10FE004460025994276
:1033A0000BD01A79C2F3C2001A8C42EA0042AA4238
:1033B00084BF1C4615462433F1E7204630BDFFFF8D
:1033C00038B50546C90001F10804FFF753FF1C4B4F
:1033D0002A781B789A4204D102211A48FFF7CEFFBF
:1033E0000CE004211848FFF7C9FFEB7833B990F8D7
:1033F0002330042443F0800380F82330002380F836
:10340000203080F8213002462B4690F8231080F8B7
:10341000224021F07F01C4F306240C4380F82340AE
:1034200005F1200153F8044B8B4242F8044BF9D1CB
:10343000064A0379127862F3C503037138BD00BFF1
:1034400005C0072021C5072048C4072004C0072065
:1034500008B5FFF76DFF0346D8B9FFF769FF0346CC
:10346000B8B90D4AD378D179D07A8B4296BF194634
:10347000131D1346814294BF0846084BD17B084A6E
:10348000814238BF1346074900221A60CA7A0132C6
:10349000CA72184608BD00BFF3C40720FBC407204A
:1034A000FFC40720D9C407202DE9F84F05460C4674
:1034B0004FF0240909FB0219DFF868A1DFF868B1B1
:1034C0004E1C4FF000084C4500F09A8094F82330D1
:1034D0001A0624D5B5B12A7861788A4205D16F7869
:1034E00016F8010C874200F08D80E87850B16878BA
:1034F000884207D116F8011C914203D1A979A2791B
:1035000091427FD094F82220218C03F07F0342EA7D
:103510000323994271DB2046FFF7D2FE72E0627806
:10352000002A6AD06DB3297901F0C001C02917D1F2
:1035300016F8010C6978884202D12878904261D04F
:10354000E778A87887420CD191420AD116F8010C8D
:103550002978884205D1A079A979884201D151E022
:1035600079B1A878E17888420BD16978914208D185
:1035700016F8010C2978884203D1A079A9798842EC
:1035800046D094F82210208C03F07F0341EA0323F5
:10359000984232DB237984F82080C3F3C201CFB292
:1035A00084F821801FB12046FFF7A8FE25E003F034
:1035B000C003C02B19D016F8010C9AF800309842BD
:1035C00013D1E3789A4210D07BB16379032262F37E
:1035D00007136371E1702046FFF790FE23799BF893
:1035E000002062F3C503237100E001276078FFF734
:1035F0009FFE08B1C0F8008027B92434243662E762
:10360000BDE8F88F2422002120460AF00AFAF4E7E8
:10361000237984F820806FF3C50384F82180237117
:10362000EBE700BF05C0072004C00720431EDBB244
:10363000FD2B9DBF024B187001200020704700BF7A
:1036400005C00720014B1878704700BF05C0072050
:1036500007289CBF014B1870704700BF04C00720AB
:103660002DE9F743044691461E469DF828500F4623
:10367000002966D0364B93F80080414563D00F2E69
:1036800061D8002861D0202200210AF0CAF9FF2F5A
:10369000237914BF09F00302002262F38713032287
:1036A00062F302032B4A6770127884F8008062F399
:1036B000C503294A2371137884F802800133DBB2F1
:1036C0001370A3710BAB019315B94FF001081BE008
:1036D00004F10809019AE0791346526853F8081B6F
:1036E00000EB02085FFA88F8013DB8F1180F01936A
:1036F000EDB207D848440AF06EF984F80780002D2F
:10370000E8D1E2E74FF00008DFF850900123384697
:1037100089F80030FFF70CFE0546FFF71BFE00237B
:1037200089F80030637925B966F307136371E57092
:1037300005E0AA7862F3071363716B78E370404683
:1037400003E0084601E00020FFE703B0BDE8F08396
:1037500005C0072004C00720D8C40720E5C40720FF
:10376000124B012270B51A7004461E4608B9002596
:1037700018E0FFF7A5FD05460028F8D0237903F0EF
:10378000C003402B06D0C02B0AD1E37853B1627836
:103790009A4207D0617920460909FFF711FE01E03E
:1037A000802BF7D000233370284670BDE5C4072076
:1037B00082B02DE9F0439146421ED2B28DB0FD2A6F
:1037C00005460E4615939DF8688001D9002057E004
:1037D000002BFBD0179F002FF8D0199B002BF5D0A2
:1037E000189B002BF2D0169B002BEFD04822002113
:1037F00026480AF016F99022002125480AF011F90E
:103800001022002123480AF00CF9234B00241C60ED
:103810005C609C60214B1C605C609C60204B1D7058
:10382000204B214D1E7015AE0FCE0FC533681822E8
:1038300021461E482B600AF0F4F8494617221B481F
:103840000BF036FE21462046B8470028BED0B8F11E
:10385000000F02D1FFF70EFD12E006230293144B76
:103860002246019301230093FF2104A8FFF7F8FEED
:103870000028ABD004A8FFF773FF0028A6D0E9E723
:103880000DB0BDE8F04302B0704700BF21C507206E
:1038900048C40720F3C40720E7C40720D9C4072081
:1038A00005C00720E6C4072034C4072008C5072048
:1038B0002157020030B5182B8DB016D8B2FA82F419
:1038C0001D1C18BF01256409AC420ED00293019261
:1038D00000950A469DF84030014604A8FFF7C0FE57
:1038E00018B104A8FFF73CFF00E000200DB030BD88
:1038F00013B5537914781B09009302460B462046F2
:103900000321FFF7D7FF02B010BDFFFF00231A46C7
:1039100030B5084C14F82350990035B1904202D1CB
:103920000448084430BD0132D2B20133042BF1D136
:10393000002030BDF3C4072000231846044A12F8C3
:10394000231009B10130C0B20133042BF7D1704705
:10395000F3C407202DE9F04188B0202200216846F9
:103960000AF05FF8A14B1B7803F0FF04002B40F036
:1039700039819F4F20213B6968469847002800F015
:1039800084809C4D6B8801336B80FFF7D5FF9DF8D9
:103990000420A87202F00703032B04D0964A137880
:1039A00043F0010309E0954B1D789DF80230AB42CE
:1039B00005D1914A137843F002031370E4E0C2F397
:1039C000C2029DF800E09DF806008D49D6B204EBD6
:1039D000440313F801C0F4450BD10B4493F801C024
:1039E000844506D1997801248E1B18BF01269A7050
:1039F00018E00134042CEAD182490B689A70804A9D
:103A0000587002F10900834283F800E040F0C98059
:103A10000A609DF800009DF80230834240F0C480A7
:103A2000002426469DF80200FFF712FD9DF80220B3
:103A300002709DF80220427000228270FFF78AFC1B
:103A400004B116B39DF80030AB4200F09C809DF8A5
:103A50000160FF2E1BD13B6820216846984720B9A2
:103A6000654A137843F0040313709DF8053003F0A2
:103A70000F02511C61F303038DF80530C3F30313E8
:103A80009A4202DA6846FFF71BFC00247CE0B5424C
:103A90002BD164B99DF807304BB13B6820216846B3
:103AA000984720B9544A137843F0040313709DF8E3
:103AB000043003F0C003402B12D19DF807306A4652
:103AC00013B91821504808E00C214A48FFF710FFAD
:103AD000002858D100216A460846FFF709FF52E046
:103AE0009DF80330002B4ED1F4E7484B1B78002B98
:103AF000CBD09DF8054004F00F074FEA1418474556
:103B0000C3DA013767F303043046FFF711FC8DF881
:103B100005409DF80340A54221D19DF8041001F015
:103B2000C001402906D0A1F180035A425A411446EF
:103B300010B90CE0012260B1C029437805D19E4242
:103B400003D0003318BF012304E0002302E0C029A2
:103B50000ED10346134303F0010420B908E094B9E1
:103B600008B941460CE043788DF80330857802E0CF
:103B700000258DF803506846FFF7A2FB1CB12946CB
:103B80006846FFF71DFC6C46FFF774FB20460422D5
:103B90001F49FFF789FC02221E492046FFF784FCDB
:103BA00020E003330B6034E785423FF439AFFFF781
:103BB0004FFC0446FFF7CEFB23783BB19DF8053060
:103BC000A27803F00F0393423FF72AAF9DF800302D
:103BD00023709DF8023063709DF80530C3F3030332
:103BE000A3701DE708B0BDE8F08100BFE5C4072061
:103BF00034C40720D9C4072020C5072005C00720EA
:103C0000E7C4072000C0072008C50720E6C4072036
:103C100048C4072021C5072000231846094AD118A7
:103C2000497809B10130C0B22433902BF7D1064B4B
:103C30005A780AB10130C0B293F825300BB1013087
:103C4000C0B2704748C4072021C5072008B5FFF758
:103C50006FFB064B28B18278187802FB0000C00089
:103C600008BD18781823584308BD00BF04C00720BA
:103C700003490B6803604B6843608B68836070473F
:103C8000D9C4072070B53E4C4FF48035E5613D4CFA
:103C9000A0602046C5683B4CED06FBD4A0680D46ED
:103CA000C0B20BB923465FE02346002A63D0072A3F
:103CB0000E782DDD9E604E78083A9E608E789E606C
:103CC000CE789E600E799E604E799E608E799E6061
:103CD00001F10806C979996099694907FCD5A1687D
:103CE0002970A1686970A168A970A168E970D96894
:103CF000C906FCD4A168083505F8041CA16805F8BC
:103D0000031CA16805F8021CA16805F8011C1AE053
:103D1000032A1ADD9E604E78043A9E608E789E607B
:103D20000E1DC9789960D968C906FCD4A16804350C
:103D300005F8041CA16805F8031CA16805F8021C1D
:103D4000A16805F8011C3146AFE701319E60013AD8
:103D5000DE68F606FCD4A668013505F8016CA4E718
:103D6000E668F606FCD4A6686E1AB24203DD15F8C2
:103D7000016B9E60F4E7024B4FF480329A6170BD94
:103D800000C009200080084007B5002302A901F8FF
:103D9000013D01231A4600F01F00FFF773FF9DF855
:103DA000070003B05DF804FB13B502AC04F8011D75
:103DB00000F01F0000230122214640F02000FFF701
:103DC00061FF02B010BD08B51720FFF7DDFFC0F39B
:103DD000001008BD70210720FFF7E6BF0A46002348
:103DE0000146A020FFF74EBF08B50020FFF7CCFF2B
:103DF000BDE8084000F0FE010020FFF7D5BFFFFF3F
:103E0000024B4FF08072DA61704700BF20C009207A
:103E100008B50020FFF7B8FF40F00101C9B200204B
:103E2000FFF7C2FF024B4FF080729A6108BD00BFDE
:103E300020C0092020210720FFF7B6BF00231A4623
:103E40001946E120FFF71EBF37B504460D46FFF7C0
:103E5000F5FF20462946FFF7C1FF0D4B4FF080725A
:103E60001C469A610022ADF80620BDF806300133E9
:103E70009BB2ADF8063033B94FF08073E361FFF7C2
:103E8000DDFF03B030BDFFF79EFF0028EDD0F3E764
:103E900020C0092008B51720FFF776FF00F00100C9
:103EA00080F0010008BD40210720FFF77DBF08B565
:103EB0000A46012301466120FFF7E4FEC0F34200F9
:103EC00008BD00231A461946E220FFF7DBBE70B595
:103ED000064600200D461446FFF756FF16B100F0C7
:103EE000BF0002E040F04000C0B215B100F0DF01B9
:103EF00001E040F0200114B101F0EF0101E041F0D8
:103F000010010020BDE87040FFF74EBF10B5044619
:103F10000020FFF739FF14B900F0F7010DE0012C84
:103F200004D100F0FB0141F0080106E0022C14BFAF
:103F300040F0080140F00C01C9B20020BDE810407B
:103F4000FFF732BF08B50020FFF71EFFBDE80840AD
:103F500040F00201C9B20020FFF726BF08B50020DB
:103F6000FFF712FFBDE8084000F0FD010020FFF759
:103F70001BBF40F6DD13984206D840F66213B0F539
:103F8000166F38BF184600E01846A0F51661C9B292
:103F90000520FFF709BF10B504460620FFF7F4FE21
:103FA000FA2C00F0D70102D141F0200104E0B4F571
:103FB000FA6F08BF41F008010620BDE81040FFF786
:103FC000F3BE10B504460620FFF7DEFE032C28BF23
:103FD000032420F0060040EA4401C9B20620BDE8EF
:103FE0001040FFF7E1BEF9284FF0FA0305D9B0F50C
:103FF0007A6F88BF4FF47A6000E01846B0FBF3F0A8
:104000000F2900F1FF30C0B228BF0F2141EA001193
:10401000C9B20420FFF7C8BE1130C0B2162804D8B8
:10402000202928BF2021FFF7BFBE7047032804D0F6
:10403000042814BF0321022100E001210320FFF71F
:10404000B3BE0A46002301463020FFF71BBE0A46D6
:10405000002301462A20FFF715BEFFFF73B50E4669
:1040600015460446FFF72DFFFFF7E8FE2B4B4FF0F8
:104070008072DA61FFF772FF002211460120FFF71C
:1040800026FFFFF7A7FE0220FFF740FF3046FFF7AD
:1040900070FF2846FFF77FFF0320FFF792FF032101
:1040A0000220FFF781FE00210120FFF77DFE0321A2
:1040B0004FF4FA70FFF797FF21460020FFF7ACFF9F
:1040C00000211220FFF770FE00211320FFF76CFE85
:1040D00000211420FFF768FE00211520FFF764FE81
:1040E00000211620FFF760FE0D4B18681B79009029
:1040F00005208DF80430FFF799FF68460521FFF78A
:10410000A0FF05216846FFF7A2FFFFF71BFF4FF452
:10411000FA6004F08DFC02B070BD00BF20C0092021
:104120002857020070B5174E326822B920210320AB
:1041300005F0F6FF3060144D2A6822B920210120D5
:1041400005F0EEFF2860114C216821B903220120FF
:1041500005F0E6FF20604FF4FA6240F6C31120201C
:10416000FFF77CFFFFF754FE1620094A012104F0F7
:104170005BFF306828B1286818B12068003018BF8C
:10418000012070BD70C507206CC5072074C50720CD
:104190003D42010070B50379014603F0C003C02B16
:1041A0000CBF0E4B0E4B88B01D68002306461A4606
:1041B000284605F0D7FF044660B903460246694623
:1041C000284606F0D5F8234622463146284605F013
:1041D000C9FF0446204608B070BD00BF6CC507206B
:1041E00070C5072038B504460D46FFF72BFA237833
:1041F00083420AD0E37843B90AF042FEBD2300F0BF
:10420000030000FB033004F013FCFFF7F9FDFFF798
:10421000EBFDA9B22046FFF717FEFFF70BFEFFF7F5
:10422000F7FD06F0A9FE022804D1034B002118680F
:1042300006F06CF8012038BD74C5072007B50023CF
:1042400002A941F8043D084B186806F05FF8019B8D
:104250003BB1064B4FF080521A60BFF34F8FBFF354
:104260006F8F03B05DF804FB74C5072004ED00E018
:1042700038B504460D46FFF70DFE48B1A9B22046F9
:10428000FFF715FEFFF706FE08B9FFF70CFE012049
:1042900038BD2DE9704305460E46144606F06CFE07
:1042A000022807D1224600233146284606F060F84E
:1042B000C4B21DE007F014FA4FF47A72002308F03C
:1042C00087FF10EB040841F1000900231A4631462C
:1042D000284606F04DF8C4B254B907F001FA4FF47D
:1042E0007A72002308F074FF894508BF8045ECD23C
:1042F0002046BDE87083042938B5054603D1041C67
:1043000018BF012400E0002407F0EAF92CB14FF4B3
:104310007A72002308F05CFF2860204638BDFFFF5A
:1043200000B50C4B8DB009930B4B0C4A0B930C4B07
:104330000A930CAB43F8102D002204920FCB8DE8AA
:104340000F00084B084A01216A20FFF731FA0DB02F
:104350005DF804FB2541010071420100F7420100B4
:10436000E5410100954101002D570200024B0A462C
:1043700001461868FFF78DBF70C50720024B0A463B
:1043800001461868FFF785BF6CC5072008B506F021
:10439000F3FD0F4B02285B6913D15A020DD5FFF7CD
:1043A0003BFC00280B484FF0000314BF01224FF0E4
:1043B000FF321946006805F0DBFFBDE80840FFF753
:1043C000C9BA5B02F9D5FFF727FC0028F5D108BD73
:1043D00000C0092074C50720F0B5864687B0114F8C
:1043E0004C1101F01F0501AE457004700FCF0FC6D0
:1043F00070463B680321336006AB03EB840353F83C
:10440000143C6D00CEF80430E30003F1804303F563
:1044100030331A6801FA05F522EA05051D6007B078
:10442000F0BD00BF34570200416840780A6801239C
:10443000834022EA03030B607047FFFF30B54378E7
:104440000578064C5B0054F83520032101FA03F38C
:1044500022EA030344F8353030BD00BF40C00240BB
:1044600010B5094A04780123407821B152F824108C
:1044700083400B4304E052F82410834021EA0303F5
:1044800042F8243010BD00BF68C0024010B5044699
:10449000FFF7CAFF00212046FFF7E2FF2046FFF7A3
:1044A000CDFF204610BD13460A460179006805F08D
:1044B0006ABA1FB5002204AB047923F8042D022246
:1044C000009200680A46214605F048FA9DF80C0063
:1044D0009DF80D3043EA002004B010BD10B504462D
:1044E00019222A21FFF7DFFF0D222179206805F02C
:1044F00039FAA0F12A035842584110BD044A1388E2
:104500001F2B9FBF581C1080024A42F8231070478F
:104510007CC5072080C50720154AF0B513881646CC
:10452000012B21D9134A00201546013B984206DA97
:10453000516814680130091B42F8041BF6E700219A
:104540000C466A684FF0010E02EB52008AB29342A9
:1045500008DD55F822700131B8423CBF0EFA02F274
:104560001443F3E7044B1C6000233380F0BD00BF0D
:104570007CC5072080C5072078C5072008B5012124
:10458000022007F047F8084B01209A6A22F0070240
:104590009A629A6A42F006029A62044AD36843F029
:1045A0003003D36008BD00BF0080004000C002405F
:1045B00008B5044B417101F07F015A5C0321FFF7FC
:1045C00072FF08BD4857020008B5044B817101F025
:1045D0007F015A5C0221FFF766FF08BD48570200C1
:1045E00038B504460179006805F0D8F9054688B168
:1045F000002206212046FFF756FF00220721204611
:10460000FFF751FF2E212046FFF7D2FF2E21204633
:10461000FFF7DAFF284638BD10B504462021FFF722
:10462000C7FF2046BDE810402021FFF7CDBF64231F
:1046300070B5B1FBF3F404FB1311CCB20A21B4FB47
:10464000F1F501FB15413031C9B20646FFF7BCFF59
:10465000092C88BF05F130013046BDE8704094BF99
:104660002021C9B2FFF7A4BF0120704738B50D461D
:10467000044606F0B9FD05F00F032370114B15F049
:10468000010F4FF0010214BFDA619A61227812F033
:10469000020F4FF0020214BFDA619A61227812F021
:1046A000040F4FF0100214BFDA619A61227812F001
:1046B000080F4FF4807214BFDA619A61BDE8384088
:1046C00006F0A2BD20C0092038B50D46044606F00C
:1046D0008BFD691E012303FA01F12378204619435B
:1046E000C9B22170FFF7C2FFBDE8384006F08CBDAB
:1046F00038B50D46044606F077FD691E012303FA1E
:1047000001F12378204623EA01012170FFF7AEFF73
:10471000BDE8384006F078BD0AB1FFF7D5BFFFF716
:10472000E7BF01207047022004F018BA012070474B
:10473000044B5B69180B00F00C00C3F341231843D2
:10474000704700BF20C0092010B504468122012116
:10475000FFF7A9FE01222179206805F003F910F086
:10476000600F14BF0120002010BD38B500210446A1
:10477000FFF79FFE812205B201212046FFF793FE3D
:10478000102095FBF0F008F0C3FA4FF0765108F0D6
:1047900013FBA16808F008FA38BDFFFF08B5FFF762
:1047A000E4FF054908F008FB044908F0B9FB4FF0A5
:1047B000844108F0F9F908BD000010410000A04054
:1047C0002DE9F04FADF2546D0C46904601460122A2
:1047D00082A8994602F03EF8002867D121460A22B5
:1047E0000DF22C4002F036F8044620B182A802F007
:1047F0009AFA20465AE06D46064607462860019020
:1048000006F06EFF4FF47A72002308F0E1FC2B46AD
:1048100083464FF4007202A982A802F0B5F88246DE
:10482000E0B92A68D2B106F05BFF4FF47A72002338
:1048300008F0CEFCB0EB0B00074406F051FF4FF43C
:104840007A72002308F0C4FC01AB83462A6802A9EF
:104850000DF22C4002F050F98246B0B1B8F1000FD1
:1048600001D0C8F80070B9F1000F01D0C9F800609C
:10487000DDF8783603B11C6082A802F054FA0DF21C
:104880002C4002F050FA504610E001992A689142FB
:10489000E4D106F025FF00234FF47A7208F098FC6B
:1048A0002B68B0EB0B0006441C44A9E70DF2546DD5
:1048B000BDE8F08FF0B5ADF50B7D0E46174601460D
:1048C0001D460122002301A8009301F0C3FF044606
:1048D00070B91DB1294601A802F037FA6B463A4675
:1048E000314601A802F050F8044601A802F01BFA74
:1048F00020460DF50B7DF0BDF0B5ADF50B7D0E46F8
:10490000174601461D460A22002301A8009301F024
:10491000A1FF044670B91DB1294601A802F015FA9D
:104920006B463A46314601A802F0E6F8044601A873
:1049300002F0F9F920460DF50B7DF0BDF0B5ADF5AF
:104940000B7D0E46174601461D461222002301A884
:10495000009301F07FFF044680B90DB1294600E0C5
:10496000049901A802F0F1F96B463A46314601A8D4
:1049700002F0C2F8044601A802F0D5F920460DF570
:104980000B7DF0BD7F2810B516D931B1FF2812D8A4
:104990000A4B803833F8100010BD084A32F8114035
:1049A0008BB2844203D001318029F7D10B4603F149
:1049B0008000C0B210BD002010BD00BFC85702006B
:1049C0000649002331F8132032B1824201D001336D
:1049D000F8E7034A32F81300704700BFC8580200D6
:1049E000A85A020010B501200C4605F03FFC2060DB
:1049F000003018BF012010BD0120704710B50446DB
:104A000006F0BAFA02280AD1002319464FF0FF3205
:104A1000204605F0ADFC431E5842584110BD012010
:104A200010BD10B5044606F0A7FA022807D10023EE
:104A30002046BDE810401A46194605F093BB10BD4C
:104A400010B5044604F072FD24B1012C06D100F02B
:104A500081F901E000F002FD044600E0042404F0C6
:104A60007DFD204610BD28B1012801D004207047EB
:104A700000F028BA7047F8B507460C4615461E46A2
:104A800004F054FD3FB1012F0CD132462946204697
:104A900000F020FA04E032462946204600F02AFDC4
:104AA000044600E0042404F059FD2046F8BDF8B5A2
:104AB00007460C4615461E4604F038FD3FB1012F4F
:104AC0000CD132462946204600F050FA04E0324626
:104AD0002946204600F030FD044600E0042404F09E
:104AE0003DFD2046F8BD70B506460C46154604F05F
:104AF0001DFD36B1012E0AD12946204600F090FA5C
:104B000003E02946204600F037FD044600E0042477
:104B100004F024FD204670BD08B506F0E1FD4FF419
:104B20007A72002308F054FB08BDFFFF10B504465D
:104B300006F050FF074BB0FBF3F00223B0FBF3F29B
:104B4000944202D3044A136110BDB3F5807FF9D0BB
:104B50000233F3E740420F0000000340044B98602B
:104B6000DA68D206FCD4024B9868C0B2704700BF26
:104B70000000034070B5FFF7CFFF00F5FA74FF2087
:104B8000FFF7ECFF0025FF20FFF7E8FFFF280646B0
:104B900005D0FFF7C1FFA94208BFA042F3D33046BA
:104BA00070BDFFFF38B5064C4FF00075E561FFF7AB
:104BB000E1FF044AA561137843F00103137038BD87
:104BC00020C0092006C007202DE9704306460D4687
:104BD000FFF7A2FF643080464FF00009FF20FFF787
:104BE000BDFFFF2808D1FFF797FF494508BF4045A3
:104BF000F4D30020BDE87083FE28FAD1102D06D929
:104C000000224FF40071304604F02EFC19E0341DF0
:104C10000435FF20FFF7A2FF04F8040CFF20FFF784
:104C20009DFF04F8030CFF20FFF798FF04F8020C27
:104C3000FF20FFF793FF043404F8050C2B1BDE4222
:104C4000E7D1FF20FFF78AFFFF20FFF787FF012052
:104C5000BDE8708370B506460D46FFF78BFFFF2851
:104C6000044619D12846FFF779FFFD2D16D02246BC
:104C70004FF40071304604F0F7FB2046FFF76EFF5B
:104C80002046FFF76BFF2046FFF768FF00F01F008C
:104C9000431F5842584170BD002070BD012070BDB7
:104CA000020638B504460D4607D500217720FFF7E8
:104CB000F7FF012838D804F07F041C4B4FF0007236
:104CC0009A61DA61FFF756FFFF28014628D1204696
:104CD000FFF744FF280EFFF741FFC5F30740FFF73A
:104CE0003DFFC5F30720FFF739FFE8B2FFF736FFB6
:104CF000402C17D0482C14BF01208720FFF72EFF2F
:104D00004C2C02D10846FFF729FF0A21FF20FFF7AC
:104D100025FF030608D5013911F0FF01F6D138BD92
:104D2000FF2038BD9520EEE738BD00BF20C0092028
:104D3000064A074913784969DBB2490154BF03F0B9
:104D4000FD0343F003031370704700BF06C0072044
:104D500020C009202DE9F743FFF7EAFF564B1A78E8
:104D60001E4612F0020F01D01878A1E00120FFF7D3
:104D7000DDFE0A24FF20013CFFF7F0FE14F0FF04E3
:104D8000F8D14E4F4FF00073FB6121464020FFF7F2
:104D900087FF012802D04FF0000875E0FFF7BCFE46
:104DA0004FF4D57100F57A754820FFF779FF012897
:104DB00041D10DF10408FF20FFF7D0FE08F80400F0
:104DC0000134042CF7D19DF80630012BE3D19DF876
:104DD0000730AA2BDFD12C460025FFF79DFEA94204
:104DE00008BFA04206D3FFF797FEA94208BFA04222
:104DF000D1D207E04FF08041E920FFF751FF0028B2
:104E0000EBD1F0E700217A20FFF74AFF0028C2D15A
:104E10000146FF20FFF7A2FE08F801000131042936
:104E2000F7D19DF8043013F0400F14BF4FF00C0879
:104E30004FF0040828E02146E920FFF731FF02285F
:104E40002C4635BF4FF002084FF001084FF0E9093A
:104E50004FF041090025FFF75FFEA94208BFA042BD
:104E60000BD3FFF759FEA94208BFA0420CD34FF461
:104E700000715020FFF714FF06E000214846FFF7BD
:104E80000FFF0028E7D1ECE70D4B83F800804FF0CF
:104E90000073BB61B8F1000F07D03378182003F01E
:104EA000FE033370FFF742FE01E0FFF77BFE307830
:104EB000C0B203B0BDE8F08306C0072020C00920BF
:104EC00000C6072008B5FFF733FF014B187808BD6F
:104ED00006C0072070B5144606460846FFF728FFAF
:104EE000002C39D01E4B1B78DB0737D41D4B4FF0FD
:104EF0000072DA611C4A1D46127812F0080F08BFD2
:104F00004002012C01460CD15120FFF7C9FEE0B947
:104F10004FF400713046FFF757FEB0FA80F4640991
:104F200013E05220FFF7BCFE78B94FF40071304611
:104F3000FFF74AFE28B1013C14F0FF0406F50076A5
:104F4000F3D100214C20FFF7ABFE4FF00073201C83
:104F5000AB6118BF012070BD042070BD032070BD7F
:104F600006C0072020C0092000C60720F8B5144657
:104F700006460F46FFF7DCFE002C44D0254B1A787E
:104F8000D20742D41B785B0741D4234B4FF0007209
:104F9000DA61224A1D46127812F0080F08BF7F021C
:104FA000012C0CD139465820FFF77AFE18BBFE21A0
:104FB0003046FFF74FFEB0FA80F464091CE012F0AF
:104FC000060F03D02146D720FFF76AFE3946592045
:104FD000FFF766FE80B9FC213046FFF73BFE28B1A3
:104FE000013C14F0FF0406F50076F4D1FD21002009
:104FF000FFF730FE00B901244FF00073201CAB61B5
:1050000018BF0120F8BD0420F8BD0320F8BD022020
:10501000F8BD00BF06C0072020C0092000C6072039
:105020007FB50D46FFF784FE05281AD12B78012B9A
:1050300000F0048103D3022B0BD0042001E1824B4A
:10504000586910F0806440F0F980FFF7ABFD20460E
:10505000F7E07D4B5B6983F08063C3F380636B7023
:10506000ECE07A4B1B78DB0700F1EA800E2800F2B7
:10507000DF80DFE800F008124F53DDDDDDDDDDDD30
:10508000AAAFB2BBCB00704B4FF00072DA61FFF7F2
:1050900071FDFF3818BF0120CBE000214920FFF748
:1050A000FFFD044608B10120C3E010216846FFF768
:1050B0008BFD0028F7D09DF800309DF808109B0963
:1050C000012B9DF8093006D1013303EB012189B290
:1050D000890229606BE09DF807209DF80500920089
:1050E00002EB91119DF806200131920202F4406218
:1050F00011449DF80A2000F00F0000EBD2105A0076
:10510000023002F006028318DBB289B2093B01FAD1
:1051100003F34BE04FF400732B8059E04C4E33788F
:1051200003F0040303F0FF01F3B10021CD20FFF7EA
:10513000B7FD0028B7D1FF20FFF710FD102168460A
:10514000FFF742FD0028AED03021FF20FFF706FD1B
:10515000481E10F0FF01F8D19DF80A3008461A09E0
:10516000102393402B6064E04920FFF799FD04462B
:10517000002898D110216846FFF726FD002892D01C
:1051800036789DF80A2006F0020606F0FF009DF82A
:105190000B3076B1520002F07E0202EBD3135A1CA0
:1051A0009DF80D309B09013B02FA03F32B6020466A
:1051B0003FE0D90001F01801C2F3840201EB531162
:1051C000531C01FB03332B6033E0214B1B782B7006
:1051D00000202EE00021492001E000214A20FFF7B5
:1051E0005FFD00287FF45FAF10211AE000217A20D4
:1051F000FFF756FD00287FF456AF291DFF20FFF76B
:10520000ADFC05F8010B8D42F8D1E1E70021CD207E
:10521000FFF746FD00287FF446AFFF20FFF79EFC16
:1052200040212846FFF7D0FCB0FA80F0400900E0AA
:105230000420054B4FF000729A6102E0002000E06C
:10524000032004B070BD00BF20C0092006C00720A5
:1052500000C60720054B1B78253BDBB2032B9ABF0A
:10526000034A52F823000020704700BF04C60720FD
:10527000905C02001B4B2DE9F0411D880646B5F5F8
:10528000007F0F46144602D12A46214613E0B5F5A9
:10529000807F09D12A4621463846B0472A4604F580
:1052A000807107F5807016E0B5F5047F05D1510ACD
:1052B00089024FF4007238460DE0B5F5847F0ED1B7
:1052C000140A61024FF480723846B047611C4FF4F3
:1052D00080724902B8183346BDE8F0411847BDE86E
:1052E000F08100BF02C6072030B52F4C034625468B
:1052F000002958DD07291A782DDDA2605A7808396F
:10530000A2609A78A260DA78A2601A79A2605A79CB
:10531000A2609A79A26003F10802DB79A360A36915
:105320005B07FCD5AB680370AB684370AB688370F8
:10533000AB68C370E368DB06FCD4AB68083000F8E8
:10534000043CAB6800F8033CAB6800F8023CAB6877
:1053500000F8013C1AE003291ADDA2605A780439EA
:10536000A2609A78A2601A1DDB78A360E368DB066E
:10537000FCD4AB68043000F8043CAB6800F8033C94
:10538000AB6800F8023CAB6800F8013C1346AFE79D
:105390000133A2600139E268D206FCD4AA68013068
:1053A00000F8012CA4E730BD0000034007B50B0C4A
:1053B0008DF805308DF807100B0A04218DF80400D4
:1053C0000DEB01008DF80630FFF78EFF03B05DF89E
:1053D00004FBFFFFF7B5174606460E4C4025032396
:1053E000E5618DF804300B0C8DF805308DF8071051
:1053F0000B0A04210DEB01008DF80630FFF774FF56
:1054000000223946304604F02FF8A561A561A56158
:1054100003B0F0BD00C009200E4B4022DA610E4BF4
:10542000D7229A601A46D1680B4BC906FBD49A68FA
:105430001A46FF219960D068C006FCD4906810F02D
:10544000800FF7D0034B40229A61C0B29A619A61F3
:10545000704700BF00C0092000000340F7B5FFF708
:10546000DBFF1F4C002323801E4B1F4E40271A8852
:105470009B78F7610321054601A8ADF804208DF85B
:105480000630FFF731FF9DF805209DF806301F2AF2
:10549000B7612146B761B7611CD1A3F12502032A88
:1054A00018D8124A252B137005F0010006D10028E8
:1054B00014BF4FF480734FF4847305E0002814BFC9
:1054C0004FF400734FF404730B80FFF7C3FE084BD7
:1054D000400A18600888B0FA80F0400903B0F0BDB7
:1054E00002C60720885C020000C0092004C607200D
:1054F00008C60720F8B58B1817460D4A013B1268FD
:105500000446934210D84D02FFF786FF00262D1B5C
:10551000BE4204EB050209DA21460648FFF7AAFE5F
:1055200004F500740136F3E70120F8BD0020F8BD52
:1055300008C60720D5530100F8B58B1817460C4A4A
:10554000013B126893420FD804460026C0EB412568
:10555000BE4204EB050209DA21460648FFF78AFE3F
:1055600004F500740136F3E70120F8BD0020F8BD12
:1055700008C607205956010008B5072805D8DFE8F6
:1055800000F006090E1214141414042008BDFFF7CD
:1055900043FF0AE0FFF75EFE400A086005E04FF4B3
:1055A00000730B8001E001230B60002008BDFFFFAA
:1055B00070B590B003466A466E4600F14005144649
:1055C00018685968083303C4AB422246F7D1084D26
:1055D0004024EC6100219B20FFF7E8FE2146304685
:1055E000FFF782FEAC61AC61AC6110B070BD00BF72
:1055F00000C0092070B50646074D402400217720E1
:10560000EC61FFF7D3FE21463046FFF76DFEAC613B
:10561000AC61AC6170BD00BF00C0092008B5064B8D
:10562000198831F01F0104D0FFF714FEB0FBF1F030
:1056300008BD084608BD00BF02C60720014B1888F8
:10564000704700BF02C60720024B1878003018BF11
:105650000120704702C607202DE9F7434FF0FF33C2
:105660000F46914601938046FFF7D6FEFFF7ECFF09
:105670000646B8B1194C4025194BE5611B8803203B
:10568000B3F5847F0CBF4FF480714FF40071394340
:10569000FFF78CFE04210DEB0100FFF725FEA5614D
:1056A000A561A5610D4C402339468220E361FFF7D7
:1056B0007DFE01224946404603F0D6FE3EB1019BE5
:1056C00002A8013340F8043D0421FFF70DFE4023FA
:1056D000A361A361A36103B0BDE8F08300C009200A
:1056E00002C60720124B37B51B88B3F5847F0CBF69
:1056F0004FF480714FF400714FF0FF3341EA4021C5
:105700000193FFF7A1FF68B10A4C40250320E56132
:10571000FFF74CFE04210DEB0100FFF7E5FDA5614D
:10572000A561A5610198431C08BF002003B030BDEE
:1057300002C6072000C0092037B5084B084C18687E
:10574000402504210190E5610DEB0100FFF7CCFD40
:10575000A561A561A56103B030BD00BF8B5C0200EF
:1057600000C009201FB501A803F0A2FD9DF8083074
:105770009DF8092003F01F0302F00F021B0443EA07
:1057800042519DF806309DF8040003F01F0341EAE2
:10579000C3229DF80530C0F3440003F03F0342EA02
:1057A0004313BDF80A201843520602F10842104381
:1057B00005B05DF804FB30B504460D1F131B034410
:1057C000032B04D955F8043F44F8043BF6E794084A
:1057D000A3001944A2EB8402013B18440A449142FD
:1057E00004D011F8013B00F8013FF8E730BD024456
:1057F000904202D000F8011BFAE7704700F10B015C
:105800000023DA0142EA530310F8012B13448842C3
:1058100003F0FF03F5D118467047036810B504463E
:10582000B3B119460A4611F8010B1F2802D93A28CC
:10583000F8D101E0002010BD591C8A4208D11B7824
:10584000303BD9B2012903D801321846226010BD7D
:105850004FF0FF3010BD03692DE9F04101F109025D
:105860000D4663B3416900244E1E2E2716F8013FF2
:105870000134202B19D0052B48D0092C01D11770E9
:105880000132A3F1410EBEF1190F0CD8082C91F88A
:105890000CE08CBF4FF0100C4FF0080C1CEA0E0F00
:1058A0001CBF2033DBB2137001320B2CDED1CB7A5C
:1058B0002B72CB692B600B8BAB80CB8AEB800024E7
:1058C0001470AE693EB303690BB900241AE0EB69AA
:1058D000002BFAD04FF6FF73028C9A42F5D0D0F825
:1058E0001C80771E38F8140060B10021FFF74AF8D9
:1058F0000028EAD0EB69013B9C42E6D2013407F86C
:10590000010FEFE700233355BDE8F081092C4FF07C
:10591000E503C8D1B3E7BDE8F081F8B5056B00F148
:105920003407044601232A4639464078FFF7BFF87A
:10593000A0B9636AE269EB1A9342207101D3002097
:10594000F8BDE678012EFAD9E36939461D442A46A6
:1059500001236078FFF7ABF8013EF3E70120F8BDC3
:1059600003790BB1FFF7D9BF1846704770B50446ED
:10597000FFF7F6FF054680BB2378032B25D163791B
:10598000012B22D104F1340601464FF40072304657
:10599000FFF72DFF4AF65522A4F832220F4A31466E
:1059A000626302F1FF5202F500522032C4F818225D
:1059B00062696078C4F81C222269C4F82022226A35
:1059C00001322263FFF773F8657100221146607897
:1059D000FFF789F8003018BF012070BD52526141B5
:1059E000036B70B58B4205460E4610D0FFF7B8FF2B
:1059F000044608B101240BE00123324605F13401CD
:105A00006878FFF738F80028F4D12E6300E000240E
:105A1000204670BD002310B503714FF0FF330363C0
:105A20000446FFF7DDFFA0B94AF65523B4F8322249
:105A30009A4210D1D4F86A30084A23F07F43934247
:105A40000AD0D4F8860020F07F40801A18BF0120C9
:105A500010BD032010BD022010BD00BF4641540000
:105A60002DE9FF4100230360074608461546FFF76E
:105A7000D4FE061EC0F2FA80854B53F82640002C57
:105A800000F0F680E068FEF7B9FF002800F0F28031
:105A90003C60237883B16078FEF7E5FFC1070BD443
:105AA000002D00F0E98000F0040303F0FF00002B5C
:105AB00000F0EB800A20E8E00023F0B22370607071
:105AC000FEF7BEFFC20700F1D9800DB14307F1D444
:105AD00000212046FFF79EFF01281CD1214600220D
