:020000021000EC
:10000000E03F082095010100FB000100E100010034
:10001000090101001901010029010100000000008F
:10002000000000000000000000000000C1B7010057
:10003000390101000000000021B801005901010050
:1000400001BE010001BE010001BE010001BE0100B0
:1000500001BE010001BE010001BE010001BE0100A0
:1000600001BE010001BE010001BE010001BE010090
:1000700001BE010001BE010001BE010001BE010080
:1000800001BE010001BE010001BE010001BE010070
:1000900001BE010001BE010001BE010001BE010060
:1000A00001BE010001BE010001BE010001BE010050
:1000B00001BE010001BE010001BE010001BE010040
:1000C00001BE010001BE010001BE0100308E020030
:1000D00000C00720F8020000F8C2072078050000E1
:1000E00004207146084203D0EFF309800BF0A6BE4E
:1000F000EFF308800BF0A2BE704708B5014808F086
:1001000077FAFEE7B685020008B5024808F070FAF3
:10011000FEE700BFC185020008B5024808F068FA92
:10012000FEE700BFCC85020008B5024808F060FA7F
:10013000FEE700BFD785020008B5024808F058FA6C
:10014000FEE700BFE485020008B5024808F050FA57
:10015000FEE700BFF285020008B50BF0E5FA0BF0F0
:1001600081FBBDE808400BF0F3BA0B4610B5401A0E
:100170005C1AA24203D9C45843F8044BF8E710BDF7
:10018000034610B500221C1AA14202D943F8042BE1
:10019000F9E710BD16480BF007FC15480BF007FCFB
:1001A000144C154DAC4201D3144D07E094E8030004
:1001B0000C3454F8042CFFF7D8FFF3E7AC4206D216
:1001C00054F8080B54F8041CFFF7DAFFF6E70FF0B9
:1001D000E5FA0BF003FC01F0DBFD03F0D8FA4FF475
:1001E00016400BF049FF064808F002FAFEE700BF90
:1001F000E03F0820CC000100D8000100E000010031
:10020000068602000BF0F0BA0BF0FEBA144B10B5E4
:100210001A68014612B94FF080521A60114C1868E2
:100220002468421894421A6007D20F4CA24204D8A4
:100230000E4A0B488C18046010460D4A1B68126861
:10024000934222BF064B00201A6039B1094A136855
:1002500001331360084B1860084B196010BD00BFD4
:10026000FCC2072004C30720FFBF072070C8072077
:1002700008C307200CC30720F8C2072000C30720CB
:100280000FF0C4BB0FF0CABB0FF0C8BB30B50446BB
:100290008BB068460FF076FE224B079A2360089BCE
:1002A000214DA36062602149214B52B90A68186848
:1002B00082428ABF02F1604202F17042A2F5E82256
:1002C000626062681B68B2F5803F82BF02F17042D3
:1002D000A2F5E82262600022E2600A68934206D337
:1002E000991AC5F1005303F504230B440BE0114B9D
:1002F0001B68934208D9991AC5F1005303F5F823F6
:100300000B44002B00DDE36020460B4BE2611B68D1
:10031000A3610A4B1B686361094B1B6823610BB027
:1003200030BD00BF7008000070C80720FCC2072065
:1003300004C3072008C30720F8C2072000C3072012
:100340000CC3072000207047034A044B1A60044A7C
:10035000044B1A60704700BF0080001004C30720E0
:100360000040082008C30720014B1860704700BFF9
:1003700018C30720014B1860704700BF10C3072047
:1003800008B5024810F0A6FDFEE700BF145D0200AC
:1003900008B5024810F09EFDFEE700BF2E5D02008A
:1003A0000020704701207047F8B5084B16461A68C0
:1003B0000F461C4642B10D46EB1B9E4204DD2368EE
:1003C00015F8010B9847F7E73046F8BD18C307202A
:1003D000F8B5094B0F46186816461C4658B10D462D
:1003E000EB1B9E4205DD23680020984705F8010BB2
:1003F000F6E726EAE670F8BD10C307207047002034
:100400007047FFFF074B1B689A68824207D05A6803
:10041000824204D0DB681B1A5842584170470120C1
:10042000704700BF3CC10720002070470020704784
:1004300030B504468DB0A8B3684609F03BFA9DF884
:100440000030002503F03F0303939DF8013003A81B
:1004500003F03F0304939DF802300B9503F01F0354
:1004600005939DF8043003F01F0306939DF80530B3
:1004700003F00F03013B0793BDF80630C3F30B03F2
:10048000A3F26C7308939DF8033003F007030993FC
:10049000BDF80830C3F30B03013B0A930FF000FCD7
:1004A00084E8210000200DB030BDFFFF70B50F4D76
:1004B0000F4E2C6814F0010415D128460CF07CF97D
:1004C00088B14FF40E70FFF7DBFE302380F8353231
:1004D0003A2380F8344280F8363280F83742306070
:1004E00028460CF075F9306870BD00BF34C3072092
:1004F00038C3072070B50F4D0F4E2B6813F0010461
:1005000016D128460CF058F990B14FF40E70FFF751
:10051000B7FE012380F83432312380F835323A2394
:1005200080F8363280F83742306028460CF050F9B7
:10053000306870BD2CC3072030C307202DE9F04F71
:10054000ADF51B7D0F4608F077FC041E04DD0BF0B3
:10055000B3F820460AF0F6FD0DF114094C462A4D79
:100560004FF0640B0FCD0FC42B6804AA2360102139
:1005700000240AA804940AF0A3FF244A82462449CE
:10058000384609F027FC26460AAD4FF00008D04552
:100590001CD06B69A34215D1AA69049B16441BB1F8
:1005A000B3FBFBF3B2FBF3F3297B039202932B8C97
:1005B00000949B00019359F821306A681549384628
:1005C00009F008FC08F101082435E0E701340A2CA1
:1005D000DAD1049B64229E1BB3FBF2F30E49B6FBF7
:1005E000F3F30E4A0096384609F0F4FB0AF07EFC5D
:1005F000102804D910220A49384609F0EBFB0120E3
:100600000DF51B7DBDE8F08F485D0200675D0200BF
:100610006C5D0200935D0200BB5D0200B05D0200F4
:10062000DA5D020010B50C46ADF5007D68460BF0B2
:100630006DFB20464FF0FF32694609F095FB012023
:100640000DF5007D10BDFFFF30B50C4691B02C4973
:10065000054608F0FDFA002847D00CAB04930BAB1D
:1006600003930AAB029309AB019308AB009306AA6C
:1006700007AB2449284608F053FA072801D0002088
:100680003BE09DF83930069A0DA862F303038DF81C
:100690003930079A9DF8383062F304038DF838300A
:1006A000089ABDF83A3062F30B03ADF83A30099A74
:1006B0009DF8363062F304038DF836300A9A9DF8BF
:1006C000353062F305038DF835300B9A9DF83430E0
:1006D00062F305038DF834300C9A9DF8373062F3DD
:1006E00002038DF8373009F00DF909F0A7F9064932
:1006F0000246204609F06EFB012011B030BD00BF5C
:10070000045E0200085E0200167E0200F7B50D4688
:100710004E49044608F08CFB064640B107F000FE47
:100720004FF0FF324A49284609F01EFB8BE0494949
:10073000204608F07DFB60B307F016FE46490246EE
:10074000284609F047FB07F01BFE444902462846AD
:1007500009F040FB07F00EFE41490246284609F029
:1007600039FB304607F0F6FD0446012007F0F2FDA4
:100770000646022007F0EEFD0746032007F0EAFDDB
:1007800000970190334622463649284609F022FB5D
:1007900059E03549204608F05BFA50B1202201218A
:1007A000204608F0F3FA204608F044FB07F000FF6B
:1007B00049E02E49204608F04BFA064620B92C495C
:1007C000204608F045FA60B32A49204608F02EFA80
:1007D00060B92949204608F029FA28B92046274956
:1007E00008F024FA044602E0032400E00224314623
:1007F000204607F035FE224A224B002E18BF1A462B
:100800003CB1012C07D01C491A4B022C18BF0B46D7
:1008100002E01D4B00E0194B1C49284609F0DAFAAA
:1008200011E0204608F006FB194A1A490090F3230C
:10083000012007F023FE204608F0FCFA1649024684
:10084000284609F0C7FA012003B0F0BD435E02005C
:10085000495E0200625E0200695E02007E5E020086
:10086000935E0200B25E0200E25E0200E65E0200FB
:10087000EE5E02003E5E0200385E02003270020050
:10088000295E0200215E0200325E0200F75E020075
:100890005C5D0200105F0200435F020030B589B06A
:1008A00004AB002400930D4603AB022218490394C5
:1008B000049408F043F9022827D107AB009305AA56
:1008C00006AB0499039805940694079404F034FA4F
:1008D000024638B1049B0F4900932846039B09F058
:1008E00079FA10E0059A069B002A079908BF0122B1
:1008F000002B08BF0123B1FBF3F3B1FBF2F2284652
:10090000054909F067FA012000E0204609B030BD32
:10091000D26F0200515F0200705F02002DE9F047C4
:100920000E46ADF5856D3949054608F01BFA384984
:100930000746284608F03FFA3549284608F05BFA92
:10094000284608F077FA0122014681A806F03EFA0F
:10095000044640B1284608F06DFA2E49024630465A
:1009600009F038FA4CE00DF1040A01464FF4007228
:1009700050460FF0B0F800940BF0B2F9804689466B
:100980006B464FF40072514681A806F0B9FA08B9D7
:10099000009B23BB81A806F082FCCFB10BF0A0F92D
:1009A0004FF47A7200230EF067FC002305464FF4E3
:1009B0007A72404649460EF05FFC281A14BF03467F
:1009C0000123B4FBF3F322461349304609F002FA3F
:1009D0004FF0FF321149304609F0C6F910E01C44CF
:1009E000002FCDD13D46009B9D42C9D233681AF8F5
:1009F00005105B684FF0FF32304698470135F2E74B
:100A000001200DF5856DBDE8F08700BF9E5F0200F7
:100A1000D26F0200A75F0200BB5F020049650200BF
:100A20002DE9F0470023BEB00C46534905460C9310
:100A300008F0FEF920B9284608F0FCF9064600E067
:100A40004E4E314615A806F0E3FC054630B103468C
:100A500032464B49204609F0BDF989E03246494902
:100A6000204609F0B7F92F460DF1780880230DA92B
:100A700015A8CDF84C80149306F00EFD002861D126
:100A80009DF83D30002B5DD09DF83C100DF13D00F0
:100A9000CA065BBF0D9B0C9A44229B185BBF0C934C
:100AA0002D220135013711F0010F14BF52232D23E0
:100AB000BDF83AA011F0020F09900D9814BF4FF045
:100AC000480E4FF02D0E11F0040F14BF4FF0530CD1
:100AD0004FF02D0C089011F0200FCAF34510BDF80F
:100AE000381007904FEAEA20069001F01F000590A9
:100AF000C1F343104FEA612114BF4FF041094FF099
:100B00002D0901F2BC71CDF804C0CDF800E00490CD
:100B10000391CDF808901C49204609F05BF94FF08D
:100B2000FF321A49204609F00BF941464FF0FF32D7
:100B3000204609F005F94FF0FF320F49204609F031
:100B400013F991E73A46124900950C9B204609F0AB
:100B500041F90BAA0CA9304606F0CDFC40B90B9B1D
:100B60000C499A780C9B20465A43520809F032F9F6
:100B700001203EB0BDE8F08749650200D65F020063
:100B8000D95F0200FD5F02001860020045600200AC
:100B9000496002007360020070B50C46064608F01A
:100BA00049F90546304608F045F906F066FD064A63
:100BB000064B0749002808BF13462A46204609F07D
:100BC00009F9012070BD00BF2962020033620200F2
:100BD0008760020070B50C46064608F02BF9054602
:100BE000304608F027F906F0EBFC064A064B0749A9
:100BF000002808BF13462A46204609F0EBF80120DA
:100C000070BD00BF2962020033620200A3600200CF
:100C10007FB503AB002400930E4602AB02220F49BE
:100C20000294039407F08AFF022814D1029C039DCA
:100C30002046294606F0CAFD094B0A4922460028EB
:100C40000CBF084618462B4600900749304609F06D
:100C5000C1F8012000E0204604B070BDD26F020050
:100C60003362020029620200B560020030B5ADF5C2
:100C70000D7D0C46054608F0DDF80A22014603A862
:100C800006F0A4F840B1284608F0D4F81F490246FF
:100C9000204609F09FF834E08DF8070002901C49C7
:100CA00042F210737E22204609F094F8194920463A
:100CB00009F090F8236842F210721B680DF10701E9
:100CC0002046984718B19DF807307E2B03D103A822
:100CD00006F0E5FA15E002AB01220DF1070103A8C9
:100CE00006F0C6F958B9029B012B08D123684FF0D2
:100CF000FF325B689DF8071020469847DAE70649FF
:100D0000D5E701200DF50D7D30BD00BFCD6002009F
:100D1000F46002002C6102004C6102002DE9F04FEA
:100D2000ADF5417D002304AC236003930D46009490
:100D300003AB0222414907F001FF022806D04FF021
:100D4000FF323F49284609F00FF872E0216817A8E2
:100D500006F05EFB10B122683A4906E0039917A835
:100D600006F056FB28B1039A3749284609F032F8B5
:100D70005FE04FF480720DEB020105A807F0A0FEC2
:100D80004FF4807280A90AA807F09AFE20AE80274F
:100D90000FA917A81596169706F07EFB002842D1DA
:100DA0009DF84530002B3ED09DF8443003F01003F1
:100DB00003F0FF0A002BEBD10DF14503039A234901
:100DC00005A808F081F80DF1450322681F490AA81B
:100DD00008F07AF805A808F02DF807460AA808F0E8
:100DE00029F8804605A8DDF83C9008F023F88346F2
:100DF0000AA808F01FF8534652460146CDF800A055
:100E0000584603F099FF124A124BCDF80090002883
:100E10000CBF184610461049019043463A462846F2
:100E200008F0D8FFB3E70AA807F05FFE05A807F0AF
:100E30005CFE01200DF5417DBDE8F08FD26F020010
:100E400073610200B8610200DD610200FD61020011
:100E5000336202002962020003620200F8B50D4607
:100E60002449064607F0E4FF0446074618B1FFF799
:100E700041FB002208E02049304607F0D9FF044634
:100E800060B1FFF713FB3A46114600F2352006F039
:100E90002DFD4FF0FF32194B194922E01949304618
:100EA00007F0C6FF044658B1FFF724FB012200F209
:100EB000352105F04DFF4FF0FF32134B134910E081
:100EC0001349304607F0B4FF044680B1FFF7EEFA4D
:100ED000012200F2352105F03BFF0E4B0E494FF089
:100EE000FF32002818BF1946284608F03DFF20466B
:100EF000F8BD00BF8A620200946202002C62020008
:100F000022620200A162020049620200396202000C
:100F1000AA6202006E6202006062020008B5084622
:100F20004FF0FF32084908F01FFF07F0F9F94FF4BE
:100F3000FA600AF007F94FF08043AA221A720022E1
:100F40001A70012008BD00BFB662020010B5012072
:100F50000C4607F0A9FD40B100231A46194609F0D6
:100F600003FC4FF0FF32054902E005494FF0FF3224
:100F7000204608F0F9FE012010BD00BFC762020044
:100F8000DD62020038B5064C236833B91C20FFF738
:100F900077F9054608F096FB2560206838BD00BF4C
:100FA00024C307202DE9F04F5F4C91B023680E4613
:100FB00033B92C20FFF764F9054608F017FE2560C9
:100FC0002768FFF773FA00240CAA0DA900F2352058
:100FD0000D9406F090FA48B90C9A0D9C9569937897
:100FE000023D5C435D4364086D0800E025464F4BBD
:100FF0001A6898467AB90C20FFF742F98146FFF744
:10100000C1FF902389F804300023C9F80000C9F813
:101010000830C8F80090D8F8000003F07BFE814645
:101020000EF0E4F80A900DF0C7FE014648460DF0B8
:101030000DFE3F490DF014FF0EF0D8F881460DA8C3
:101040000AF0C2FC04F0BCFD68B308F071FD04F0C6
:10105000A1FD4FF0000A0346D346D0469A450B93B4
:101060000BD0504604F0FAFD804538BFD3460B9BA9
:1010700038BF80460AF1010AF0E708F071FD6423E9
:1010800003FB08F32B4ACDF80880B3FBF2F3C3F15E
:1010900064030093CDF804B02B462246264930461F
:1010A00008F098FE05E02B4622462449304608F019
:1010B00091FE234C23681BB90120FFF7E1F8206063
:1010C000206803F0ECFD044608F0B8FCFB8C0A9A9B
:1010D0000993BB8C1B4908939DF83430019003F0B1
:1010E0003F0307939DF83530009403F03F030693C8
:1010F0009DF83630304603F01F030593BDF83A30B3
:10110000C3F30B0304939DF8383003F01F030393DC
:101110009DF8393003F00F0302934B4608F05AFE56
:10112000012011B0BDE8F08F28C307201CC30720A1
:1011300000002041A0860100166302004A630200FD
:1011400020C30720586302002DE9F04F0D46C7B0B9
:101150005549814607F093FD54498246484607F0B9
:101160008EFD53498346484607F089FD00270DF15F
:10117000100805AE044602970397C8F80070376060
:10118000BAF1000F45D0009603AB02AA4949484680
:1011900007F0C6FC012807DC28464FF0FF3246491D
:1011A00008F0E2FD38467CE00DF118084FF4807439
:1011B0002246394640460EF08EFC336813B90123AF
:1011C000336003E0B3F5807F88BF3460FFF7DAFE59
:1011D00033689DF80C209DF808100093434608F0F2
:1011E000BFFE364A364B3749002818BF1346029ACD
:1011F000284608F0EFFD002433689C424ED2039A43
:1012000018F8043022443049284608F0E3FD013440
:10121000F2E7BBF1000F2CD0CDF8008003AB02AA9F
:101220002A49484607F07CFC032807D028464FF09F
:10123000FF32274908F098FD504632E0FFF7A2FE42
:1012400098F800309DF80C209DF8081008F09DFEDD
:1012500048B1039B1F490093D8F80020029B284601
:1012600008F0B8FD1AE0029A1B49284608F0B2FDC2
:1012700014E0A8B102230293029BFE2B10DCFFF7BF
:1012800081FE9DF8081008F08BFE20B1029A1349E8
:10129000284608F09FFD029B0233ECE7012000E0A6
:1012A000204647B0BDE8F08FF1700200C163020034
:1012B000C7630200D0630200DF63020029620200FC
:1012C00033620200006402002464020034640200FD
:1012D000446402006B64020085640200A2640200A0
:1012E00070B5ADF50A7D05460C4607F010FC0B28DD
:1012F00002DD0C2222493CE0284607F09BFD01223A
:10130000014601A805F062FD064668BB01A805F08C
:10131000C6FF284607F08EFD1A490246049B204668
:1013200008F058FD236820469B6898470A2009F07A
:1013300009FF4FF0100383F31188BFF36F8FBFF3E2
:101340004F8F284607F076FD02460F4B0068516824
:1013500003C390680D4A186043F80C2C4FF080438B
:10136000AA221A721E7007E0284607F063FD0246A3
:101370000749204608F02EFD01200DF50A7D70BDBD
:10138000DC64020003650200484002400DD0ADDE7F
:101390004A6502002DE9F041404CA4B0236806469E
:1013A000DB070D460CD420460BF006FA40B14FF493
:1013B00080600EF02BFB3A4B186020460BF008FAC9
:1013C0003849304607F05BFC0746044600B38022EC
:1013D000002104A80EF07FFB00230293039303ABCC
:1013E000009304AA02AB3049304607F099FB2C4920
:1013F000029B039A096804A813B903F039FD01E0C0
:1014000003F058FD294B2A49002818BF194638E037
:101410002849304607F033FC074600283AD004AB91
:10142000304603AA2449039404948DF8084007F039
:1014300077FB039E049B3344B3F5806F02DCDFF837
:1014400060800CE04FF480621C4920E0D8F8003046
:101450009DF808209A559DF8083001361C44039BDE
:10146000049AF31A934210DAB6F5806F0DDA2B68FE
:101470004FF4FA621B6802A9284698470028E5D174
:101480000F49284608F0A6FC04E022460D492846EC
:1014900008F0A0FC384624B0BDE8F08140C3072026
:1014A0003CC30720756502007C650200636502008D
:1014B0005F6502008C650200936502009D65020075
:1014C000C1650200D165020038B50D4607F0B4FCD5
:1014D0000446C0B202F066FB054A064B06490028E6
:1014E00018BF13462246284608F074FC012038BD78
:1014F00029620200E2650200E965020030B50C468F
:10150000054687B00A4908F065FCA1882388049144
:10151000218962880391E18828460291E17A01914C
:10152000A17A0091034908F055FC07B030BD00BF17
:1015300000660200366602002DE9F0418CB003AB74
:10154000002600930D46904602AB022238490296CF
:10155000039607F0F3FAB04266DD02980EF026F823
:10156000C7B2039818B10FF0B7FFC4B200E0044649
:10157000002104A803F0B6F930B14FF0FF322D4935
:10158000284608F0F1FBF3E7022318F1000100936D
:10159000039A234618BF0121384602F047FC06464D
:1015A00038B94FF0FF322449284608F0DDFB012608
:1015B0003AE0B8F1000F37D04FF47A7104A803F085
:1015C00099F960B39DF81030BB4228D19DF81730CF
:1015D0000C2B04D13A4606A92846FFF78FFFBCB969
:1015E0001649284608F0F6FB9DF817309C420ADAA7
:1015F00004AB19192B684FF0FF325B68097A284653
:1016000098470134F0E70E49284608F0E3FB0BE069
:101610004FF0FF320B49284608F0A6FB04E0029A7F
:101620000949284608F0D6FB30460CB0BDE8F081E9
:10163000D26F020054660200766602009E660200C7
:10164000CB6C0200B2660200CF6602001FB501A893
:101650000C4602F0C9FD02F0B1FA01A9024620468B
:10166000FFF74CFF012004B010BDFFFF30B58BB079
:101670000AAA4FF47A730C4642F8243D174907F042
:101680004FFA0025019902A803F02CF9D8B19DF872
:1016900008201349204608F09DFB00259DF80F30D7
:1016A0009D420ADA02AB591923684FF0FF325B689A
:1016B000097A204698470135F0E70A49204608F0A4
:1016C00089FB0125DEE72DB94FF0FF3206492046A0
:1016D00008F04AFB01200BB030BD00BF9A65020044
:1016E000F5660200486502000C67020037B50C463B
:1016F00002F0DEFB05461649204608F06BFB154953
:101700002A46204608F066FB1149204608F062FB95
:10171000D5B11149204608F05DFB0D49204608F07F
:1017200059FB0025E8B202F0ADFB013540B18178EC
:101730004378027800912046084908F04BFBF1E716
:101740000349204608F046FB012003B030BD00BF2E
:101750001D67020038670200526702006D670200D1
:101760002DE9F3473C4C074626688946002E62D196
:101770002420FEF785FD0423054680E848008660A6
:10178000C660202130460FF00FFCAE68E8604FEADB
:101790008608072E0ED81020FEF772FD8246102212
:1017A00000210EF098F9EB68013643F808A008F123
:1017B0000408EEE7002608236B604FF00108274B72
:1017C000274A28492846009685F82080256006F09B
:1017D00019FB254B254A26492068009606F012FB86
:1017E000244B254A25492068009606F00BFB244B24
:1017F000244A25492068009606F004FB234B244A1E
:1018000024492068009606F0FDFA234B234A244918
:101810002068CDF8008006F0F5FA224B224A2049D4
:101820002068009606F0EEFA0096204B204A2149E7
:10183000206806F0E7FA2049384607F0F9FA18B1AF
:101840001E49384607F0AEFB4A463946206802B0CA
:10185000BDE8F04706F0B6BB48C307208867020022
:10186000C26702000D1B0100C96702001D6802006B
:10187000E118010026680200496802006D160100A7
:101880004C680200AB6D0200C914010076680200CA
:1018900092680200ED1601009968020000690200DA
:1018A00039150100DA680200FF68020004690200CD
:1018B0001F6902004D1601004965020025690200FA
:1018C00038B5064C236833B95820FEF7D9FC0546D5
:1018D00007F0D0FF2560206838BD00BF44C3072053
:1018E0002DE9F04F0446ADF2DC5D802288460DA85C
:1018F00000210EF0F0F8802200212DA80EF0EBF868
:1019000006AE002333600DAA00962DAB7549204624
:1019100007F006F9032801D00020DFE001220DA91D
:10192000EDA805F053FA05460028F5D1FFF7C8FFEA
:101930003368802280F853304DA9044608A88DF8FA
:101940001750079507F0BCF82DAB009333680DAA2C
:101950006549404608F03EFAA94607AE33464FF4C3
:1019600000726DA9EDA805F0CBFA002840F0AF8019
:101970003368002B00F0AB806F1C32685B49204657
:1019800008F028FA236820469B6898477D1E0DF5CD
:10199000DA7B4FF0000A6DAB3268C3EB0B039A425F
:1019A00023680CD9CDF80CB05B684FF0FF321BF800
:1019B000011B20469847039B1B789A44EBE79B68E2
:1019C0002046984708A807F035FA834608A807F08C
:1019D000A1F84FF47A7302465946204608F0D2F92E
:1019E000202201210DEB020007F0D0F908A807F032
:1019F00023FA824520D008A807F01EFA5246034673
:101A00003B49404608F0E6F93A49204608F0E2F939
:101A1000236820469B68984723684FF47A721B68B6
:101A20000DF11701204698470028F5D1022F07F144
:101A300001034CD81F46A0E733682DAA2E49009316
:101A400020464B4608F0C6F9236820469B68984715
:101A500008A807F0EFF9824608A807F05BF851469E
:101A600002464FF47A73204608F08CF9234908A8FF
:101A700007F0DCF8D0B908A807F0DCF920490246E5
:101A8000404608F0A7F91B49204608F0A3F923684F
:101A900020469B68984723684FF47A721B680DF1C3
:101AA0001701204698470028F5D1BFE7154908A837
:101AB00007F078FA3368144999444A46F09B404647
:101AC00008F088F9002D3FF448AFBD1E45E7EDA8AA
:101AD00005F0E5FB08A807F008F801200DF2DC5D31
:101AE000BDE8F08F2A6902003969020050690200DE
:101AF0006269020048650200896902009F6902006C
:101B0000A269020049650200DA6902002DE9F04786
:101B1000074686B006AA002442F80C4D0E463D4901
:101B200006F0FEFF20220121384607F02FF9039B23
:101B3000002B65D0384606F0EAFF002860D0FFF79A
:101B4000BFFE05460DF1180808F80D4D2B6805225B
:101B50001B6841462846984704460028F6D1039B57
:101B6000384685F8533007F065F9274601464FF0AF
:101B7000FF32284608F0F8F82B6828469B689847FB
:101B8000254B0DF11809186849F8044D04902B688D
:101B90004FF47A721B68414628469847D0B1032219
:101BA0000DF1150148460DF07BFF9DF80BA00422B6
:101BB00004A948468DF817A00DF058FF50B13368BE
:101BC00001225B6851463046013798470028DED134
:101BD0000134DCE71822B7FBF2F302FB137202B107
:101BE00001333A460D49304608F0F4F874B16123E8
:101BF000009322460A4B0B49304608F0EBF805E00B
:101C00004FF0FF320849304608F0AEF8012006B028
:101C1000BDE8F0879A650200DE650200E669020011
:101C20000D6A0200496A0200026B020001480FF0CF
:101C300051B900BF2E6B020038B504460D460AF0BC
:101C4000C9F9074BB0FBF3F00223B0FBF3F2AA4251
:101C500004D9B3F5807F01D00233F6E7236138BDA4
:101C600040420F007FB500F235260C460122314676
:101C700005F06EF8054648BB039002AA03A930465A
:101C800005F039FC00BB0298039A837802FB03F14C
:101C900082691348023A5A435208B2F5004F38BFDE
:101CA0000120104B4FEA510124BF03464FF48060DE
:101CB000B1FBF0F1B2FBF0F20091019321460A482A
:101CC0000FF096F8012008E0084B00E0084B2A4688
:101CD000214608480FF08CF8002004B070BD00BF0A
:101CE0006C6B0200696B0200766B0200726B020083
:101CF0006F6B0200A46B020038B5074C23684BB928
:101D00000820FEF7BDFA0546FFF73CF9402328609E
:101D10002B712560206838BD54C3072038B5054CA9
:101D2000256825B90120FEF7ABFA05702060206810
:101D300038BD00BF50C3072038B5084C23685BB9D5
:101D40000C20FEF79DFA0546FFF71CF990232B7136
:101D500000232860AB602560206838BD1CC30720C5
:101D600010B5044C23681BB90120FEF789FA2060E6
:101D7000206810BD20C3072010B5044C23681BB990
:101D80000120FEF77DFA2060206810BD4CC30720BB
:101D9000AD49AE4A4023F0B58B614FF000739361BB
:101DA0004FF480338B61AA4BADF5057D186807258C
:101DB00020F0F00018601868022440F0500018600D
:101DC000186820F440501860086840F0400008602F
:101DD000186820F47C201860186840F428201860E7
:101DE000186820F470001860186840F4200018602B
:101DF000186820F040401860186840F000401860F3
:101E0000586820F03C005860586840F0280058603E
:101E1000586820F003005860086840F4803008607B
:101E2000586820F440505860086820F4800008602A
:101E3000D96821F44031D960116841F08071116096
:101E4000596821F440215960596841F48021596052
:101E50009868804901409960116841F4897141F0A6
:101E600001011160996821F470119960996821F05D
:101E700070419960116821F446411160D96821F0E0
:101E80003001D960D96841F03001D960D96821F4B6
:101E90007011D960136843F000731360136823F066
:101EA0008063136007F0DCF801210A2009F0B2FE1C
:101EB00001210A2009F0C6FE67480121056044603F
:101EC000FFF7BAFE07F0C4FD0121152009F0A2FEBC
:101ED0000121152009F0B6FE60480121056044602B
:101EE000FFF7AAFEFFF74EF8642107F0B7FB10B921
:101EF0005B480EF0EFFF09F0C9FE02F0CDFC10B90F
:101F000058480EF0E7FF4FF4FA6007F062F8FFF769
:101F10008DFE0AF05FF80CF04BFF53490DF054F8BA
:101F20000CF0F4FA02460B4650480EF061FF09F03F
:101F300045FD052804AC14D1002363604C4B1B689D
:101F40002360FFF773FE4B4B4B48D96C1A6D5B6DEA
:101F500000940EF04DFFFFF769FE41F2883007F064
:101F600038F8FEF7A3FA4549FFF77CFE054668BB43
:101F700043480EF03DFF03F09BFEFEF797FA29461B
:101F80002A4600F2352005F0B1FC3E4B3E4A0028BF
:101F90000CBF104618460EF09DFFFEF787FA374932
:101FA000FFF760FE90B939480EF094FF03F002FE8F
:101FB000014637480EF01CFF03F0ECFD054603F028
:101FC000F9FD00FB05F133480EF012FF324E334F9E
:101FD000336813F0010516D130460AF0EDFB90B1DD
:101FE0004FF40E70FEF74CF9012380F834323123A0
:101FF00080F835323A2380F8363280F8375238602C
:1020000030460AF0E5FB26493868264DFFF72AFEE0
:1020100018211148FFF710FEFFF708FE2B684BB997
:102020000820FEF72DF90646FEF7ACFF3823306096
:1020300033712E60286802F00DFD0546B0BB1A48CA
:102040000EF048FF33E000BF00C0092020C0092087
:1020500000C00240F0FCFCFF00000340008008408C
:10206000E86B0200196C0200002474493E6C020007
:102070004440024000400240566C0200CE6C020018
:10208000D66C0200DC6B0200D76B0200136D0200FD
:10209000326D0200416D02002CC3072030C30720BF
:1020A000586202005CC307205C6D02000125FFF747
:1020B00043FE02F005FE064618B972480EF00AFF0C
:1020C0003546FFF719FE02F047FD064618B96E487F
:1020D0000EF000FF35466D4E33681BB90120FEF748
:1020E000CFF83060306802F005FDFFF739FE02F0EE
:1020F000D4FDFFF713FE02F073FDFFF73DFE02F083
:10210000D1FDFFF70BFE002102F06CFD8DB9FFF74A
:102110008DFDFFF7F1FD2D2102F006FDFFF7ECFD2F
:102120002D2102F00DFDFFF7F9FDFF2102F05AFD10
:102130000CE0FFF7E1FD0546FFF7FEFD02F0EAFDCA
:102140000DF07AF8C1B2284602F02DFD10220021D0
:1021500020460DF0C0FC00230F2221464C4802F01F
:1021600065FE80B920460DF021FAC5B2284601F07F
:1021700019FD484A484B2946002818BF1346444ACF
:1021800046480EF035FEFFF7EBFD02F088FD0546F0
:10219000002010F03DF928440EF0A4FE4FF4007228
:1021A000002120460DF097FC204609F0AFFD2146A6
:1021B0003B480EF01DFEFFF739FD8022002120462E
:1021C0000DF089FC204603F0D1FC2278FF2A04D0D0
:1021D000214634480EF00CFE29E0FFF7CDFD02F059
:1021E00063FD09281DD130480EF074FE21462F48AA
:1021F0000EF084FF21462E480EF0FAFD2D480EF019
:1022000069FE002303A92C4803930EF077FF9DF885
:102210000C30592B03D1204603F086FC07E02748F9
:1022200003E027480EF056FE26480EF053FE4FF20C
:1022300008031D684FF20C031C684FF210031E6860
:102240004FF470431A684FF20403AD0A1968A40AE8
:102250001D480EF0CDFD2A4621461C480EF0C8FD53
:1022600031461B480EF0C4FDFFF7E0FC012006F0EC
:102270008DF818480EF02EFEFFF7D8FC0DF5057D01
:10228000F0BD00BF776D0200916D020058C30720BA
:10229000AA6D0200E26B0200E2650200B06D02006E
:1022A000167E0200E46D0200006E0200226E020043
:1022B000276E0200426E0200856E0200896E0200E7
:1022C000A16E0200CF6E0200016F02002D6F0200AE
:1022D0005A6F0200776F020001207047012070479B
:1022E0000120704710B5044C23681BB90120FDF78D
:1022F000C7FF2060206810BD58C307200120704729
:1023000038B504460F4B00250360636DE06DAB42AA
:1023100005D950F82500FDF7B5FF0135F5E708B1FF
:10232000FDF7B2FF0025A36B206CAB4205D950F836
:102330002500FDF7A7FF0135F5E708B1FDF7A4FF7C
:10234000204638BDB06F020010B50446FFF7D8FF35
:102350002046FDF797FF204610BD2DE9F0410446C9
:102360000E46C06889000EF01FFEA568E060AF0051
:102370004FF00008AE420DD90C20FDF781FFE36855
:10238000C0F80080C0F8048080F808800135D8517A
:102390000437EFE76660BDE8F081FFFFF7B504465C
:1023A00000250B464FF480520095254906F062FB4C
:1023B000244B042623606663A563E563256402213C
:1023C00004F13400FFF7C9FF26656565A565E5657D
:1023D000284660210EF0E8FDA56DE065AE00172DE2
:1023E0000CD81020FDF74CFF0746102200210DF0FD
:1023F00072FBE36D01359F510436F0E718236365E6
:10240000012384F87030104E0023A4F87430A4F82F
:102410007630A367002200230027C4E92023C4E903
:10242000226709F05DFC4FF47A7200230CF024FF60
:1024300080197941C4E92001204603B0F0BD00BFF6
:10244000C86F0200B06F0200C0D401002DE9F04156
:102450000F7A14464D680E688FB1082A23D128469A
:1024600006F055FB00281CDD4FF0FF3213493046C3
:1024700007F066FC0121284606F048FC08E00A2A1D
:1024800019D00D2A12D02146284606F060FD97B1DA
:10249000336821463046BDE8F0415B684FF0FF32BB
:1024A00018470724F4E70A2A02D1F1E7BDE8F081D2
:1024B0000D2AEDD0E7E7BDE8F08100BFD16F020043
:1024C000F8B50446142015460F46FDF7D9FE8021C5
:1024D000064606F0ECFCA36BE26B9A4206D3616BF6
:1024E000591803D204F13400FFF737FFE36B226C75
:1024F000591C52F82330E1631F605E601D72F8BD05
:102500002DE9FF47CF6B06460D4601AC3FB94FF4AE
:102510007A7008F017FE01976760A76047E00B6CC0
:102520000DF110081B6893E8070084E807000023FA
:1025300008F80D3D08F0CEFC81460027EB6B9F426A
:1025400063D22B6C4FEA870A53F827301868037C54
:10255000002B34D0036800221B684146984770B3B3
:10256000EB6B9F422DD22B6C53F80A3093E8070097
:1025700084E807009DF8032021462846FFF766FF00
:1025800009F0AEFB4FF47A7200230CF075FED5E92A
:10259000222380185941C5E92001029806F0B7FAB4
:1025A0000746029806F0B6FA013887420CDB94E839
:1025B000070086E80700304604B0BDE8F087013721
:1025C000BCE705F14403D1E7D5E92223134324D026
:1025D00009F086FB4FF47A7200230CF04DFED5E92A
:1025E0002023994208BF904217D309F079FB4FF49A
:1025F0007A7200230CF040FED5E92223801859415D
:102600000023C5E920010193D1E708F063FC81456F
:10261000C3D1022008F096FDBFE79DF803300A2BD6
:1026200088D1C4E7F0B5054685B020480EF0E0FB40
:10263000294601A8FFF764FF019C1CB91C480EF055
:1026400049FC30E0029E304606F061FA00282ADD9F
:1026500009F046FB0746F8B1B5F8743005F15000B3
:102660000133A5F874302246314605F0ABFC114B1E
:1026700000251868009023681DF805105B684FF06E
:10268000FF32204601359847042DF4D109F028FB8C
:10269000C11B09480EF0ACFB304606F03DFA23683A
:1026A00020469B689847012005B0F0BDD46F02001A
:1026B00049650200A46F0200DA6F020038B5064CCB
:1026C000236833B92C20FDF7DBFD054607F08EFAB1
:1026D0002560206838BD00BF28C3072010B5044618
:1026E000FFF7ECFF03682146BDE810405B684FF040
:1026F000FF32184713B5002302AC04F8013DFFF781
:10270000DDFF03684FF0FF321B68214698479DF8B4
:10271000070002B010BDFFFF2DE9F04100F15004A9
:102720008AB000250646009520465B4B5B4A5C4913
:1027300005F068FB009520465A4B5B4A5B4905F063
:1027400061FB009520465A4B5A4A5B4905F05AFBFB
:1027500000952046594B5A4A5A4905F053FB0095BB
:102760002046594B594A5A4905F04CFB00952046E2
:10277000584B594A594905F045FB00952046584B9E
:10278000584A594905F03EFB00952046574B584A98
:10279000584905F037FB00952046574B574A584992
:1027A00005F030FB00952046564B574A574905F037
:1027B00029FB00952046564B564A574905F022FB07
:1027C00000952046554B564A564905F01BFB00958F
:1027D0002046554B554A564905F014FB00952046B6
:1027E000544B554A554905F00DFB00952046544B76
:1027F000544A554905F006FB00952046534B544A70
:10280000544905F0FFFA00952046534B534A54496A
:1028100005F0F8FA00952046524B534A534905F00B
:10282000F1FA00952046524B524A534905F0EAFA14
:102830000095524B524A5349204605F0E3FAFFF700
:102840003DFF4FF4807320224FF41641054607F0F8
:10285000ADF9804601272F744B48FDF78BFD4B489F
:10286000FDF782FD3A4629463046FFF729FE082249
:1028700003A905A806F024F905A8454906F092FB2E
:102880002A4605A9204605F09DFB05A806F02DF96E
:1028900040460AB0BDE8F081F06F020032700200DD
:1028A0003D05010027700200377002002506010077
:1028B0003F7002004D700200A50F0100547002002D
:1028C00095700200490601009A700200F67002003D
:1028D0001D090100FA700200887102009D080100C4
:1028E0003C710200877102001D0D01008B71020016
:1028F000B9710200210A0100BC710200E1710200FD
:10290000990B0100E771020014720200110C010022
:1029100017720200B98A02006D0C01003C720200BD
:102920005F720200D50B0100627202003573020073
:1029300049110100397302007C7302005D0E010031
:1029400084730200977302001D0F01009E73020042
:102950009D7402000D070100A1740200C9740200F9
:102960004D0F0100CF740200356C020061170100A9
:10297000F9740200ED75020095130100B6750200AE
:102980009B620200E1120100F5260100DD26010034
:102990002569020008B5044802F002F800F0FEF9CB
:1029A00000F0D4FC012008BD60C30720012070475F
:1029B00008B500F003FC00F071FB00F053FBBDE82C
:1029C000084000F0BDB908B500F0E0FE00F0CCFC16
:1029D00000F086FB00F0D8FCBDE8084000F094BA97
:1029E00000F0F6B97047FFFF10B5064C3D212046B8
:1029F00001F0AEFF2046BDE81040034A0349FDF751
:102A0000A1BC00BF60C3072014C30720054A010012
:102A10007047FFF7BFBFFFF7C9BF10B50446FDF70A
:102A200031FC204610BDFFFF70B50B4E05010B4B6E
:102A3000741953F82010201D08F058FBE368A068B3
:102A40009847A36870590133A36000231A46BDE874
:102A50007040194607F088BEE8C30720C47602001C
:102A600008B50020FFF7E0FFFBE708B50120FFF7FE
:102A7000DBFFFBE708B50220FFF7D6FFFBE708B551
:102A80000320FFF7D1FFFBE7F7B507460D462D4AB8
:102A900000240D2312682C49009405F0EBFF2B4B0A
:102AA00087F831503B602A4D2A4B0322EB602A4BBA
:102AB0002146EB61294B0120EB62294BEB6307F0C8
:102AC00031FE032228602146012007F02BFE03225D
:102AD00028612146012007F025FE224B28621E684E
:102AE0000523C6F38F060093324623461E49019400
:102AF0001E4808F0A9F806230093324623461C49D5
:102B000001941C4808F0A0F8072300930194234681
:102B100032461949194808F097F897F8313073B1DF
:102B200003222146012007F0FDFD082328633246D9
:102B30000093019423461249124808F085F838465C
:102B400003B0F0BD1476020028760200DC760200A5
:102B5000E8C30720B1290100C7290100E1290100CC
:102B6000E5290100107602002F760200612A01009B
:102B7000337602006B2A010038760200752A0100C4
:102B80003E7602007F2A010038B517480C46415CAA
:102B900000230131C9B2914202D00155184638BD17
:102BA000124D0355200128581A46194607F0E2FE37
:102BB0000546B0B90E4B53F8244020460EF08AF972
:102BC00020460EF089FC2B4602462146094802F0B9
:102BD00071F9094A094B9A644FF08043AA221A728C
:102BE0001D70012038BD00BF28C40720E8C307209E
:102BF0001876020045760200EFBEADDE00400240CE
:102C0000044608B5012008F09DFA94F8313023B14C
:102C1000012203212046FFF7B7FF0A2202212046A6
:102C2000FFF7B2FF0028EDD00A2201212046FFF76E
:102C3000ABFF0028E6D00A2200212046FFF7A4FFC0
:102C4000E0E7FFFF07B5002302AA22F8043D0223B4
:102C50001946C02000F0CAFA90B10121032000F00B
:102C6000E3FA9DF805309DF8040003EB00200BF01B
:102C70003BFC0022044B0BF0C7FD0BF093FF00E080
:102C8000002003B05DF804FB0000244007B5124BA0
:102C900000211A889B78ADF804208DF8063001AA2F
:102CA0000123C02000F0B1FA1E2006F092F90DF1C8
:102CB000050201230021C02000F0A7FA1E2006F023
:102CC00088F901230DF106020021C02000F09DFAD1
:102CD00003B05DF804FB00BFF476020007B5F823EB
:102CE00002AA02F8043D00210123C02000F08DFA61
:102CF00003B05DF804FB13B5202302AC04F8043DD7
:102D0000224601230021C02000F07FFA1E2006F099
:102D100060F92A2322468DF8043000210123C020C7
:102D200000F073FA1E2006F054F960238DF8043089
:102D3000224601230021C02000F067FA02B010BD36
:102D400008B500F09EFA0138072825D8DFE800F022
:102D5000040C24142424241C0121084600F064FAE5
:102D6000BDE80840FFF792BF0121022000F05CFAA5
:102D7000BDE80840FFF7B2BF0121032000F054FA7C
:102D8000BDE80840FFF7B7BF0121042000F04CFA6E
:102D9000BDE80840FFF756BF08BDFFFF13B5642329
:102DA0000024019400941A461946204606F04CFA75
:102DB00018B1204606F0B6FB0120034B1A7860F3E9
:102DC00000021A7002B010BD34C40720FFFFFFFFDD
:102DD00030B585B000F0CEFC044600F0D1FC0021F7
:102DE000054620460CF0D0F93F4A137810B143F065
:102DF000180303E060F3041360F3C30313700021AE
:102E0000102268460CF067FE384920460CF0C6F9DF
:102E100030B9374920460CF0DFF910B1344C00E0EE
:102E2000324C20460BF072FB0022324B0BF010FAB2
:102E30002BA3D3E900230BF0E7FC2F4B00220BF070
:102E400007FA0BF08FFE20F07040030A8DF808009F
:102E50008DF80930040E030C284928468DF80A30F5
:102E60000CF09CF930B9264928460CF0B5F910B1A0
:102E7000234D00E0214D28460BF048FB0022214B5A
:102E80000BF0E6F916A3D3E900230BF0BDFC0022FA
:102E9000194B0BF0DDF90BF065FE20F060431A09C9
:102EA0008DF80C201A0B8DF80D201A0D1B0F8DF8C4
:102EB0000F306C2301939DF802308DF80E2008220C
:102EC00062F3030344EA001000228DF80B00694608
:102ED00010468DF8023006F0D3FA05B030BD00BFC1
:102EE0008DEDB5A0F7C6B03E34C407200000B4C2D3
:102EF0000000B442008056400000E03F000034C3B0
:102F00000000344300806640F0B585B010220021F7
:102F100068460CF0E0FDFFF795FE4D4F4D4E05461F
:102F20003968306800F0C8FA0021044628460CF0E1
:102F30002BF9494B1A7810B142F0200201E060F3FE
:102F40004512396830681A7000F066FB00230646A7
:102F5000002120468DF80F308DF80E300CF01EF950
:102F600000B1002420460BF0D1FA33A3D3E90023AB
:102F70000BF0B0FD00B1394C20460BF0C7FA30A37E
:102F8000D3E900230BF040FC0022354B0BF060F935
:102F90000BF0E8FDC0F30B008DF80800040A0021D7
:102FA00028460CF0FBF800B1002528460BF0AEFADD
:102FB00021A3D3E900230BF08DFD00B1274D284656
:102FC0000BF0A4FA1EA3D3E900230BF01DFC002292
:102FD000234B0BF03DF90BF0C5FD44EA001400094A
:102FE0008DF80A0030468DF809400BF08FFA16A3D1
:102FF000D3E900230BF008FC0022194B0BF028F951
:103000000BF0B0FDC0F31000030A8DF80C306D23F7
:1030100001939DF80230082262F303038DF80B0040
:103020000022000C8DF80D00694610468DF8023024
:1030300006F026FA05B0F0BD66666666667E7640E6
:103040009A9999999999B93FFCA9F1D24D62503F4B
:103050002CC4072030C4072034C4072033F3B34303
:103060000000E03F1FB51022002168460CF033FD40
:10307000094B00221B78694603F03F038DF80830A6
:1030800076230193104601238DF8023006F0F8F9FB
:1030900005B05DF804FB00BF34C407201FB5102243
:1030A000002168460CF017FD0121712304200193D3
:1030B0008DF808108DF8021000F0B6F8002269466D
:1030C000104606F0DDF9054A137860F34103C3F3B7
:1030D0004000137005B05DF804FB00BF34C4072046
:1030E00030B585B000226946104606F075F9002813
:1030F00053D0019B6B2BF5D19DF802302A4C03F085
:103100000F03082B42D19DF80A209DF80B509DF823
:10311000093012049DF8081042EA032328060B43E5
:1031200000F0706018430BF0CFF91DA3D3E9002322
:103130000BF040FA00221D4B0BF088F80BF032FD2B
:103140009DF80C3020601B019DF80D0043EA15131B
:1031500043EA00339DF80E0043EA00539DF80F0048
:10316000000700F0805018430BF0AEF90CA3D3E930
:1031700000230BF01FFA0E4B00220BF067F80BF048
:1031800011FDA36860606FF35F03A3602268094BC1
:103190001A606268084B1A60A4E705B030BD00BF32
:1031A0008DEDB5A0F7C6B03E38C40720008056406C
:1031B0000080664030C407202CC4072008B50020DA
:1031C00006F050F9084B1A7848B142F0040200208A
:1031D0001A7006F0A7F9BDE8084006F0AFB960F331
:1031E00082021A7008BD00BF34C40720F7B50D462F
:1031F00016461F460446FDF7C5FE009733462A468D
:10320000214606F0ADFE03B0F0BDF7B50D461646FB
:103210001F460446FDF7B6FE009733462A46214670
:1032200006F0AFFE03B0F0BDF8B5084C06462568C1
:103230000F4625B90120FDF723F8057020603A46B6
:1032400031462068BDE8F84001F022BD50C3072098
:1032500010B50446FEF750FD2146BDE8104001F0D0
:1032600063BC10B50446FEF747FD2146BDE810409B
:1032700001F066BC08B5FEF73FFDBDE8084001F06F
:1032800087BC08B5FEF778FDBDE8084001F00CBD2D
:103290002DE9F0410A4C054623680E4617463BB916
:1032A0002C20FCF7EDFF804606F0F4FCC4F800800B
:1032B0003B46324629462068BDE8F04106F0CABCCC
:1032C00044C4072038B5064C236833B92C20FCF7DA
:1032D000D7FF054606F0DEFC2560206838BD00BF3C
:1032E00044C4072038B50D460446FFF7EBFF2A46D5
:1032F0002146BDE8384006F037BD70B50D4616468C
:103300000446FFF7DFFF33462A462146BDE87040FA
:1033100006F038BD08B51E210848FFF7E3FF0A2173
:103320000748FFF7DFFF0A210648FFF7DBFFBDE88C
:1033300008400A210448FFF7D5BF00BFF776020016
:10334000097702003B7702004B77020008B5FFF7D0
:1033500091FF3C2278214FF46140FFF799FFBDE8CF
:103360000840FFF7D7BFFFFF08B532227821054894
:10337000FFF7C3FF28B1BDE8084001210320FFF794
:1033800053BF08BD6CC307202DE9F041434C86B004
:103390000622434920460CF069FB424F0546424E47
:1033A000002869D1A37C412B66D1A37F4E2B63D12A
:1033B00094F82B30572B5FD13020FFF749FF462080
:1033C000FFF74FFF22466B4652F8140FADF8085036
:1033D0005168127A03C354F8200F1A70616803AB66
:1033E000CDF8135003C3228968461A800CF0DBF82D
:1033F0000BF0D8FB2D4980460BF0E6FD0BF0F6FEF6
:103400006425044668430BF0D7FC014640460BF0A8
:103410001DFC27490BF0D8FD804620460BF0CCFC64
:10342000014640460BF014FC386003A80CF0BBF8D2
:103430000BF0B8FB1D4907460BF0C6FD0BF0D6FE9E
:10344000044668430BF0B8FC014638460BF0FEFB1F
:1034500017490BF0B9FD054620460BF0ADFC0146BF
:1034600028460BF0F5FB00F10040306001210220FE
:10347000FFF7DAFE01200DE03020FFF7E9FE3020F3
:10348000FFF7EFFE0023022000213B603360FFF7CF
:10349000CBFE002006B0BDE8F08100BF6CC3072062
:1034A00063770200E4C3072068C307200000C84216
:1034B00000007042FFFFFFFF2DE9F04F0E4685B080
:1034C000002104460BF060FE30B1002130460BF0C5
:1034D0005BFE002840F08E8020460BF017F848A3D2
:1034E000D3E900230BF066F80022474B0BF08CF970
:1034F0008046894609F084F9444B04460D4630461F
:1035000019680BF0A3FB0BF001F83DA3D3E90023EE
:103510000BF050F800223C4B0BF076F9CDE902019C
:1035200009F0B6F93A4BCDE9000118680AF0EEFF50
:1035300033A3D3E900230BF03DF80022324B0BF00C
:1035400063F982468B4609F05BF906460F46404612
:10355000494609F09DF9804689465046594609F08A
:1035600097F982468B46DDE9020109F049F94246A6
:10357000CDE902014B46304639460BF01BF8524666
:1035800006460F465B46204629460BF013F8DDE958
:1035900002230BF00FF802460B46304639460AF07C
:1035A00055FE0BF0FFFA0AF0B1FFDDE900230646F5
:1035B0000F46204629460AF0FDFF0BF0F3FA0AF009
:1035C000A5FF32463B4609F0ABF900220E4B0AF04C
:1035D000F1FF0BA3D3E900230BF016F90BF0E2FA8D
:1035E000002104460BF0DAFD30B10A4920460BF009
:1035F0002FFB02E0002000E0204605B0BDE8F08F80
:103600006E861BF0F92109400080664068C30720E0
:10361000E4C307200000B4432DE9F84F504B0D469A
:103620001C68064621460BF011FB0AF06FFF0022D2
:103630004C4B0AF0BFFF44A3D3E900230AF0BAFFC2
:1036400009F026F9824630468B460AF05FFF40A318
:10365000D3E900230AF0AEFF0022434B0BF0D4F86D
:1036600009F0CEF8064620460F460AF04FFF38A371
:10367000D3E900230AF09EFF00223B4B0BF0C4F875
:1036800009F0BEF8394B80468946284619680BF088
:10369000DDFA4FF07C510BF0E3FB0AF037FF2AA371
:1036A000D3E900230AF086FF09F0F2F802460B4640
:1036B0000AF080FF424604460D464B4630463946E6
:1036C0000AF078FF02460B46204629460AF072FFB0
:1036D000524604460D465B46504659460AF06AFF7C
:1036E00002460B46204629460AF0B2FD0BF05AFA74
:1036F00006460AF00BFF09F015F904460D464FF097
:103700007E5031460BF0A2FA0AF000FF09F00AF9E8
:1037100002460B462046294609F002F902460B46AE
:103720000AF096FD0BF03EFA0AF0F0FE0AA3D3E988
:1037300000230AF03FFF00220D4B0AF03BFF0BF085
:1037400031FABDE8F88F00BF70E20DA545DF913F6B
:103750006E861BF0F92109400000000000E3B8402C
:10376000E4C307200000E03F0080664068C30720F4
:1037700000408F40014B1868704700BFE4C307202A
:10378000014B1868704700BF68C30720704710B529
:103790009020FCF775FD04460321FEF7FFFD20464F
:1037A00005F03AF93420FCF76BFD04460021FFF7E1
:1037B0006BF9204605F030F90021084605F03AF98A
:1037C0004FF0FF3010BD10B54FF6FF74242303FBFC
:1037D0000101884209D043782BB1038C1344A342E2
:1037E00028BF234603842430F3E710BD37B50023F8
:1037F00002A840F8043D0C4B04215B6898470B4B32
:10380000019A1C680546141B1A60042122460848C8
:10381000FFF7D9FF224602210648FFF7D4FF281CF4
:1038200018BF012003B030BD48C4072018C50720C9
:103830005CC4072035C5072008B50B4B1978037801
:103840008B420A4B0BBF1A889A880132013214BF8F
:103850009A801A80064B8170DB68202198470030DF
:1038600018BF012008BD00BF05C00720EDC4072018
:1038700048C407200A4B02781B789A42094B0BBFB9
:10388000DA881A89013201320CBFDA801A81037991
:10389000C3F3C202073262F3C5030371FFF7CCBF63
:1038A00005C00720EDC4072010B50749002311F813
:1038B00023409A00844202D10348104410BD0133D2
:1038C000042BF4D1002010BD07C5072070B1C378C8
:1038D0000133DBB2FF2BC37008D105480023C118A8
:1038E000CA7804335208102BCA70F8D1704700BF51
:1038F00007C50720242202FB01010346024630B51A
:10390000914206D01446243212F8235C002DF7D1E0
:103910000FE00446002599420BD01A79C2F3C20089
:103920001A8C42EA0042AA4284BF1C461546243340
:10393000F1E7204630BDFFFF38B50546C90001F16B
:103940000804FFF753FF1C4B2A781B789A4204D1D6
:1039500002211A48FFF7CEFF0CE004211848FFF7B8
:10396000C9FFEB7833B990F82330042443F0800387
:1039700080F82330002380F8203080F82130024680
:103980002B4690F8231080F8224021F07F01C4F3E9
:1039900006240C4380F8234005F1200153F8044B22
:1039A0008B4242F8044BF9D1064A0379127862F34C
:1039B000C503037138BD00BF05C0072035C507200A
:1039C0005CC4072004C0072008B5FFF76DFF03465D
:1039D000D8B9FFF769FF0346B8B90D4AD378D17952
:1039E000D07A8B4296BF1946131D1346814294BF6D
:1039F0000846084BD17B084A814238BF1346074925
:103A000000221A60CA7A0132CA72184608BD00BF85
:103A100007C507200FC5072013C50720EDC40720E1
:103A20002DE9F84F05460C464FF0240909FB021911
:103A3000DFF868A1DFF868B14E1C4FF000084C4574
:103A400000F09A8094F823301A0624D5B5B12A786C
:103A500061788A4205D16F7816F8010C874200F030
:103A60008D80E87850B16878884207D116F8011C3B
:103A7000914203D1A979A27991427FD094F8222072
:103A8000218C03F07F0342EA0323994271DB204635
:103A9000FFF7D2FE72E06278002A6AD06DB329790E
:103AA00001F0C001C02917D116F8010C69788842CD
:103AB00002D12878904261D0E778A87887420CD16B
:103AC00091420AD116F8010C2978884205D1A079D3
:103AD000A979884201D151E079B1A878E17888428A
:103AE0000BD16978914208D116F8010C29788842E7
:103AF00003D1A079A979884246D094F82210208C6D
:103B000003F07F0341EA0323984232DB237984F8F0
:103B10002080C3F3C201CFB284F821801FB12046B8
:103B2000FFF7A8FE25E003F0C003C02B19D016F85C
:103B3000010C9AF80030984213D1E3789A4210D0E1
:103B40007BB16379032262F307136371E17020464E
:103B5000FFF790FE23799BF8002062F3C5032371E1
:103B600000E001276078FFF79FFE08B1C0F80080F1
:103B700027B92434243662E7BDE8F88F24220021D7
:103B800020460BF0A8FFF4E7237984F820806FF338
:103B9000C50384F821802371EBE700BF05C007202F
:103BA00004C00720431EDBB2FD2B9DBF024B1870E3
:103BB00001200020704700BF05C00720014B187886
:103BC000704700BF05C0072007289CBF014B187035
:103BD000704700BF04C007202DE9F7430446914613
:103BE0001E469DF828500F46002966D0364B93F8A4
:103BF0000080414563D00F2E61D8002861D020227B
:103C000000210BF068FFFF2F237914BF09F0030296
:103C1000002262F38713032262F302032B4A6770C8
:103C2000127884F8008062F3C503294A237113785F
:103C300084F802800133DBB21370A3710BAB0193E4
:103C400015B94FF001081BE004F10809019AE07969
:103C50001346526853F8081B00EB02085FFA88F815
:103C6000013DB8F1180F0193EDB207D848440BF0AD
:103C70000CFF84F80780002DE8D1E2E74FF0000840
:103C8000DFF850900123384689F80030FFF70CFE2A
:103C90000546FFF71BFE002389F80030637925B93C
:103CA00066F307136371E57005E0AA7862F3071302
:103CB00063716B78E370404603E0084601E0002042
:103CC000FFE703B0BDE8F08305C0072004C007206C
:103CD000ECC40720F9C40720124B012270B51A70FA
:103CE00004461E4608B9002518E0FFF7A5FD054665
:103CF0000028F8D0237903F0C003402B06D0C02B56
:103D00000AD1E37853B162789A4207D061792046AC
:103D10000909FFF711FE01E0802BF7D00023337073
:103D2000284670BDF9C4072082B02DE9F0439146C2
:103D3000421ED2B28DB0FD2A05460E4615939DF85F
:103D4000688001D9002057E0002BFBD0179F002F7F
:103D5000F8D0199B002BF5D0189B002BF2D0169BA6
:103D6000002BEFD04822002126480BF0B4FE902211
:103D7000002125480BF0AFFE1022002123480BF054
:103D8000AAFE234B00241C605C609C60214B1C60DD
:103D90005C609C60204B1D70204B214D1E7015AE49
:103DA0000FCE0FC53368182221461E482B600BF03A
:103DB00092FE494617221B480DF0D4FB21462046AF
:103DC000B8470028BED0B8F1000F02D1FFF70EFDB2
:103DD00012E006230293144B224601930123009321
:103DE000FF2104A8FFF7F8FE0028ABD004A8FFF7D6
:103DF00073FF0028A6D0E9E70DB0BDE8F04302B09C
:103E0000704700BF35C507205CC4072007C50720E1
:103E1000FBC40720EDC4072005C00720FAC4072013
:103E200048C407201CC507206A77020030B5182B4C
:103E30008DB016D8B2FA82F41D1C18BF0125640992
:103E4000AC420ED00293019200950A469DF8403094
:103E5000014604A8FFF7C0FE18B104A8FFF73CFF15
:103E600000E000200DB030BD13B5537914781B0964
:103E7000009302460B4620460321FFF7D7FF02B00E
:103E800010BDFFFF00231A4630B5084C14F823502C
:103E9000990035B1904202D10448084430BD013246
:103EA000D2B20133042BF1D1002030BD07C5072069
:103EB00000231846044A12F8231009B10130C0B299
:103EC0000133042BF7D1704707C507202DE9F041D6
:103ED00088B02022002168460BF0FDFDA14B1B7825
:103EE00003F0FF04002B40F039819F4F20213B69F4
:103EF00068469847002800F084809C4D6B88013309
:103F00006B80FFF7D5FF9DF80420A87202F007032D
:103F1000032B04D0964A137843F0010309E0954B34
:103F20001D789DF80230AB4205D1914A137843F0D9
:103F300002031370E4E0C2F3C2029DF800E09DF8B2
:103F400006008D49D6B204EB440313F801C0F445D2
:103F50000BD10B4493F801C0844506D19978012414
:103F60008E1B18BF01269A7018E00134042CEAD188
:103F700082490B689A70804A587002F109008342A6
:103F800083F800E040F0C9800A609DF800009DF8C9
:103F90000230834240F0C480002426469DF802008F
:103FA000FFF712FD9DF8022002709DF8022042707A
:103FB00000228270FFF78AFC04B116B39DF800302E
:103FC000AB4200F09C809DF80160FF2E1BD13B6846
:103FD00020216846984720B9654A137843F00403C6
:103FE00013709DF8053003F00F02511C61F30303B9
:103FF0008DF80530C3F303139A4202DA6846FFF7DF
:104000001BFC00247CE0B5422BD164B99DF807303D
:104010004BB13B6820216846984720B9544A137831
:1040200043F0040313709DF8043003F0C003402BE9
:1040300012D19DF807306A4613B91821504808E09C
:104040000C214A48FFF710FF002858D100216A468A
:104050000846FFF709FF52E09DF80330002B4ED1D0
:10406000F4E7484B1B78002BCBD09DF8054004F0BB
:104070000F074FEA14184745C3DA013767F3030403
:104080003046FFF711FC8DF805409DF80340A5422E
:1040900021D19DF8041001F0C001402906D0A1F102
:1040A00080035A425A41144610B90CE0012260B113
:1040B000C029437805D19E4203D0003318BF0123A5
:1040C00004E0002302E0C0290ED10346134303F0AD
:1040D000010420B908E094B908B941460CE04378DE
:1040E0008DF80330857802E000258DF8035068468E
:1040F000FFF7A2FB1CB129466846FFF71DFC6C4682
:10410000FFF774FB204604221F49FFF789FC0222B7
:104110001E492046FFF784FC20E003330B6034E7A0
:1041200085423FF439AFFFF74FFC0446FFF7CEFB63
:1041300023783BB19DF80530A27803F00F0393423A
:104140003FF72AAF9DF8003023709DF8023063706E
:104150009DF80530C3F30303A3701DE708B0BDE865
:10416000F08100BFF9C4072048C40720EDC4072030
:1041700034C5072005C00720FBC4072000C0072066
:104180001CC50720FAC407205CC4072035C50720DA
:1041900000231846094AD118497809B10130C0B244
:1041A0002433902BF7D1064B5A780AB10130C0B2B4
:1041B00093F825300BB10130C0B270475CC40720C2
:1041C00035C5072008B5FFF76FFB064B28B182788D
:1041D000187802FB0000C00008BD18781823584367
:1041E00008BD00BF04C0072003490B6803604B688B
:1041F00043608B6883607047EDC4072070B53E4C08
:104200004FF48035E5613D4CA0602046C5683B4CCD
:10421000ED06FBD4A0680D46C0B20BB923465FE0A3
:104220002346002A63D0072A0E782DDD9E604E7843
:10423000083A9E608E789E60CE789E600E799E6071
:104240004E799E608E799E6001F10806C979996069
:1042500099694907FCD5A1682970A1686970A168AE
:10426000A970A168E970D968C906FCD4A1680835AD
:1042700005F8041CA16805F8031CA16805F8021CD8
:10428000A16805F8011C1AE0032A1ADD9E604E7829
:10429000043A9E608E789E600E1DC9789960D96838
:1042A000C906FCD4A168043505F8041CA16805F80A
:1042B000031CA16805F8021CA16805F8011C314621
:1042C000AFE701319E60013ADE68F606FCD4A668CD
:1042D000013505F8016CA4E7E668F606FCD4A6688B
:1042E0006E1AB24203DD15F8016B9E60F4E7024BD3
:1042F0004FF480329A6170BD00C0092000800840F0
:1043000007B5002302A901F8013D01231A4600F078
:104310001F00FFF773FF9DF8070003B05DF804FB73
:1043200013B502AC04F8011D00F01F0000230122A8
:10433000214640F02000FFF761FF02B010BD08B534
:104340001720FFF7DDFFC0F3001008BD7021072024
:10435000FFF7E6BF0A4600230146A020FFF74EBF45
:1043600008B50020FFF7CCFFBDE8084000F0FE01D3
:104370000020FFF7D5BFFFFF024B4FF08072DA61DC
:10438000704700BF20C0092008B50020FFF7B8FF24
:1043900040F00101C9B20020FFF7C2FF024B4FF00D
:1043A00080729A6108BD00BF20C00920202107202B
:1043B000FFF7B6BF00231A461946E120FFF71EBFDC
:1043C00037B504460D46FFF7F5FF20462946FFF7AF
:1043D000C1FF0D4B4FF080721C469A610022ADF870
:1043E0000620BDF8063001339BB2ADF8063033B974
:1043F0004FF08073E361FFF7DDFF03B030BDFFF7DF
:104400009EFF0028EDD0F3E720C0092008B5172053
:10441000FFF776FF00F0010080F0010008BD4021A9
:104420000720FFF77DBF08B50A460123014661203A
:10443000FFF7E4FEC0F3420008BD00231A46194608
:10444000E220FFF7DBBE70B5064600200D4614469D
:10445000FFF756FF16B100F0BF0002E040F0400049
:10446000C0B215B100F0DF0101E040F0200114B14D
:1044700001F0EF0101E041F010010020BDE87040C3
:10448000FFF74EBF10B504460020FFF739FF14B9FF
:1044900000F0F7010DE0012C04D100F0FB0141F028
:1044A000080106E0022C14BF40F0080140F00C01A6
:1044B000C9B20020BDE81040FFF732BF08B50020A8
:1044C000FFF71EFFBDE8084040F00201C9B200201E
:1044D000FFF726BF08B50020FFF712FFBDE8084030
:1044E00000F0FD010020FFF71BBF40F6DD139842EE
:1044F00006D840F66213B0F5166F38BF184600E0D4
:104500001846A0F51661C9B20520FFF709BF10B51E
:1045100004460620FFF7F4FEFA2C00F0D70102D182
:1045200041F0200104E0B4F5FA6F08BF41F0080142
:104530000620BDE81040FFF7F3BE10B50446062084
:10454000FFF7DEFE032C28BF032420F0060040EA1C
:104550004401C9B20620BDE81040FFF7E1BEF928CA
:104560004FF0FA0305D9B0F57A6F88BF4FF47A603F
:1045700000E01846B0FBF3F00F2900F1FF30C0B2A5
:1045800028BF0F2141EA0011C9B20420FFF7C8BEBD
:104590001130C0B2162804D8202928BF2021FFF7E7
:1045A000BFBE7047032804D0042814BF0321022192
:1045B00000E001210320FFF7B3BE0A4600230146B5
:1045C0003020FFF71BBE0A46002301462A20FFF7D2
:1045D00015BEFFFF73B50E4615460446FFF72DFFC7
:1045E000FFF7E8FE2B4B4FF08072DA61FFF772FFA6
:1045F000002211460120FFF726FFFFF7A7FE022049
:10460000FFF740FF3046FFF770FF2846FFF77FFFB8
:104610000320FFF792FF03210220FFF781FE002114
:104620000120FFF77DFE03214FF4FA70FFF797FF9B
:1046300021460020FFF7ACFF00211220FFF770FE9B
:1046400000211320FFF76CFE00211420FFF768FE05
:1046500000211520FFF764FE00211620FFF760FE01
:104660000D4B18681B79009005208DF80430FFF77A
:1046700099FF68460521FFF7A0FF05216846FFF76F
:10468000A2FFFFF71BFF4FF4FA6004F08DFC02B0AD
:1046900070BD00BF20C009207177020070B5174EB1
:1046A000326822B92021032006F03CF83060144D16
:1046B0002A6822B92021012006F034F82860114C24
:1046C000216821B90322012006F02CF820604FF464
:1046D000FA6240F6C3112020FFF77CFFFFF754FE7B
:1046E0001620094A012104F0A1FF306828B128688A
:1046F00018B12068003018BF012070BD84C50720A4
:1047000080C5072088C50720B547010070B503792B
:10471000014603F0C003C02B0CBF0E4B0E4B88B0FC
:104720001D68002306461A46284606F01DF8044672
:1047300060B9034602466946284606F01BF923463F
:1047400022463146284606F00FF80446204608B0B7
:1047500070BD00BF80C5072084C5072038B504465A
:104760000D46FFF72BFA237883420AD0E37843B94A
:104770000CF0E0FBBD2300F0030000FB033004F06D
:1047800013FCFFF7F9FDFFF7EBFDA9B22046FFF799
:1047900017FEFFF70BFEFFF7F7FD06F0EFFE02280E
:1047A00004D1034B0021186806F0B2F8012038BD8F
:1047B00088C5072007B5002302A941F8043D084B2E
:1047C000186806F0A5F8019B3BB1064B4FF08052EC
:1047D0001A60BFF34F8FBFF36F8F03B05DF804FB18
:1047E00088C5072004ED00E038B504460D46FFF704
:1047F0000DFE48B1A9B22046FFF715FEFFF706FEF1
:1048000008B9FFF70CFE012038BD2DE970430546BD
:104810000E46144606F0B2FE022807D122460023B7
:104820003146284606F0A6F8C4B21DE007F058FA53
:104830004FF47A7200230AF01FFD10EB040841F1D7
:10484000000900231A463146284606F093F8C4B200
:1048500054B907F045FA4FF47A7200230AF00CFDC0
:10486000894508BF8045ECD22046BDE87083042905
:1048700038B5054603D1041C18BF012400E000240C
:1048800007F02EFA2CB14FF47A7200230AF0F4FCF0
:104890002860204638BDFFFF00B50C4B8DB0099352
:1048A0000B4B0C4A0B930C4B0A930CAB43F8102D9B
:1048B000002204920FCB8DE80F00084B084A01211B
:1048C0006A20FFF731FA0DB05DF804FB9D46010048
:1048D000E94701006F4801005D4701000D470100F5
:1048E00076770200024B0A4601461868FFF78DBF33
:1048F00084C50720024B0A4601461868FFF785BFAA
:1049000080C5072008B506F039FE0F4B02285B6909
:1049100013D15A020DD5FFF73BFC00280B484FF08E
:10492000000314BF01224FF0FF321946006806F061
:1049300021F8BDE80840FFF7C9BA5B02F9D5FFF7D7
:1049400027FC0028F5D108BD00C0092088C5072034
:10495000F0B5864687B0114F4C1101F01F0501AE2E
:10496000457004700FCF0FC670463B68032133605B
:1049700006AB03EB840353F8143C6D00CEF804300F
:10498000E30003F1804303F530331A6801FA05F5BB
:1049900022EA05051D6007B0F0BD00BF7C7702006C
:1049A000416840780A680123834022EA03030B60D0
:1049B0007047FFFF30B543780578064C5B0054F82C
:1049C0003520032101FA03F322EA030344F83530CA
:1049D00030BD00BF40C0024010B5094A0478012331
:1049E000407821B152F8241083400B4304E052F880
:1049F0002410834021EA030342F8243010BD00BF95
:104A000068C0024010B50446FFF7CAFF00212046E7
:104A1000FFF7E2FF2046FFF7CDFF204610BD13460B
:104A20000A460179006805F0B0BA1FB5002204AB50
:104A3000047923F8042D0222009200680A462146D8
:104A400005F08EFA9DF80C009DF80D3043EA002029
:104A500004B010BD10B5044619222A21FFF7DFFF6C
:104A60000D222179206805F07FFAA0F12A0358422F
:104A7000584110BD044A13881F2B9FBF581C10803B
:104A8000024A42F82310704790C5072094C50720BA
:104A9000154AF0B513881646012B21D9134A002078
:104AA0001546013B984206DA516814680130091B2B
:104AB00042F8041BF6E700210C466A684FF0010E2D
:104AC00002EB52008AB2934208DD55F822700131A0
:104AD000B8423CBF0EFA02F21443F3E7044B1C60E9
:104AE00000233380F0BD00BF90C5072094C5072088
:104AF0008CC5072008B50121022007F08BF8084B70
:104B000001209A6A22F007029A629A6A42F006022B
:104B10009A62044AD36843F03003D36008BD00BFF3
:104B20000080004000C0024008B5044B417101F014
:104B30007F015A5C0321FFF772FF08BD90770200E6
:104B400008B5044B817101F07F015A5C0221FFF727
:104B500066FF08BD9077020038B504460179006809
:104B600005F01EFA054688B1002206212046FFF70F
:104B700056FF002207212046FFF751FF2E21204635
:104B8000FFF7D2FF2E212046FFF7DAFF284638BD77
:104B900010B504462021FFF7C7FF2046BDE81040AE
:104BA0002021FFF7CDBF642370B5B1FBF3F404FB04
:104BB0001311CCB20A21B4FBF1F501FB15413031E0
:104BC000C9B20646FFF7BCFF092C88BF05F13001CA
:104BD0003046BDE8704094BF2021C9B2FFF7A4BFA2
:104BE0000120704738B50D46044606F0FDFD05F07E
:104BF0000F032370114B15F0010F4FF0010214BF8A
:104C0000DA619A61227812F0020F4FF0020214BFAB
:104C1000DA619A61227812F0040F4FF0100214BF8B
:104C2000DA619A61227812F0080F4FF4807214BF93
:104C3000DA619A61BDE8384006F0E6BD20C009207F
:104C400038B50D46044606F0CFFD691E012303FA70
:104C500001F1237820461943C9B22170FFF7C2FF42
:104C6000BDE8384006F0D0BD38B50D46044606F024
:104C7000BBFD691E012303FA01F12378204623EAD4
:104C800001012170FFF7AEFFBDE8384006F0BCBD62
:104C90000AB1FFF7D5BFFFF7E7BF01207047022039
:104CA00004F018BA01207047044B5B69180B00F040
:104CB0000C00C3F341231843704700BF20C00920F4
:104CC00010B5044681220121FFF7A9FE01222179B6
:104CD000206805F049F910F0600F14BF0120002092
:104CE00010BD38B500210446FFF79FFE812205B2B2
:104CF00001212046FFF793FE102095FBF0F00AF00B
:104D00005BF84FF076510AF0ABF8A16809F0A0FF0C
:104D100038BDFFFF08B5FFF7E4FF05490AF0A0F82A
:104D200004490AF051F94FF0844109F091FF08BDA0
:104D3000000010410000A0402DE9F04FADF2546D8D
:104D40000C4690460146012282A8994602F03EF8A0
:104D5000002867D121460A220DF22C4002F036F8D5
:104D6000044620B182A802F09AFA20465AE06D4625
:104D7000064607462860019006F0B2FF4FF47A72AB
:104D800000230AF079FA2B4683464FF4007202A9F9
:104D900082A802F0B5F88246E0B92A68D2B106F0DE
:104DA0009FFF4FF47A7200230AF066FAB0EB0B0013
:104DB000074406F095FF4FF47A7200230AF05CFA7C
:104DC00001AB83462A6802A90DF22C4002F050F98B
:104DD0008246B0B1B8F1000F01D0C8F80070B9F147
:104DE000000F01D0C9F80060DDF8783603B11C600F
:104DF00082A802F054FA0DF22C4002F050FA50460C
:104E000010E001992A689142E4D106F069FF00237D
:104E10004FF47A720AF030FA2B68B0EB0B000644BC
:104E20001C44A9E70DF2546DBDE8F08FF0B5ADF567
:104E30000B7D0E46174601461D460122002301A8A0
:104E4000009301F0C3FF044670B91DB1294601A8C3
:104E500002F037FA6B463A46314601A802F050F8A4
:104E6000044601A802F01BFA20460DF50B7DF0BDAB
:104E7000F0B5ADF50B7D0E46174601461D460A22DC
:104E8000002301A8009301F0A1FF044670B91DB1F1
:104E9000294601A802F015FA6B463A46314601A8A8
:104EA00002F0E6F8044601A802F0F9F920460DF5F3
:104EB0000B7DF0BDF0B5ADF50B7D0E4617460146F6
:104EC0001D461222002301A8009301F07FFF044633
:104ED00080B90DB1294600E0049901A802F0F1F96A
:104EE0006B463A46314601A802F0C2F8044601A8D2
:104EF00002F0D5F920460DF50B7DF0BD7F2810B5E9
:104F000016D931B1FF2812D80A4B803833F8100077
:104F100010BD084A32F811408BB2844203D00131EF
:104F20008029F7D10B4603F18000C0B210BD0020EC
:104F300010BD00BF107802000649002331F813208D
:104F400032B1824201D00133F8E7034A32F813004C
:104F5000704700BF10790200F07A020010B50120FE
:104F60000C4605F085FC2060003018BF012010BD04
:104F70000120704710B5044606F000FB02280AD154
:104F8000002319464FF0FF32204605F0F3FC431E84
:104F90005842584110BD012010BD10B5044606F01E
:104FA000EDFA022807D100232046BDE810401A463A
:104FB000194605F0D9BB10BD10B5044604F0B8FD84
:104FC00024B1012C06D100F081F901E000F002FDCE
:104FD000044600E0042404F0C3FD204610BD28B1BF
:104FE000012801D00420704700F028BA7047F8B5B6
:104FF00007460C4615461E4604F09AFD3FB1012FA8
:105000000CD132462946204600F020FA04E0324610
:105010002946204600F02AFD044600E0042404F05E
:105020009FFD2046F8BDF8B507460C4615461E46BE
:1050300004F07EFD3FB1012F0CD1324629462046B7
:1050400000F050FA04E032462946204600F030FDD8
:10505000044600E0042404F083FD2046F8BD70B54A
:1050600006460C46154604F063FD36B1012E0AD102
:105070002946204600F090FA03E02946204600F039
:1050800037FD044600E0042404F06AFD204670BDAC
:1050900008B506F025FE4FF47A7200230AF0ECF80A
:1050A00008BDFFFF10B5044606F094FF074BB0FBA8
:1050B000F3F00223B0FBF3F2944202D3044A1361EB
:1050C00010BDB3F5807FF9D00233F3E740420F0003
:1050D00000000340044B9860DA68D206FCD4024B0F
:1050E0009868C0B2704700BF0000034070B5FFF77A
:1050F000CFFF00F5FA74FF20FFF7ECFF0025FF203B
:10510000FFF7E8FFFF28064605D0FFF7C1FFA942D9
:1051100008BFA042F3D3304670BDFFFF38B5064C40
:105120004FF00075E561FFF7E1FF044AA5611378D0
:1051300043F00103137038BD20C0092006C00720CA
:105140002DE9704306460D46FFF7A2FF6430804606
:105150004FF00009FF20FFF7BDFFFF2808D1FFF740
:1051600097FF494508BF4045F4D30020BDE8708350
:10517000FE28FAD1102D06D900224FF400713046D6
:1051800004F074FC19E0341D0435FF20FFF7A2FF82
:1051900004F8040CFF20FFF79DFF04F8030CFF2028
:1051A000FFF798FF04F8020CFF20FFF793FF043489
:1051B00004F8050C2B1BDE42E7D1FF20FFF78AFF26
:1051C000FF20FFF787FF0120BDE8708370B506461A
:1051D0000D46FFF78BFFFF28044619D12846FFF73D
:1051E00079FFFD2D16D022464FF40071304604F0B1
:1051F0003DFC2046FFF76EFF2046FFF76BFF204681
:10520000FFF768FF00F01F00431F5842584170BD70
:10521000002070BD012070BD020638B504460D4661
:1052200007D500217720FFF7F7FF012838D804F0D1
:105230007F041C4B4FF000729A61DA61FFF756FF52
:10524000FF28014628D12046FFF744FF280EFFF72C
:1052500041FFC5F30740FFF73DFFC5F30720FFF708
:1052600039FFE8B2FFF736FF402C17D0482C14BFA7
:1052700001208720FFF72EFF4C2C02D10846FFF7B4
:1052800029FF0A21FF20FFF725FF030608D5013972
:1052900011F0FF01F6D138BDFF2038BD9520EEE7B3
:1052A00038BD00BF20C00920064A07491378496964
:1052B000DBB2490154BF03F0FD0343F00303137055
:1052C000704700BF06C0072020C009202DE9F74322
:1052D000FFF7EAFF564B1A781E4612F0020F01D074
:1052E0001878A1E00120FFF7DDFE0A24FF20013C31
:1052F000FFF7F0FE14F0FF04F8D14E4F4FF00073AB
:10530000FB6121464020FFF787FF012802D04FF0C4
:10531000000875E0FFF7BCFE4FF4D57100F57A7513
:105320004820FFF779FF012841D10DF10408FF2043
:10533000FFF7D0FE08F804000134042CF7D19DF8E3
:105340000630012BE3D19DF80730AA2BDFD12C4684
:105350000025FFF79DFEA94208BFA04206D3FFF734
:1053600097FEA94208BFA042D1D207E04FF080418A
:10537000E920FFF751FF0028EBD1F0E700217A2068
:10538000FFF74AFF0028C2D10146FF20FFF7A2FE27
:1053900008F8010001310429F7D19DF8043013F019
:1053A000400F14BF4FF00C084FF0040828E02146CE
:1053B000E920FFF731FF02282C4635BF4FF00208E5
:1053C0004FF001084FF0E9094FF041090025FFF7C0
:1053D0005FFEA94208BFA0420BD3FFF759FEA942C6
:1053E00008BFA0420CD34FF400715020FFF714FF08
:1053F00006E000214846FFF70FFF0028E7D1ECE761
:105400000D4B83F800804FF00073BB61B8F1000FC3
:1054100007D03378182003F0FE033370FFF742FE05
:1054200001E0FFF77BFE3078C0B203B0BDE8F08347
:1054300006C0072020C0092014C6072008B5FFF7C2
:1054400033FF014B187808BD06C0072070B514461D
:1054500006460846FFF728FF002C39D01E4B1B7864
:10546000DB0737D41D4B4FF00072DA611C4A1D4632
:10547000127812F0080F08BF4002012C01460CD12F
:105480005120FFF7C9FEE0B94FF400713046FFF735
:1054900057FEB0FA80F4640913E05220FFF7BCFE17
:1054A00078B94FF400713046FFF74AFE28B1013C4D
:1054B00014F0FF0406F50076F3D100214C20FFF72D
:1054C000ABFE4FF00073201CAB6118BF012070BD14
:1054D000042070BD032070BD06C0072020C0092035
:1054E00014C60720F8B5144606460F46FFF7DCFE43
:1054F000002C44D0254B1A78D20742D41B785B0786
:1055000041D4234B4FF00072DA61224A1D461278D3
:1055100012F0080F08BF7F02012C0CD13946582029
:10552000FFF77AFE18BBFE213046FFF74FFEB0FAB8
:1055300080F464091CE012F0060F03D02146D72046
:10554000FFF76AFE39465920FFF766FE80B9FC2155
:105550003046FFF73BFE28B1013C14F0FF0406F58E
:105560000076F4D1FD210020FFF730FE00B90124C0
:105570004FF00073201CAB6118BF0120F8BD042060
:10558000F8BD0320F8BD0220F8BD00BF06C007200B
:1055900020C0092014C607207FB50D46FFF784FE02
:1055A00005281AD12B78012B00F0048103D3022B9C
:1055B0000BD0042001E1824B586910F0806440F068
:1055C000F980FFF7ABFD2046F7E07D4B5B6983F088
:1055D0008063C3F380636B70ECE07A4B1B78DB076E
:1055E00000F1EA800E2800F2DF80DFE800F0081208
:1055F0004F53DDDDDDDDDDDDAAAFB2BBCB00704B8F
:105600004FF00072DA61FFF771FDFF3818BF01201B
:10561000CBE000214920FFF7FFFD044608B101203F
:10562000C3E010216846FFF78BFD0028F7D09DF8F6
:1056300000309DF808109B09012B9DF8093006D118
:10564000013303EB012189B2890229606BE09DF8E7
:1056500007209DF80500920002EB91119DF80620AD
:105660000131920202F4406211449DF80A2000F0D8
:105670000F0000EBD2105A00023002F0060283182D
:10568000DBB289B2093B01FA03F34BE04FF400733C
:105690002B8059E04C4E337803F0040303F0FF01F4
:1056A000F3B10021CD20FFF7B7FD0028B7D1FF20CF
:1056B000FFF710FD10216846FFF742FD0028AED02D
:1056C0003021FF20FFF706FD481E10F0FF01F8D142
:1056D0009DF80A3008461A09102393402B6064E0B5
:1056E0004920FFF799FD0446002898D1102168460B
:1056F000FFF726FD002892D036789DF80A2006F0A4
:10570000020606F0FF009DF80B3076B1520002F061
:105710007E0202EBD3135A1C9DF80D309B09013B0E
:1057200002FA03F32B6020463FE0D90001F0180194
:10573000C2F3840201EB5311531C01FB03332B60B2
:1057400033E0214B1B782B7000202EE000214920F4
:1057500001E000214A20FFF75FFD00287FF45FAFE2
:1057600010211AE000217A20FFF756FD00287FF46F
:1057700056AF291DFF20FFF7ADFC05F8010B8D4248
:10578000F8D1E1E70021CD20FFF746FD00287FF4A6
:1057900046AFFF20FFF79EFC40212846FFF7D0FCD4
:1057A000B0FA80F0400900E00420054B4FF0007291
:1057B0009A6102E0002000E0032004B070BD00BF49
:1057C00020C0092006C0072014C60720054B1B78FF
:1057D000253BDBB2032B9ABF034A52F8230000207B
:1057E000704700BF18C60720D87C02001B4B2DE96C
:1057F000F0411D880646B5F5007F0F46144602D1DC
:105800002A46214613E0B5F5807F09D12A46214674
:105810003846B0472A4604F5807107F5807016E0D7
:10582000B5F5047F05D1510A89024FF4007238465C
:105830000DE0B5F5847F0ED1140A61024FF4807239
:105840003846B047611C4FF480724902B81833469D
:10585000BDE8F0411847BDE8F08100BF16C607203B
:1058600030B52F4C03462546002958DD07291A7804
:105870002DDDA2605A780839A2609A78A260DA78A1
:10588000A2601A79A2605A79A2609A79A26003F1A3
:105890000802DB79A360A3695B07FCD5AB680370E2
:1058A000AB684370AB688370AB68C370E368DB06BA
:1058B000FCD4AB68083000F8043CAB6800F8033C4B
:1058C000AB6800F8023CAB6800F8013C1AE0032921
:1058D0001ADDA2605A780439A2609A78A2601A1D73
:1058E000DB78A360E368DB06FCD4AB68043000F827
:1058F000043CAB6800F8033CAB6800F8023CAB68C2
:1059000000F8013C1346AFE70133A2600139E268B9
:10591000D206FCD4AA68013000F8012CA4E730BDFF
:105920000000034007B50B0C8DF805308DF807100B
:105930000B0A04218DF804000DEB01008DF80630F0
:10594000FFF78EFF03B05DF804FBFFFFF7B51746C6
:1059500006460E4C40250323E5618DF804300B0C00
:105960008DF805308DF807100B0A04210DEB0100AE
:105970008DF80630FFF774FF00223946304604F0F8
:1059800075F8A561A561A56103B0F0BD00C009204F
:105990000E4B4022DA610E4BD7229A601A46D1682C
:1059A0000B4BC906FBD49A681A46FF219960D06850
:1059B000C006FCD4906810F0800FF7D0034B402253
:1059C0009A61C0B29A619A61704700BF00C0092015
:1059D00000000340F7B5FFF7DBFF1F4C00232380D7
:1059E0001E4B1F4E40271A889B78F76103210546FE
:1059F00001A8ADF804208DF80630FFF731FF9DF8BF
:105A000005209DF806301F2AB7612146B761B761AE
:105A10001CD1A3F12502032A18D8124A252B137092
:105A200005F0010006D1002814BF4FF480734FF435
:105A3000847305E0002814BF4FF400734FF404731F
:105A40000B80FFF7C3FE084B400A18600888B0FAC5
:105A500080F0400903B0F0BD16C60720D07C0200DC
:105A600000C0092018C607201CC60720F8B58B18EF
:105A700017460D4A013B12680446934210D84D0266
:105A8000FFF786FF00262D1BBE4204EB050209DA54
:105A900021460648FFF7AAFE04F500740136F3E735
:105AA0000120F8BD0020F8BD1CC607204D5901009B
:105AB000F8B58B1817460C4A013B126893420FD871
:105AC00004460026C0EB4125BE4204EB050209DA7C
:105AD00021460648FFF78AFE04F500740136F3E715
