:020000021000EC
:10000000E03F082095010100FB000100E100010034
:10001000090101001901010029010100000000008F
:10002000000000000000000000000000C1B7010057
:10003000390101000000000021B801005901010050
:1000400001BE010001BE010001BE010001BE0100B0
:1000500001BE010001BE010001BE010001BE0100A0
:1000600001BE010001BE010001BE010001BE010090
:1000700001BE010001BE010001BE010001BE010080
:1000800001BE010001BE010001BE010001BE010070
:1000900001BE010001BE010001BE010001BE010060
:1000A00001BE010001BE010001BE010001BE010050
:1000B00001BE010001BE010001BE010001BE010040
:1000C00001BE010001BE010001BE0100308E020030
:1000D00000C00720F8020000F8C2072080050000D9
:1000E00004207146084203D0EFF309800BF0A6BE4E
:1000F000EFF308800BF0A2BE704708B5014808F086
:100100007BFAFEE7B685020008B5024808F074FAEB
:10011000FEE700BFC185020008B5024808F06CFA8E
:10012000FEE700BFCC85020008B5024808F064FA7B
:10013000FEE700BFD785020008B5024808F05CFA68
:10014000FEE700BFE485020008B5024808F054FA53
:10015000FEE700BFF285020008B50BF0E9FA0BF0EC
:1001600081FBBDE808400BF0F7BA0B4610B5401A0A
:100170005C1AA24203D9C45843F8044BF8E710BDF7
:10018000034610B500221C1AA14202D943F8042BE1
:10019000F9E710BD16480BF007FC15480BF007FCFB
:1001A000144C154DAC4201D3144D07E094E8030004
:1001B0000C3454F8042CFFF7D8FFF3E7AC4206D216
:1001C00054F8080B54F8041CFFF7DAFFF6E70FF0B9
:1001D000E5FA0BF003FC01F0DBFD03F0DBFA4FF472
:1001E00016400BF049FF064808F006FAFEE700BF8C
:1001F000E03F0820CC000100D8000100E000010031
:10020000068602000BF0F0BA0BF0FEBA144B10B5E4
:100210001A68014612B94FF080521A60114C1868E2
:100220002468421894421A6007D20F4CA24204D8A4
:100230000E4A0B488C18046010460D4A1B68126861
:10024000934222BF064B00201A6039B1094A136855
:1002500001331360084B1860084B196010BD00BFD4
:10026000FCC2072004C30720FFBF072078C807206F
:1002700008C307200CC30720F8C2072000C30720CB
:100280000FF0C4BB0FF0CABB0FF0C8BB30B50446BB
:100290008BB068460FF076FE224B079A2360089BCE
:1002A000214DA36062602149214B52B90A68186848
:1002B00082428ABF02F1604202F17042A2F5E82256
:1002C000626062681B68B2F5803F82BF02F17042D3
:1002D000A2F5E82262600022E2600A68934206D337
:1002E000991AC5F1005303F504230B440BE0114B9D
:1002F0001B68934208D9991AC5F1005303F5F823F6
:100300000B44002B00DDE36020460B4BE2611B68D1
:10031000A3610A4B1B686361094B1B6823610BB027
:1003200030BD00BF7808000078C80720FCC2072055
:1003300004C3072008C30720F8C2072000C3072012
:100340000CC3072000207047034A044B1A60044A7C
:10035000044B1A60704700BF0080001004C30720E0
:100360000040082008C30720014B1860704700BFF9
:1003700018C30720014B1860704700BF10C3072047
:1003800008B5024810F0A6FDFEE700BF145D0200AC
:1003900008B5024810F09EFDFEE700BF2E5D02008A
:1003A0000020704701207047F8B5084B16461A68C0
:1003B0000F461C4642B10D46EB1B9E4204DD2368EE
:1003C00015F8010B9847F7E73046F8BD18C307202A
:1003D000F8B5094B0F46186816461C4658B10D462D
:1003E000EB1B9E4205DD23680020984705F8010BB2
:1003F000F6E726EAE670F8BD10C307207047002034
:100400007047FFFF074B1B689A68824207D05A6803
:10041000824204D0DB681B1A5842584170470120C1
:10042000704700BF3CC10720002070470020704784
:1004300030B504468DB0A8B3684609F03FFA9DF880
:100440000030002503F03F0303939DF8013003A81B
:1004500003F03F0304939DF802300B9503F01F0354
:1004600005939DF8043003F01F0306939DF80530B3
:1004700003F00F03013B0793BDF80630C3F30B03F2
:10048000A3F26C7308939DF8033003F007030993FC
:10049000BDF80830C3F30B03013B0A930FF000FCD7
:1004A00084E8210000200DB030BDFFFF70B50F4D76
:1004B0000F4E2C6814F0010415D128460CF07CF97D
:1004C00088B14FF40E70FFF7DBFE302380F8353231
:1004D0003A2380F8344280F8363280F83742306070
:1004E00028460CF075F9306870BD00BF34C3072092
:1004F00038C3072070B50F4D0F4E2B6813F0010461
:1005000016D128460CF058F990B14FF40E70FFF751
:10051000B7FE012380F83432312380F835323A2394
:1005200080F8363280F83742306028460CF050F9B7
:10053000306870BD2CC3072030C307202DE9F04F71
:10054000ADF51B7D0F4608F07BFC041E04DD0BF0AF
:10055000B7F820460AF0FAFD0DF114094C462A4D71
:100560004FF0640B0FCD0FC42B6804AA2360102139
:1005700000240AA804940AF0A7FF244A82462449CA
:10058000384609F02BFC26460AAD4FF00008D0454E
:100590001CD06B69A34215D1AA69049B16441BB1F8
:1005A000B3FBFBF3B2FBF3F3297B039202932B8C97
:1005B00000949B00019359F821306A681549384628
:1005C00009F00CFC08F101082435E0E701340A2C9D
:1005D000DAD1049B64229E1BB3FBF2F30E49B6FBF7
:1005E000F3F30E4A0096384609F0F8FB0AF082FC55
:1005F000102804D910220A49384609F0EFFB0120DF
:100600000DF51B7DBDE8F08F485D0200675D0200BF
:100610006C5D0200935D0200BB5D0200B05D0200F4
:10062000DA5D020010B50C46ADF5007D68460BF0B2
:100630006DFB20464FF0FF32694609F099FB01201F
:100640000DF5007D10BDFFFF30B50C4691B02C4973
:10065000054608F001FB002847D00CAB04930BAB18
:1006600003930AAB029309AB019308AB009306AA6C
:1006700007AB2449284608F057FA072801D0002084
:100680003BE09DF83930069A0DA862F303038DF81C
:100690003930079A9DF8383062F304038DF838300A
:1006A000089ABDF83A3062F30B03ADF83A30099A74
:1006B0009DF8363062F304038DF836300A9A9DF8BF
:1006C000353062F305038DF835300B9A9DF83430E0
:1006D00062F305038DF834300C9A9DF8373062F3DD
:1006E00002038DF8373009F011F909F0ABF906492A
:1006F0000246204609F072FB012011B030BD00BF58
:10070000045E0200085E0200167E0200F7B50D4688
:100710004E49044608F090FB064640B107F004FE3F
:100720004FF0FF324A49284609F022FB8BE0494945
:10073000204608F081FB60B307F01AFE46490246E6
:10074000284609F04BFB07F01FFE444902462846A5
:1007500009F044FB07F012FE41490246284609F021
:100760003DFB304607F0FAFD0446012007F0F6FD98
:100770000646022007F0F2FD0746032007F0EEFDD3
:1007800000970190334622463649284609F026FB59
:1007900059E03549204608F05FFA50B12022012186
:1007A000204608F0F7FA204608F048FB07F004FF5F
:1007B00049E02E49204608F04FFA064620B92C4958
:1007C000204608F049FA60B32A49204608F032FA78
:1007D00060B92949204608F02DFA28B92046274952
:1007E00008F028FA044602E0032400E0022431461F
:1007F000204607F039FE224A224B002E18BF1A4627
:100800003CB1012C07D01C491A4B022C18BF0B46D7
:1008100002E01D4B00E0194B1C49284609F0DEFAA6
:1008200011E0204608F00AFB194A1A490090F32308
:10083000012007F027FE204608F000FB164902467B
:10084000284609F0CBFA012003B0F0BD435E020058
:10085000495E0200625E0200695E02007E5E020086
:10086000935E0200B25E0200E25E0200E65E0200FB
:10087000EE5E02003E5E0200385E02003270020050
:10088000295E0200215E0200325E0200F75E020075
:100890005C5D0200105F0200435F020030B589B06A
:1008A00004AB002400930D4603AB022218490394C5
:1008B000049408F047F9022827D107AB009305AA52
:1008C00006AB0499039805940694079404F038FA4B
:1008D000024638B1049B0F4900932846039B09F058
:1008E0007DFA10E0059A069B002A079908BF0122AD
:1008F000002B08BF0123B1FBF3F3B1FBF2F2284652
:10090000054909F06BFA012000E0204609B030BD2E
:10091000D26F0200515F0200705F02002DE9F047C4
:100920000E46ADF5856D3949054608F01FFA384980
:100930000746284608F043FA3549284608F05FFA8A
:10094000284608F07BFA0122014681A806F042FA07
:10095000044640B1284608F071FA2E490246304656
:1009600009F03CFA4CE00DF1040A01464FF4007224
:1009700050460FF0B0F800940BF0B2F9804689466B
:100980006B464FF40072514681A806F0BDFA08B9D3
:10099000009B23BB81A806F086FCCFB10BF0A0F929
:1009A0004FF47A7200230EF067FC002305464FF4E3
:1009B0007A72404649460EF05FFC281A14BF03467F
:1009C0000123B4FBF3F322461349304609F006FA3B
:1009D0004FF0FF321149304609F0CAF910E01C44CB
:1009E000002FCDD13D46009B9D42C9D233681AF8F5
:1009F00005105B684FF0FF32304698470135F2E74B
:100A000001200DF5856DBDE8F08700BF9E5F0200F7
:100A1000D26F0200A75F0200BB5F020049650200BF
:100A20002DE9F0470023BEB00C46534905460C9310
:100A300008F002FA20B9284608F000FA064600E05D
:100A40004E4E314615A806F0E7FC054630B1034688
:100A500032464B49204609F0C1F989E032464949FE
:100A6000204609F0BBF92F460DF1780880230DA927
:100A700015A8CDF84C80149306F012FD002861D122
:100A80009DF83D30002B5DD09DF83C100DF13D00F0
:100A9000CA065BBF0D9B0C9A44229B185BBF0C934C
:100AA0002D220135013711F0010F14BF52232D23E0
:100AB000BDF83AA011F0020F09900D9814BF4FF045
:100AC000480E4FF02D0E11F0040F14BF4FF0530CD1
:100AD0004FF02D0C089011F0200FCAF34510BDF80F
:100AE000381007904FEAEA20069001F01F000590A9
:100AF000C1F343104FEA612114BF4FF041094FF099
:100B00002D0901F2BC71CDF804C0CDF800E00490CD
:100B10000391CDF808901C49204609F05FF94FF089
:100B2000FF321A49204609F00FF941464FF0FF32D3
:100B3000204609F009F94FF0FF320F49204609F02D
:100B400017F991E73A46124900950C9B204609F0A7
:100B500045F90BAA0CA9304606F0D1FC40B90B9B15
:100B60000C499A780C9B20465A43520809F036F9F2
:100B700001203EB0BDE8F08749650200D65F020063
:100B8000D95F0200FD5F02001860020045600200AC
:100B9000496002007360020070B50C46064608F01A
:100BA0004DF90546304608F049F906F06AFD064A57
:100BB000064B0749002808BF13462A46204609F07D
:100BC0000DF9012070BD00BF2962020033620200EE
:100BD0008760020070B50C46064608F02FF90546FE
:100BE000304608F02BF906F0EFFC064A064B0749A1
:100BF000002808BF13462A46204609F0EFF80120D6
:100C000070BD00BF2962020033620200A3600200CF
:100C10007FB503AB002400930E4602AB02220F49BE
:100C20000294039407F08EFF022814D1029C039DC6
:100C30002046294606F0CEFD094B0A4922460028E7
:100C40000CBF084618462B4600900749304609F06D
:100C5000C5F8012000E0204604B070BDD26F02004C
:100C60003362020029620200B560020030B5ADF5C2
:100C70000D7D0C46054608F0E1F80A22014603A85E
:100C800006F0A8F840B1284608F0D8F81F490246F7
:100C9000204609F0A3F834E08DF8070002901C49C3
:100CA00042F210737E22204609F098F81949204636
:100CB00009F094F8236842F210721B680DF10701E5
:100CC0002046984718B19DF807307E2B03D103A822
:100CD00006F0E9FA15E002AB01220DF1070103A8C5
:100CE00006F0CAF958B9029B012B08D123684FF0CE
:100CF000FF325B689DF8071020469847DAE70649FF
:100D0000D5E701200DF50D7D30BD00BFCD6002009F
:100D1000F46002002C6102004C6102002DE9F04FEA
:100D2000ADF5417D002304AC236003930D46009490
:100D300003AB0222414907F005FF022806D04FF01D
:100D4000FF323F49284609F013F872E0216817A8DE
:100D500006F062FB10B122683A4906E0039917A831
:100D600006F05AFB28B1039A3749284609F036F8AD
:100D70005FE04FF480720DEB020105A807F0A4FEBE
:100D80004FF4807280A90AA807F09EFE20AE80274B
:100D90000FA917A81596169706F082FB002842D1D6
:100DA0009DF84530002B3ED09DF8443003F01003F1
:100DB00003F0FF0A002BEBD10DF14503039A234901
:100DC00005A808F085F80DF1450322681F490AA817
:100DD00008F07EF805A808F031F807460AA808F0E0
:100DE0002DF8804605A8DDF83C9008F027F88346EA
:100DF0000AA808F023F8534652460146CDF800A051
:100E0000584603F09DFF124A124BCDF8009000287F
:100E10000CBF184610461049019043463A462846F2
:100E200008F0DCFFB3E70AA807F063FE05A807F0A7
:100E300060FE01200DF5417DBDE8F08FD26F02000C
:100E400073610200B8610200DD610200FD61020011
:100E5000336202002962020003620200F8B50D4607
:100E60002449064607F0E8FF0446074618B1FFF795
:100E700041FB002208E02049304607F0DDFF044630
:100E800060B1FFF713FB3A46114600F2352006F039
:100E900031FD4FF0FF32194B194922E01949304614
:100EA00007F0CAFF044658B1FFF724FB012200F205
:100EB000352105F051FF4FF0FF32134B134910E07D
:100EC0001349304607F0B8FF044680B1FFF7EEFA49
:100ED000012200F2352105F03FFF0E4B0E494FF085
:100EE000FF32002818BF1946284608F041FF204667
:100EF000F8BD00BF8A620200946202002C62020008
:100F000022620200A162020049620200396202000C
:100F1000AA6202006E6202006062020008B5084622
:100F20004FF0FF32084908F023FF07F0FDF94FF4B6
:100F3000FA600AF00BF94FF08043AA221A720022DD
:100F40001A70012008BD00BFB662020010B5012072
:100F50000C4607F0ADFD40B100231A46194609F0D2
:100F600007FC4FF0FF32054902E005494FF0FF3220
:100F7000204608F0FDFE012010BD00BFC762020040
:100F8000DD62020038B5064C236833B91C20FFF738
:100F900077F9054608F09AFB2560206838BD00BF48
:100FA00024C307202DE9F04F5F4C91B023680E4613
:100FB00033B92C20FFF764F9054608F01BFE2560C5
:100FC0002768FFF773FA00240CAA0DA900F2352058
:100FD0000D9406F094FA48B90C9A0D9C9569937893
:100FE000023D5C435D4364086D0800E025464F4BBD
:100FF0001A6898467AB90C20FFF742F98146FFF744
:10100000C1FF902389F804300023C9F80000C9F813
:101010000830C8F80090D8F8000003F07FFE814641
:101020000EF0E4F80A900DF0C7FE014648460DF0B8
:101030000DFE3F490DF014FF0EF0D8F881460DA8C3
:101040000AF0C2FC04F0C0FD68B308F075FD04F0BE
:10105000A5FD4FF0000A0346D346D0469A450B93B0
:101060000BD0504604F0FEFD804538BFD3460B9BA5
:1010700038BF80460AF1010AF0E708F075FD6423E5
:1010800003FB08F32B4ACDF80880B3FBF2F3C3F15E
:1010900064030093CDF804B02B462246264930461F
:1010A00008F09CFE05E02B4622462449304608F015
:1010B00095FE234C23681BB90120FFF7E1F820605F
:1010C000206803F0F0FD044608F0BCFCFB8C0A9A93
:1010D0000993BB8C1B4908939DF83430019003F0B1
:1010E0003F0307939DF83530009403F03F030693C8
:1010F0009DF83630304603F01F030593BDF83A30B3
:10110000C3F30B0304939DF8383003F01F030393DC
:101110009DF8393003F00F0302934B4608F05EFE52
:10112000012011B0BDE8F08F28C307201CC30720A1
:1011300000002041A0860100166302004A630200FD
:1011400020C30720586302002DE9F04F0D46C7B0B9
:101150005549814607F097FD54498246484607F0B5
:1011600092FD53498346484607F08DFD00270DF157
:10117000100805AE044602970397C8F80070376060
:10118000BAF1000F45D0009603AB02AA4949484680
:1011900007F0CAFC012807DC28464FF0FF32464919
:1011A00008F0E6FD38467CE00DF118084FF4807435
:1011B0002246394640460EF08EFC336813B90123AF
:1011C000336003E0B3F5807F88BF3460FFF7DAFE59
:1011D00033689DF80C209DF808100093434608F0F2
:1011E000C3FE364A364B3749002818BF1346029AC9
:1011F000284608F0F3FD002433689C424ED2039A3F
:1012000018F8043022443049284608F0E7FD01343C
:10121000F2E7BBF1000F2CD0CDF8008003AB02AA9F
:101220002A49484607F080FC032807D028464FF09B
:10123000FF32274908F09CFD504632E0FFF7A2FE3E
:1012400098F800309DF80C209DF8081008F0A1FED9
:1012500048B1039B1F490093D8F80020029B284601
:1012600008F0BCFD1AE0029A1B49284608F0B6FDBA
:1012700014E0A8B102230293029BFE2B10DCFFF7BF
:1012800081FE9DF8081008F08FFE20B1029A1349E4
:10129000284608F0A3FD029B0233ECE7012000E0A2
:1012A000204647B0BDE8F08FF1700200C163020034
:1012B000C7630200D0630200DF63020029620200FC
:1012C00033620200006402002464020034640200FD
:1012D000446402006B64020085640200A2640200A0
:1012E00070B5ADF50A7D05460C4607F014FC0B28D9
:1012F00002DD0C2222493CE0284607F09FFD012236
:10130000014601A805F066FD064668BB01A805F088
:10131000CAFF284607F092FD1A490246049B204660
:1013200008F05CFD236820469B6898470A2009F076
:101330000DFF4FF0100383F31188BFF36F8FBFF3DE
:101340004F8F284607F07AFD02460F4B0068516820
:1013500003C390680D4A186043F80C2C4FF080438B
:10136000AA221A721E7007E0284607F067FD02469F
:101370000749204608F032FD01200DF50A7D70BDB9
:10138000DC64020003650200484002400DD0ADDE7F
:101390004A6502002DE9F041404CA4B0236806469E
:1013A000DB070D460CD420460BF006FA40B14FF493
:1013B00080600EF02BFB3A4B186020460BF008FAC9
:1013C0003849304607F05FFC0746044600B38022E8
:1013D000002104A80EF07FFB00230293039303ABCC
:1013E000009304AA02AB3049304607F09DFB2C491C
:1013F000029B039A096804A813B903F03DFD01E0BC
:1014000003F05CFD294B2A49002818BF194638E033
:101410002849304607F037FC074600283AD004AB8D
:10142000304603AA2449039404948DF8084007F039
:101430007BFB039E049B3344B3F5806F02DCDFF833
:1014400060800CE04FF480621C4920E0D8F8003046
:101450009DF808209A559DF8083001361C44039BDE
:10146000049AF31A934210DAB6F5806F0DDA2B68FE
:101470004FF4FA621B6802A9284698470028E5D174
:101480000F49284608F0AAFC04E022460D492846E8
:1014900008F0A4FC384624B0BDE8F08140C3072022
:1014A0003CC30720756502007C650200636502008D
:1014B0005F6502008C650200936502009D65020075
:1014C000C1650200D165020038B50D4607F0B8FCD1
:1014D0000446C0B202F06AFB054A064B06490028E2
:1014E00018BF13462246284608F078FC012038BD74
:1014F00029620200E2650200E965020030B50C468F
:10150000054687B00A4908F069FCA1882388049140
:10151000218962880391E18828460291E17A01914C
:10152000A17A0091034908F059FC07B030BD00BF13
:1015300000660200366602002DE9F0418CB003AB74
:10154000002600930D46904602AB022238490296CF
:10155000039607F0F7FAB04266DD02980EF026F81F
:10156000C7B2039818B10FF0B7FFC4B200E0044649
:10157000002104A803F0BAF930B14FF0FF322D4931
:10158000284608F0F5FBF3E7022318F10001009369
:10159000039A234618BF0121384602F04BFC064649
:1015A00038B94FF0FF322449284608F0E1FB012604
:1015B0003AE0B8F1000F37D04FF47A7104A803F085
:1015C0009DF960B39DF81030BB4228D19DF81730CB
:1015D0000C2B04D13A4606A92846FFF78FFFBCB969
:1015E0001649284608F0FAFB9DF817309C420ADAA3
:1015F00004AB19192B684FF0FF325B68097A284653
:1016000098470134F0E70E49284608F0E7FB0BE065
:101610004FF0FF320B49284608F0AAFB04E0029A7B
:101620000949284608F0DAFB30460CB0BDE8F081E5
:10163000D26F020054660200766602009E660200C7
:10164000CB6C0200B2660200CF6602001FB501A893
:101650000C4602F0CDFD02F0B5FA01A90246204683
:10166000FFF74CFF012004B010BDFFFF30B58BB079
:101670000AAA4FF47A730C4642F8243D174907F042
:1016800053FA0025019902A803F030F9D8B19DF86A
:1016900008201349204608F0A1FB00259DF80F30D3
:1016A0009D420ADA02AB591923684FF0FF325B689A
:1016B000097A204698470135F0E70A49204608F0A4
:1016C0008DFB0125DEE72DB94FF0FF32064920469C
:1016D00008F04EFB01200BB030BD00BF9A65020040
:1016E000F5660200486502000C67020037B50C463B
:1016F00002F0E2FB05461649204608F06FFB15494B
:101700002A46204608F06AFB1149204608F066FB8D
:10171000D5B11149204608F061FB0D49204608F07B
:101720005DFB0025E8B202F0B1FB013540B18178E4
:101730004378027800912046084908F04FFBF1E712
:101740000349204608F04AFB012003B030BD00BF2A
:101750001D67020038670200526702006D670200D1
:101760002DE9F3473C4C074626688946002E62D196
:101770002420FEF785FD0423054680E848008660A6
:10178000C660202130460FF00FFCAE68E8604FEADB
:101790008608072E0ED81020FEF772FD8246102212
:1017A00000210EF098F9EB68013643F808A008F123
:1017B0000408EEE7002608236B604FF00108274B72
:1017C000274A28492846009685F82080256006F09B
:1017D0001DFB254B254A26492068009606F016FB7E
:1017E000244B254A25492068009606F00FFB244B20
:1017F000244A25492068009606F008FB234B244A1A
:1018000024492068009606F001FB234B234A244913
:101810002068CDF8008006F0F9FA224B224A2049D0
:101820002068009606F0F2FA0096204B204A2149E3
:10183000206806F0EBFA2049384607F0FDFA18B1A7
:101840001E49384607F0B2FB4A463946206802B0C6
:10185000BDE8F04706F0BABB48C30720886702001E
:10186000C26702000D1B0100C96702001D6802006B
:10187000E118010026680200496802006D160100A7
:101880004C680200AB6D0200C914010076680200CA
:1018900092680200ED1601009968020000690200DA
:1018A00039150100DA680200FF68020004690200CD
:1018B0001F6902004D1601004965020025690200FA
:1018C00038B5064C236833B95820FEF7D9FC0546D5
:1018D00007F0D4FF2560206838BD00BF44C307204F
:1018E0002DE9F04F0446ADF2DC5D802288460DA85C
:1018F00000210EF0F0F8802200212DA80EF0EBF868
:1019000006AE002333600DAA00962DAB7549204624
:1019100007F00AF9032801D00020DFE001220DA919
:10192000EDA805F057FA05460028F5D1FFF7C8FFE6
:101930003368802280F853304DA9044608A88DF8FA
:101940001750079507F0C0F82DAB009333680DAA28
:101950006549404608F042FAA94607AE33464FF4BF
:1019600000726DA9EDA805F0CFFA002840F0AF8015
:101970003368002B00F0AB806F1C32685B49204657
:1019800008F02CFA236820469B6898477D1E0DF5C9
:10199000DA7B4FF0000A6DAB3268C3EB0B039A425F
:1019A00023680CD9CDF80CB05B684FF0FF321BF800
:1019B000011B20469847039B1B789A44EBE79B68E2
:1019C0002046984708A807F039FA834608A807F088
:1019D000A5F84FF47A7302465946204608F0D6F926
:1019E000202201210DEB020007F0D4F908A807F02E
:1019F00027FA824520D008A807F022FA524603466B
:101A00003B49404608F0EAF93A49204608F0E6F931
:101A1000236820469B68984723684FF47A721B68B6
:101A20000DF11701204698470028F5D1022F07F144
:101A300001034CD81F46A0E733682DAA2E49009316
:101A400020464B4608F0CAF9236820469B68984711
:101A500008A807F0F3F9824608A807F05FF8514696
:101A600002464FF47A73204608F090F9234908A8FB
:101A700007F0E0F8D0B908A807F0E0F920490246DD
:101A8000404608F0ABF91B49204608F0A7F9236847
:101A900020469B68984723684FF47A721B680DF1C3
:101AA0001701204698470028F5D1BFE7154908A837
:101AB00007F07CFA3368144999444A46F09B404643
:101AC00008F08CF9002D3FF448AFBD1E45E7EDA8A6
:101AD00005F0E9FB08A807F00CF801200DF2DC5D29
:101AE000BDE8F08F2A6902003969020050690200DE
:101AF0006269020048650200896902009F6902006C
:101B0000A269020049650200DA6902002DE9F04786
:101B1000074686B006AA002442F80C4D0E463D4901
:101B200007F002F820220121384607F033F9039B21
:101B3000002B65D0384606F0EEFF002860D0FFF796
:101B4000BFFE05460DF1180808F80D4D2B6805225B
:101B50001B6841462846984704460028F6D1039B57
:101B6000384685F8533007F069F9274601464FF0AB
:101B7000FF32284608F0FCF82B6828469B689847F7
:101B8000254B0DF11809186849F8044D04902B688D
:101B90004FF47A721B68414628469847D0B1032219
:101BA0000DF1150148460DF07BFF9DF80BA00422B6
:101BB00004A948468DF817A00DF058FF50B13368BE
:101BC00001225B6851463046013798470028DED134
:101BD0000134DCE71822B7FBF2F302FB137202B107
:101BE00001333A460D49304608F0F8F874B16123E4
:101BF000009322460A4B0B49304608F0EFF805E007
:101C00004FF0FF320849304608F0B2F8012006B024
:101C1000BDE8F0879A650200DE650200E669020011
:101C20000D6A0200496A0200026B020001480FF0CF
:101C300051B900BF2E6B020038B504460D460AF0BC
:101C4000C9F9074BB0FBF3F00223B0FBF3F2AA4251
:101C500004D9B3F5807F01D00233F6E7236138BDA4
:101C600040420F007FB500F235260C460122314676
:101C700005F072F8054648BB039002AA03A9304656
:101C800005F03DFC00BB0298039A837802FB03F148
:101C900082691348023A5A435208B2F5004F38BFDE
:101CA0000120104B4FEA510124BF03464FF48060DE
:101CB000B1FBF0F1B2FBF0F20091019321460A482A
:101CC0000FF096F8012008E0084B00E0084B2A4688
:101CD000214608480FF08CF8002004B070BD00BF0A
:101CE0006C6B0200696B0200766B0200726B020083
:101CF0006F6B0200A46B020038B5074C23684BB928
:101D00000820FEF7BDFA0546FFF73CF9402328609E
:101D10002B712560206838BD54C3072038B5054CA9
:101D2000256825B90120FEF7ABFA05702060206810
:101D300038BD00BF50C3072038B5084C23685BB9D5
:101D40000C20FEF79DFA0546FFF71CF990232B7136
:101D500000232860AB602560206838BD1CC30720C5
:101D600010B5044C23681BB90120FEF789FA2060E6
:101D7000206810BD20C3072010B5044C23681BB990
:101D80000120FEF77DFA2060206810BD4CC30720BB
:101D9000AD49AE4A4023F0B58B614FF000739361BB
:101DA0004FF480338B61AA4BADF5057D186807258C
:101DB00020F0F00018601868022440F0500018600D
:101DC000186820F440501860086840F0400008602F
:101DD000186820F47C201860186840F428201860E7
:101DE000186820F470001860186840F4200018602B
:101DF000186820F040401860186840F000401860F3
:101E0000586820F03C005860586840F0280058603E
:101E1000586820F003005860086840F4803008607B
:101E2000586820F440505860086820F4800008602A
:101E3000D96821F44031D960116841F08071116096
:101E4000596821F440215960596841F48021596052
:101E50009868804901409960116841F4897141F0A6
:101E600001011160996821F470119960996821F05D
:101E700070419960116821F446411160D96821F0E0
:101E80003001D960D96841F03001D960D96821F4B6
:101E90007011D960136843F000731360136823F066
:101EA0008063136007F0E0F801210A2009F0B2FE18
:101EB00001210A2009F0C6FE67480121056044603F
:101EC000FFF7BAFE07F0C8FD0121152009F0A2FEB8
:101ED0000121152009F0B6FE60480121056044602B
:101EE000FFF7AAFEFFF74EF8642107F0BBFB10B91D
:101EF0005B480EF0EFFF09F0C9FE02F0D1FC10B90B
:101F000058480EF0E7FF4FF4FA6007F066F8FFF765
:101F10008DFE0AF05FF80CF04BFF53490DF054F8BA
:101F20000CF0F4FA02460B4650480EF061FF09F03F
:101F300045FD052804AC14D1002363604C4B1B689D
:101F40002360FFF773FE4B4B4B48D96C1A6D5B6DEA
:101F500000940EF04DFFFFF769FE41F2883007F064
:101F60003CF8FEF7A3FA4549FFF77CFE054668BB3F
:101F700043480EF03DFF03F09FFEFEF797FA294617
:101F80002A4600F2352005F0B5FC3E4B3E4A0028BB
:101F90000CBF104618460EF09DFFFEF787FA374932
:101FA000FFF760FE90B939480EF094FF03F006FE8B
:101FB000014637480EF01CFF03F0F0FD054603F024
:101FC000FDFD00FB05F133480EF012FF324E334F9A
:101FD000336813F0010516D130460AF0EDFB90B1DD
:101FE0004FF40E70FEF74CF9012380F834323123A0
:101FF00080F835323A2380F8363280F8375238602C
:1020000030460AF0E5FB26493868264DFFF72AFEE0
:1020100018211148FFF710FEFFF708FE2B684BB997
:102020000820FEF72DF90646FEF7ACFF3823306096
:1020300033712E60286802F011FD0546B0BB1A48C6
:102040000EF048FF33E000BF00C0092020C0092087
:1020500000C00240F0FCFCFF00000340008008408C
:10206000E86B0200196C0200002474493E6C020007
:102070004440024000400240566C0200CE6C020018
:10208000D66C0200DC6B0200D76B0200136D0200FD
:10209000326D0200416D02002CC3072030C30720BF
:1020A000586202005CC307205C6D02000125FFF747
:1020B00043FE02F009FE064618B972480EF00AFF08
:1020C0003546FFF719FE02F04BFD064618B96E487B
:1020D0000EF000FF35466D4E33681BB90120FEF748
:1020E000CFF83060306802F009FDFFF739FE02F0EA
:1020F000D8FDFFF713FE02F077FDFFF73DFE02F07B
:10210000D5FDFFF70BFE002102F070FD8DB9FFF742
:102110008DFDFFF7F1FD2D2102F00AFDFFF7ECFD2B
:102120002D2102F011FDFFF7F9FDFF2102F05EFD08
:102130000CE0FFF7E1FD0546FFF7FEFD02F0EEFDC6
:102140000DF07AF8C1B2284602F031FD10220021CC
:1021500020460DF0C0FC00230F2221464C4802F01F
:1021600069FE80B920460DF021FAC5B2284601F07B
:102170001DFD484A484B2946002818BF1346444ACB
:1021800046480EF035FEFFF7EBFD02F08CFD0546EC
:10219000002010F03DF928440EF0A4FE4FF4007228
:1021A000002120460DF097FC204609F0AFFD2146A6
:1021B0003B480EF01DFEFFF739FD8022002120462E
:1021C0000DF089FC204603F0D5FC2278FF2A04D0CC
:1021D000214634480EF00CFE29E0FFF7CDFD02F059
:1021E00067FD09281DD130480EF074FE21462F48A6
:1021F0000EF084FF21462E480EF0FAFD2D480EF019
:1022000069FE002303A92C4803930EF077FF9DF885
:102210000C30592B03D1204603F08AFC07E02748F5
:1022200003E027480EF056FE26480EF053FE4FF20C
:1022300008031D684FF20C031C684FF210031E6860
:102240004FF470431A684FF20403AD0A1968A40AE8
:102250001D480EF0CDFD2A4621461C480EF0C8FD53
:1022600031461B480EF0C4FDFFF7E0FC012006F0EC
:1022700091F818480EF02EFEFFF7D8FC0DF5057DFD
:10228000F0BD00BF776D0200916D020058C30720BA
:10229000AA6D0200E26B0200E2650200B06D02006E
:1022A000167E0200E46D0200006E0200226E020043
:1022B000276E0200426E0200856E0200896E0200E7
:1022C000A16E0200CF6E0200016F02002D6F0200AE
:1022D0005A6F0200776F020001207047012070479B
:1022E0000120704710B5044C23681BB90120FDF78D
:1022F000C7FF2060206810BD58C307200120704729
:1023000038B504460F4B00250360636DE06DAB42AA
:1023100005D950F82500FDF7B5FF0135F5E708B1FF
:10232000FDF7B2FF0025A36B206CAB4205D950F836
:102330002500FDF7A7FF0135F5E708B1FDF7A4FF7C
:10234000204638BDB06F020010B50446FFF7D8FF35
:102350002046FDF797FF204610BD2DE9F0410446C9
:102360000E46C06889000EF01FFEA568E060AF0051
:102370004FF00008AE420DD90C20FDF781FFE36855
:10238000C0F80080C0F8048080F808800135D8517A
:102390000437EFE76660BDE8F081FFFFF7B504465C
:1023A00000250B464FF480520095254906F066FB48
:1023B000244B042623606663A563E563256402213C
:1023C00004F13400FFF7C9FF26656565A565E5657D
:1023D000284660210EF0E8FDA56DE065AE00172DE2
:1023E0000CD81020FDF74CFF0746102200210DF0FD
:1023F00072FBE36D01359F510436F0E718236365E6
:10240000012384F87030104E0023A4F87430A4F82F
:102410007630A367002200230027C4E92023C4E903
:10242000226709F05DFC4FF47A7200230CF024FF60
:1024300080197941C4E92001204603B0F0BD00BFF6
:10244000C86F0200B06F0200C0D401002DE9F04156
:102450000F7A14464D680E688FB1082A23D128469A
:1024600006F059FB00281CDD4FF0FF3213493046BF
:1024700007F06AFC0121284606F04CFC08E00A2A15
:1024800019D00D2A12D02146284606F064FD97B1D6
:10249000336821463046BDE8F0415B684FF0FF32BB
:1024A00018470724F4E70A2A02D1F1E7BDE8F081D2
:1024B0000D2AEDD0E7E7BDE8F08100BFD16F020043
:1024C000F8B50446142015460F46FDF7D9FE8021C5
:1024D000064606F0F0FCA36BE26B9A4206D3616BF2
:1024E000591803D204F13400FFF737FFE36B226C75
:1024F000591C52F82330E1631F605E601D72F8BD05
:102500002DE9FF47CF6B06460D4601AC3FB94FF4AE
:102510007A7008F01BFE01976760A76047E00B6CBC
:102520000DF110081B6893E8070084E807000023FA
:1025300008F80D3D08F0D2FC81460027EB6B9F4266
:1025400063D22B6C4FEA870A53F827301868037C54
:10255000002B34D0036800221B684146984770B3B3
:10256000EB6B9F422DD22B6C53F80A3093E8070097
:1025700084E807009DF8032021462846FFF766FF00
:1025800009F0AEFB4FF47A7200230CF075FED5E92A
:10259000222380185941C5E92001029806F0BBFAB0
:1025A0000746029806F0BAFA013887420CDB94E835
:1025B000070086E80700304604B0BDE8F087013721
:1025C000BCE705F14403D1E7D5E92223134324D026
:1025D00009F086FB4FF47A7200230CF04DFED5E92A
:1025E0002023994208BF904217D309F079FB4FF49A
:1025F0007A7200230CF040FED5E92223801859415D
:102600000023C5E920010193D1E708F067FC81456B
:10261000C3D1022008F09AFDBFE79DF803300A2BD2
:1026200088D1C4E7F0B5054685B020480EF0E0FB40
:10263000294601A8FFF764FF019C1CB91C480EF055
:1026400049FC30E0029E304606F065FA00282ADD9B
:1026500009F046FB0746F8B1B5F8743005F15000B3
:102660000133A5F874302246314605F0AFFC114B1A
:1026700000251868009023681DF805105B684FF06E
:10268000FF32204601359847042DF4D109F028FB8C
:10269000C11B09480EF0ACFB304606F041FA236836
:1026A00020469B689847012005B0F0BDD46F02001A
:1026B00049650200A46F0200DA6F020038B5064CCB
:1026C000236833B92C20FDF7DBFD054607F092FAAD
:1026D0002560206838BD00BF28C3072010B5044618
:1026E000FFF7ECFF03682146BDE810405B684FF040
:1026F000FF32184713B5002302AC04F8013DFFF781
:10270000DDFF03684FF0FF321B68214698479DF8B4
:10271000070002B010BDFFFF2DE9F04100F15004A9
:102720008AB000250646009520465B4B5B4A5C4913
:1027300005F06CFB009520465A4B5B4A5B4905F05F
:1027400065FB009520465A4B5A4A5B4905F05EFBF3
:1027500000952046594B5A4A5A4905F057FB0095B7
:102760002046594B594A5A4905F050FB00952046DE
:10277000584B594A594905F049FB00952046584B9A
:10278000584A594905F042FB00952046574B584A94
:10279000584905F03BFB00952046574B574A58498E
:1027A00005F034FB00952046564B574A574905F033
:1027B0002DFB00952046564B564A574905F026FBFF
:1027C00000952046554B564A564905F01FFB00958B
:1027D0002046554B554A564905F018FB00952046B2
:1027E000544B554A554905F011FB00952046544B72
:1027F000544A554905F00AFB00952046534B544A6C
:10280000544905F003FB00952046534B534A544965
:1028100005F0FCFA00952046524B534A534905F007
:10282000F5FA00952046524B524A534905F0EEFA0C
:102830000095524B524A5349204605F0E7FAFFF7FC
:102840003DFF4FF4807320224FF41641054607F0F8
:10285000B1F9804601272F744B48FDF78BFD4B489B
:10286000FDF782FD3A4629463046FFF729FE082249
:1028700003A905A806F028F905A8454906F096FB26
:102880002A4605A9204605F0A1FB05A806F031F966
:1028900040460AB0BDE8F081F06F020032700200DD
:1028A0003D05010027700200377002002506010077
:1028B0003F7002004D700200A50F0100547002002D
:1028C00095700200490601009A700200F67002003D
:1028D0001D090100FA700200887102009D080100C4
:1028E0003C710200877102001D0D01008B71020016
:1028F000B9710200210A0100BC710200E1710200FD
:10290000990B0100E771020014720200110C010022
:1029100017720200B98A02006D0C01003C720200BD
:102920005F720200D50B0100627202003573020073
:1029300049110100397302007C7302005D0E010031
:1029400084730200977302001D0F01009E73020042
:102950009D7402000D070100A1740200C9740200F9
:102960004D0F0100CF740200356C020061170100A9
:10297000F9740200ED75020095130100B6750200AE
:102980009B620200E1120100F5260100DD26010034
:102990002569020008B5044802F006F800F0E4FCDE
:1029A00000F0F6F9012008BD60C307200120704740
:1029B00008B500F011FC00F0BDF900F067FBBDE8C0
:1029C000084000F047BB08B500F0DCFC00F07CFBE1
:1029D00000F0E8FCBDE8084000F08EBA00F0F0B965
:1029E0007047FFFF10B5064C3D21204601F0B4FFB3
:1029F0002046BDE81040034A0349FDF7A3BC00BFD1
:102A000060C3072014C307200D4A01007047FFF779
:102A1000C1BFFFF7CBBF10B50446FDF733FC20461E
:102A200010BDFFFF70B50B4E05010B4B741953F829
:102A30002010201D08F05EFBE368A0689847A3689B
:102A400070590133A36000231A46BDE8704019464F
:102A500007F08EBEE8C30720C476020008B5002048
:102A6000FFF7E0FFFBE708B50120FFF7DBFFFBE71F
:102A700008B50220FFF7D6FFFBE708B50320FFF7F4
:102A8000D1FFFBE7F7B507460D462D4A00240D237D
:102A900012682C49009405F0F1FF2B4B87F8315058
:102AA0003B602A4D2A4B0322EB602A4B2146EB6107
:102AB000294B0120EB62294BEB6307F037FE032221
:102AC00028602146012007F031FE032228612146BB
:102AD000012007F02BFE224B28621E680523C6F357
:102AE0008F060093324623461E4901941E4808F083
:102AF000AFF806230093324623461C4901941C4834
:102B000008F0A6F80723009301942346324619499A
:102B1000194808F09DF897F8313073B10322214627
:102B2000012007F003FE0823286332460093019436
:102B300023461249124808F08BF8384603B0F0BD1E
:102B40001476020028760200DC760200E8C3072033
:102B5000B1290100C7290100DD290100E129010097
:102B6000107602002F7602005D2A01003376020003
:102B7000672A010038760200712A01003E760200C1
:102B80007B2A010038B517480C46415C002301310F
:102B9000C9B2914202D00155184638BD124D0355B5
:102BA000200128581A46194607F0E8FE0546B0B934
:102BB0000E4B53F8244020460EF08CF920460EF0C0
:102BC0008BFC2B4602462146094802F077F9094A58
:102BD000094B9A644FF08043AA221A721D7001209B
:102BE00038BD00BF28C40720E8C3072018760200BC
:102BF00045760200EFBEADDE00400240044608B557
:102C0000012008F0A3FA94F8313023B10122032106
:102C10002046FFF7B7FF0A2202212046FFF7B2FF46
:102C20000028EDD00A2201212046FFF7ABFF002843
:102C3000E6D00A2200212046FFF7A4FFE0E7FFFFCD
:102C400007B5002302AA22F8043D02231946C0203A
:102C500000F0DAFA70B19DF805309DF8040003EB3E
:102C600000200BF041FC0022044B0BF0CDFD0BF0DB
:102C700099FF00E0002003B05DF804FB0000244051
:102C800007B5124B00211A889B78ADF804208DF807
:102C9000063001AA0123C02000F0C5FA1E2006F06C
:102CA0009CF90DF1050201230021C02000F0BBFAC0
:102CB0001E2006F092F901230DF106020021C0202A
:102CC00000F0B1FA03B05DF804FB00BFF476020037
:102CD00007B5F82302AA02F8043D00210123C02011
:102CE00000F0A1FA03B05DF804FB13B5202302AC99
:102CF00004F8043D224601230021C02000F093FA8D
:102D00001E2006F06AF92A2322468DF8043000219D
:102D10000123C02000F087FA1E2006F05EF9602330
:102D20008DF80430224601230021C02000F07BFAF8
:102D300002B010BD08B500F0B2FA0138072825D856
:102D4000DFE800F0040C24142424241C012108468C
:102D500000F078FABDE80840FFF792BF0121022099
:102D600000F070FABDE80840FFF7B2BF0121032070
:102D700000F068FABDE80840FFF7B7BF0121042062
:102D800000F060FABDE80840FFF75ABF08BDFFFF3A
:102D900013B564230024019400941A461946204672
:102DA00006F056FA18B1204606F0C0FB0120034B8E
:102DB0001A7860F300021A7002B010BD3CC40720FC
:102DC00030B585B000F0DAFC044600F0DDFC0021EF
:102DD000054620460CF0D8F93F4A137810B143F06D
:102DE000180303E060F3041360F3C30313700021BE
:102DF000102268460CF06FFE384920460CF0CEF9E0
:102E000030B9374920460CF0E7F910B1344C00E0F6
:102E1000324C20460BF07AFB0022324B0BF018FAB2
:102E20002BA3D3E900230BF0EFFC2F4B00220BF078
:102E30000FFA0BF097FE20F07040030A8DF808009F
:102E40008DF80930040E030C284928468DF80A3005
:102E50000CF0A4F930B9264928460CF0BDF910B1A0
:102E6000234D00E0214D28460BF050FB0022214B62
:102E70000BF0EEF916A3D3E900230BF0C5FC0022FA
:102E8000194B0BF0E5F90BF06DFE20F060431A09C9
:102E90008DF80C201A0B8DF80D201A0D1B0F8DF8D4
:102EA0000F306C2301939DF802308DF80E2008221C
:102EB00062F3030344EA001000228DF80B00694618
:102EC00010468DF8023006F0DFFA05B030BD00BFC5
:102ED0008DEDB5A0F7C6B03E3CC407200000B4C2DB
:102EE0000000B442008056400000E03F000034C3C0
:102EF0000000344300806640F0B585B01022002108
:102F000068460CF0E8FDFFF79BFE4D4F4D4E054621
:102F10003968306800F0D4FA0021044628460CF0E5
:102F200033F9494B1A7810B142F0200201E060F306
:102F30004512396830681A7000F072FB00230646AB
:102F4000002120468DF80F308DF80E300CF026F958
:102F500000B1002420460BF0D9FA33A3D3E90023B3
:102F60000BF0B8FD00B1394C20460BF0CFFA30A37E
:102F7000D3E900230BF048FC0022354B0BF068F935
:102F80000BF0F0FDC0F30B008DF80800040A0021DF
:102F900028460CF003F900B1002528460BF0B6FADC
:102FA00021A3D3E900230BF095FD00B1274D28465E
:102FB0000BF0ACFA1EA3D3E900230BF025FC002292
:102FC000234B0BF045F90BF0CDFD44EA001400094A
:102FD0008DF80A0030468DF809400BF097FA16A3D9
:102FE000D3E900230BF010FC0022194B0BF030F951
:102FF0000BF0B8FDC0F31000030A8DF80C306D2300
:1030000001939DF80230082262F303038DF80B0050
:103010000022000C8DF80D00694610468DF8023034
:1030200006F032FA05B0F0BD66666666667E7640EA
:103030009A9999999999B93FFCA9F1D24D62503F5B
:103040002CC4072038C407203CC4072033F3B34303
:103050000000E03F1FB51022002168460CF03BFD48
:10306000094B00221B78694603F03F038DF80830B6
:1030700076230193104601238DF8023006F004FAFE
:1030800005B05DF804FB00BF3CC407201FB510224B
:10309000002168460CF01FFD7122019200220123DD
:1030A000694610468DF808308DF8023006F0ECF9CC
:1030B000044A137860F34103C3F34000137005B072
:1030C0005DF804FB3CC4072030B585B0002269469A
:1030D000104606F085F900286AD0019A9DF8023062
:1030E0006B2A03F00F0316D06E2AEFD1012B344B5D
:1030F00009D11A789DF8081061F300021A705A6815
:103100006FF35F025A601B78DB07DFD501210420D3
:1031100000F098F8DAE7082B2A4C42D19DF80A20F3
:103120009DF80B509DF8093012049DF8081042EAF2
:10313000032328060B4300F0706018430BF0C4F91A
:103140001DA3D3E900230BF035FA00221E4B0BF030
:103150007DF80BF027FD9DF80C3020601B019DF8D9
:103160000D0043EA151343EA00339DF80E0043EACD
:1031700000539DF80F00000700F0805018430BF03B
:10318000A3F90DA3D3E900230BF014FA0F4B00228F
:103190000BF05CF80BF006FDA36860606FF35F0353
:1031A000A36022680A4B1A6062680A4B1A608DE7B6
:1031B00005B030BDAFF300808DEDB5A0F7C6B03ED1
:1031C00030C4072040C4072000805640008066407D
:1031D00038C407202CC4072008B5002006F046F9A3
:1031E000084B1A7848B142F0040200201A7006F029
:1031F0009DF9BDE8084006F0A5B960F382021A7097
:1032000008BD00BF3CC40720F7B50D4616461F4653
:103210000446FDF7B7FE009733462A46214606F0DE
:10322000A3FE03B0F0BDF7B50D4616461F46044693
:10323000FDF7A8FE009733462A46214606F0A5FE74
:1032400003B0F0BDF8B5084C064625680F4625B911
:103250000120FDF715F8057020603A4631462068D8
:10326000BDE8F84001F018BD50C3072010B5044672
:10327000FEF742FD2146BDE8104001F059BC10B5F3
:103280000446FEF739FD2146BDE8104001F05CBC64
:1032900008B5FEF731FDBDE8084001F07DBC08B57A
:1032A000FEF76AFDBDE8084001F002BD2DE9F041DE
:1032B0000A4C054623680E4617463BB92C20FCF7FE
:1032C000DFFF804606F0EAFCC4F800803B46324649
:1032D00029462068BDE8F04106F0C0BC4CC4072078
:1032E00038B5064C236833B92C20FCF7C9FF0546D6
:1032F00006F0D4FC2560206838BD00BF4CC4072010
:1033000038B50D460446FFF7EBFF2A462146BDE8D7
:10331000384006F02DBD70B50D4616460446FFF741
:10332000DFFF33462A462146BDE8704006F02EBD39
:1033300008B51E210848FFF7E3FF0A210748FFF7F9
:10334000DFFF0A210648FFF7DBFFBDE808400A213E
:103350000448FFF7D5BF00BFF776020009770200E7
:103360003B7702004B77020008B5FFF791FF3C2244
:1033700078214FF46140FFF799FFBDE80840FFF75F
:10338000D7BFFFFF08B5322278210548FFF7C3FFFA
:1033900028B1BDE8084001210220FFF753BF08BD56
:1033A0006CC307202DE9F0413F4C86B006223F490F
:1033B00020460CF05BFB3E4F05463E4E002865D193
:1033C000A37C412B62D1A37F4E2B5FD194F82B308D
:1033D000572B5BD13020FFF749FF4620FFF74FFF07
:1033E00022466B4652F8140FADF808505168127A15
:1033F00003C354F8200F1A70616803ABCDF8135063
:1034000003C3228968461A800CF0CDF80BF0CAFB82
:10341000294980460BF0D8FD0BF0E8FE64250446F0
:1034200068430BF0C9FC014640460BF00FFC2349F2
:103430000BF0CAFD804620460BF0BEFC014640461C
:103440000BF006FC386003A80CF0ADF80BF0AAFBFB
:10345000194907460BF0B8FD0BF0C8FE0446684357
:103460000BF0AAFC014638460BF0F0FB13490BF0B9
:10347000ABFD054620460BF09FFC014628460BF0AD
:10348000E7FB00F100403060012009E03020FFF749
:10349000EDFE3020FFF7F3FE00233B603360002099
:1034A00006B0BDE8F08100BF6CC30720637702005F
:1034B000E4C3072068C307200000C8420000704230
:1034C0002DE9F04F0E4685B0002104460BF05CFE5E
:1034D00030B1002130460BF057FE002840F08E80BE
:1034E00020460BF013F848A3D3E900230BF062F851
:1034F0000022474B0BF088F98046894609F080F995
:10350000444B04460D46304619680BF09FFB0AF009
:10351000FDFF3DA3D3E900230BF04CF800223C4B08
:103520000BF072F9CDE9020109F0B2F93A4BCDE99D
:10353000000118680AF0EAFF33A3D3E900230BF077
:1035400039F80022324B0BF05FF982468B4609F0C6
:1035500057F906460F464046494609F099F9804614
:1035600089465046594609F093F982468B46DDE973
:10357000020109F045F94246CDE902014B463046C9
:1035800039460BF017F8524606460F465B46204672
:1035900029460BF00FF8DDE902230BF00BF8024689
:1035A0000B46304639460AF051FE0BF0FBFA0AF0A2
:1035B000ADFFDDE9002306460F46204629460AF006
:1035C000F9FF0BF0EFFA0AF0A1FF32463B4609F093
:1035D000A7F900220E4B0AF0EDFF0BA3D3E900235D
:1035E0000BF012F90BF0DEFA002104460BF0D6FDC9
:1035F00030B10A4920460BF02BFB02E0002000E02E
:10360000204605B0BDE8F08F6E861BF0F921094019
:103610000080664068C30720E4C307200000B4436D
:103620002DE9F84F504B0D461C68064621460BF01D
:103630000DFB0AF06BFF00224C4B0AF0BBFF44A3CA
:10364000D3E900230AF0B6FF09F022F9824630469A
:103650008B460AF05BFF40A3D3E900230AF0AAFFE0
:103660000022434B0BF0D0F809F0CAF8064620467A
:103670000F460AF04BFF38A3D3E900230AF09AFF64
:1036800000223B4B0BF0C0F809F0BAF8394B8046EA
:103690008946284619680BF0D9FA4FF07C510BF097
:1036A000DFFB0AF033FF2AA3D3E900230AF082FFED
:1036B00009F0EEF802460B460AF07CFF424604464B
:1036C0000D464B46304639460AF074FF02460B461B
:1036D000204629460AF06EFF524604460D465B46D8
:1036E000504659460AF066FF02460B4620462946D8
:1036F0000AF0AEFD0BF056FA06460AF007FF09F095
:1037000011F904460D464FF07E5031460BF09EFAFB
:103710000AF0FCFE09F006F902460B46204629464F
:1037200009F0FEF802460B460AF092FD0BF03AFA59
:103730000AF0ECFE0AA3D3E900230AF03BFF0022C3
:103740000D4B0AF037FF0BF02DFABDE8F88F00BFE4
:1037500070E20DA545DF913F6E861BF0F92109400F
:103760000000000000E3B840E4C307200000E03F91
:103770000080664068C3072000408F40014B1868F6
:10378000704700BFE4C30720014B1868704700BFB3
:1037900068C3072010B59020FCF772FD0446032192
:1037A000FEF7FCFD204605F03BF93420FCF768FDF0
:1037B00004460021FFF766F9204605F031F90021A3
:1037C000084605F03BF94FF0FF3010BD10B54FF63D
:1037D000FF74242303FB0101884209D043782BB1F5
:1037E000038C1344A34228BF234603842430F3E709
:1037F00010BDFFFF37B5002302A840F8043D0C4B75
:1038000004215B6898470B4B019A1C680546141B02
:103810001A60042122460848FFF7D8FF22460221F9
:103820000648FFF7D3FF281C18BF012003B030BDA6
:1038300050C4072020C5072064C407203DC50720C9
:1038400008B50B4B197803788B420A4B0BBF1A88CB
:103850009A880132013214BF9A801A80064B817017
:10386000DB6820219847003018BF012008BD00BF49
:1038700005C00720F5C4072050C407200A4B027872
:103880001B789A42094B0BBFDA881A890132013240
:103890000CBFDA801A810379C3F3C202073262F3E4
:1038A000C5030371FFF7CCBF05C00720F5C407208F
:1038B00010B50749002311F823409A00844202D131
:1038C0000348104410BD0133042BF4D1002010BD77
:1038D0000FC5072070B1C3780133DBB2FF2BC37073
:1038E00008D105480023C118CA7804335208102BA8
:1038F000CA70F8D1704700BF0FC50720242202FB11
:1039000001010346024630B5914206D014462432E6
:1039100012F8235C002DF7D10FE0044600259942F0
:103920000BD01A79C2F3C2001A8C42EA0042AA42B2
:1039300084BF1C4615462433F1E7204630BDFFFF07
:1039400038B50546C90001F10804FFF753FF1C4BC9
:103950002A781B789A4204D102211A48FFF7CEFF39
:103960000CE004211848FFF7C9FFEB7833B990F851
:103970002330042443F0800380F82330002380F8B0
:10398000203080F8213002462B4690F8231080F832
:10399000224021F07F01C4F306240C4380F8234029
:1039A00005F1200153F8044B8B4242F8044BF9D146
:1039B000064A0379127862F3C503037138BD00BF6C
:1039C00005C007203DC5072064C4072004C00720A8
:1039D00008B5FFF76DFF0346D8B9FFF769FF034647
:1039E000B8B90D4AD378D179D07A8B4296BF1946AF
:1039F000131D1346814294BF0846084BD17B084AE9
:103A0000814238BF1346074900221A60CA7A013240
:103A1000CA72184608BD00BF0FC5072017C507208A
:103A20001BC50720F5C407202DE9F84F05460C46B5
:103A30004FF0240909FB0219DFF868A1DFF868B12B
:103A40004E1C4FF000084C4500F09A8094F823304B
:103A50001A0624D5B5B12A7861788A4205D16F78E3
:103A600016F8010C874200F08D80E87850B1687834
:103A7000884207D116F8011C914203D1A979A27995
:103A800091427FD094F82220218C03F07F0342EAF8
:103A90000323994271DB2046FFF7D2FE72E0627881
:103AA000002A6AD06DB3297901F0C001C02917D16D
:103AB00016F8010C6978884202D12878904261D0CA
:103AC000E778A87887420CD191420AD116F8010C08
:103AD0002978884205D1A079A979884201D151E09D
:103AE00079B1A878E17888420BD16978914208D100
:103AF00016F8010C2978884203D1A079A979884267
:103B000046D094F82210208C03F07F0341EA03236F
:103B1000984232DB237984F82080C3F3C201CFB20C
:103B200084F821801FB12046FFF7A8FE25E003F0AE
:103B3000C003C02B19D016F8010C9AF80030984237
:103B400013D1E3789A4210D07BB16379032262F3F8
:103B500007136371E1702046FFF790FE23799BF80D
:103B6000002062F3C503237100E001276078FFF7AE
:103B70009FFE08B1C0F8008027B92434243662E7DC
:103B8000BDE8F88F2422002120460BF0A4FFF4E7C3
:103B9000237984F820806FF3C50384F82180237192
:103BA000EBE700BF05C0072004C00720431EDBB2BF
:103BB000FD2B9DBF024B187001200020704700BFF5
:103BC00005C00720014B1878704700BF05C00720CB
:103BD00007289CBF014B1870704700BF04C0072026
:103BE0002DE9F743044691461E469DF828500F469E
:103BF000002966D0364B93F80080414563D00F2EE4
:103C000061D8002861D0202200210BF064FFFF2F33
:103C1000237914BF09F00302002262F38713032201
:103C200062F302032B4A6770127884F8008062F313
:103C3000C503294A2371137884F802800133DBB26B
:103C40001370A3710BAB019315B94FF001081BE082
:103C500004F10809019AE0791346526853F8081BE9
:103C600000EB02085FFA88F8013DB8F1180F0193E4
:103C7000EDB207D848440BF008FF84F80780002D08
:103C8000E8D1E2E74FF00008DFF850900123384612
:103C900089F80030FFF70CFE0546FFF71BFE0023F6
:103CA00089F80030637925B966F307136371E5700D
:103CB00005E0AA7862F3071363716B78E3704046FE
:103CC00003E0084601E00020FFE703B0BDE8F08311
:103CD00005C0072004C00720F4C4072001C5072041
:103CE000124B012270B51A7004461E4608B9002511
:103CF00018E0FFF7A5FD05460028F8D0237903F06A
:103D0000C003402B06D0C02B0AD1E37853B16278B0
:103D10009A4207D0617920460909FFF711FE01E0B8
:103D2000802BF7D000233370284670BD01C50720D3
:103D300082B02DE9F0439146421ED2B28DB0FD2AE9
:103D400005460E4615939DF8688001D9002057E07E
:103D5000002BFBD0179F002FF8D0199B002BF5D01C
:103D6000189B002BF2D0169B002BEFD0482200218D
:103D700026480BF0B0FE9022002125480BF0ABFE48
:103D80001022002123480BF0A6FE234B00241C60C8
:103D90005C609C60214B1C605C609C60204B1D70D3
:103DA000204B214D1E7015AE0FCE0FC53368182263
:103DB00021461E482B600BF08EFE494617221B48F9
:103DC0000DF0D0FB21462046B8470028BED0B8F100
:103DD000000F02D1FFF70EFD12E006230293144BF1
:103DE0002246019301230093FF2104A8FFF7F8FE68
:103DF0000028ABD004A8FFF773FF0028A6D0E9E79E
:103E00000DB0BDE8F04302B0704700BF3DC50720CC
:103E100064C407200FC5072003C50720F5C4072089
:103E200005C0072002C5072050C4072024C507206D
:103E30006A77020030B5182B8DB016D8B2FA82F42A
:103E40001D1C18BF01256409AC420ED002930192DB
:103E500000950A469DF84030014604A8FFF7C0FED1
:103E600018B104A8FFF73CFF00E000200DB030BD02
:103E700013B5537914781B09009302460B4620466C
:103E80000321FFF7D7FF02B010BDFFFF00231A4642
:103E900030B5084C14F82350990035B1904202D146
:103EA0000448084430BD0132D2B20133042BF1D1B1
:103EB000002030BD0FC5072000231846044A12F821
:103EC000231009B10130C0B20133042BF7D1704780
:103ED0000FC507202DE9F04188B020220021684657
:103EE0000BF0F9FDA14B1B7803F0FF04002B40F011
:103EF00039819F4F20213B6968469847002800F090
:103F000084809C4D6B8801336B80FFF7D5FF9DF853
:103F10000420A87202F00703032B04D0964A1378FA
:103F200043F0010309E0954B1D789DF80230AB4248
:103F300005D1914A137843F002031370E4E0C2F311
:103F4000C2029DF800E09DF806008D49D6B204EB50
:103F5000440313F801C0F4450BD10B4493F801C09E
:103F6000844506D1997801248E1B18BF01269A70CA
:103F700018E00134042CEAD182490B689A70804A17
:103F8000587002F10900834283F800E040F0C980D4
:103F90000A609DF800009DF80230834240F0C48022
:103FA000002426469DF80200FFF712FD9DF802202E
:103FB00002709DF80220427000228270FFF78AFC96
:103FC00004B116B39DF80030AB4200F09C809DF820
:103FD0000160FF2E1BD13B6820216846984720B91D
:103FE000654A137843F0040313709DF8053003F01D
:103FF0000F02511C61F303038DF80530C3F3031363
:104000009A4202DA6846FFF71BFC00247CE0B542C6
:104010002BD164B99DF807304BB13B68202168462D
:10402000984720B9544A137843F0040313709DF85D
:10403000043003F0C003402B12D19DF807306A46CC
:1040400013B91821504808E00C214A48FFF710FF27
:10405000002858D100216A460846FFF709FF52E0C0
:104060009DF80330002B4ED1F4E7484B1B78002B12
:10407000CBD09DF8054004F00F074FEA14184745D0
:10408000C3DA013767F303043046FFF711FC8DF8FC
:1040900005409DF80340A54221D19DF8041001F090
:1040A000C001402906D0A1F180035A425A4114466A
:1040B00010B90CE0012260B1C029437805D19E42BD
:1040C00003D0003318BF012304E0002302E0C0291D
:1040D0000ED10346134303F0010420B908E094B95C
:1040E00008B941460CE043788DF80330857802E04A
:1040F00000258DF803506846FFF7A2FB1CB1294646
:104100006846FFF71DFC6C46FFF774FB204604224F
:104110001F49FFF789FC02221E492046FFF784FC55
:1041200020E003330B6034E785423FF439AFFFF7FB
:104130004FFC0446FFF7CEFB23783BB19DF80530DA
:10414000A27803F00F0393423FF72AAF9DF80030A7
:1041500023709DF8023063709DF80530C3F30303AC
:10416000A3701DE708B0BDE8F08100BF01C50720BE
:1041700050C40720F5C407203CC5072005C0072010
:1041800003C5072000C0072024C5072002C507205B
:1041900064C407203DC5072000231846094AD118EA
:1041A000497809B10130C0B22433902BF7D1064BC6
:1041B0005A780AB10130C0B293F825300BB1013002
:1041C000C0B2704764C407203DC5072008B5FFF79B
:1041D0006FFB064B28B18278187802FB0000C00004
:1041E00008BD18781823584308BD00BF04C0072035
:1041F00003490B6803604B6843608B6883607047BA
:10420000F5C4072070B53E4C4FF48035E5613D4C58
:10421000A0602046C5683B4CED06FBD4A0680D4667
:10422000C0B20BB923465FE02346002A63D0072AB9
:104230000E782DDD9E604E78083A9E608E789E60E6
:10424000CE789E600E799E604E799E608E799E60DB
:1042500001F10806C979996099694907FCD5A168F7
:104260002970A1686970A168A970A168E970D9680E
:10427000C906FCD4A168083505F8041CA16805F836
:10428000031CA16805F8021CA16805F8011C1AE0CE
:10429000032A1ADD9E604E78043A9E608E789E60F6
:1042A0000E1DC9789960D968C906FCD4A168043587
:1042B00005F8041CA16805F8031CA16805F8021C98
:1042C000A16805F8011C3146AFE701319E60013A53
:1042D000DE68F606FCD4A668013505F8016CA4E793
:1042E000E668F606FCD4A6686E1AB24203DD15F83D
:1042F000016B9E60F4E7024B4FF480329A6170BD0F
:1043000000C009200080084007B5002302A901F879
:10431000013D01231A4600F01F00FFF773FF9DF8CF
:10432000070003B05DF804FB13B502AC04F8011DEF
:1043300000F01F0000230122214640F02000FFF77B
:1043400061FF02B010BD08B51720FFF7DDFFC0F315
:10435000001008BD70210720FFF7E6BF0A460023C2
:104360000146A020FFF74EBF08B50020FFF7CCFFA5
:10437000BDE8084000F0FE010020FFF7D5BFFFFFB9
:10438000024B4FF08072DA61704700BF20C00920F5
:1043900008B50020FFF7B8FF40F00101C9B20020C6
:1043A000FFF7C2FF024B4FF080729A6108BD00BF59
:1043B00020C0092020210720FFF7B6BF00231A469E
:1043C0001946E120FFF71EBF37B504460D46FFF73B
:1043D000F5FF20462946FFF7C1FF0D4B4FF08072D5
:1043E0001C469A610022ADF80620BDF80630013364
:1043F0009BB2ADF8063033B94FF08073E361FFF73D
:10440000DDFF03B030BDFFF79EFF0028EDD0F3E7DE
:1044100020C0092008B51720FFF776FF00F0010043
:1044200080F0010008BD40210720FFF77DBF08B5DF
:104430000A46012301466120FFF7E4FEC0F3420073
:1044400008BD00231A461946E220FFF7DBBE70B50F
:10445000064600200D461446FFF756FF16B100F041
:10446000BF0002E040F04000C0B215B100F0DF0133
:1044700001E040F0200114B101F0EF0101E041F052
:1044800010010020BDE87040FFF74EBF10B5044694
:104490000020FFF739FF14B900F0F7010DE0012CFF
:1044A00004D100F0FB0141F0080106E0022C14BF2A
:1044B00040F0080140F00C01C9B20020BDE81040F6
:1044C000FFF732BF08B50020FFF71EFFBDE8084028
:1044D00040F00201C9B20020FFF726BF08B5002056
:1044E000FFF712FFBDE8084000F0FD010020FFF7D4
:1044F0001BBF40F6DD13984206D840F66213B0F5B4
:10450000166F38BF184600E01846A0F51661C9B20C
:104510000520FFF709BF10B504460620FFF7F4FE9B
:10452000FA2C00F0D70102D141F0200104E0B4F5EB
:10453000FA6F08BF41F008010620BDE81040FFF700
:10454000F3BE10B504460620FFF7DEFE032C28BF9D
:10455000032420F0060040EA4401C9B20620BDE869
:104560001040FFF7E1BEF9284FF0FA0305D9B0F586
:104570007A6F88BF4FF47A6000E01846B0FBF3F022
:104580000F2900F1FF30C0B228BF0F2141EA00110E
:10459000C9B20420FFF7C8BE1130C0B2162804D833
:1045A000202928BF2021FFF7BFBE7047032804D071
:1045B000042814BF0321022100E001210320FFF79A
:1045C000B3BE0A46002301463020FFF71BBE0A4651
:1045D000002301462A20FFF715BEFFFF73B50E46E4
:1045E00015460446FFF72DFFFFF7E8FE2B4B4FF073
:1045F0008072DA61FFF772FF002211460120FFF797
:1046000026FFFFF7A7FE0220FFF740FF3046FFF727
:1046100070FF2846FFF77FFF0320FFF792FF03217B
:104620000220FFF781FE00210120FFF77DFE03211C
:104630004FF4FA70FFF797FF21460020FFF7ACFF19
:1046400000211220FFF770FE00211320FFF76CFEFF
:1046500000211420FFF768FE00211520FFF764FEFB
:1046600000211620FFF760FE0D4B18681B790090A3
:1046700005208DF80430FFF799FF68460521FFF704
:10468000A0FF05216846FFF7A2FFFFF71BFF4FF4CD
:10469000FA6004F08DFC02B070BD00BF20C009209C
:1046A0007177020070B5174E326822B920210320BD
:1046B00006F03CF83060144D2A6822B92021012010
:1046C00006F034F82860114C216821B9032201203A
:1046D00006F02CF820604FF4FA6240F6C311202057
:1046E000FFF77CFFFFF754FE1620094A012104F072
:1046F000A1FF306828B1286818B12068003018BFC1
:10470000012070BD8CC5072088C5072090C50720F3
:10471000BD47010070B50379014603F0C003C02B0B
:104720000CBF0E4B0E4B88B01D68002306461A4680
:10473000284606F01DF8044660B90346024669465D
:10474000284606F01BF9234622463146284606F045
:104750000FF80446204608B070BD00BF88C507208A
:104760008CC5072038B504460D46FFF72BFA237891
:1047700083420AD0E37843B90CF0DCFBBD2300F0A0
:10478000030000FB033004F013FCFFF7F9FDFFF713
:10479000EBFDA9B22046FFF717FEFFF70BFEFFF770
:1047A000F7FD06F0EFFE022804D1034B0021186844
:1047B00006F0B2F8012038BD90C5072007B50023E8
:1047C00002A941F8043D084B186806F0A5F8019BC2
:1047D0003BB1064B4FF080521A60BFF34F8FBFF3CF
:1047E0006F8F03B05DF804FB90C5072004ED00E077
:1047F00038B504460D46FFF70DFE48B1A9B2204674
:10480000FFF715FEFFF706FE08B9FFF70CFE0120C3
:1048100038BD2DE9704305460E46144606F0B2FE3B
:10482000022807D1224600233146284606F0A6F882
:10483000C4B21DE007F054FA4FF47A7200230AF074
:104840001BFD10EB040841F1000900231A46314614
:10485000284606F093F8C4B254B907F041FA4FF471
:104860007A7200230AF008FD894508BF8045ECD222
:104870002046BDE87083042938B5054603D1041CE1
:1048800018BF012400E0002407F02AFA2CB14FF4ED
:104890007A7200230AF0F0FC2860204638BDFFFF42
:1048A00000B50C4B8DB009930B4B0C4A0B930C4B82
:1048B0000A930CAB43F8102D002204920FCB8DE825
:1048C0000F00084B084A01216A20FFF731FA0DB0AA
:1048D0005DF804FBA5460100F1470100774801009F
:1048E000654701001547010076770200024B0A4632
:1048F00001461868FFF78DBF8CC50720024B0A469A
:1049000001461868FFF785BF88C5072008B506F07F
:1049100039FE0F4B02285B6913D15A020DD5FFF700
:104920003BFC00280B484FF0000314BF01224FF05E
:10493000FF321946006806F021F8BDE80840FFF78D
:10494000C9BA5B02F9D5FFF727FC0028F5D108BDED
:1049500000C0092090C50720F0B5864687B0114FEA
:104960004C1101F01F0501AE457004700FCF0FC64A
:1049700070463B680321336006AB03EB840353F8B6
:10498000143C6D00CEF80430E30003F1804303F5DE
:1049900030331A6801FA05F522EA05051D6007B0F3
:1049A000F0BD00BF7C770200416840780A680123AF
:1049B000834022EA03030B607047FFFF30B5437862
:1049C0000578064C5B0054F83520032101FA03F307
:1049D00022EA030344F8353030BD00BF40C0024036
:1049E00010B5094A04780123407821B152F8241007
:1049F00083400B4304E052F82410834021EA030370
:104A000042F8243010BD00BF68C0024010B5044613
:104A1000FFF7CAFF00212046FFF7E2FF2046FFF71D
:104A2000CDFF204610BD13460A460179006805F007
:104A3000B0BA1FB5002204AB047923F8042D02227A
:104A4000009200680A46214605F08EFA9DF80C0097
:104A50009DF80D3043EA002004B010BD10B50446A7
:104A600019222A21FFF7DFFF0D222179206805F0A6
:104A70007FFAA0F12A035842584110BD044A138816
:104A80001F2B9FBF581C1080024A42F8231070470A
:104A900098C507209CC50720154AF0B5138816460F
:104AA000012B21D9134A00201546013B984206DA12
:104AB000516814680130091B42F8041BF6E7002115
:104AC0000C466A684FF0010E02EB52008AB2934224
:104AD00008DD55F822700131B8423CBF0EFA02F2EF
:104AE0001443F3E7044B1C6000233380F0BD00BF88
:104AF00098C507209CC5072094C5072008B501214B
:104B0000022007F087F8084B01209A6A22F007027A
:104B10009A629A6A42F006029A62044AD36843F0A3
:104B20003003D36008BD00BF0080004000C00240D9
:104B300008B5044B417101F07F015A5C0321FFF776
:104B400072FF08BD9077020008B5044B817101F037
:104B50007F015A5C0221FFF766FF08BD90770200D3
:104B600038B504460179006805F01EFA054688B19B
:104B7000002206212046FFF756FF0022072120468B
:104B8000FFF751FF2E212046FFF7D2FF2E212046AE
:104B9000FFF7DAFF284638BD10B504462021FFF79D
:104BA000C7FF2046BDE810402021FFF7CDBF64239A
:104BB00070B5B1FBF3F404FB1311CCB20A21B4FBC2
:104BC000F1F501FB15413031C9B20646FFF7BCFFD4
:104BD000092C88BF05F130013046BDE8704094BF14
:104BE0002021C9B2FFF7A4BF0120704738B50D4698
:104BF000044606F0F9FD05F00F032370114B15F084
:104C0000010F4FF0010214BFDA619A61227812F0AD
:104C1000020F4FF0020214BFDA619A61227812F09B
:104C2000040F4FF0100214BFDA619A61227812F07B
:104C3000080F4FF4807214BFDA619A61BDE8384002
:104C400006F0E2BD20C0092038B50D46044606F046
:104C5000CBFD691E012303FA01F123782046194395
:104C6000C9B22170FFF7C2FFBDE8384006F0CCBDE5
:104C700038B50D46044606F0B7FD691E012303FA58
:104C800001F12378204623EA01012170FFF7AEFFEE
:104C9000BDE8384006F0B8BD0AB1FFF7D5BFFFF751
:104CA000E7BF01207047022004F018BA01207047C6
:104CB000044B5B69180B00F00C00C3F3412318434D
:104CC000704700BF20C0092010B504468122012191
:104CD000FFF7A9FE01222179206805F049F910F0BB
:104CE000600F14BF0120002010BD38B5002104461C
:104CF000FFF79FFE812205B201212046FFF793FEB8
:104D0000102095FBF0F00AF057F84FF076510AF0BA
:104D1000A7F8A16809F09CFF38BDFFFF08B5FFF7B1
:104D2000E4FF05490AF09CF804490AF04DF94FF0F8
:104D3000844109F08DFF08BD000010410000A04033
:104D40002DE9F04FADF2546D0C469046014601221C
:104D500082A8994602F03EF8002867D121460A222F
:104D60000DF22C4002F036F8044620B182A802F081
:104D70009AFA20465AE06D4606460746286001909A
:104D800006F0AEFF4FF47A7200230AF075FA2B4654
:104D900083464FF4007202A982A802F0B5F8824659
:104DA000E0B92A68D2B106F09BFF4FF47A72002373
:104DB0000AF062FAB0EB0B00074406F091FF4FF4E3
:104DC0007A7200230AF058FA01AB83462A6802A9D6
:104DD0000DF22C4002F050F98246B0B1B8F1000F4C
:104DE00001D0C8F80070B9F1000F01D0C9F8006017
:104DF000DDF8783603B11C6082A802F054FA0DF297
:104E00002C4002F050FA504610E001992A68914275
:104E1000E4D106F065FF00234FF47A720AF02CFA11
:104E20002B68B0EB0B0006441C44A9E70DF2546D4F
:104E3000BDE8F08FF0B5ADF50B7D0E461746014687
:104E40001D460122002301A8009301F0C3FF044680
:104E500070B91DB1294601A802F037FA6B463A46EF
:104E6000314601A802F050F8044601A802F01BFAEE
:104E700020460DF50B7DF0BDF0B5ADF50B7D0E4672
:104E8000174601461D460A22002301A8009301F09F
:104E9000A1FF044670B91DB1294601A802F015FA18
:104EA0006B463A46314601A802F0E6F8044601A8EE
:104EB00002F0F9F920460DF50B7DF0BDF0B5ADF52A
:104EC0000B7D0E46174601461D461222002301A8FF
:104ED000009301F07FFF044680B90DB1294600E040
:104EE000049901A802F0F1F96B463A46314601A84F
:104EF00002F0C2F8044601A802F0D5F920460DF5EB
:104F00000B7DF0BD7F2810B516D931B1FF2812D81E
:104F10000A4B803833F8100010BD084A32F81140AF
:104F20008BB2844203D001318029F7D10B4603F1C3
:104F30008000C0B210BD002010BD00BF107802007C
:104F40000649002331F8132032B1824201D00133E7
:104F5000F8E7034A32F81300704700BF10790200E7
:104F6000F07A020010B501200C4605F085FC2060A7
:104F7000003018BF012010BD0120704710B5044655
:104F800006F000FB02280AD1002319464FF0FF3239
:104F9000204605F0F3FC431E5842584110BD012045
:104FA00010BD10B5044606F0EDFA022807D1002323
:104FB0002046BDE810401A46194605F0D9BB10BD81
:104FC00010B5044604F0B8FD24B1012C06D100F060
:104FD00081F901E000F002FD044600E0042404F041
:104FE000C3FD204610BD28B1012801D00420704720
:104FF00000F028BA7047F8B507460C4615461E461D
:1050000004F09AFD3FB1012F0CD1324629462046CB
:1050100000F020FA04E032462946204600F02AFD3E
:10502000044600E0042404F09FFD2046F8BDF8B5D6
:1050300007460C4615461E4604F07EFD3FB1012F83
:105040000CD132462946204600F050FA04E03246A0
:105050002946204600F030FD044600E0042404F018
:1050600083FD2046F8BD70B506460C46154604F093
:1050700063FD36B1012E0AD12946204600F090FA90
:1050800003E02946204600F037FD044600E00424F2
:1050900004F06AFD204670BD08B506F021FE4FF40D
:1050A0007A7200230AF0E8F808BDFFFF10B5044645
:1050B00006F090FF074BB0FBF3F00223B0FBF3F2D6
:1050C000944202D3044A136110BDB3F5807FF9D036
:1050D0000233F3E740420F0000000340044B9860A6
:1050E000DA68D206FCD4024B9868C0B2704700BFA1
:1050F0000000034070B5FFF7CFFF00F5FA74FF2002
:10510000FFF7ECFF0025FF20FFF7E8FFFF2806462A
:1051100005D0FFF7C1FFA94208BFA042F3D3304634
:1051200070BDFFFF38B5064C4FF00075E561FFF725
:10513000E1FF044AA561137843F00103137038BD01
:1051400020C0092006C007202DE9704306460D4601
:10515000FFF7A2FF643080464FF00009FF20FFF701
:10516000BDFFFF2808D1FFF797FF494508BF40451D
:10517000F4D30020BDE87083FE28FAD1102D06D9A3
:1051800000224FF40071304604F074FC19E0341D25
:105190000435FF20FFF7A2FF04F8040CFF20FFF7FF
:1051A0009DFF04F8030CFF20FFF798FF04F8020CA2
:1051B000FF20FFF793FF043404F8050C2B1BDE429D
:1051C000E7D1FF20FFF78AFFFF20FFF787FF0120CD
:1051D000BDE8708370B506460D46FFF78BFFFF28CC
:1051E000044619D12846FFF779FFFD2D16D0224637
:1051F0004FF40071304604F03DFC2046FFF76EFF8F
:105200002046FFF76BFF2046FFF768FF00F01F0006
:10521000431F5842584170BD002070BD012070BD31
:10522000020638B504460D4607D500217720FFF762
:10523000F7FF012838D804F07F041C4B4FF00072B0
:105240009A61DA61FFF756FFFF28014628D1204610
:10525000FFF744FF280EFFF741FFC5F30740FFF7B4
:105260003DFFC5F30720FFF739FFE8B2FFF736FF30
:10527000402C17D0482C14BF01208720FFF72EFFA9
:105280004C2C02D10846FFF729FF0A21FF20FFF727
:1052900025FF030608D5013911F0FF01F6D138BD0D
:1052A000FF2038BD9520EEE738BD00BF20C00920A3
:1052B000064A074913784969DBB2490154BF03F034
:1052C000FD0343F003031370704700BF06C00720BF
:1052D00020C009202DE9F743FFF7EAFF564B1A7863
:1052E0001E4612F0020F01D01878A1E00120FFF74E
:1052F000DDFE0A24FF20013CFFF7F0FE14F0FF045E
:10530000F8D14E4F4FF00073FB6121464020FFF76C
:1053100087FF012802D04FF0000875E0FFF7BCFEC0
:105320004FF4D57100F57A754820FFF779FF012811
:1053300041D10DF10408FF20FFF7D0FE08F804006A
:105340000134042CF7D19DF80630012BE3D19DF8F0
:105350000730AA2BDFD12C460025FFF79DFEA9427E
:1053600008BFA04206D3FFF797FEA94208BFA0429C
:10537000D1D207E04FF08041E920FFF751FF00282C
:10538000EBD1F0E700217A20FFF74AFF0028C2D1D5
:105390000146FF20FFF7A2FE08F8010001310429B1
:1053A000F7D19DF8043013F0400F14BF4FF00C08F4
:1053B0004FF0040828E02146E920FFF731FF0228DA
:1053C0002C4635BF4FF002084FF001084FF0E909B5
:1053D0004FF041090025FFF75FFEA94208BFA04238
:1053E0000BD3FFF759FEA94208BFA0420CD34FF4DC
:1053F00000715020FFF714FF06E000214846FFF738
:105400000FFF0028E7D1ECE70D4B83F800804FF049
:105410000073BB61B8F1000F07D03378182003F098
:10542000FE033370FFF742FE01E0FFF77BFE3078AA
:10543000C0B203B0BDE8F08306C0072020C0092039
:105440001CC6072008B5FFF733FF014B187808BDCD
:1054500006C0072070B5144606460846FFF728FF29
:10546000002C39D01E4B1B78DB0737D41D4B4FF077
:105470000072DA611C4A1D46127812F0080F08BF4C
:105480004002012C01460CD15120FFF7C9FEE0B9C2
:105490004FF400713046FFF757FEB0FA80F464090C
:1054A00013E05220FFF7BCFE78B94FF4007130468C
:1054B000FFF74AFE28B1013C14F0FF0406F5007620
:1054C000F3D100214C20FFF7ABFE4FF00073201CFE
:1054D000AB6118BF012070BD042070BD032070BDFA
:1054E00006C0072020C009201CC60720F8B51446B6
:1054F00006460F46FFF7DCFE002C44D0254B1A78F9
:10550000D20742D41B785B0741D4234B4FF0007283
:10551000DA61224A1D46127812F0080F08BF7F0296
:10552000012C0CD139465820FFF77AFE18BBFE211A
:105530003046FFF74FFEB0FA80F464091CE012F029
:10554000060F03D02146D720FFF76AFE39465920BF
:10555000FFF766FE80B9FC213046FFF73BFE28B11D
:10556000013C14F0FF0406F50076F4D1FD21002083
:10557000FFF730FE00B901244FF00073201CAB612F
:1055800018BF0120F8BD0420F8BD0320F8BD02209B
:10559000F8BD00BF06C0072020C009201CC6072098
:1055A0007FB50D46FFF784FE05281AD12B78012B15
:1055B00000F0048103D3022B0BD0042001E1824BC5
:1055C000586910F0806440F0F980FFF7ABFD204689
:1055D000F7E07D4B5B6983F08063C3F380636B709E
:1055E000ECE07A4B1B78DB0700F1EA800E2800F232
:1055F000DF80DFE800F008124F53DDDDDDDDDDDDAB
:10560000AAAFB2BBCB00704B4FF00072DA61FFF76C
:1056100071FDFF3818BF0120CBE000214920FFF7C2
:10562000FFFD044608B10120C3E010216846FFF7E2
:105630008BFD0028F7D09DF800309DF808109B09DD
:10564000012B9DF8093006D1013303EB012189B20A
:10565000890229606BE09DF807209DF80500920003
:1056600002EB91119DF806200131920202F4406292
:1056700011449DF80A2000F00F0000EBD2105A00F0
:10568000023002F006028318DBB289B2093B01FA4C
:1056900003F34BE04FF400732B8059E04C4E33780A
:1056A00003F0040303F0FF01F3B10021CD20FFF765
:1056B000B7FD0028B7D1FF20FFF710FD1021684685
:1056C000FFF742FD0028AED03021FF20FFF706FD96
:1056D000481E10F0FF01F8D19DF80A3008461A095B
:1056E000102393402B6064E04920FFF799FD0446A6
:1056F000002898D110216846FFF726FD002892D097
:1057000036789DF80A2006F0020606F0FF009DF8A4
:105710000B3076B1520002F07E0202EBD3135A1C1A
:105720009DF80D309B09013B02FA03F32B602046E4
:105730003FE0D90001F01801C2F3840201EB5311DC
:10574000531C01FB03332B6033E0214B1B782B7080
:1057500000202EE00021492001E000214A20FFF72F
:105760005FFD00287FF45FAF10211AE000217A204E
:10577000FFF756FD00287FF456AF291DFF20FFF7E5
:10578000ADFC05F8010B8D42F8D1E1E70021CD20F9
:10579000FFF746FD00287FF446AFFF20FFF79EFC91
:1057A00040212846FFF7D0FCB0FA80F0400900E025
:1057B0000420054B4FF000729A6102E0002000E0E7
:1057C000032004B070BD00BF20C0092006C0072020
:1057D0001CC60720054B1B78253BDBB2032B9ABF69
:1057E000034A52F823000020704700BF20C607205C
:1057F000D87C02001B4B2DE9F0411D880646B5F50B
:10580000007F0F46144602D12A46214613E0B5F523
:10581000807F09D12A4621463846B0472A4604F5FA
:10582000807107F5807016E0B5F5047F05D1510A47
:1058300089024FF4007238460DE0B5F5847F0ED131
:10584000140A61024FF480723846B047611C4FF46D
:1058500080724902B8183346BDE8F0411847BDE8E8
:10586000F08100BF1EC6072030B52F4C03462546E9
:10587000002958DD07291A782DDDA2605A780839E9
:10588000A2609A78A260DA78A2601A79A2605A7946
:10589000A2609A79A26003F10802DB79A360A36990
:1058A0005B07FCD5AB680370AB684370AB68837073
:1058B000AB68C370E368DB06FCD4AB68083000F863
:1058C000043CAB6800F8033CAB6800F8023CAB68F2
:1058D00000F8013C1AE003291ADDA2605A78043965
:1058E000A2609A78A2601A1DDB78A360E368DB06E9
:1058F000FCD4AB68043000F8043CAB6800F8033C0F
:10590000AB6800F8023CAB6800F8013C1346AFE717
:105910000133A2600139E268D206FCD4AA680130E2
:1059200000F8012CA4E730BD0000034007B50B0CC4
:105930008DF805308DF807100B0A04218DF804004E
:105940000DEB01008DF80630FFF78EFF03B05DF818
:1059500004FBFFFFF7B5174606460E4C4025032310
:10596000E5618DF804300B0C8DF805308DF80710CB
:105970000B0A04210DEB01008DF80630FFF774FFD0
:1059800000223946304604F075F8A561A561A5618D
:1059900003B0F0BD00C009200E4B4022DA610E4B6F
:1059A000D7229A601A46D1680B4BC906FBD49A6875
:1059B0001A46FF219960D068C006FCD4906810F0A8
:1059C000800FF7D0034B40229A61C0B29A619A616E
:1059D000704700BF00C0092000000340F7B5FFF783
:1059E000DBFF1F4C002323801E4B1F4E40271A88CD
:1059F0009B78F7610321054601A8ADF804208DF8D6
:105A00000630FFF731FF9DF805209DF806301F2A6C
:105A1000B7612146B761B7611CD1A3F12502032A02
:105A200018D8124A252B137005F0010006D1002862
:105A300014BF4FF480734FF4847305E0002814BF43
:105A40004FF400734FF404730B80FFF7C3FE084B51
:105A5000400A18600888B0FA80F0400903B0F0BD31
:105A60001EC60720D07C020000C0092020C60720E7
:105A700024C60720F8B58B1817460D4A013B12685B
:105A80000446934210D84D02FFF786FF00262D1BD7
:105A9000BE4204EB050209DA21460648FFF7AAFEDA
:105AA00004F500740136F3E70120F8BD0020F8BDCD
:105AB00024C6072055590100F8B58B1817460C4A23
:105AC000013B126893420FD804460026C0EB4125E3
:105AD000BE4204EB050209DA21460648FFF78AFEBA
