:020000021000EC
:10000000E03F082095010100FB000100E100010034
:10001000090101001901010029010100000000008F
:1000200000000000000000000000000051B60100C8
:100030003901010000000000B1B6010059010100C2
:10004000A1BC0100A1BC0100A1BC0100A1BC010038
:10005000A1BC0100A1BC0100A1BC0100A1BC010028
:10006000A1BC0100A1BC0100A1BC0100A1BC010018
:10007000A1BC0100A1BC0100A1BC0100A1BC010008
:10008000A1BC0100A1BC0100A1BC0100A1BC0100F8
:10009000A1BC0100A1BC0100A1BC0100A1BC0100E8
:1000A000A1BC0100A1BC0100A1BC0100A1BC0100D8
:1000B000A1BC0100A1BC0100A1BC0100A1BC0100C8
:1000C000A1BC0100A1BC0100A1BC01003071020073
:1000D00000C00720B0030000B0C307200C160000CA
:1000E00004207146084203D0EFF309800BF0FEBDF7
:1000F000EFF308800BF0FABD704708B5014808F02F
:10010000FBF9FEE7EE69020008B5024808F0F4F9D1
:10011000FEE700BFF969020008B5024808F0ECF9F3
:10012000FEE700BF046A020008B5024808F0E4F9DF
:10013000FEE700BF0F6A020008B5024808F0DCF9CC
:10014000FEE700BF1C6A020008B5024808F0D4F9B7
:10015000FEE700BF2A6A020008B50BF02DFA0BF08B
:10016000C9FABDE808400BF03BBA0B4610B5401A7F
:100170005C1AA24203D9C45843F8044BF8E710BDF7
:10018000034610B500221C1AA14202D943F8042BE1
:10019000F9E710BD16480BF051FB15480BF051FB69
:1001A000144C154DAC4201D3144D07E094E8030004
:1001B0000C3454F8042CFFF7D8FFF3E7AC4206D216
:1001C00054F8080B54F8041CFFF7DAFFF6E70DF0BB
:1001D00057FC0BF04DFB01F0DBFD03F07FFA4FF411
:1001E00016400BF0A1FE064808F086F9FEE700BFB6
:1001F000E03F0820CC000100D8000100E000010031
:100200003E6A02000BF038BA0BF046BA144B10B538
:100210001A68014612B94FF080521A60114C1868E2
:100220002468421894421A6007D20F4CA24204D8A4
:100230000E4A0B488C18046010460D4A1B68126861
:10024000934222BF064B00201A6039B1094A136855
:1002500001331360084B1860084B196010BD00BFD4
:10026000B4C30720BCC30720FFBF0720BCD90720A9
:10027000C0C30720C4C30720B0C30720B8C30720EA
:100280000DF036BD0DF03CBD0DF03ABD30B5044665
:100290008BB068460DF0E8FF224B079A2360089B5D
:1002A000214DA36062602149214B52B90A68186848
:1002B00082428ABF02F1604202F17042A2F5E82256
:1002C000626062681B68B2F5803F82BF02F17042D3
:1002D000A2F5E82262600022E2600A68934206D337
:1002E000991AC5F1005303F504230B440BE0114B9D
:1002F0001B68934208D9991AC5F1005303F5F823F6
:100300000B44002B00DDE36020460B4BE2611B68D1
:10031000A3610A4B1B686361094B1B6823610BB027
:1003200030BD00BFBC190000BCD90720B4C30720F2
:10033000BCC30720C0C30720B0C30720B8C3072031
:10034000C4C3072000207047034A044B1A60044AC4
:10035000044B1A60704700BF00800010BCC3072028
:1003600000400820C0C30720014B1860704700BF41
:10037000D0C30720014B1860704700BFC8C30720D7
:1003800008B502480EF018FFFEE700BF604102000A
:1003900008B502480EF010FFFEE700BF7A410200E8
:1003A0000020704701207047F8B5084B16461A68C0
:1003B0000F461C4642B10D46EB1B9E4204DD2368EE
:1003C00015F8010B9847F7E73046F8BDD0C3072072
:1003D000F8B5094B0F46186816461C4658B10D462D
:1003E000EB1B9E4205DD23680020984705F8010BB2
:1003F000F6E726EAE670F8BDC8C30720704700207C
:100400007047FFFF074B1B689A68824207D05A6803
:10041000824204D0DB681B1A5842584170470120C1
:10042000704700BFF4C107200020704700207047CC
:1004300030B504468DB0A8B3684609F0A3F99DF81D
:100440000030002503F03F0303939DF8013003A81B
:1004500003F03F0304939DF802300B9503F01F0354
:1004600005939DF8043003F01F0306939DF80530B3
:1004700003F00F03013B0793BDF80630C3F30B03F2
:10048000A3F26C7308939DF8033003F007030993FC
:10049000BDF80830C3F30B03013B0A930DF072FD66
:1004A00084E8210000200DB030BDFFFF70B50F4D76
:1004B0000F4E2C6814F0010415D128460CF0D4F826
:1004C00088B14FF40E70FFF7DBFE302380F8353231
:1004D0003A2380F8344280F8363280F83742306070
:1004E00028460CF0CDF8306870BD00BFECC3072083
:1004F000F0C3072070B50F4D0F4E2B6813F00104A9
:1005000016D128460CF0B0F890B14FF40E70FFF7FA
:10051000B7FE012380F83432312380F835323A2394
:1005200080F8363280F83742306028460CF0A8F860
:10053000306870BDE4C30720E8C307202DE9F04F01
:10054000ADF51B7D0F4608F067FB041E04DD0AF0C5
:10055000FBFF20460AF03EFD0DF114094C462A4DE2
:100560004FF0640B0FCD0FC42B6804AA2360102139
:1005700000240AA804940AF0EBFE244A8246244987
:10058000384609F06FFB26460AAD4FF00008D0450B
:100590001CD06B69A34215D1AA69049B16441BB1F8
:1005A000B3FBFBF3B2FBF3F3297B039202932B8C97
:1005B00000949B00019359F821306A681549384628
:1005C00009F050FB08F101082435E0E701340A2C5A
:1005D000DAD1049B64229E1BB3FBF2F30E49B6FBF7
:1005E000F3F30E4A0096384609F03CFB0AF0C6FBCE
:1005F000102804D910220A49384609F033FB01209B
:100600000DF51B7DBDE8F08F94410200B34102005F
:10061000B8410200DF41020007420200FC41020033
:100620002642020010B50C46ADF5007D68460BF081
:10063000BDFA20464FF0FF32694609F0DDFA01208D
:100640000DF5007D10BDFFFF30B50C4691B02C4973
:10065000054608F0EDF9002847D00CAB04930BAB2E
:1006600003930AAB029309AB019308AB009306AA6C
:1006700007AB2449284608F043F9072801D0002099
:100680003BE09DF83930069A0DA862F303038DF81C
:100690003930079A9DF8383062F304038DF838300A
:1006A000089ABDF83A3062F30B03ADF83A30099A74
:1006B0009DF8363062F304038DF836300A9A9DF8BF
:1006C000353062F305038DF835300B9A9DF83430E0
:1006D00062F305038DF834300C9A9DF8373062F3DD
:1006E00002038DF8373009F075F809F00FF9064963
:1006F0000246204609F0B6FA012011B030BD00BF15
:100700005042020054420200B5620200F7B50D46A5
:100710004E49044608F07CFA064640B107F084FDD5
:100720004FF0FF324A49284609F066FA8BE0494902
:10073000204608F06DFA60B307F09AFD464902467C
:10074000284609F08FFA07F09FFD444902462846E3
:1007500009F088FA07F092FD41490246284609F05F
:1007600081FA304607F07AFD0446012007F076FD55
:100770000646022007F072FD0746032007F06EFDD3
:1007800000970190334622463649284609F06AFA16
:1007900059E03549204608F04BF950B1202201219B
:1007A000204608F0E3F9204608F034FA07F084FE0A
:1007B00049E02E49204608F03BF9064620B92C496D
:1007C000204608F035F960B32A49204608F01EF9A2
:1007D00060B92949204608F019F928B92046274967
:1007E00008F014F9044602E0032400E00224314634
:1007F000204607F0B9FD224A224B002E18BF1A46A8
:100800003CB1012C07D01C491A4B022C18BF0B46D7
:1008100002E01D4B00E0194B1C49284609F022FA62
:1008200011E0204608F0F6F9194A1A490090F6231B
:10083000012007F0A7FD204608F0ECF91649024612
:10084000284609F00FFA012003B0F0BD8F420200E4
:1008500095420200AE420200B5420200CA420200C6
:10086000DF420200FE4202002E4302003243020039
:100870003A4302008A420200844202007E5402008F
:10088000754202006D4202007E42020043430200B4
:10089000A84102005C4302008F43020030B589B0DA
:1008A00004AB002400930D4603AB022218490394C5
:1008B000049408F033F8022827D107AB009305AA67
:1008C00006AB0499039805940694079404F0CEF9B6
:1008D000024638B1049B0F4900932846039B09F058
:1008E000C1F910E0059A069B002A079908BF01226A
:1008F000002B08BF0123B1FBF3F3B1FBF2F2284652
:10090000054909F0AFF9012000E0204609B030BDEB
:100910001E5402009D430200BC4302002DE9F04733
:100920000E46ADF5856D3949054608F00BF9384995
:100930000746284608F02FF93549284608F04BF9B4
:10094000284608F067F90122014681A806F0D8F987
:10095000044640B1284608F05DF92E49024630466B
:1009600009F080F94CE00DF1040A01464FF40072E1
:1009700050460DF022FA00940BF002F980468946A9
:100980006B464FF40072514681A806F053FA08B93D
:10099000009B23BB81A806F01CFCCFB10BF0F0F844
:1009A0004FF47A7200230CF0E3FD002305464FF468
:1009B0007A72404649460CF0DBFD281A14BF034604
:1009C0000123B4FBF3F322461349304609F04AF9F8
:1009D0004FF0FF321149304609F00EF910E01C4487
:1009E000002FCDD13D46009B9D42C9D233681AF8F5
:1009F00005105B684FF0FF32304698470135F2E74B
:100A000001200DF5856DBDE8F08700BFEA430200C7
:100A10001E540200F34302000744020095490200FD
:100A20002DE9F0470023BEB00C46534905460C9310
:100A300008F0EEF820B9284608F0ECF8064600E089
:100A40004E4E314615A806F07DFC054630B10346F2
:100A500032464B49204609F005F989E032464949BA
:100A6000204609F0FFF82F460DF1780880230DA9E4
:100A700015A8CDF84C80149306F0A8FC002861D18D
:100A80009DF83D30002B5DD09DF83C100DF13D00F0
:100A9000CA065BBF0D9B0C9A44229B185BBF0C934C
:100AA0002D220135013711F0010F14BF52232D23E0
:100AB000BDF83AA011F0020F09900D9814BF4FF045
:100AC000480E4FF02D0E11F0040F14BF4FF0530CD1
:100AD0004FF02D0C089011F0200FCAF34510BDF80F
:100AE000381007904FEAEA20069001F01F000590A9
:100AF000C1F343104FEA612114BF4FF041094FF099
:100B00002D0901F2BC71CDF804C0CDF800E00490CD
:100B10000391CDF808901C49204609F0A3F84FF046
:100B2000FF321A49204609F053F841464FF0FF3290
:100B3000204609F04DF84FF0FF320F49204609F0EA
:100B40005BF891E73A46124900950C9B204609F064
:100B500089F80BAA0CA9304606F067FC40B90B9B3C
:100B60000C499A780C9B20465A43520809F07AF8AF
:100B700001203EB0BDE8F087954902002244020002
:100B800025440200494402006444020091440200EA
:100B900095440200BF44020070B50C46064608F0BA
:100BA00039F80546304608F035F806F000FD064AEB
:100BB000064B0749002808BF13462A46204609F07D
:100BC00051F8012070BD00BF754602007F4602004B
:100BD000D344020070B50C46064608F01BF80546E3
:100BE000304608F017F806F085FC064A064B074920
:100BF000002808BF13462A46204609F033F8012092
:100C000070BD00BF754602007F460200EF4402003F
:100C10007FB503AB002400930E4602AB02220F49BE
:100C20000294039407F07AFE022814D1029C039DDB
:100C30002046294606F064FD094B0A492246002851
:100C40000CBF084618462B4600900749304609F06D
:100C500009F8012000E0204604B070BD1E540200D7
:100C60007F460200754602000145020030B5ADF531
:100C70000D7D0C46054607F0CDFF0A22014603A86C
:100C800006F03EF840B1284607F0C4FF1F4902466F
:100C9000204608F0E7FF34E08DF8070002901C4979
:100CA00042F210737E22204608F0DCFF19492046EC
:100CB00008F0D8FF236842F210721B680DF107019B
:100CC0002046984718B19DF807307E2B03D103A822
:100CD00006F07FFA15E002AB01220DF1070103A82F
:100CE00006F060F958B9029B012B08D123684FF038
:100CF000FF325B689DF8071020469847DAE70649FF
:100D0000D5E701200DF50D7D30BD00BF194502006E
:100D10004045020078450200984502002DE9F04F59
:100D2000ADF5417D002304AC236003930D46009490
:100D300003AB0222414907F0F1FD022806D04FF033
:100D4000FF323F49284608F057FF72E0216817A894
:100D500006F0F8FA10B122683A4906E0039917A89C
:100D600006F0F0FA28B1039A3749284608F07AFFCE
:100D70005FE04FF480720DEB020105A807F090FDD3
:100D80004FF4807280A90AA807F08AFD20AE802760
:100D90000FA917A81596169706F018FB002842D140
:100DA0009DF84530002B3ED09DF8443003F01003F1
:100DB00003F0FF0A002BEBD10DF14503039A234901
:100DC00005A807F071FF0DF1450322681F490AA825
:100DD00007F06AFF05A807F01DFF07460AA807F0FD
:100DE00019FF804605A8DDF83C9007F013FF834605
:100DF0000AA807F00FFF534652460146CDF800A05F
:100E0000584603F033FF124A124BCDF800900028E9
:100E10000CBF184610461049019043463A462846F2
:100E200008F020FFB3E70AA807F04FFD05A807F078
:100E30004CFD01200DF5417DBDE8F08F1E540200F0
:100E4000BF4502000446020029460200494602004E
:100E50007F460200754602004F460200F8B50D4677
:100E60002449064607F0D4FE0446074618B1FFF7AA
:100E700041FB002208E02049304607F0C9FE044645
:100E800060B1FFF713FB3A46114600F2352006F039
:100E9000C7FC4FF0FF32194B194922E0194930467F
:100EA00007F0B6FE044658B1FFF724FB012200F21A
:100EB000352105F0E7FE4FF0FF32134B134910E0E8
:100EC0001349304607F0A4FE044680B1FFF7EEFA5E
:100ED000012200F2352105F0D5FE0E4B0E494FF0F0
:100EE000FF32002818BF1946284608F085FE204624
:100EF000F8BD00BFD6460200E04602007846020078
:100F00006E460200ED46020095460200854602004C
:100F1000F6460200BA460200AC46020008B5084692
:100F20004FF0FF32084908F067FE07F07DF94FF4F3
:100F3000FA600AF04FF84FF08043AA221A7200229A
:100F40001A70012008BD00BF0247020010B5012041
:100F50000C4607F099FC40B100231A46194609F0E7
:100F60004BFB4FF0FF32054902E005494FF0FF32DD
:100F7000204608F041FE012010BD00BF13470200CB
:100F80002947020038B5064C236833B91C20FFF707
:100F900077F9054608F072FA2560206838BD00BF71
:100FA000DCC307202DE9F04F5F4C91B023680E465B
:100FB00033B92C20FFF764F9054608F089FD256058
:100FC0002768FFF773FA00240CAA0DA900F2352058
:100FD0000D9406F02AFA48B90C9A0D9C95699378FD
:100FE000023D5C435D4364086D0800E025464F4BBD
:100FF0001A6898467AB90C20FFF742F98146FFF744
:10100000C1FF902389F804300023C9F80000C9F813
:101010000830C8F80090D8F8000003F015FE8146AB
:101020000CF060FA0A900CF043F8014648460BF0C9
:1010300089FF3F490CF090F80CF054FA81460DA856
:101040000AF00CFC04F056FD68B308F0D9FC04F07B
:101050003BFD4FF0000A0346D346D0469A450B931A
:101060000BD0504604F094FD804538BFD3460B9B0F
:1010700038BF80460AF1010AF0E708F0D9FC642382
:1010800003FB08F32B4ACDF80880B3FBF2F3C3F15E
:1010900064030093CDF804B02B462246264930461F
:1010A00008F0E0FD05E02B4622462449304608F0D2
:1010B000D9FD234C23681BB90120FFF7E1F820601C
:1010C000206803F086FD044608F020FCFB8C0A9A99
:1010D0000993BB8C1B4908939DF83430019003F0B1
:1010E0003F0307939DF83530009403F03F030693C8
:1010F0009DF83630304603F01F030593BDF83A30B3
:10110000C3F30B0304939DF8383003F01F030393DC
:101110009DF8393003F00F0302934B4608F0A2FD0F
:10112000012011B0BDE8F08FE0C30720D4C3072031
:1011300000002041A086010062470200964702009D
:10114000D8C30720A44702002DE9F04F0D46C7B0D1
:101150005549814607F083FC54498246484607F0CA
:101160007EFC53498346484607F079FC00270DF181
:10117000100805AE044602970397C8F80070376060
:10118000BAF1000F45D0009603AB02AA4949484680
:1011900007F0B6FB012807DC28464FF0FF3246492E
:1011A00008F02AFD38467CE00DF118084FF48074F1
:1011B0002246394640460CF000FE336813B901233D
:1011C000336003E0B3F5807F88BF3460FFF7DAFE59
:1011D00033689DF80C209DF808100093434608F0F2
:1011E00007FE364A364B3749002818BF1346029A85
:1011F000284608F037FD002433689C424ED2039AFB
:1012000018F8043022443049284608F02BFD0134F8
:10121000F2E7BBF1000F2CD0CDF8008003AB02AA9F
:101220002A49484607F06CFB032807D028464FF0B0
:10123000FF32274908F0E0FC504632E0FFF7A2FEFB
:1012400098F800309DF80C209DF8081008F0E5FD96
:1012500048B1039B1F490093D8F80020029B284601
:1012600008F000FD1AE0029A1B49284608F0FAFC33
:1012700014E0A8B102230293029BFE2B10DCFFF7BF
:1012800081FE9DF8081008F0D3FD20B1029A1349A1
:10129000284608F0E7FC029B0233ECE7012000E05F
:1012A000204647B0BDE8F08F3D5502000D480200D2
:1012B000134802001C4802002B4802007546020039
:1012C0007F4602004C48020070480200804802003D
:1012D00090480200B7480200D1480200EE480200E0
:1012E00070B5ADF50A7D05460C4607F000FB0B28EE
:1012F00002DD0C2222493CE0284607F08BFC01224B
:10130000014601A805F0FCFC064668BB01A805F0F3
:1013100060FF284607F07EFC1A490246049B2046DF
:1013200008F0A0FC236820469B6898470A2009F033
:1013300051FE4FF0100383F31188BFF36F8FBFF39B
:101340004F8F284607F066FC02460F4B0068516835
:1013500003C390680D4A186043F80C2C4FF080438B
:10136000AA221A721E7007E0284607F053FC0246B4
:101370000749204608F076FC01200DF50A7D70BD76
:10138000284902004F490200484002400DD0ADDE1E
:10139000964902002DE9F041404CA4B0236806466E
:1013A000DB070D460CD420460BF05EF940B14FF43C
:1013B00080600CF09DFC3A4B186020460BF060F901
:1013C0003849304607F04BFB0746044600B38022FD
:1013D000002104A80CF0F1FC00230293039303AB5B
:1013E000009304AA02AB3049304607F089FA2C4931
:1013F000029B039A096804A813B903F0D3FC01E027
:1014000003F0F2FC294B2A49002818BF194638E09E
:101410002849304607F023FB074600283AD004ABA2
:10142000304603AA2449039404948DF8084007F039
:1014300067FA039E049B3344B3F5806F02DCDFF848
:1014400060800CE04FF480621C4920E0D8F8003046
:101450009DF808209A559DF8083001361C44039BDE
:10146000049AF31A934210DAB6F5806F0DDA2B68FE
:101470004FF4FA621B6802A9284698470028E5D174
:101480000F49284608F0EEFB04E022460D492846A5
:1014900008F0E8FB384624B0BDE8F081F8C3072027
:1014A000F4C30720C1490200C8490200AF49020045
:1014B000AB490200D8490200DF490200E9490200B5
:1014C0000D4A02001D4A020038B50D4607F0A4FB84
:1014D0000446C0B202F02EFB054A064B064900281E
:1014E00018BF13462246284608F0BCFB012038BD31
:1014F000754602002E4A0200354A020030B50C46FD
:10150000054687B00A4908F0ADFBA18823880491FD
:10151000218962880391E18828460291E17A01914C
:10152000A17A0091034908F09DFB07B030BD00BFD0
:101530004C4A0200824A02002DE9F0418CB003AB14
:10154000002600930D46904602AB022238490296CF
:10155000039607F0E3F9B04266DD02980CF09FF9BC
:10156000C7B2039818B10EF029F9C4B200E00446DE
:10157000002104A803F07EF930B14FF0FF322D496D
:10158000284608F039FBF3E7022318F10001009325
:10159000039A234618BF0121384602F00FFC064685
:1015A00038B94FF0FF322449284608F025FB0126C0
:1015B0003AE0B8F1000F37D04FF47A7104A803F085
:1015C00061F960B39DF81030BB4228D19DF8173007
:1015D0000C2B04D13A4606A92846FFF78FFFBCB969
:1015E0001649284608F03EFB9DF817309C420ADA5F
:1015F00004AB19192B684FF0FF325B68097A284653
:1016000098470134F0E70E49284608F02BFB0BE021
:101610004FF0FF320B49284608F0EEFA04E0029A38
:101620000949284608F01EFB30460CB0BDE8F081A1
:101630001E540200A04A0200C24A0200EA4A020006
:1016400017510200FE4A02001B4B02001FB501A801
:101650000C4602F091FD02F079FA01A902462046FB
:10166000FFF74CFF012004B010BDFFFF30B58BB079
:101670000AAA4FF47A730C4642F8243D174907F042
:101680003FF90025019902A803F0F4F8D8B19DF8BC
:1016900008201349204608F0E5FA00259DF80F3090
:1016A0009D420ADA02AB591923684FF0FF325B689A
:1016B000097A204698470135F0E70A49204608F0A4
:1016C000D1FA0125DEE72DB94FF0FF320649204659
:1016D00008F092FA01200BB030BD00BFE6490200CD
:1016E000414B020094490200584B020037B50C46AA
:1016F00002F0A6FB05461649204608F0B3FA154944
:101700002A46204608F0AEFA1149204608F0AAFA07
:10171000D5B11149204608F0A5FA0D49204608F038
:10172000A1FA0025E8B202F075FB013540B18178DD
:101730004378027800912046084908F093FAF1E7CF
:101740000349204608F08EFA012003B030BD00BFE7
:10175000694B0200844B02009E4B0200B94B020011
:101760002DE9F3473C4C074626688946002E62D196
:101770002420FEF785FD0423054680E848008660A6
:10178000C660202130460DF081FDAE68E8604FEA6A
:101790008608072E0ED81020FEF772FD8246102212
:1017A00000210CF00AFBEB68013643F808A008F1B1
:1017B0000408EEE7002608236B604FF00108274B72
:1017C000274A28492846009685F82080256006F09B
:1017D0009DFA254B254A26492068009606F096FA80
:1017E000244B254A25492068009606F08FFA244BA1
:1017F000244A25492068009606F088FA234B244A9B
:1018000024492068009606F081FA234B234A244994
:101810002068CDF8008006F079FA224B224A204950
:101820002068009606F072FA0096204B204A214963
:10183000206806F06BFA2049384607F0E9F918B13C
:101840001E49384607F09EFA4A463946206802B0DB
:10185000BDE8F04706F03ABB00C40720D44B0200B5
:101860000E4C02000D1B0100154C0200694C0200D9
:10187000E1180100724C0200954C02006D16010047
:10188000984C0200F7510200C9140100C24C02003A
:10189000DE4C0200ED160100E54C02004C4D02004A
:1018A00039150100264D02004B4D0200504D02003B
:1018B0006B4D02004D16010095490200714D02006A
:1018C00038B5064C236833B95820FEF7D9FC0546D5
:1018D00007F038FF2560206838BD00BFFCC3072033
:1018E0002DE9F04F0446ADF2DC5D802288460DA85C
:1018F00000210CF062FA802200212DA80CF05DFA84
:1019000006AE002333600DAA00962DAB7549204624
:1019100006F0F6FF032801D00020DFE001220DA928
:10192000EDA805F0EDF905460028F5D1FFF7C8FF51
:101930003368802280F853304DA9044608A88DF8FA
:101940001750079506F0ACFF2DAB009333680DAA36
:101950006549404608F086F9A94607AE33464FF47C
:1019600000726DA9EDA805F065FA002840F0AF807F
:101970003368002B00F0AB806F1C32685B49204657
:1019800008F070F9236820469B6898477D1E0DF586
:10199000DA7B4FF0000A6DAB3268C3EB0B039A425F
:1019A00023680CD9CDF80CB05B684FF0FF321BF800
:1019B000011B20469847039B1B789A44EBE79B68E2
:1019C0002046984708A807F025F9834608A806F09E
:1019D00091FF4FF47A7302465946204608F01AF9EF
:1019E000202201210DEB020007F0C0F808A807F043
:1019F00013F9824520D008A807F00EF95246034695
:101A00003B49404608F02EF93A49204608F02AF9A9
:101A1000236820469B68984723684FF47A721B68B6
:101A20000DF11701204698470028F5D1022F07F144
:101A300001034CD81F46A0E733682DAA2E49009316
:101A400020464B4608F00EF9236820469B689847CD
:101A500008A807F0DFF8824608A806F04BFF5146B9
:101A600002464FF47A73204608F0D4F8234908A8B8
:101A700006F0CCFFD0B908A807F0CCF82049024600
:101A8000404608F0EFF81B49204608F0EBF82368C1
:101A900020469B68984723684FF47A721B680DF1C3
:101AA0001701204698470028F5D1BFE7154908A837
:101AB00007F068F93368144999444A46F09B404658
:101AC00008F0D0F8002D3FF448AFBD1E45E7EDA863
:101AD00005F07FFB08A806F0F8FE01200DF2DC5DA2
:101AE000BDE8F08F764D0200854D02009C4D02004E
:101AF000AE4D020094490200D54D0200EB4D0200AC
:101B0000EE4D020095490200264E02002DE9F047F5
:101B1000074686B006AA002442F80C4D0E463D4901
:101B200006F0EEFE20220121384607F01FF8039B45
:101B3000002B65D0384606F0DAFE002860D0FFF7AB
:101B4000BFFE05460DF1180808F80D4D2B6805225B
:101B50001B6841462846984704460028F6D1039B57
:101B6000384685F8533007F055F8274601464FF0C0
:101B7000FF32284608F040F82B6828469B689847B3
:101B8000254B0DF11809186849F8044D04902B688D
:101B90004FF47A721B68414628469847D0B1032219
:101BA0000DF1150148460CF0EDF89DF80BA004224C
:101BB00004A948468DF817A00CF0CAF850B1336854
:101BC00001225B6851463046013798470028DED134
:101BD0000134DCE71822B7FBF2F302FB137202B107
:101BE00001333A460D49304608F03CF874B16123A0
:101BF000009322460A4B0B49304608F033F805E0C3
:101C00004FF0FF320849304607F0F6FF012006B0DA
:101C1000BDE8F087E64902002A4A0200324E02007F
:101C2000594E0200954E02004E4F020001480DF041
:101C3000C3BA00BF7A4F020038B504460D460AF019
:101C400021F9074BB0FBF3F00223B0FBF3F2AA42F9
:101C500004D9B3F5807F01D00233F6E7236138BDA4
:101C600040420F007FB500F235260C460122314676
:101C700005F008F8054648BB039002AA03A93046C0
:101C800005F0D3FB00BB0298039A837802FB03F1B3
:101C900082691348023A5A435208B2F5004F38BFDE
:101CA0000120104B4FEA510124BF03464FF48060DE
:101CB000B1FBF0F1B2FBF0F20091019321460A482A
:101CC0000DF008FA012008E0084B00E0084B2A4616
:101CD000214608480DF0FEF9002004B070BD00BF99
:101CE000B84F0200B54F0200C24F0200BE4F0200C3
:101CF000BB4F0200F04F020038B5074C23684BB9C8
:101D00000820FEF7BDFA0546FFF73CF9402328609E
:101D10002B712560206838BD0CC4072038B5054CF0
:101D2000256825B90120FEF7ABFA05702060206810
:101D300038BD00BF08C4072038B5084C23685BB91C
:101D40000C20FEF79DFA0546FFF71CF990232B7136
:101D500000232860AB602560206838BDD4C307200D
:101D600010B5044C23681BB90120FEF789FA2060E6
:101D7000206810BDD8C3072010B5044C23681BB9D8
:101D80000120FEF77DFA2060206810BD04C4072002
:101D9000AD49AE4A4023F0B58B614FF000739361BB
:101DA0004FF480338B61AA4BADF5057D186807258C
:101DB00020F0F00018601868022440F0500018600D
:101DC000186820F440501860086840F0400008602F
:101DD000186820F47C201860186840F428201860E7
:101DE000186820F470001860186840F4200018602B
:101DF000186820F040401860186840F000401860F3
:101E0000586820F03C005860586840F0280058603E
:101E1000586820F003005860086840F4803008607B
:101E2000586820F440505860086820F4800008602A
:101E3000D96821F44031D960116841F08071116096
:101E4000596821F440215960596841F48021596052
:101E50009868804901409960116841F4897141F0A6
:101E600001011160996821F470119960996821F05D
:101E700070419960116821F446411160D96821F0E0
:101E80003001D960D96841F03001D960D96821F4B6
:101E90007011D960136843F000731360136823F066
:101EA0008063136006F0CCFF01210A2009F0FCFDDD
:101EB00001210A2009F010FE6748012105604460F5
:101EC000FFF7BAFE07F02CFD0121152009F0ECFD0B
:101ED0000121152009F000FE6048012105604460E1
:101EE000FFF7AAFEFFF74EF8642107F08BFA10B94E
:101EF0005B480DF061F909F013FE02F095FC10B992
:101F000058480DF059F94FF4FA6006F052FFFFF708
:101F10008DFE09F0B7FF0BF0C7F853490BF0D0F96D
:101F20000AF036FD02460B4650480DF0D3F809F092
:101F30008FFC052804AC14D1002363604C4B1B6854
:101F40002360FFF773FE4B4B4B48D96C1A6D5B6DEA
:101F500000940DF0BFF8FFF769FE41F2883006F0FB
:101F600028FFFEF7A3FA4549FFF77CFE054668BB4C
:101F700043480DF0AFF803F035FEFEF797FA294617
:101F80002A4600F2352005F04BFC3E4B3E4A002825
:101F90000CBF104618460DF00FF9FEF787FA3749C7
:101FA000FFF760FE90B939480DF006F903F09CFD8B
:101FB000014637480DF08EF803F086FD054603F024
:101FC00093FD00FB05F133480DF084F8324E334F9A
:101FD000336813F0010516D130460AF045FB90B185
:101FE0004FF40E70FEF74CF9012380F834323123A0
:101FF00080F835323A2380F8363280F8375238602C
:1020000030460AF03DFB26493868264DFFF72AFE88
:1020100018211148FFF710FEFFF708FE2B684BB997
:102020000820FEF72DF90646FEF7ACFF3823306096
:1020300033712E60286802F0B0FC0546B0BB1A4828
:102040000DF0BAF833E000BF00C0092020C009201D
:1020500000C00240F0FCFCFF00000340008008408C
:102060003450020065500200002474498A50020076
:102070004440024000400240A25002001A510200B7
:102080002251020028500200235002005F5102003A
:102090007E5102008D510200E4C30720E8C30720EF
:1020A000A446020014C40720A85102000125FFF72E
:1020B00043FE02F09FFD064618B972480DF07CF809
:1020C0003546FFF719FE02F0EBFC064618B96E48DC
:1020D0000DF072F835466D4E33681BB90120FEF7DE
:1020E000CFF83060306802F0A9FCFFF739FE02F04B
:1020F0006EFDFFF713FE02F00CFDFFF73DFE02F050
:102100006BFDFFF70BFE002102F006FD8DB9FFF716
:102110008DFDFFF7F1FD2D2102F0AAFCFFF7ECFD8C
:102120002D2102F0B1FCFFF7F9FDFF2102F0F4FCD4
:102130000CE0FFF7E1FD0546FFF7FEFD02F084FD30
:102140000BF0F6F9C1B2284602F0C6FC10220021BD
:1021500020460BF032FE00230F2221464C4802F0AD
:10216000FFFD80B920460BF09AFBC5B2284601F06E
:10217000E1FC484A484B2946002818BF1346444A08
:1021800046480CF0A7FFFFF7EBFD02F022FD0546E5
:1021900000200EF09FFA28440DF016F84FF400725C
:1021A000002120460BF009FE204609F0FFFC2146E5
:1021B0003B480CF08FFFFFF739FD802200212046BD
:1021C0000BF0FBFD204603F06BFC2278FF2A04D0C5
:1021D000214634480CF07EFF29E0FFF7CDFD02F0E8
:1021E000FDFC09281DD130480CF0E6FF21462F48A0
:1021F0000DF0F6F821462E480CF06CFF2D480CF03F
:10220000DBFF002303A92C4803930DF0E9F89DF8A8
:102210000C30592B03D1204603F020FC07E027485F
:1022200003E027480CF0C8FF26480CF0C5FF4FF22A
:1022300008031D684FF20C031C684FF210031E6860
:102240004FF470431A684FF20403AD0A1968A40AE8
:102250001D480CF03FFF2A4621461C480CF03AFF6F
:1022600031461B480CF036FFFFF7E0FC012006F07A
:1022700011F818480CF0A0FFFFF7D8FC0DF5057D0C
:10228000F0BD00BFC3510200DD51020010C40720A1
:10229000F65102002E5002002E4A0200FC510200AC
:1022A000B5620200305202004C5202006E5202002F
:1022B000735202008E520200D1520200D552020027
:1022C000ED5202001B5302004D53020079530200ED
:1022D000A6530200C353020001207047012070473B
:1022E0000120704710B5044C23681BB90120FDF78D
:1022F000C7FF2060206810BD10C407200120704770
:1023000038B504460F4B00250360636DE06DAB42AA
:1023100005D950F82500FDF7B5FF0135F5E708B1FF
:10232000FDF7B2FF0025A36B206CAB4205D950F836
:102330002500FDF7A7FF0135F5E708B1FDF7A4FF7C
:10234000204638BDFC53020010B50446FFF7D8FF05
:102350002046FDF797FF204610BD2DE9F0410446C9
:102360000E46C06889000CF091FFA568E060AF00E0
:102370004FF00008AE420DD90C20FDF781FFE36855
:10238000C0F80080C0F8048080F808800135D8517A
:102390000437EFE76660BDE8F081FFFFF7B504465C
:1023A00000250B464FF480520095254906F052FA5D
:1023B000244B042623606663A563E563256402213C
:1023C00004F13400FFF7C9FF26656565A565E5657D
:1023D000284660210CF05AFFA56DE065AE00172D70
:1023E0000CD81020FDF74CFF0746102200210BF0FF
:1023F000E4FCE36D01359F510436F0E71823636573
:10240000012384F87030104E0023A4F87430A4F82F
:102410007630A367002200230027C4E92023C4E903
:10242000226709F0ADFB4FF47A7200230BF0A0F89D
:1024300080197941C4E92001204603B0F0BD00BFF6
:1024400014540200FC530200C0D401002DE9F041F5
:102450000F7A14464D680E688FB1082A23D128469A
:1024600006F045FA00281CDD4FF0FF3213493046D4
:1024700007F0AEFB0121284606F038FB08E00A2AE7
:1024800019D00D2A12D02146284606F050FC97B1EB
:10249000336821463046BDE8F0415B684FF0FF32BB
:1024A00018470724F4E70A2A02D1F1E7BDE8F081D2
:1024B0000D2AEDD0E7E7BDE8F08100BF1D54020012
:1024C000F8B50446142015460F46FDF7D9FE8021C5
:1024D000064606F0DCFBA36BE26B9A4206D3616B07
:1024E000591803D204F13400FFF737FFE36B226C75
:1024F000591C52F82330E1631F605E601D72F8BD05
:102500002DE9FF47CF6B06460D4601AC3FB94FF4AE
:102510007A7008F05FFD01976760A76047E00B6C79
:102520000DF110081B6893E8070084E807000023FA
:1025300008F80D3D08F016FC81460027EB6B9F4222
:1025400063D22B6C4FEA870A53F827301868037C54
:10255000002B34D0036800221B684146984770B3B3
:10256000EB6B9F422DD22B6C53F80A3093E8070097
:1025700084E807009DF8032021462846FFF766FF00
:1025800009F0FEFA4FF47A7200230AF0F1FFD5E960
:10259000222380185941C5E92001029806F0A7F9C5
:1025A0000746029806F0A6F9013887420CDB94E84A
:1025B000070086E80700304604B0BDE8F087013721
:1025C000BCE705F14403D1E7D5E92223134324D026
:1025D00009F0D6FA4FF47A7200230AF0C9FFD5E960
:1025E0002023994208BF904217D309F0C9FA4FF44B
:1025F0007A7200230AF0BCFFD5E9222380185941E2
:102600000023C5E920010193D1E708F0ABFB814528
:10261000C3D1022008F0DEFCBFE79DF803300A2B8F
:1026200088D1C4E7F0B5054685B020480CF052FDCE
:10263000294601A8FFF764FF019C1CB91C480CF057
:10264000BBFD30E0029E304606F051F900282ADD3D
:1026500009F096FA0746F8B1B5F8743005F1500064
:102660000133A5F874302246314605F02FFC114B9A
:1026700000251868009023681DF805105B684FF06E
:10268000FF32204601359847042DF4D109F078FA3D
:10269000C11B09480CF01EFD304606F02DF92368D9
:1026A00020469B689847012005B0F0BD20540200E9
:1026B00095490200F05302002654020038B5064C3A
:1026C000236833B92C20FDF7DBFD054607F000FA3F
:1026D0002560206838BD00BFE0C3072010B5044660
:1026E000FFF7ECFF03682146BDE810405B684FF040
:1026F000FF32184713B5002302AC04F8013DFFF781
:10270000DDFF03684FF0FF321B68214698479DF8B4
:10271000070002B010BDFFFF2DE9F04100F15004A9
:102720008AB000250646009520465B4B5B4A5C4913
:1027300005F0ECFA009520465A4B5B4A5B4905F0E0
:10274000E5FA009520465A4B5A4A5B4905F0DEFAF5
:1027500000952046594B5A4A5A4905F0D7FA009538
:102760002046594B594A5A4905F0D0FA009520465F
:10277000584B594A594905F0C9FA00952046584B1B
:10278000584A594905F0C2FA00952046574B584A15
:10279000584905F0BBFA00952046574B574A58490F
:1027A00005F0B4FA00952046564B574A574905F0B4
:1027B000ADFA00952046564B564A574905F0A6FA01
:1027C00000952046554B564A564905F09FFA00950C
:1027D0002046554B554A564905F098FA0095204633
:1027E000544B554A554905F091FA00952046544BF3
:1027F000544A554905F08AFA00952046534B544AED
:10280000544905F083FA00952046534B534A5449E6
:1028100005F07CFA00952046524B534A534905F087
:1028200075FA00952046524B524A534905F06EFA0C
:102830000095524B524A5349204605F067FAFFF77C
:102840003DFF4FF4807320224FF41641054607F0F8
:1028500015F9804601272F744B48FDF78BFD4B4837
:10286000FDF782FD3A4629463046FFF729FE082249
:1028700003A905A806F014F805A8454906F082FA50
:102880002A4605A9204605F021FB05A806F01DF8FB
:1028900040460AB0BDE8F0813C5402007E5402007C
:1028A0003D05010073540200835402002506010017
:1028B0008B54020099540200A50F0100A05402009D
:1028C000E154020049060100E654020042550200AC
:1028D0001D09010046550200D45502009D08010063
:1028E00088550200D35502001D0D0100D755020086
:1028F00005560200210A0100085602002D5602006A
:10290000990B01003356020060560200110C0100C1
:1029100063560200BD6D02006D0C01008856020076
:10292000AB560200D50B0100AE56020081570200E3
:102930004911010085570200985702001D0F010040
:102940009F570200E25702005D0E0100EA570200A5
:10295000E95802000D070100ED5802001559020068
:102960004D0F01001B590200815002006117010048
:1029700045590200395A020095130100025A02001B
:10298000E7460200E1120100F5260100DD26010004
:10299000714D020008B500F0EDFD012008BD0120D9
:1029A000704708B500F034FEBDE8084000F018BEDE
:1029B0007047704770477047FFF7ECBFFFF7EFBFF6
:1029C00010B50446FDF75EFC204610BD70B50B4EF9
:1029D00005010B4B741953F82010201D08F0CEFA96
:1029E000E368A0689847A36870590133A360002387
:1029F0001A46BDE87040194607F0FEBD18C407200E
:102A0000105B020008B50020FFF7E0FFFBE708B508
:102A10000120FFF7DBFFFBE708B50220FFF7D6FF39
:102A2000FBE708B50320FFF7D1FFFBE7F7B5074643
:102A30000D462D4A00240D2312682C49009405F000
:102A400009FF2B4B87F831503B602A4D2A4B03225C
:102A5000EB602A4B2146EB61294B0120EB62294BAD
:102A6000EB6307F0A7FD032228602146012007F051
:102A7000A1FD032228612146012007F09BFD224B86
:102A800028621E680523C6F38F060093324623464C
:102A90001E4901941E4808F01FF806230093324691
:102AA00023461C4901941C4808F016F8072300939C
:102AB0000194234632461949194808F00DF897F851
:102AC000313073B103222146012007F073FD082342
:102AD000286332460093019423461249124807F0B6
:102AE000FBFF384603B0F0BD605A0200745A020082
:102AF000285B020018C40720A3290100B1290100A6
:102B0000B3290100B52901005C5A02007B5A02007A
:102B1000052A01007F5A02000F2A0100845A020090
:102B2000192A01008A5A0200232A010038B51748E1
:102B30000C46415C00230131C9B2914202D00155DB
:102B4000184638BD124D0355200128581A4619461B
:102B500007F058FE0546B0B90E4B53F82440204606
:102B60000CF02AFB20460CF029FE2B46024621469B
:102B7000094802F039F9094A094B9A644FF0804339
:102B8000AA221A721D70012038BD00BF58C4072048
:102B900018C40720645A0200915A0200EFBEADDE4D
:102BA00000400240044608B5012008F013FA94F8EA
:102BB000313023B1012203212046FFF7B7FF0A225B
:102BC00002212046FFF7B2FF0028EDD00A220121A2
:102BD0002046FFF7ABFF0028E6D00A22002120465E
:102BE000FFF7A4FFE0E7FFFF10B50820FDF748FB63
:102BF0000446422101F074FE014B1C6010BD00BF71
:102C00005CC40720014B186801F092BE5CC4072029
:102C1000024B0146186801F0A0BE00BF5CC407204B
:102C2000F8B5084C064625680F4625B90120FDF782
:102C300027FB057020603A4631462068BDE8F84021
:102C400001F0C0BF08C4072013B521484FF4345326
:102C50001A464FF4E131006806F06EFF08F090FF6D
:102C60004FF47A7200230AF083FC04464FF4FA72A0
:102C700001A9174800F040F9002811DA08F080FF98
:102C80004FF47A7200230AF073FC001BB0F5FA6F60
:102C900006DD0F4800F0FBF8C82008F09BF9E5E7D7
:102CA00000210C4806F060FC0B490A4806F05CFC69
:102CB0004FF4FA720021064800F064F9002804DAA3
:102CC000064805F028FC002000E0012002B010BDFD
:102CD0009CC407209CD507200000C842405B02002E
:102CE00070B5184C4FF48752236800210133164801
:102CF00023600BF062F8154E0025144B4FF4FA7266
:102D00001349144800F090F90028A2BF0E4B96E832
:102D100007005B1905F10C05A8BF83E80700B5F5AE
:102D2000875FEAD124680A2294FBF2F302FB134482
:102D30003CB9084B21461B68986907F005FC014B1C
:102D40001C6070BDACC40720B0C4072090D507201C
:102D500094C407209CC40720074A00230D2142F891
:102D6000231001330C2BFAD1034B4FF4B4720349F7
:102D7000034800F017BA00BF64C40720B0C407209E
:102D80009CC40720014800F007BC00BF64C40720B2
:102D900038B5642205210B480B4C06F08BFB0B4A1F
:102DA0000B490848FDF7CEFA236833B92C20FDF70C
:102DB00067FA054606F0EAFE25602268054B1A60B0
:102DC00038BD00BF9CD5072060C40720CCC30720B6
:102DD000399501009CC407207047FFFF08B50348E0
:102DE000FFF732FF00F056FC012008BD9DD50720FB
:102DF00010B5064C2046FFF773FF2046FFF7ACFFE7
:102E00002046FFF7BFFF012010BD00BF9DD5072062
:102E100010B50446FDF736FA204610BD13B504463A
:102E2000002300934FF4FA620B46044905F012FDAB
:102E30002046034B236002B010BD00BF605B020060
:102E4000805B020008B508F09BFE4FF47A72002305
:102E50000AF08EFB08BD38B505460C4613B10AB121
:102E600041F0800428684FF0FF320368A5215B68B9
:102E7000984728684FF0FF32036821465B689847FF
:102E8000002038BD00231A462521FFF7E4BF0023A8
:102E90001A464021FFF7DFBF2DE9F34106460F46F2
:102EA0009046FFF7CFFF05460024FFF7CBFF401BFE
:102EB00040451BD830684FF0FF3203680DF1070121
:102EC0001B6898479DF807201CB1012C03D15A2A92
:102ED00000E0A52A08D1631CDBB2072B3A5501D0CC
:102EE0001C46E2E7002002E00023F9E7014802B0B7
:102EF000BDE8F081028000802DE9FF4106461746BB
:102F00000C46FFF79FFF002380461A4652213046A9
:102F1000FFF7A1FF002830DB3A4602A93046FFF751
:102F2000BBFF002829DB9DF80E30062B21D1BDF810
:102F30000C30BDF80A20C3F30D0342EA0343022B11
:102F400017D9651E0234FFF77DFFC8EB00008742EA
:102F500012D330684FF0FF3203680DF107011B6890
:102F600098479DF8073005F8013FA542EBD10020B6
:102F700003E04FF0802000E0014804B0BDE8F0819C
:102F80000280008073B50E4604461546FFF77AFFAF
:102F90001E4805F0C0FA002E4FF0000314BF212197
:102FA00020211A462046FFF756FF00282CDB184840
:102FB00005F0B1FA20462A466946FFF76DFF041E68
:102FC00008DA2146134805F0A6FA134805F0A3FADB
:102FD000204619E09DF80630812B01D00F480AE009
:102FE000BDF80430BDF80220C3F30D0342EA0343E9
:102FF000042B05D80A4805F08EFA4FF0802003E034
:10300000084805F088FA002002B070BD985B020005
:103010009F5B0200A65B0200B15B0200B85B02008E
:10302000BF5B0200C65B02002DE9F74380460D46F8
:1030300091461E46FFF706FF07460024FFF702FFF2
:10304000C01B48453CD8D8F800004FF0FF32036859
:103050000DF107011B68984738B19DF807002CB99E
:1030600080EA600313F0010F04E03CB3012C02D1AD
:1030700010F0010F22D0631CDBB2052B285501D0C4
:103080001C46DBE7B5F803000AF012F84FF07A515E
:103090000AF062F83060B5F8010040080AF008F85C
:1030A0004FF072510AF058F870602B7800209B1096
:1030B00033722B7803F00103737202E00023DFE721
:1030C000014803B0BDE8F0830280008010B50C46D3
:1030D000002120460AF0FCF928B12B4920460AF0CD
:1030E000E3F9002841D1284920460AF0F1F928B136
:1030F000264920460AF0D8F9002838D1234920462D
:103100000AF0E6F928B1224920460AF0CDF9002854
:103110002FD11F4920460AF0DBF920B11D49204676
:103120000AF0C2F938BB1B4920460AF0D1F920B198
:10313000194920460AF0B8F9F8B9174920460AF0AB
:10314000C7F920B1154920460AF0AEF9B8B91349BC
:1031500020460AF0BDF9A0B1114920460AF0A4F9B1
:10316000002814BF0620072010BD002010BD01203C
:1031700010BD022010BD032010BD042010BD05208D
:1031800010BD072010BD00BF00007A430000FA43C5
:1031900000803B4400007A4400409C440080BB44D3
:1031A00000C0DA442DE9F04F99469BB08046A34811
:1031B00019920D24002240F8224001320C2A9F4B24
:1031C000F9D10025AB46AA461A68019502929C4A9D
:1031D00018959078D27800F00704C0F3C2000B90E5
:1031E00018690C940E9058695C68089098690F945F
:1031F0000790D8699C680490586AC2F3C20612907E
:10320000986ADB6A02F007020A94149013921093F2
:103210001195059506950995009501F108071695F4
:103220000D95179515950395039B199A934280F276
:1032300043813B78002B00F03A8157F8044C002181
:1032400020460AF03BF9B8B17E4920460AF02CF935
:1032500090B157F8081C4046FFF738FF029B0290D8
:103260008342A8BF0346C9F8003003F007030C935C
:1032700001230D939B461AE1724920460AF028F972
:10328000B8B1714920460AF00FF990B157F8081CFF
:103290004046FFF71BFF0F9B0F908342A8BF0346DA
:1032A000C9F8043003F007030B930123009316932E
:1032B000FDE0654920460AF00BF9B8B163492046A4
:1032C0000AF0F2F890B157F8081C4046FFF7FEFEEE
:1032D0000A9B0A908342A8BF0346C9F8083003F04E
:1032E00007030B93012309930093E0E0584920461C
:1032F0000AF0EEF8A8B1574920460AF0D5F880B197
:1033000057F8081C4046FFF7E1FE0E9B0E908342E3
:10331000A8BF0346C9F8103003F00706012306933F
:1033200051E04C4920460AF0D3F8B8B14A4920464A
:103330000AF0BAF890B157F8081C4046FFF7C6FEED
:10334000089B4FF0010A8342A8BF03460890C9F8C2
:10335000143003F00706CDF854A0A8E03E492046FB
:103360000AF0B6F8A8B13D4920460AF09DF880B1B0
:1033700057F8081C4046FFF7A9FE079B07908342B9
:10338000A8BF0346C9F8183003F0070601230593C8
:1033900019E0334920460AF09BF8B0B13149204684
:1033A0000AF082F888B157F8081C4046FFF78EFEF5
:1033B000049B04908342A8BF0346C9F81C3003F065
:1033C0000706012311939A4671E0274920460AF027
:1033D0007FF8B8B1254920460AF066F890B157F851
:1033E000081C4046FFF772FE129B12908342A8BF52
:1033F0000346C9F8243003F0070313930123019314
:10340000189354E0194920460AF062F890B318491D
:1034100020460AF049F868B357F8081C4046FFF701
:1034200055FE149B01258342A8BF0346C9F82830E6
:1034300003F0070313931490019538E000C00720B0
:103440009ED50720000020410000A041000034422A
:103450000000F042000016430000344300005243D5
:10346000000070430000874300809D430080A74315
:103470000080AC433B4920460AF02AF8B8B13A49EB
:1034800020460AF011F890B157F8081C4046FFF7A3
:103490001DFE109B4FF0010B8342A8BF0346C9F8E5
:1034A0002C3003F007030C931090CDF85CB0039B15
:1034B0000C3701330393B7E6159B13B12B4B089AD6
:1034C0005A61BAF1000F04D0294BDA7866F3C502CD
:1034D000DA70179B13B1254B109ADA62BBF1000F1B
:1034E00005D0234B0C999A7861F302029A700D9BD8
:1034F00013B11E4B029A1A60169B13B11B4B0F9A05
:103500005A60009B2BB11A4B0B999A7861F3C50254
:103510009A70099B13B1154B0A9A9A60069B13B1D6
:10352000124B0E9A1A61059B13B1104B079A9A61C0
:10353000119B13B10D4B049ADA61189B13B10B4B1D
:10354000129A5A62019B2BB1094B1399DA7861F3F5
:103550000202DA7015B1054B149A9A621BB0BDE8ED
:10356000F08F00BF0080AC430080B14300C0072053
:103570009ED5072013B500240A23019400941A460F
:103580006421002005F056FD0028F5D0002005F04C
:103590007FFE012002B010BD30B5104C85B0C825AB
:1035A00010220021684625800AF007FCA378022239
:1035B0009B008DF80930E378694603F03F038DF8EE
:1035C0000A3069230193002008238DF808508DF8F4
:1035D000023005F00BFE05B030BD00BF9ED50720C0
:1035E0001FB51022002168460AF0E7FB01216F2376
:1035F00004208DF8081001938DF80210FFF710FBDE
:1036000000226946104605F0F1FD05B05DF804FBA7
:1036100010B5002005F0DCFD044620B105F044FEA5
:10362000002005F035FE204610BDFFFFFFFFFFFF25
:1036300010B508F0A5FA0A4C6368A060C01A09F03A
:1036400085F905A3D3E9002309F0F6F909F026FC72
:10365000206010BDAFF30080967B1A61B9A7913F3F
:10366000ACD9072008B508F08BFA014B586008BDAB
:10367000ACD9072008B50020FFF7CAFA052005F0ED
:1036800083FB0120FFF7C4FABDE80840192005F0CC
:103690007BBBFFFF08B5FFF7A7FAFFF7B3FA074AAE
:1036A0000021012005F096FE0121054A084605F09B
:1036B00091FEBDE80840FFF7DDBF00BF65360100A1
:1036C00031360100704708B501F0E4F8012008BD6B
:1036D00010B50446FCF7D6FD204610BD37B5902046
:1036E000FCF7CEFD04460321FEF758FE204605F008
:1036F00083F83420FCF7C4FD054600244FF4007223
:1037000012490094042305F0A5F8114B28462B60BC
:1037100005F072F83420FCF7B3FD05460421FFF7ED
:103720007DFB284605F068F83420FCF7A9FD054626
:103730002146FFF77BF9284605F05EF82046214632
:1037400005F068F84FF0FF3003B030BD8150020043
:10375000F05B020010B54FF6FF74242303FB010158
:10376000884209D043782BB1038C1344A34228BF6D
:10377000234603842430F3E710BDFFFF37B5002351
:1037800002A840F8043D0C4B04215B6898470B4BA2
:10379000019A1C680546141B1A6004212246084839
:1037A000FFF7D8FF224602210648FFF7D3FF281C67
:1037B00018BF012003B030BDA4D5072074D6072060
:1037C000B8D5072091D6072008B50B4B1978037898
:1037D0008B420A4B0BBF1A889A880132013214BF00
:1037E0009A801A80064B8170DB6820219847003050
:1037F00018BF012008BD00BF35C0072049D60720EB
:10380000A4D507200A4B02781B789A42094B0BBFBC
:10381000DA881A89013201320CBFDA801A81037901
:10382000C3F3C202073262F3C5030371FFF7CCBFD3
:1038300035C0072049D6072010B50749002311F8E5
:1038400023409A00844202D10348104410BD013342
:10385000042BF4D1002010BD63D6072070B1C378CB
:103860000133DBB2FF2BC37008D105480023C11818
:10387000CA7804335208102BCA70F8D1704700BFC1
:1038800063D60720242202FB01010346024630B51D
:10389000914206D01446243212F8235C002DF7D151
:1038A0000FE00446002599420BD01A79C2F3C200FA
:1038B0001A8C42EA0042AA4284BF1C4615462433B1
:1038C000F1E7204630BDFFFF38B50546C90001F1DC
:1038D0000804FFF753FF1C4B2A781B789A4204D147
:1038E00002211A48FFF7CEFF0CE004211848FFF729
:1038F000C9FFEB7833B990F82330042443F08003F8
:1039000080F82330002380F8203080F821300246F0
:103910002B4690F8231080F8224021F07F01C4F359
:1039200006240C4380F8234005F1200153F8044B92
:103930008B4242F8044BF9D1064A0379127862F3BC
:10394000C503037138BD00BF35C0072091D60720DD
:10395000B8D5072034C0072008B5FFF76DFF034630
:10396000D8B9FFF769FF0346B8B90D4AD378D179C2
:10397000D07A8B4296BF1946131D1346814294BFDD
:103980000846084BD17B084A814238BF1346074995
:1039900000221A60CA7A0132CA72184608BD00BFF6
:1039A00063D607206BD607206FD6072049D607209D
:1039B0002DE9F84F05460C464FF0240909FB021982
:1039C000DFF868A1DFF868B14E1C4FF000084C45E5
:1039D00000F09A8094F823301A0624D5B5B12A78DD
:1039E00061788A4205D16F7816F8010C874200F0A1
:1039F0008D80E87850B16878884207D116F8011CAC
:103A0000914203D1A979A27991427FD094F82220E2
:103A1000218C03F07F0342EA0323994271DB2046A5
:103A2000FFF7D2FE72E06278002A6AD06DB329797E
:103A300001F0C001C02917D116F8010C697888423D
:103A400002D12878904261D0E778A87887420CD1DB
:103A500091420AD116F8010C2978884205D1A07943
:103A6000A979884201D151E079B1A878E1788842FA
:103A70000BD16978914208D116F8010C2978884257
:103A800003D1A079A979884246D094F82210208CDD
:103A900003F07F0341EA0323984232DB237984F861
:103AA0002080C3F3C201CFB284F821801FB1204629
:103AB000FFF7A8FE25E003F0C003C02B19D016F8CD
:103AC000010C9AF80030984213D1E3789A4210D052
:103AD0007BB16379032262F307136371E1702046BF
:103AE000FFF790FE23799BF8002062F3C503237152
:103AF00000E001276078FFF79FFE08B1C0F8008062
:103B000027B92434243662E7BDE8F88F2422002147
:103B100020460AF052F9F4E7237984F820806FF305
:103B2000C50384F821802371EBE700BF35C007206F
:103B300034C00720431EDBB2FD2B9DBF024B187023
:103B400001200020704700BF35C00720014B1878C6
:103B5000704700BF35C0072007289CBF014B187075
:103B6000704700BF34C007202DE9F7430446914653
:103B70001E469DF828500F46002966D0364B93F814
:103B80000080414563D00F2E61D8002861D02022EB
:103B900000210AF012F9FF2F237914BF09F0030264
:103BA000002262F38713032262F302032B4A677039
:103BB000127884F8008062F3C503294A23711378D0
:103BC00084F802800133DBB21370A3710BAB019355
:103BD00015B94FF001081BE004F10809019AE079DA
:103BE0001346526853F8081B00EB02085FFA88F886
:103BF000013DB8F1180F0193EDB207D848440AF01F
:103C0000B6F884F80780002DE8D1E2E74FF000080D
:103C1000DFF850900123384689F80030FFF70CFE9A
:103C20000546FFF71BFE002389F80030637925B9AC
:103C300066F307136371E57005E0AA7862F3071372
:103C400063716B78E370404603E0084601E00020B2
:103C5000FFE703B0BDE8F08335C0072034C007207C
:103C600048D6072055D60720124B012270B51A708E
:103C700004461E4608B9002518E0FFF7A5FD0546D5
:103C80000028F8D0237903F0C003402B06D0C02BC6
:103C90000AD1E37853B162789A4207D0617920461D
:103CA0000909FFF711FE01E0802BF7D000233370E4
:103CB000284670BD55D6072082B02DE9F0439146C5
:103CC000421ED2B28DB0FD2A05460E4615939DF8D0
:103CD000688001D9002057E0002BFBD0179F002FF0
:103CE000F8D0199B002BF5D0189B002BF2D0169B17
:103CF000002BEFD04822002126480AF05EF89022DF
:103D0000002125480AF059F81022002123480AF022
:103D100054F8234B00241C605C609C60214B1C60A9
:103D20005C609C60204B1D70204B214D1E7015AEB9
:103D30000FCE0FC53368182221461E482B600AF0AB
:103D40003CF8494617221B480BF07EFD21462046D1
:103D5000B8470028BED0B8F1000F02D1FFF70EFD22
:103D600012E006230293144B224601930123009391
:103D7000FF2104A8FFF7F8FE0028ABD004A8FFF746
:103D800073FF0028A6D0E9E70DB0BDE8F04302B00C
:103D9000704700BF91D60720B8D5072063D607200B
:103DA00057D6072049D6072035C0072056D607200A
:103DB000A4D5072078D60720085C020030B5182B60
:103DC0008DB016D8B2FA82F41D1C18BF0125640903
:103DD000AC420ED00293019200950A469DF8403005
:103DE000014604A8FFF7C0FE18B104A8FFF73CFF86
:103DF00000E000200DB030BD13B5537914781B09D5
:103E0000009302460B4620460321FFF7D7FF02B07E
:103E100010BDFFFF00231A4630B5084C14F823509C
:103E2000990035B1904202D10448084430BD0132B6
:103E3000D2B20133042BF1D1002030BD63D607206C
:103E400000231846044A12F8231009B10130C0B209
:103E50000133042BF7D1704763D607202DE9F041D9
:103E600088B020220021684609F0A7FFA14B1B78EB
:103E700003F0FF04002B40F039819F4F20213B6964
:103E800068469847002800F084809C4D6B88013379
:103E90006B80FFF7D5FF9DF80420A87202F007039E
:103EA000032B04D0964A137843F0010309E0954BA5
:103EB0001D789DF80230AB4205D1914A137843F04A
:103EC00002031370E4E0C2F3C2029DF800E09DF823
:103ED00006008D49D6B204EB440313F801C0F44543
:103EE0000BD10B4493F801C0844506D19978012485
:103EF0008E1B18BF01269A7018E00134042CEAD1F9
:103F000082490B689A70804A587002F10900834216
:103F100083F800E040F0C9800A609DF800009DF839
:103F20000230834240F0C480002426469DF80200FF
:103F3000FFF712FD9DF8022002709DF802204270EA
:103F400000228270FFF78AFC04B116B39DF800309E
:103F5000AB4200F09C809DF80160FF2E1BD13B68B6
:103F600020216846984720B9654A137843F0040336
:103F700013709DF8053003F00F02511C61F3030329
:103F80008DF80530C3F303139A4202DA6846FFF74F
:103F90001BFC00247CE0B5422BD164B99DF80730AE
:103FA0004BB13B6820216846984720B9544A1378A2
:103FB00043F0040313709DF8043003F0C003402B5A
:103FC00012D19DF807306A4613B91821504808E00D
:103FD0000C214A48FFF710FF002858D100216A46FB
:103FE0000846FFF709FF52E09DF80330002B4ED141
:103FF000F4E7484B1B78002BCBD09DF8054004F02C
:104000000F074FEA14184745C3DA013767F3030473
:104010003046FFF711FC8DF805409DF80340A5429E
:1040200021D19DF8041001F0C001402906D0A1F172
:1040300080035A425A41144610B90CE0012260B183
:10404000C029437805D19E4203D0003318BF012315
:1040500004E0002302E0C0290ED10346134303F01D
:10406000010420B908E094B908B941460CE043784E
:104070008DF80330857802E000258DF803506846FE
:10408000FFF7A2FB1CB129466846FFF71DFC6C46F2
:10409000FFF774FB204604221F49FFF789FC022228
:1040A0001E492046FFF784FC20E003330B6034E711
:1040B00085423FF439AFFFF74FFC0446FFF7CEFBD4
:1040C00023783BB19DF80530A27803F00F039342AB
:1040D0003FF72AAF9DF8003023709DF802306370DF
:1040E0009DF80530C3F30303A3701DE708B0BDE8D6
:1040F000F08100BF55D60720A4D5072049D6072058
:1041000090D6072035C0072057D6072030C007209B
:1041100078D6072056D60720B8D5072091D6072095
:1041200000231846094AD118497809B10130C0B2B4
:104130002433902BF7D1064B5A780AB10130C0B224
:1041400093F825300BB10130C0B27047B8D50720C5
:1041500091D6072008B5FFF76FFB064B28B1827890
:10416000187802FB0000C00008BD187818235843D7
:1041700008BD00BF34C0072003490B6803604B68CB
:1041800043608B688360704749D6072070B53E4C0A
:104190004FF48035E5613D4CA0602046C5683B4C3E
:1041A000ED06FBD4A0680D46C0B20BB923465FE014
:1041B0002346002A63D0072A0E782DDD9E604E78B4
:1041C000083A9E608E789E60CE789E600E799E60E2
:1041D0004E799E608E799E6001F10806C9799960DA
:1041E00099694907FCD5A1682970A1686970A1681F
:1041F000A970A168E970D968C906FCD4A16808351E
:1042000005F8041CA16805F8031CA16805F8021C48
:10421000A16805F8011C1AE0032A1ADD9E604E7899
:10422000043A9E608E789E600E1DC9789960D968A8
:10423000C906FCD4A168043505F8041CA16805F87A
:10424000031CA16805F8021CA16805F8011C314691
:10425000AFE701319E60013ADE68F606FCD4A6683D
:10426000013505F8016CA4E7E668F606FCD4A668FB
:104270006E1AB24203DD15F8016B9E60F4E7024B43
:104280004FF480329A6170BD00C009200080084060
:1042900007B5002302A901F8013D01231A4600F0E9
:1042A0001F00FFF773FF9DF8070003B05DF804FBE4
:1042B00013B502AC04F8011D00F01F000023012219
:1042C000214640F02000FFF761FF02B010BD08B5A5
:1042D0001720FFF7DDFFC0F3001008BD7021072095
:1042E000FFF7E6BF0A4600230146A020FFF74EBFB6
:1042F00008B50020FFF7CCFFBDE8084000F0FE0144
:104300000020FFF7D5BFFFFF024B4FF08072DA614C
:10431000704700BF20C0092008B50020FFF7B8FF94
:1043200040F00101C9B20020FFF7C2FF024B4FF07D
:1043300080729A6108BD00BF20C00920202107209B
:10434000FFF7B6BF00231A461946E120FFF71EBF4C
:1043500037B504460D46FFF7F5FF20462946FFF71F
:10436000C1FF0D4B4FF080721C469A610022ADF8E0
:104370000620BDF8063001339BB2ADF8063033B9E4
:104380004FF08073E361FFF7DDFF03B030BDFFF74F
:104390009EFF0028EDD0F3E720C0092008B51720C4
:1043A000FFF776FF00F0010080F0010008BD40211A
:1043B0000720FFF77DBF08B50A46012301466120AB
:1043C000FFF7E4FEC0F3420008BD00231A46194679
:1043D000E220FFF7DBBE70B5064600200D4614460E
:1043E000FFF756FF16B100F0BF0002E040F04000BA
:1043F000C0B215B100F0DF0101E040F0200114B1BE
:1044000001F0EF0101E041F010010020BDE8704033
:10441000FFF74EBF10B504460020FFF739FF14B96F
:1044200000F0F7010DE0012C04D100F0FB0141F098
:10443000080106E0022C14BF40F0080140F00C0116
:10444000C9B20020BDE81040FFF732BF08B5002018
:10445000FFF71EFFBDE8084040F00201C9B200208E
:10446000FFF726BF08B50020FFF712FFBDE80840A0
:1044700000F0FD010020FFF71BBF40F6DD1398425E
:1044800006D840F66213B0F5166F38BF184600E044
:104490001846A0F51661C9B20520FFF709BF10B58F
:1044A00004460620FFF7F4FEFA2C00F0D70102D1F3
:1044B00041F0200104E0B4F5FA6F08BF41F00801B3
:1044C0000620BDE81040FFF7F3BE10B504460620F5
:1044D000FFF7DEFE032C28BF032420F0060040EA8D
:1044E0004401C9B20620BDE81040FFF7E1BEF9283B
:1044F0004FF0FA0305D9B0F57A6F88BF4FF47A60B0
:1045000000E01846B0FBF3F00F2900F1FF30C0B215
:1045100028BF0F2141EA0011C9B20420FFF7C8BE2D
:104520001130C0B2162804D8202928BF2021FFF757
:10453000BFBE7047032804D0042814BF0321022102
:1045400000E001210320FFF7B3BE0A460023014625
:104550003020FFF71BBE0A46002301462A20FFF742
:1045600015BEFFFF73B50E4615460446FFF72DFF37
:10457000FFF7E8FE2B4B4FF08072DA61FFF772FF16
:10458000002211460120FFF726FFFFF7A7FE0220B9
:10459000FFF740FF3046FFF770FF2846FFF77FFF29
:1045A0000320FFF792FF03210220FFF781FE002185
:1045B0000120FFF77DFE03214FF4FA70FFF797FF0C
:1045C00021460020FFF7ACFF00211220FFF770FE0C
:1045D00000211320FFF76CFE00211420FFF768FE76
:1045E00000211520FFF764FE00211620FFF760FE72
:1045F0000D4B18681B79009005208DF80430FFF7EB
:1046000099FF68460521FFF7A0FF05216846FFF7DF
:10461000A2FFFFF71BFF4FF4FA6004F0B5FB02B0F6
:1046200070BD00BF20C009200F5C020070B5174E9E
:10463000326822B92021032005F0BCFF3060144D00
:104640002A6822B92021012005F0B4FF2860114C0E
:10465000216821B90322012005F0ACFF20604FF44E
:10466000FA6240F6C3112020FFF77CFFFFF754FEEB
:104670001620094A012104F095FE306828B1286807
:1046800018B12068003018BF012070BDE0D60720A7
:10469000DCD60720E4D607204547010070B5037932
:1046A000014603F0C003C02B0CBF0E4B0E4B88B06D
:1046B0001D68002306461A46284605F09DFF04465D
:1046C00060B9034602466946284606F09BF8234631
:1046D00022463146284605F08FFF0446204608B0A2
:1046E00070BD00BFDCD60720E0D6072038B50446F1
:1046F0000D46FFF72BFA237883420AD0E37843B9BB
:104700000AF08AFDBD2300F0030000FB033004F033
:104710003BFBFFF7F9FDFFF7EBFDA9B22046FFF7E2
:1047200017FEFFF70BFEFFF7F7FD06F06FFE0228FE
:1047300004D1034B0021186806F032F8012038BD7F
:10474000E4D6072007B5002302A941F8043D084B31
:10475000186806F025F8019B3BB1064B4FF08052DC
:104760001A60BFF34F8FBFF36F8F03B05DF804FB88
:10477000E4D6072004ED00E038B504460D46FFF707
:104780000DFE48B1A9B22046FFF715FEFFF706FE61
:1047900008B9FFF70CFE012038BD2DE9704305462E
:1047A0000E46144606F032FE022807D122460023A8
:1047B0003146284606F026F8C4B21DE007F0E0F9BD
:1047C0004FF47A72002308F0D3FE10EB040841F195
:1047D000000900231A463146284606F013F8C4B2F1
:1047E00054B907F0CDF94FF47A72002308F0C0FEF7
:1047F000894508BF8045ECD22046BDE87083042976
:1048000038B5054603D1041C18BF012400E000247C
:1048100007F0B6F92CB14FF47A72002308F0A8FE25
:104820002860204638BDFFFF00B50C4B8DB00993C2
:104830000B4B0C4A0B930C4B0A930CAB43F8102D0B
:10484000002204920FCB8DE80F00084B084A01218B
:104850006A20FFF731FA0DB05DF804FB2D46010028
:1048600079470100FF470100ED4601009D46010028
:10487000145C0200024B0A4601461868FFF78DBF20
:10488000E0D60720024B0A4601461868FFF785BFAD
:10489000DCD6072008B506F0B9FD0F4B02285B698E
:1048A00013D15A020DD5FFF73BFC00280B484FF0FF
:1048B000000314BF01224FF0FF321946006805F0D3
:1048C000A1FFBDE80840FFF7C9BA5B02F9D5FFF7C1
:1048D00027FC0028F5D108BD00C00920E4D6072038
:1048E000F0B5864687B0114F4C1101F01F0501AE9F
:1048F000457004700FCF0FC670463B6803213360CC
:1049000006AB03EB840353F8143C6D00CEF804307F
:10491000E30003F1804303F530331A6801FA05F52B
:1049200022EA05051D6007B0F0BD00BF1C5C020057
:10493000416840780A680123834022EA03030B6040
:1049400070474178426801238B40936170474178FA
:10495000426801238B40D361704709B1FFF7F1BF73
:10496000FFF7F5BF13460A460179006805F055BA0E
:104970001FB5002204AB047923F8042D0222009213
:1049800000680A46214605F033FA9DF80C009DF8B0
:104990000D3043EA002004B010BD10B504461922C2
:1049A0002A21FFF7DFFF0D222179206805F024FA84
:1049B000A0F12A035842584110BDFFFF044A138852
:1049C0001F2B9FBF581C1080024A42F823107047CB
:1049D000ECD60720F0D60720154AF0B51388164606
:1049E000012B21D9134A00201546013B984206DAD3
:1049F000516814680130091B42F8041BF6E70021D6
:104A00000C466A684FF0010E02EB52008AB29342E4
:104A100008DD55F822700131B8423CBF0EFA02F2AF
:104A20001443F3E7044B1C6000233380F0BD00BF48
:104A3000ECD60720F0D60720E8D6072008B50121DC
:104A4000022007F031F8084B01209A6A22F0070291
:104A50009A629A6A42F006029A62044AD36843F064
:104A60003003D36008BD00BF0080004000C002409A
:104A700008B5044B417101F07F015A5C0321FFF737
:104A800071FF08BD305C020008B5044B817101F074
:104A90007F015A5C0221FFF765FF08BD305C020010
:104AA00038B504460179006805F0C2F9054688B1B9
:104AB000002206212046FFF755FF0022072120464D
:104AC000FFF750FF2E212046FFF7D2FF2E21204670
:104AD000FFF7DAFF284638BD642370B5B1FBF3F465
:104AE00004FB1311CCB20A21B4FBF1F501FB154113
:104AF0003031C9B20646FFF7C7FF092C88BF05F160
:104B000030013046BDE8704094BF2021C9B2FFF7A4
:104B1000AFBF01207047FFFF38B50D46044606F0D1
:104B2000ABFD05F00F032370114B15F0010F4FF093
:104B3000010214BFDA619A61227812F0020F4FF07D
:104B4000020214BFDA619A61227812F0040F4FF06A
:104B5000100214BFDA619A61227812F0080F4FF444
:104B6000807214BFDA619A61BDE8384006F094BDE6
:104B700020C0092038B50D46044606F07DFD691EAB
:104B8000012303FA01F1237820461943C9B22170A9
:104B9000FFF7C2FFBDE8384006F07EBD38B50D46D0
:104BA000044606F069FD691E012303FA01F123782A
:104BB000204623EA01012170FFF7AEFFBDE838402F
:104BC00006F06ABD0AB1FFF7D5BFFFF7E7BF0120C6
:104BD0007047022004F074B901207047044B5B69F0
:104BE000180B00F00C00C3F341231843704700BFBB
:104BF00020C0092010B5044681220121FFF7B2FE32
:104C000001222179206805F0F7F810F0600F14BF39
:104C10000120002010BD38B500210446FFF7A8FE92
:104C2000812205B201212046FFF79CFE102095FB52
:104C3000F0F008F03DFA4FF0765108F08DFAA168D7
:104C400008F082F938BDFFFF08B5FFF7E4FF05491A
:104C500008F082FA044908F033FB4FF0844108F071
:104C600073F908BD000010410000A0402DE9F04F8D
:104C7000ADF2546D0C4690460146012282A8994639
:104C800002F03EF8002867D121460A220DF22C409E
:104C900002F036F8044620B182A802F09AFA2046C3
:104CA0005AE06D46064607462860019006F068FF08
:104CB0004FF47A72002308F05BFC2B4683464FF4D6
:104CC000007202A982A802F0B5F88246E0B92A680B
:104CD000D2B106F055FF4FF47A72002308F048FC79
:104CE000B0EB0B00074406F04BFF4FF47A72002341
:104CF00008F03EFC01AB83462A6802A90DF22C4065
:104D000002F050F98246B0B1B8F1000F01D0C8F8F6
:104D10000070B9F1000F01D0C9F80060DDF87836F5
:104D200003B11C6082A802F054FA0DF22C4002F08C
:104D300050FA504610E001992A689142E4D106F0F9
:104D40001FFF00234FF47A7208F012FC2B68B0EBBF
:104D50000B0006441C44A9E70DF2546DBDE8F08F2A
:104D6000F0B5ADF50B7D0E46174601461D460122F6
:104D7000002301A8009301F0C3FF044670B91DB1E0
:104D8000294601A802F037FA6B463A46314601A897
:104D900002F050F8044601A802F01BFA20460DF577
:104DA0000B7DF0BDF0B5ADF50B7D0E461746014607
:104DB0001D460A22002301A8009301F0A1FF04462A
:104DC00070B91DB1294601A802F015FA6B463A46A2
:104DD000314601A802F0E6F8044601A802F0F9F90C
:104DE00020460DF50B7DF0BDF0B5ADF50B7D0E4603
:104DF000174601461D461222002301A8009301F028
:104E00007FFF044680B90DB1294600E0049901A84E
:104E100002F0F1F96B463A46314601A802F0C2F8B9
:104E2000044601A802F0D5F920460DF50B7DF0BD32
:104E30007F2810B516D931B1FF2812D80A4B803817
:104E400033F8100010BD084A32F811408BB284428A
:104E500003D001318029F7D10B4603F18000C0B2A5
:104E600010BD002010BD00BF905E02000649002367
:104E700031F8132032B1824201D00133F8E7034AFE
:104E800032F81300704700BF905F0200B05C020070
:104E900010B501200C4605F033FC2060003018BF2F
:104EA000012010BD0120704710B5044606F0AEFA8F
:104EB00002280AD1002319464FF0FF32204605F0A0
:104EC000A1FC431E5842584110BD012010BD10B531
:104ED000044606F09BFA022807D100232046BDE8CD
:104EE00010401A46194605F087BB10BD10B50446A0
:104EF00004F086FD24B1012C06D100F081F901E017
:104F000000F002FD044600E0042404F091FD204678
:104F100010BD28B1012801D00420704700F028BA44
:104F20007047F8B507460C4615461E4604F068FD66
:104F30003FB1012F0CD132462946204600F020FA1D
:104F400004E032462946204600F02AFD044600E0EF
:104F5000042404F06DFD2046F8BDF8B507460C4664
:104F600015461E4604F04CFD3FB1012F0CD13246D0
:104F70002946204600F050FA04E0324629462046F1
:104F800000F030FD044600E0042404F051FD20460A
:104F9000F8BD70B506460C46154604F031FD36B135
:104FA000012E0AD12946204600F090FA03E0294656
:104FB000204600F037FD044600E0042404F038FDEC
:104FC000204670BD08B506F0DBFD4FF47A72002371
:104FD00008F0CEFA08BDFFFF10B5044606F052FFF8
:104FE000074BB0FBF3F00223B0FBF3F2944202D381
:104FF000044A136110BDB3F5807FF9D00233F3E7A3
:1050000040420F0000000340044B9860DA68D2066B
:10501000FCD4024B9868C0B2704700BF0000034048
:1050200070B5FFF7CFFF00F5FA74FF20FFF7ECFF34
:105030000025FF20FFF7E8FFFF28064605D0FFF711
:10504000C1FFA94208BFA042F3D3304670BDFFFFA5
:1050500038B5064C4FF00075E561FFF7E1FF044AF3
:10506000A561137843F00103137038BD20C00920F7
:1050700036C007202DE9704306460D46FFF7A2FF14
:10508000643080464FF00009FF20FFF7BDFFFF2886
:1050900008D1FFF797FF494508BF4045F4D30020EA
:1050A000BDE87083FE28FAD1102D06D900224FF4F6
:1050B0000071304604F042FC19E0341D0435FF2035
:1050C000FFF7A2FF04F8040CFF20FFF79DFF04F890
:1050D000030CFF20FFF798FF04F8020CFF20FFF7F6
:1050E00093FF043404F8050C2B1BDE42E7D1FF20AC
:1050F000FFF78AFFFF20FFF787FF0120BDE87083DD
:1051000070B506460D46FFF78BFFFF28044619D100
:105110002846FFF779FFFD2D16D022464FF4007187
:10512000304604F00BFC2046FFF76EFF2046FFF7E9
:105130006BFF2046FFF768FF00F01F00431F584237
:10514000584170BD002070BD012070BD020638B509
:1051500004460D4607D500217720FFF7F7FF012809
:1051600038D804F07F041C4B4FF000729A61DA616A
:10517000FFF756FFFF28014628D12046FFF744FFDE
:10518000280EFFF741FFC5F30740FFF73DFFC5F3CA
:105190000720FFF739FFE8B2FFF736FF402C17D0A2
:1051A000482C14BF01208720FFF72EFF4C2C02D182
:1051B0000846FFF729FF0A21FF20FFF725FF030616
:1051C00008D5013911F0FF01F6D138BDFF2038BDF7
:1051D0009520EEE738BD00BF20C00920064A0749E8
:1051E00013784969DBB2490154BF03F0FD0343F072
:1051F00003031370704700BF36C0072020C009208A
:105200002DE9F743FFF7EAFF564B1A781E4612F0D6
:10521000020F01D01878A1E00120FFF7DDFE0A247B
:10522000FF20013CFFF7F0FE14F0FF04F8D14E4FD1
:105230004FF00073FB6121464020FFF787FF0128F4
:1052400002D04FF0000875E0FFF7BCFE4FF4D571B7
:1052500000F57A754820FFF779FF012841D10DF15B
:105260000408FF20FFF7D0FE08F804000134042CE6
:10527000F7D19DF80630012BE3D19DF80730AA2B1A
:10528000DFD12C460025FFF79DFEA94208BFA042B2
:1052900006D3FFF797FEA94208BFA042D1D207E08C
:1052A0004FF08041E920FFF751FF0028EBD1F0E7F4
:1052B00000217A20FFF74AFF0028C2D10146FF20D3
:1052C000FFF7A2FE08F8010001310429F7D19DF88B
:1052D000043013F0400F14BF4FF00C084FF00408D7
:1052E00028E02146E920FFF731FF02282C4635BF90
:1052F0004FF002084FF001084FF0E9094FF0410963
:105300000025FFF75FFEA94208BFA0420BD3FFF7BD
:1053100059FEA94208BFA0420CD34FF4007150209F
:10532000FFF714FF06E000214846FFF70FFF0028B3
:10533000E7D1ECE70D4B83F800804FF00073BB61C1
:10534000B8F1000F07D03378182003F0FE03337054
:10535000FFF742FE01E0FFF77BFE3078C0B203B0FA
:10536000BDE8F08336C0072020C0092070D7072091
:1053700008B5FFF733FF014B187808BD36C007208A
:1053800070B5144606460846FFF728FF002C39D0B2
:105390001E4B1B78DB0737D41D4B4FF00072DA61D0
:1053A0001C4A1D46127812F0080F08BF4002012C5B
:1053B00001460CD15120FFF7C9FEE0B94FF400714E
:1053C0003046FFF757FEB0FA80F4640913E052202C
:1053D000FFF7BCFE78B94FF400713046FFF74AFE84
:1053E00028B1013C14F0FF0406F50076F3D100214A
:1053F0004C20FFF7ABFE4FF00073201CAB6118BFD1
:10540000012070BD042070BD032070BD36C0072090
:1054100020C0092070D70720F8B5144606460F466D
:10542000FFF7DCFE002C44D0254B1A78D20742D47B
:105430001B785B0741D4234B4FF00072DA61224A9C
:105440001D46127812F0080F08BF7F02012C0CD104
:1054500039465820FFF77AFE18BBFE213046FFF789
:105460004FFEB0FA80F464091CE012F0060F03D07E
:105470002146D720FFF76AFE39465920FFF766FE1E
:1054800080B9FC213046FFF73BFE28B1013C14F007
:10549000FF0406F50076F4D1FD210020FFF730FE71
:1054A00000B901244FF00073201CAB6118BF01202C
:1054B000F8BD0420F8BD0320F8BD0220F8BD00BFF0
:1054C00036C0072020C0092070D707207FB50D46C1
:1054D000FFF784FE05281AD12B78012B00F00481F8
:1054E00003D3022B0BD0042001E1824B586910F04A
:1054F000806440F0F980FFF7ABFD2046F7E07D4B7C
:105500005B6983F08063C3F380636B70ECE07A4B7C
:105510001B78DB0700F1EA800E2800F2DF80DFE86D
:1055200000F008124F53DDDDDDDDDDDDAAAFB2BBDB
:10553000CB00704B4FF00072DA61FFF771FDFF385E
:1055400018BF0120CBE000214920FFF7FFFD0446F2
:1055500008B10120C3E010216846FFF78BFD002849
:10556000F7D09DF800309DF808109B09012B9DF89D
:10557000093006D1013303EB012189B28902296088
:105580006BE09DF807209DF80500920002EB911159
:105590009DF806200131920202F4406211449DF808
:1055A0000A2000F00F0000EBD2105A00023002F087
:1055B00006028318DBB289B2093B01FA03F34BE020
:1055C0004FF400732B8059E04C4E337803F0040302
:1055D00003F0FF01F3B10021CD20FFF7B7FD002854
:1055E000B7D1FF20FFF710FD10216846FFF742FDFD
:1055F0000028AED03021FF20FFF706FD481E10F036
:10560000FF01F8D19DF80A3008461A09102393408B
:105610002B6064E04920FFF799FD0446002898D1EB
:1056200010216846FFF726FD002892D036789DF8B5
:105630000A2006F0020606F0FF009DF80B3076B156
:10564000520002F07E0202EBD3135A1C9DF80D307B
:105650009B09013B02FA03F32B6020463FE0D9008F
:1056600001F01801C2F3840201EB5311531C01FB3A
:1056700003332B6033E0214B1B782B7000202EE08E
:105680000021492001E000214A20FFF75FFD0028AA
:105690007FF45FAF10211AE000217A20FFF756FD5A
:1056A00000287FF456AF291DFF20FFF7ADFC05F859
:1056B000010B8D42F8D1E1E70021CD20FFF746FD37
:1056C00000287FF446AFFF20FFF79EFC40212846CC
:1056D000FFF7D0FCB0FA80F0400900E00420054B51
:1056E0004FF000729A6102E0002000E0032004B055
:1056F00070BD00BF20C0092036C0072070D707202A
:10570000054B1B78253BDBB2032B9ABF034A52F8AB
:1057100023000020704700BF74D707207861020083
:105720001B4B2DE9F0411D880646B5F5007F0F465D
:10573000144602D12A46214613E0B5F5807F09D1EF
:105740002A4621463846B0472A4604F5807107F5B7
:10575000807016E0B5F5047F05D1510A89024FF437
:10576000007238460DE0B5F5847F0ED1140A61024F
:105770004FF480723846B047611C4FF48072490282
:10578000B8183346BDE8F0411847BDE8F08100BFC6
:1057900072D7072030B52F4C03462546002958DD27
:1057A00007291A782DDDA2605A780839A2609A7804
:1057B000A260DA78A2601A79A2605A79A2609A7916
:1057C000A26003F10802DB79A360A3695B07FCD543
:1057D000AB680370AB684370AB688370AB68C37031
:1057E000E368DB06FCD4AB68083000F8043CAB6827
:1057F00000F8033CAB6800F8023CAB6800F8013CE1
:105800001AE003291ADDA2605A780439A2609A7856
:10581000A2601A1DDB78A360E368DB06FCD4AB68EA
:10582000043000F8043CAB6800F8033CAB6800F8B7
:10583000023CAB6800F8013C1346AFE70133A260BD
:105840000139E268D206FCD4AA68013000F8012CC4
:10585000A4E730BD0000034007B50B0C8DF8053000
:105860008DF807100B0A04218DF804000DEB0100E0
:105870008DF80630FFF78EFF03B05DF804FBFFFFE5
:10588000F7B5174606460E4C40250323E5618DF813
:1058900004300B0C8DF805308DF807100B0A04212D
:1058A0000DEB01008DF80630FFF774FF002239463A
:1058B000304604F043F8A561A561A56103B0F0BDD1
:1058C00000C009200E4B4022DA610E4BD7229A60AD
:1058D0001A46D1680B4BC906FBD49A681A46FF21B9
:1058E0009960D068C006FCD4906810F0800FF7D0A3
:1058F000034B40229A61C0B29A619A61704700BF1F
:1059000000C0092000000340F7B5FFF7DBFF1F4C84
:10591000002323801E4B1F4E40271A889B78F76177
:105920000321054601A8ADF804208DF80630FFF7E5
:1059300031FF9DF805209DF806301F2AB7612146EA
:10594000B761B7611CD1A3F12502032A18D8124A06
:10595000252B137005F0010006D1002814BF4FF469
:1059600080734FF4847305E0002814BF4FF4007374
:105970004FF404730B80FFF7C3FE084B400A186016
:105980000888B0FA80F0400903B0F0BD72D7072054
:105990007061020000C0092074D7072078D7072063
:1059A000F8B58B1817460D4A013B1268044693421E
:1059B00010D84D02FFF786FF00262D1BBE4204EBD8
:1059C000050209DA21460648FFF7AAFE04F500742D
:1059D0000136F3E70120F8BD0020F8BD78D7072095
:1059E00081580100F8B58B1817460C4A013B126824
:1059F00093420FD804460026C0EB4125BE4204EB7B
:105A0000050209DA21460648FFF78AFE04F500740C
:105A10000136F3E70120F8BD0020F8BD78D7072054
:105A2000055B010008B5072805D8DFE800F0060986
:105A30000E1214141414042008BDFFF743FF0AE0EB
:105A4000FFF75EFE400A086005E04FF400730B802C
:105A500001E001230B60002008BDFFFF70B590B08E
:105A600003466A466E4600F14005144618685968B8
:105A7000083303C4AB422246F7D1084D4024EC6101
:105A800000219B20FFF7E8FE21463046FFF782FE0B
:105A9000AC61AC61AC6110B070BD00BF00C009204A
:105AA00070B50646074D402400217720EC61FFF7D2
:105AB000D3FE21463046FFF76DFEAC61AC61AC61B0
:105AC00070BD00BF00C0092008B5064B198831F031
:105AD0001F0104D0FFF714FEB0FBF1F008BD08462B
