:020000021000EC
:10000000E03F082095010100FB000100E100010034
:10001000090101001901010029010100000000008F
:1000200000000000000000000000000051B50100C9
:100030003901010000000000B1B5010059010100C3
:10004000A1BB0100A1BB0100A1BB0100A1BB01003C
:10005000A1BB0100A1BB0100A1BB0100A1BB01002C
:10006000A1BB0100A1BB0100A1BB0100A1BB01001C
:10007000A1BB0100A1BB0100A1BB0100A1BB01000C
:10008000A1BB0100A1BB0100A1BB0100A1BB0100FC
:10009000A1BB0100A1BB0100A1BB0100A1BB0100EC
:1000A000A1BB0100A1BB0100A1BB0100A1BB0100DC
:1000B000A1BB0100A1BB0100A1BB0100A1BB0100CC
:1000C000A1BB0100A1BB0100A1BB0100987002000F
:1000D00000C007209003000090C30720EC1500002B
:1000E00004207146084203D0EFF309800BF07EBD77
:1000F000EFF308800BF07ABD704708B5014808F0AF
:100100007BF9FEE75269020008B5024808F074F96D
:10011000FEE700BF5D69020008B5024808F06CF90F
:10012000FEE700BF6869020008B5024808F064F9FC
:10013000FEE700BF7369020008B5024808F05CF9E9
:10014000FEE700BF8069020008B5024808F054F9D4
:10015000FEE700BF8E69020008B50BF0ADF90BF0A9
:1001600049FABDE808400BF0BBB90B4610B5401A80
:100170005C1AA24203D9C45843F8044BF8E710BDF7
:10018000034610B500221C1AA14202D943F8042BE1
:10019000F9E710BD16480BF0D1FA15480BF0D1FA6B
:1001A000144C154DAC4201D3144D07E094E8030004
:1001B0000C3454F8042CFFF7D8FFF3E7AC4206D216
:1001C00054F8080B54F8041CFFF7DAFFF6E70DF0BB
:1001D000D7FB0BF0CDFA01F0DBFD03F0FFF94FF494
:1001E00016400BF021FE064808F006F9FEE700BFB6
:1001F000E03F0820CC000100D8000100E000010031
:10020000A26902000BF0B8B90BF0C6B9144B10B5D7
:100210001A68014612B94FF080521A60114C1868E2
:100220002468421894421A6007D20F4CA24204D8A4
:100230000E4A0B488C18046010460D4A1B68126861
:10024000934222BF064B00201A6039B1094A136855
:1002500001331360084B1860084B196010BD00BFD4
:1002600094C307209CC30720FFBF07207CD9072029
:10027000A0C30720A4C3072090C3072098C307206A
:100280000DF0B6BC0DF0BCBC0DF0BABC30B50446E8
:100290008BB068460DF068FF224B079A2360089BDD
:1002A000214DA36062602149214B52B90A68186848
:1002B00082428ABF02F1604202F17042A2F5E82256
:1002C000626062681B68B2F5803F82BF02F17042D3
:1002D000A2F5E82262600022E2600A68934206D337
:1002E000991AC5F1005303F504230B440BE0114B9D
:1002F0001B68934208D9991AC5F1005303F5F823F6
:100300000B44002B00DDE36020460B4BE2611B68D1
:10031000A3610A4B1B686361094B1B6823610BB027
:1003200030BD00BF7C1900007CD9072094C3072092
:100330009CC30720A0C3072090C3072098C30720B1
:10034000A4C3072000207047034A044B1A60044AE4
:10035000044B1A60704700BF008000109CC3072048
:1003600000400820A0C30720014B1860704700BF61
:10037000B0C30720014B1860704700BFA8C3072017
:1003800008B502480EF098FEFEE700BF604002008C
:1003900008B502480EF090FEFEE700BF7A4002006A
:1003A0000020704701207047F8B5084B16461A68C0
:1003B0000F461C4642B10D46EB1B9E4204DD2368EE
:1003C00015F8010B9847F7E73046F8BDB0C3072092
:1003D000F8B5094B0F46186816461C4658B10D462D
:1003E000EB1B9E4205DD23680020984705F8010BB2
:1003F000F6E726EAE670F8BDA8C30720704700209C
:100400007047FFFF074B1B689A68824207D05A6803
:10041000824204D0DB681B1A5842584170470120C1
:10042000704700BFD4C107200020704700207047EC
:1004300030B504468DB0A8B3684609F023F99DF89D
:100440000030002503F03F0303939DF8013003A81B
:1004500003F03F0304939DF802300B9503F01F0354
:1004600005939DF8043003F01F0306939DF80530B3
:1004700003F00F03013B0793BDF80630C3F30B03F2
:10048000A3F26C7308939DF8033003F007030993FC
:10049000BDF80830C3F30B03013B0A930DF0F2FCE7
:1004A00084E8210000200DB030BDFFFF70B50F4D76
:1004B0000F4E2C6814F0010415D128460CF054F8A6
:1004C00088B14FF40E70FFF7DBFE302380F8353231
:1004D0003A2380F8344280F8363280F83742306070
:1004E00028460CF04DF8306870BD00BFCCC3072023
:1004F000D0C3072070B50F4D0F4E2B6813F00104C9
:1005000016D128460CF030F890B14FF40E70FFF77A
:10051000B7FE012380F83432312380F835323A2394
:1005200080F8363280F83742306028460CF028F8E0
:10053000306870BDC4C30720C8C307202DE9F04F41
:10054000ADF51B7D0F4608F0E7FA041E04DD0AF046
:100550007BFF20460AF0BEFC0DF114094C462A4DE3
:100560004FF0640B0FCD0FC42B6804AA2360102139
:1005700000240AA804940AF06BFE244A8246244907
:10058000384609F0EFFA26460AAD4FF00008D0458C
:100590001CD06B69A34215D1AA69049B16441BB1F8
:1005A000B3FBFBF3B2FBF3F3297B039202932B8C97
:1005B00000949B00019359F821306A681549384628
:1005C00009F0D0FA08F101082435E0E701340A2CDB
:1005D000DAD1049B64229E1BB3FBF2F30E49B6FBF7
:1005E000F3F30E4A0096384609F0BCFA0AF046FBCF
:1005F000102804D910220A49384609F0B3FA01201C
:100600000DF51B7DBDE8F08F94400200B340020061
:10061000B8400200DF40020007410200FC40020037
:100620002641020010B50C46ADF5007D68460BF082
:100630003DFA20464FF0FF32694609F05DFA01208D
:100640000DF5007D10BDFFFF30B50C4691B02C4973
:10065000054608F06DF9002847D00CAB04930BABAE
:1006600003930AAB029309AB019308AB009306AA6C
:1006700007AB2449284608F0C3F8072801D000201A
:100680003BE09DF83930069A0DA862F303038DF81C
:100690003930079A9DF8383062F304038DF838300A
:1006A000089ABDF83A3062F30B03ADF83A30099A74
:1006B0009DF8363062F304038DF836300A9A9DF8BF
:1006C000353062F305038DF835300B9A9DF83430E0
:1006D00062F305038DF834300C9A9DF8373062F3DD
:1006E00002038DF8373008F0F5FF09F08FF806495E
:1006F0000246204609F036FA012011B030BD00BF95
:10070000504102005441020019620200F7B50D4643
:100710004E49044608F0FCF9064640B107F004FDD6
:100720004FF0FF324A49284609F0E6F98BE0494983
:10073000204608F0EDF960B307F01AFD464902467D
:10074000284609F00FFA07F01FFD444902462846E3
:1007500009F008FA07F012FD41490246284609F05F
:1007600001FA304607F0FAFC0446012007F0F6FCD7
:100770000646022007F0F2FC0746032007F0EEFCD5
:1007800000970190334622463649284609F0EAF997
:1007900059E03549204608F0CBF850B1202201211C
:1007A000204608F063F9204608F0B4F907F004FE8B
:1007B00049E02E49204608F0BBF8064620B92C49EE
:1007C000204608F0B5F860B32A49204608F09EF8A4
:1007D00060B92949204608F099F828B920462749E8
:1007E00008F094F8044602E0032400E002243146B5
:1007F000204607F039FD224A224B002E18BF1A4628
:100800003CB1012C07D01C491A4B022C18BF0B46D7
:1008100002E01D4B00E0194B1C49284609F0A2F9E3
:1008200011E0204608F076F9194A1A490090F6239B
:10083000012007F027FD204608F06CF91649024612
:10084000284609F08FF9012003B0F0BD8F41020066
:1008500095410200AE410200B5410200CA410200CA
:10086000DF410200FE4102002E420200324202003D
:100870003A4202008A410200844102007E53020093
:10088000754102006D4102007E41020043420200B8
:10089000A84002005C4202008F42020030B589B0DD
:1008A00004AB002400930D4603AB022218490394C5
:1008B000049407F0B3FF022827D107AB009305AAE1
:1008C00006AB0499039805940694079404F04EF936
:1008D000024638B1049B0F4900932846039B09F058
:1008E00041F910E0059A069B002A079908BF0122EA
:1008F000002B08BF0123B1FBF3F3B1FBF2F2284652
:10090000054909F02FF9012000E0204609B030BD6B
:100910001E5302009D420200BC4202002DE9F04736
:100920000E46ADF5856D3949054608F08BF8384916
:100930000746284608F0AFF83549284608F0CBF8B6
:10094000284608F0E7F80122014681A806F058F988
:10095000044640B1284608F0DDF82E4902463046EC
:1009600009F000F94CE00DF1040A01464FF4007261
:1009700050460DF0A2F900940BF082F880468946AB
:100980006B464FF40072514681A806F0D3F908B9BE
:10099000009B23BB81A806F09CFBCFB10BF070F845
:1009A0004FF47A7200230CF063FD002305464FF4E8
:1009B0007A72404649460CF05BFD281A14BF034684
:1009C0000123B4FBF3F322461349304609F0CAF879
:1009D0004FF0FF321149304609F08EF810E01C4408
:1009E000002FCDD13D46009B9D42C9D233681AF8F5
:1009F00005105B684FF0FF32304698470135F2E74B
:100A000001200DF5856DBDE8F08700BFEA420200C8
:100A10001E530200F3420200074302009548020001
:100A20002DE9F0470023BEB00C46534905460C9310
:100A300008F06EF820B9284608F06CF8064600E089
:100A40004E4E314615A806F0FDFB054630B1034673
:100A500032464B49204609F085F889E0324649493B
:100A6000204609F07FF82F460DF1780880230DA964
:100A700015A8CDF84C80149306F028FC002861D10D
:100A80009DF83D30002B5DD09DF83C100DF13D00F0
:100A9000CA065BBF0D9B0C9A44229B185BBF0C934C
:100AA0002D220135013711F0010F14BF52232D23E0
:100AB000BDF83AA011F0020F09900D9814BF4FF045
:100AC000480E4FF02D0E11F0040F14BF4FF0530CD1
:100AD0004FF02D0C089011F0200FCAF34510BDF80F
:100AE000381007904FEAEA20069001F01F000590A9
:100AF000C1F343104FEA612114BF4FF041094FF099
:100B00002D0901F2BC71CDF804C0CDF800E00490CD
:100B10000391CDF808901C49204609F023F84FF0C6
:100B2000FF321A49204608F0D3FF41464FF0FF320A
:100B3000204608F0CDFF4FF0FF320F49204608F065
:100B4000DBFF91E73A46124900950C9B204609F0DD
:100B500009F80BAA0CA9304606F0E7FB40B90B9B3D
:100B60000C499A780C9B20465A43520808F0FAFF29
:100B700001203EB0BDE8F087954802002243020004
:100B800025430200494302006443020091430200EE
:100B900095430200BF43020070B50C46064607F0BD
:100BA000B9FF0546304607F0B5FF06F080FC064A5F
:100BB000064B0749002808BF13462A46204608F07E
:100BC000D1FF012070BD00BF754502007F450200C6
:100BD000D343020070B50C46064607F09BFF05465E
:100BE000304607F097FF06F005FC064A064B07491A
:100BF000002808BF13462A46204608F0B3FF01200C
:100C000070BD00BF754502007F450200EF43020042
:100C10007FB503AB002400930E4602AB02220F49BE
:100C20000294039407F0FAFD022814D1029C039D5C
:100C30002046294606F0E4FC094B0A4922460028D2
:100C40000CBF084618462B4600900749304608F06E
:100C500089FF012000E0204604B070BD1E53020051
:100C60007F450200754502000144020030B5ADF534
:100C70000D7D0C46054607F04DFF0A22014603A8EC
:100C800005F0BEFF40B1284607F044FF1F49024669
:100C9000204608F067FF34E08DF8070002901C49F9
:100CA00042F210737E22204608F05CFF194920466C
:100CB00008F058FF236842F210721B680DF107011B
:100CC0002046984718B19DF807307E2B03D103A822
:100CD00006F0FFF915E002AB01220DF1070103A8B0
:100CE00006F0E0F858B9029B012B08D123684FF0B9
:100CF000FF325B689DF8071020469847DAE70649FF
:100D0000D5E701200DF50D7D30BD00BF194402006F
:100D10004044020078440200984402002DE9F04F5C
:100D2000ADF5417D002304AC236003930D46009490
:100D300003AB0222414907F071FD022806D04FF0B3
:100D4000FF323F49284608F0D7FE72E0216817A815
:100D500006F078FA10B122683A4906E0039917A81C
:100D600006F070FA28B1039A3749284608F0FAFECF
:100D70005FE04FF480720DEB020105A807F010FD53
:100D80004FF4807280A90AA807F00AFD20AE8027E0
:100D90000FA917A81596169706F098FA002842D1C1
:100DA0009DF84530002B3ED09DF8443003F01003F1
:100DB00003F0FF0A002BEBD10DF14503039A234901
:100DC00005A807F0F1FE0DF1450322681F490AA8A6
:100DD00007F0EAFE05A807F09DFE07460AA807F0FF
:100DE00099FE804605A8DDF83C9007F093FE834607
:100DF0000AA807F08FFE534652460146CDF800A0E0
:100E0000584603F0B3FE124A124BCDF8009000286A
:100E10000CBF184610461049019043463A462846F2
:100E200008F0A0FEB3E70AA807F0CFFC05A807F07A
:100E3000CCFC01200DF5417DBDE8F08F1E53020072
:100E4000BF44020004450200294502004945020052
:100E50007F450200754502004F450200F8B50D467A
:100E60002449064607F054FE0446074618B1FFF72A
:100E700041FB002208E02049304607F049FE0446C5
:100E800060B1FFF713FB3A46114600F2352006F039
:100E900047FC4FF0FF32194B194922E019493046FF
:100EA00007F036FE044658B1FFF724FB012200F29A
:100EB000352105F067FE4FF0FF32134B134910E068
:100EC0001349304607F024FE044680B1FFF7EEFADE
:100ED000012200F2352105F055FE0E4B0E494FF070
:100EE000FF32002818BF1946284608F005FE2046A4
:100EF000F8BD00BFD6450200E0450200784502007B
:100F00006E450200ED450200954502008545020050
:100F1000F6450200BA450200AC45020008B5084695
:100F20004FF0FF32084908F0E7FD07F0FDF84FF4F5
:100F3000FA6009F0CFFF4FF08043AA221A72002214
:100F40001A70012008BD00BF0246020010B5012042
:100F50000C4607F019FC40B100231A46194609F067
:100F6000CBFA4FF0FF32054902E005494FF0FF325E
:100F7000204608F0C1FD012010BD00BF134602004D
:100F80002946020038B5064C236833B91C20FFF708
:100F900077F9054608F0F2F92560206838BD00BFF2
:100FA000BCC307202DE9F04F5F4C91B023680E467B
:100FB00033B92C20FFF764F9054608F009FD2560D8
:100FC0002768FFF773FA00240CAA0DA900F2352058
:100FD0000D9406F0AAF948B90C9A0D9C956993787E
:100FE000023D5C435D4364086D0800E025464F4BBD
:100FF0001A6898467AB90C20FFF742F98146FFF744
:10100000C1FF902389F804300023C9F80000C9F813
:101010000830C8F80090D8F8000003F095FD81462C
:101020000CF0E0F90A900BF0C3FF014648460BF0C4
:1010300009FF3F490CF010F80CF0D4F981460DA8D7
:101040000AF08CFB04F0D6FC68B308F059FC04F0FD
:10105000BBFC4FF0000A0346D346D0469A450B939B
:101060000BD0504604F014FD804538BFD3460B9B8F
:1010700038BF80460AF1010AF0E708F059FC642302
:1010800003FB08F32B4ACDF80880B3FBF2F3C3F15E
:1010900064030093CDF804B02B462246264930461F
:1010A00008F060FD05E02B4622462449304608F052
:1010B00059FD234C23681BB90120FFF7E1F820609C
:1010C000206803F006FD044608F0A0FBFB8C0A9A9A
:1010D0000993BB8C1B4908939DF83430019003F0B1
:1010E0003F0307939DF83530009403F03F030693C8
:1010F0009DF83630304603F01F030593BDF83A30B3
:10110000C3F30B0304939DF8383003F01F030393DC
:101110009DF8393003F00F0302934B4608F022FD8F
:10112000012011B0BDE8F08FC0C30720B4C3072071
:1011300000002041A086010062460200964602009F
:10114000B8C30720A44602002DE9F04F0D46C7B0F2
:101150005549814607F003FC54498246484607F04A
:10116000FEFB53498346484607F0F9FB00270DF183
:10117000100805AE044602970397C8F80070376060
:10118000BAF1000F45D0009603AB02AA4949484680
:1011900007F036FB012807DC28464FF0FF324649AE
:1011A00008F0AAFC38467CE00DF118084FF4807472
:1011B0002246394640460CF080FD336813B90123BE
:1011C000336003E0B3F5807F88BF3460FFF7DAFE59
:1011D00033689DF80C209DF808100093434608F0F2
:1011E00087FD364A364B3749002818BF1346029A06
:1011F000284608F0B7FC002433689C424ED2039A7C
:1012000018F8043022443049284608F0ABFC013479
:10121000F2E7BBF1000F2CD0CDF8008003AB02AA9F
:101220002A49484607F0ECFA032807D028464FF031
:10123000FF32274908F060FC504632E0FFF7A2FE7B
:1012400098F800309DF80C209DF8081008F065FD16
:1012500048B1039B1F490093D8F80020029B284601
:1012600008F080FC1AE0029A1B49284608F07AFC34
:1012700014E0A8B102230293029BFE2B10DCFFF7BF
:1012800081FE9DF8081008F053FD20B1029A134921
:10129000284608F067FC029B0233ECE7012000E0DF
:1012A000204647B0BDE8F08F3D5402000D470200D4
:1012B000134702001C4702002B470200754502003D
:1012C0007F4502004C470200704702008047020041
:1012D00090470200B7470200D1470200EE470200E4
:1012E00070B5ADF50A7D05460C4607F080FA0B286F
:1012F00002DD0C2222493CE0284607F00BFC0122CB
:10130000014601A805F07CFC064668BB01A805F073
:10131000E0FE284607F0FEFB1A490246049B2046E1
:1013200008F020FC236820469B6898470A2009F0B3
:10133000D1FD4FF0100383F31188BFF36F8FBFF31C
:101340004F8F284607F0E6FB02460F4B00685168B6
:1013500003C390680D4A186043F80C2C4FF080438B
:10136000AA221A721E7007E0284607F0D3FB024635
:101370000749204608F0F6FB01200DF50A7D70BDF7
:10138000284802004F480200484002400DD0ADDE20
:10139000964802002DE9F041404CA4B0236806466F
:1013A000DB070D460CD420460BF0DEF840B14FF4BD
:1013B00080600CF01DFC3A4B186020460BF0E0F802
:1013C0003849304607F0CBFA0746044600B380227E
:1013D000002104A80CF071FC00230293039303ABDB
:1013E000009304AA02AB3049304607F009FA2C49B1
:1013F000029B039A096804A813B903F053FC01E0A7
:1014000003F072FC294B2A49002818BF194638E01E
:101410002849304607F0A3FA074600283AD004AB23
:10142000304603AA2449039404948DF8084007F039
:10143000E7F9039E049B3344B3F5806F02DCDFF8C9
:1014400060800CE04FF480621C4920E0D8F8003046
:101450009DF808209A559DF8083001361C44039BDE
:10146000049AF31A934210DAB6F5806F0DDA2B68FE
:101470004FF4FA621B6802A9284698470028E5D174
:101480000F49284608F06EFB04E022460D49284625
:1014900008F068FB384624B0BDE8F081D8C30720C7
:1014A000D4C30720C1480200C8480200AF48020068
:1014B000AB480200D8480200DF480200E9480200B9
:1014C0000D4902001D49020038B50D4607F024FB06
:1014D0000446C0B202F0AEFA054A064B064900289F
:1014E00018BF13462246284608F03CFB012038BDB1
:1014F000754502002E4902003549020030B50C4600
:10150000054687B00A4908F02DFBA188238804917D
:10151000218962880391E18828460291E17A01914C
:10152000A17A0091034908F01DFB07B030BD00BF50
:101530004C490200824902002DE9F0418CB003AB16
:10154000002600930D46904602AB022238490296CF
:10155000039607F063F9B04266DD02980CF01FF9BC
:10156000C7B2039818B10EF0A9F8C4B200E004465F
:10157000002104A803F0FEF830B14FF0FF322D49EE
:10158000284608F0B9FAF3E7022318F100010093A6
:10159000039A234618BF0121384602F08FFB064606
:1015A00038B94FF0FF322449284608F0A5FA012641
:1015B0003AE0B8F1000F37D04FF47A7104A803F085
:1015C000E1F860B39DF81030BB4228D19DF8173088
:1015D0000C2B04D13A4606A92846FFF78FFFBCB969
:1015E0001649284608F0BEFA9DF817309C420ADAE0
:1015F00004AB19192B684FF0FF325B68097A284653
:1016000098470134F0E70E49284608F0ABFA0BE0A2
:101610004FF0FF320B49284608F06EFA04E0029AB8
:101620000949284608F09EFA30460CB0BDE8F08122
:101630001E530200A0490200C2490200EA4902000A
:1016400017500200FE4902001B4A02001FB501A804
:101650000C4602F011FD02F0F9F901A902462046FC
:10166000FFF74CFF012004B010BDFFFF30B58BB079
:101670000AAA4FF47A730C4642F8243D174907F042
:10168000BFF80025019902A803F074F8D8B19DF8BD
:1016900008201349204608F065FA00259DF80F3010
:1016A0009D420ADA02AB591923684FF0FF325B689A
:1016B000097A204698470135F0E70A49204608F0A4
:1016C00051FA0125DEE72DB94FF0FF3206492046D9
:1016D00008F012FA01200BB030BD00BFE64802004E
:1016E000414A020094480200584A020037B50C46AD
:1016F00002F026FB05461649204608F033FA154944
:101700002A46204608F02EFA1149204608F02AFA07
:10171000D5B11149204608F025FA0D49204608F0B8
:1017200021FA0025E8B202F0F5FA013540B18178DE
:101730004378027800912046084908F013FAF1E74F
:101740000349204608F00EFA012003B030BD00BF67
:10175000694A0200844A02009E4A0200B94A020015
:101760002DE9F3473C4C074626688946002E62D196
:101770002420FEF785FD0423054680E848008660A6
:10178000C660202130460DF001FDAE68E8604FEAEA
:101790008608072E0ED81020FEF772FD8246102212
:1017A00000210CF08AFAEB68013643F808A008F132
:1017B0000408EEE7002608236B604FF00108274B72
:1017C000274A28492846009685F82080256006F09B
:1017D0001DFA254B254A26492068009606F016FA80
:1017E000244B254A25492068009606F00FFA244B21
:1017F000244A25492068009606F008FA234B244A1B
:1018000024492068009606F001FA234B234A244914
:101810002068CDF8008006F0F9F9224B224A2049D1
:101820002068009606F0F2F90096204B204A2149E4
:10183000206806F0EBF92049384607F069F918B13D
:101840001E49384607F01EFA4A463946206802B05B
:10185000BDE8F04706F0BABAE0C30720D44A020058
:101860000E4B02000D1B0100154B0200694B0200DC
:10187000E1180100724B0200954B02006D16010049
:10188000984B0200F7500200C9140100C24B02003D
:10189000DE4B0200ED160100E54B02004C4C02004D
:1018A00039150100264C02004B4C0200504C02003E
:1018B0006B4C02004D16010095480200714C02006D
:1018C00038B5064C236833B95820FEF7D9FC0546D5
:1018D00007F0B8FE2560206838BD00BFDCC30720D4
:1018E0002DE9F04F0446ADF2DC5D802288460DA85C
:1018F00000210CF0E2F9802200212DA80CF0DDF986
:1019000006AE002333600DAA00962DAB7549204624
:1019100006F076FF032801D00020DFE001220DA9A8
:10192000EDA805F06DF905460028F5D1FFF7C8FFD1
:101930003368802280F853304DA9044608A88DF8FA
:101940001750079506F02CFF2DAB009333680DAAB6
:101950006549404608F006F9A94607AE33464FF4FC
:1019600000726DA9EDA805F0E5F9002840F0AF8000
:101970003368002B00F0AB806F1C32685B49204657
:1019800008F0F0F8236820469B6898477D1E0DF507
:10199000DA7B4FF0000A6DAB3268C3EB0B039A425F
:1019A00023680CD9CDF80CB05B684FF0FF321BF800
:1019B000011B20469847039B1B789A44EBE79B68E2
:1019C0002046984708A807F0A5F8834608A806F01F
:1019D00011FF4FF47A7302465946204608F09AF8F0
:1019E000202201210DEB020007F040F808A807F0C3
:1019F00093F8824520D008A807F08EF85246034697
:101A00003B49404608F0AEF83A49204608F0AAF8AB
:101A1000236820469B68984723684FF47A721B68B6
:101A20000DF11701204698470028F5D1022F07F144
:101A300001034CD81F46A0E733682DAA2E49009316
:101A400020464B4608F08EF8236820469B6898474E
:101A500008A807F05FF8824608A806F0CBFE5146BA
:101A600002464FF47A73204608F054F8234908A838
:101A700006F04CFFD0B908A807F04CF82049024600
:101A8000404608F06FF81B49204608F06BF82368C1
:101A900020469B68984723684FF47A721B680DF1C3
:101AA0001701204698470028F5D1BFE7154908A837
:101AB00007F0E8F83368144999444A46F09B4046D9
:101AC00008F050F8002D3FF448AFBD1E45E7EDA8E3
:101AD00005F0FFFA08A806F078FE01200DF2DC5DA3
:101AE000BDE8F08F764C0200854C02009C4C020051
:101AF000AE4C020094480200D54C0200EB4C0200B0
:101B0000EE4C020095480200264D02002DE9F047F8
:101B1000074686B006AA002442F80C4D0E463D4901
:101B200006F06EFE20220121384606F09FFF039B3F
:101B3000002B65D0384606F05AFE002860D0FFF72B
:101B4000BFFE05460DF1180808F80D4D2B6805225B
:101B50001B6841462846984704460028F6D1039B57
:101B6000384685F8533006F0D5FF274601464FF03A
:101B7000FF32284607F0C0FF2B6828469B6898472D
:101B8000254B0DF11809186849F8044D04902B688D
:101B90004FF47A721B68414628469847D0B1032219
:101BA0000DF1150148460CF06DF89DF80BA00422CC
:101BB00004A948468DF817A00CF04AF850B13368D4
:101BC00001225B6851463046013798470028DED134
:101BD0000134DCE71822B7FBF2F302FB137202B107
:101BE00001333A460D49304607F0BCFF74B161231A
:101BF000009322460A4B0B49304607F0B3FF05E03D
:101C00004FF0FF320849304607F076FF012006B05A
:101C1000BDE8F087E64802002A490200324D020082
:101C2000594D0200954D02004E4E020001480DF044
:101C300043BA00BF7A4E020038B504460D460AF09A
:101C4000A1F8074BB0FBF3F00223B0FBF3F2AA427A
:101C500004D9B3F5807F01D00233F6E7236138BDA4
:101C600040420F007FB500F235260C460122314676
:101C700004F088FF054648BB039002AA03A930463A
:101C800005F053FB00BB0298039A837802FB03F133
:101C900082691348023A5A435208B2F5004F38BFDE
:101CA0000120104B4FEA510124BF03464FF48060DE
:101CB000B1FBF0F1B2FBF0F20091019321460A482A
:101CC0000DF088F9012008E0084B00E0084B2A4697
:101CD000214608480DF07EF9002004B070BD00BF19
:101CE000B84E0200B54E0200C24E0200BE4E0200C7
:101CF000BB4E0200F04E020038B5074C23684BB9CA
:101D00000820FEF7BDFA0546FFF73CF9402328609E
:101D10002B712560206838BDECC3072038B5054C11
:101D2000256825B90120FEF7ABFA05702060206810
:101D300038BD00BFE8C3072038B5084C23685BB93D
:101D40000C20FEF79DFA0546FFF71CF990232B7136
:101D500000232860AB602560206838BDB4C307202D
:101D600010B5044C23681BB90120FEF789FA2060E6
:101D7000206810BDB8C3072010B5044C23681BB9F8
:101D80000120FEF77DFA2060206810BDE4C3072023
:101D9000AD49AE4A4023F0B58B614FF000739361BB
:101DA0004FF480338B61AA4BADF5057D186807258C
:101DB00020F0F00018601868022440F0500018600D
:101DC000186820F440501860086840F0400008602F
:101DD000186820F47C201860186840F428201860E7
:101DE000186820F470001860186840F4200018602B
:101DF000186820F040401860186840F000401860F3
:101E0000586820F03C005860586840F0280058603E
:101E1000586820F003005860086840F4803008607B
:101E2000586820F440505860086820F4800008602A
:101E3000D96821F44031D960116841F08071116096
:101E4000596821F440215960596841F48021596052
:101E50009868804901409960116841F4897141F0A6
:101E600001011160996821F470119960996821F05D
:101E700070419960116821F446411160D96821F0E0
:101E80003001D960D96841F03001D960D96821F4B6
:101E90007011D960136843F000731360136823F066
:101EA0008063136006F04CFF01210A2009F07CFDDD
:101EB00001210A2009F090FD674801210560446076
:101EC000FFF7BAFE07F0ACFC0121152009F06CFD0C
:101ED0000121152009F080FD604801210560446062
:101EE000FFF7AAFEFFF74EF8642107F00BFA10B9CE
:101EF0005B480DF0E1F809F093FD02F015FC10B914
:101F000058480DF0D9F84FF4FA6006F0D2FEFFF70A
:101F10008DFE09F037FF0BF047F853490BF050F9ED
:101F20000AF0B6FC02460B4650480DF053F809F093
:101F30000FFC052804AC14D1002363604C4B1B68D4
:101F40002360FFF773FE4B4B4B48D96C1A6D5B6DEA
:101F500000940DF03FF8FFF769FE41F2883006F07B
:101F6000A8FEFEF7A3FA4549FFF77CFE054668BBCD
:101F700043480DF02FF803F0B5FDFEF797FA294618
:101F80002A4600F2352005F0CBFB3E4B3E4A0028A6
:101F90000CBF104618460DF08FF8FEF787FA374948
:101FA000FFF760FE90B939480DF086F803F01CFD8C
:101FB000014637480DF00EF803F006FD054603F024
:101FC00013FD00FB05F133480DF004F8324E334F9A
:101FD000336813F0010516D130460AF0C5FA90B106
:101FE0004FF40E70FEF74CF9012380F834323123A0
:101FF00080F835323A2380F8363280F8375238602C
:1020000030460AF0BDFA26493868264DFFF72AFE09
:1020100018211148FFF710FEFFF708FE2B684BB997
:102020000820FEF72DF90646FEF7ACFF3823306096
:1020300033712E60286802F030FC0546B0BB1A48A8
:102040000DF03AF833E000BF00C0092020C009209D
:1020500000C00240F0FCFCFF00000340008008408C
:10206000344F0200654F0200002474498A4F020079
:102070004440024000400240A24F02001A500200B9
:1020800022500200284F0200234F02005F5002003E
:102090007E5002008D500200C4C30720C8C3072031
:1020A000A4450200F4C30720A85002000125FFF751
:1020B00043FE02F01FFD064618B972480CF0FCFF03
:1020C0003546FFF719FE02F06BFC064618B96E485C
:1020D0000CF0F2FF35466D4E33681BB90120FEF758
:1020E000CFF83060306802F029FCFFF739FE02F0CB
:1020F000EEFCFFF713FE02F08CFCFFF73DFE02F052
:10210000EBFCFFF70BFE002102F086FC8DB9FFF718
:102110008DFDFFF7F1FD2D2102F02AFCFFF7ECFD0C
:102120002D2102F031FCFFF7F9FDFF2102F074FCD4
:102130000CE0FFF7E1FD0546FFF7FEFD02F004FDB0
:102140000BF076F9C1B2284602F046FC10220021BD
:1021500020460BF0B2FD00230F2221464C4802F02E
:102160007FFD80B920460BF01AFBC5B2284601F06E
:1021700061FC484A484B2946002818BF1346444A88
:1021800046480CF027FFFFF7EBFD02F0A2FC0546E6
:1021900000200EF01FFA28440CF096FF4FF4007256
:1021A000002120460BF089FD204609F07FFC2146E6
:1021B0003B480CF00FFFFFF739FD8022002120463D
:1021C0000BF07BFD204603F0EBFB2278FF2A04D0C6
:1021D000214634480CF0FEFE29E0FFF7CDFD02F069
:1021E0007DFC09281DD130480CF066FF21462F48A0
:1021F0000DF076F821462E480CF0ECFE2D480CF040
:102200005BFF002303A92C4803930DF069F89DF8A8
:102210000C30592B03D1204603F0A0FB07E02748E0
:1022200003E027480CF048FF26480CF045FF4FF22A
:1022300008031D684FF20C031C684FF210031E6860
:102240004FF470431A684FF20403AD0A1968A40AE8
:102250001D480CF0BFFE2A4621461C480CF0BAFE71
:1022600031461B480CF0B6FEFFF7E0FC012005F0FC
:1022700091FF18480CF020FFFFF7D8FC0DF5057D05
:10228000F0BD00BFC3500200DD500200F0C30720C4
:10229000F65002002E4F02002E490200FC500200B0
:1022A00019620200305102004C5102006E510200CE
:1022B000735102008E510200D1510200D55102002B
:1022C000ED5102001B5202004D52020079520200F1
:1022D000A6520200C352020001207047012070473D
:1022E0000120704710B5044C23681BB90120FDF78D
:1022F000C7FF2060206810BDF0C307200120704791
:1023000038B504460F4B00250360636DE06DAB42AA
:1023100005D950F82500FDF7B5FF0135F5E708B1FF
:10232000FDF7B2FF0025A36B206CAB4205D950F836
:102330002500FDF7A7FF0135F5E708B1FDF7A4FF7C
:10234000204638BDFC52020010B50446FFF7D8FF06
:102350002046FDF797FF204610BD2DE9F0410446C9
:102360000E46C06889000CF011FFA568E060AF0060
:102370004FF00008AE420DD90C20FDF781FFE36855
:10238000C0F80080C0F8048080F808800135D8517A
:102390000437EFE76660BDE8F081FFFFF7B504465C
:1023A00000250B464FF480520095254906F0D2F9DE
:1023B000244B042623606663A563E563256402213C
:1023C00004F13400FFF7C9FF26656565A565E5657D
:1023D000284660210CF0DAFEA56DE065AE00172DF1
:1023E0000CD81020FDF74CFF0746102200210BF0FF
:1023F00064FCE36D01359F510436F0E718236365F3
:10240000012384F87030104E0023A4F87430A4F82F
:102410007630A367002200230027C4E92023C4E903
:10242000226709F02DFB4FF47A7200230BF020F89D
:1024300080197941C4E92001204603B0F0BD00BFF6
:1024400014530200FC520200C0D401002DE9F041F7
:102450000F7A14464D680E688FB1082A23D128469A
:1024600006F0C5F900281CDD4FF0FF321349304655
:1024700007F02EFB0121284606F0B8FA08E00A2AE8
:1024800019D00D2A12D02146284606F0D0FB97B16C
:10249000336821463046BDE8F0415B684FF0FF32BB
:1024A00018470724F4E70A2A02D1F1E7BDE8F081D2
:1024B0000D2AEDD0E7E7BDE8F08100BF1D53020013
:1024C000F8B50446142015460F46FDF7D9FE8021C5
:1024D000064606F05CFBA36BE26B9A4206D3616B87
:1024E000591803D204F13400FFF737FFE36B226C75
:1024F000591C52F82330E1631F605E601D72F8BD05
:102500002DE9FF47CF6B06460D4601AC3FB94FF4AE
:102510007A7008F0DFFC01976760A76047E00B6CFA
:102520000DF110081B6893E8070084E807000023FA
:1025300008F80D3D08F096FB81460027EB6B9F42A3
:1025400063D22B6C4FEA870A53F827301868037C54
:10255000002B34D0036800221B684146984770B3B3
:10256000EB6B9F422DD22B6C53F80A3093E8070097
:1025700084E807009DF8032021462846FFF766FF00
:1025800009F07EFA4FF47A7200230AF071FFD5E960
:10259000222380185941C5E92001029806F027F945
:1025A0000746029806F026F9013887420CDB94E8CA
:1025B000070086E80700304604B0BDE8F087013721
:1025C000BCE705F14403D1E7D5E92223134324D026
:1025D00009F056FA4FF47A7200230AF049FFD5E960
:1025E0002023994208BF904217D309F049FA4FF4CB
:1025F0007A7200230AF03CFFD5E922238018594162
:102600000023C5E920010193D1E708F02BFB8145A8
:10261000C3D1022008F05EFCBFE79DF803300A2B0F
:1026200088D1C4E7F0B5054685B020480CF0D2FC4F
:10263000294601A8FFF764FF019C1CB91C480CF057
:102640003BFD30E0029E304606F0D1F800282ADD3E
:1026500009F016FA0746F8B1B5F8743005F15000E4
:102660000133A5F874302246314605F0AFFB114B1B
:1026700000251868009023681DF805105B684FF06E
:10268000FF32204601359847042DF4D109F0F8F9BE
:10269000C11B09480CF09EFC304606F0ADF82368DB
:1026A00020469B689847012005B0F0BD20530200EA
:1026B00095480200F05202002653020038B5064C3D
:1026C000236833B92C20FDF7DBFD054607F080F9C0
:1026D0002560206838BD00BFC0C3072010B5044680
:1026E000FFF7ECFF03682146BDE810405B684FF040
:1026F000FF32184713B5002302AC04F8013DFFF781
:10270000DDFF03684FF0FF321B68214698479DF8B4
:10271000070002B010BDFFFF2DE9F04100F15004A9
:102720008AB000250646009520465B4B5B4A5C4913
:1027300005F06CFA009520465A4B5B4A5B4905F060
:1027400065FA009520465A4B5A4A5B4905F05EFAF5
:1027500000952046594B5A4A5A4905F057FA0095B8
:102760002046594B594A5A4905F050FA00952046DF
:10277000584B594A594905F049FA00952046584B9B
:10278000584A594905F042FA00952046574B584A95
:10279000584905F03BFA00952046574B574A58498F
:1027A00005F034FA00952046564B574A574905F034
:1027B0002DFA00952046564B564A574905F026FA01
:1027C00000952046554B564A564905F01FFA00958C
:1027D0002046554B554A564905F018FA00952046B3
:1027E000544B554A554905F011FA00952046544B73
:1027F000544A554905F00AFA00952046534B544A6D
:10280000544905F003FA00952046534B534A544966
:1028100005F0FCF900952046524B534A534905F008
:10282000F5F900952046524B524A534905F0EEF90E
:102830000095524B524A5349204605F0E7F9FFF7FD
:102840003DFF4FF4807320224FF41641054607F0F8
:1028500095F8804601272F744B48FDF78BFD4B48B8
:10286000FDF782FD3A4629463046FFF729FE082249
:1028700003A905A805F094FF05A8454906F002FA4A
:102880002A4605A9204605F0A1FA05A805F09DFFF6
:1028900040460AB0BDE8F0813C5302007E5302007E
:1028A0003D05010073530200835302002506010019
:1028B0008B53020099530200A50F0100A0530200A0
:1028C000E153020049060100E653020042540200AF
:1028D0001D09010046540200D45402009D08010065
:1028E00088540200D35402001D0D0100D754020089
:1028F00005550200210A0100085502002D5502006D
:10290000990B01003355020060550200110C0100C3
:1029100063550200216D02006D0C01008855020014
:10292000AB550200D50B0100AE55020081560200E6
:102930004911010085560200985602001D0F010042
:102940009F560200E25602005D0E0100EA560200A8
:10295000E95702000D070100ED570200155802006B
:102960004D0F01001B580200814F0200611701004A
:10297000455802003959020095130100025902001E
:10298000E7450200E1120100F5260100DD26010005
:10299000714C020008B500F013FD012008BD0120B4
:1029A000704708B500F0B6FDBDE8084000F09ABDDC
:1029B0007047704770477047FFF7ECBFFFF7EFBFF6
:1029C00010B50446FDF75EFC204610BD70B50B4EF9
:1029D00005010B4B741953F82010201D08F04EFA16
:1029E000E368A0689847A36870590133A360002387
:1029F0001A46BDE87040194607F07EBDF8C30720AF
:102A0000105A020008B50020FFF7E0FFFBE708B509
:102A10000120FFF7DBFFFBE708B50220FFF7D6FF39
:102A2000FBE708B50320FFF7D1FFFBE7F7B5074643
:102A30000D462D4A00240D2312682C49009405F000
:102A400089FE2B4B87F831503B602A4D2A4B0322DD
:102A5000EB602A4B2146EB61294B0120EB62294BAD
:102A6000EB6307F027FD032228602146012007F0D1
:102A700021FD032228612146012007F01BFD224B86
:102A800028621E680523C6F38F060093324623464C
:102A90001E4901941E4807F09FFF0623009332460B
:102AA00023461C4901941C4807F096FF0723009316
:102AB0000194234632461949194807F08DFF97F8CB
:102AC000313073B103222146012007F0F3FC0823C3
:102AD000286332460093019423461249124807F0B6
:102AE0007BFF384603B0F0BD605902007459020004
:102AF000285A0200F8C30720A3290100B1290100C8
:102B0000B3290100B52901005C5902007B5902007C
:102B1000052A01007F5902000F2A01008459020092
:102B2000192A01008A590200232A010038B51748E2
:102B30000C46415C00230131C9B2914202D00155DB
:102B4000184638BD124D0355200128581A4619461B
:102B500007F0D8FD0546B0B90E4B53F82440204687
:102B60000CF0AAFA20460CF0A9FD2B46024621469D
:102B7000094802F0B9F8094A094B9A644FF08043BA
:102B8000AA221A721D70012038BD00BF38C4072068
:102B9000F8C307206459020091590200EFBEADDE70
:102BA00000400240044608B5012008F093F994F86B
:102BB000313023B1012203212046FFF7B7FF0A225B
:102BC00002212046FFF7B2FF0028EDD00A220121A2
:102BD0002046FFF7ABFF0028E6D00A22002120465E
:102BE000FFF7A4FFE0E7FFFF10B50820FDF748FB63
:102BF0000446422101F0F4FD014B1C6010BD00BFF2
:102C00003CC40720014B186801F012BE3CC40720E9
:102C1000024B0146186801F020BE00BF3CC40720EB
:102C2000F8B5084C064625680F4625B90120FDF782
:102C300027FB057020603A4631462068BDE8F84021
:102C400001F040BFE8C3072013B525484FF43453C3
:102C50001A464FF4E131006806F0EEFE08F010FF6E
:102C60004FF47A7200230AF003FC04464FF4FA7220
:102C700001A91B4800F044F9002811DA08F000FF10
:102C80004FF47A7200230AF0F3FB001BB0F5FA6FE1
:102C900006DD134800F0FFF8C82008F01BF9E5E74F
:102CA0000021104806F0E0FB0F490E4806F0DCFB5F
:102CB0004FF4FA7200210A4800F068F904460B4804
:102CC00005F0A9FB0A4805F0A6FB002C04DA094828
:102CD00005F0A1FB002000E0012002B010BD00BF04
:102CE0005CC407205CD507200000C842535A02008C
:102CF0006D5A0200405A020070B5184C4FF48752CA
:102D0000236800210133164823600AF0D6FF154ED0
:102D10000025144B4FF4FA721349144800F088F957
:102D20000028A2BF0E4B96E807005B1905F10C05C1
:102D3000A8BF83E80700B5F5875FEAD124680A22B7
:102D400094FBF2F302FB13443CB9084B21461B6889
:102D5000986907F079FB014B1C6070BD6CC40720BB
:102D600070C4072050D5072054C407205CC4072036
:102D7000054B0D221A605A609A60DA6003494FF4DD
:102D8000B472034800F05EBA44C4072070C4072040
:102D90005CC4072000F02CBB38B5642205210B4829
:102DA0000B4C06F007FB0B4A0B490848FDF7CAFA23
:102DB000236833B92C20FDF763FA054606F066FE5A
:102DC00025602268054B1A6038BD00BF5CD507201E
:102DD00040C40720ACC30720399401005CC407201D
:102DE0007047FFFF08B50348FFF72EFF00F0D2FB46
:102DF000012008BD5DD5072010B5064C2046FFF721
:102E00007BFF2046FFF7B4FF2046FFF7C3FF0120FA
:102E100010BD00BF5DD5072010B50446FDF732FA9E
:102E2000204610BD13B50446002300934FF4FA6208
:102E30000B46044905F08EFC2046034B236002B08C
:102E400010BD00BF9C5A0200BC5A020008B508F031
:102E500017FE4FF47A7200230AF00AFB08BD38B55A
:102E600005460C4613B10AB141F0800428684FF0C2
:102E7000FF320368A5215B68984728684FF0FF324E
:102E8000036821465B689847002038BD00231A4636
:102E90002521FFF7E4BF00231A464021FFF7DFBFDB
:102EA0002DE9F34106460F469046FFF7CFFF054652
:102EB0000024FFF7CBFF401B40451BD830684FF084
:102EC000FF3203680DF107011B6898479DF8072042
:102ED0001CB1012C03D15A2A00E0A52A08D1631C99
:102EE000DBB2072B3A5501D01C46E2E7002002E096
:102EF0000023F9E7014802B0BDE8F08102800080BC
:102F00002DE9FF41064617460C46FFF79FFF0023B9
:102F100080461A4652213046FFF7A1FF002830DBD9
:102F20003A4602A93046FFF7BBFF002829DB9DF88F
:102F30000E30062B21D1BDF80C30BDF80A20C3F3AA
:102F40000D0342EA0343022B17D9651E0234FFF733
:102F50007DFFC8EB0000874212D330684FF0FF328C
:102F600003680DF107011B6898479DF8073005F8C5
:102F7000013FA542EBD1002003E04FF0802000E0AC
:102F8000014804B0BDE8F0810280008073B50E46B0
:102F900004461546FFF77AFF1E4805F03CFA002E5E
:102FA0004FF0000314BF212120211A462046FFF7CD
:102FB00056FF00282CDB184805F02DFA20462A463B
:102FC0006946FFF76DFF041E08DA2146134805F035
:102FD00022FA134805F01FFA204619E09DF8063042
:102FE000812B01D00F480AE0BDF80430BDF8022063
:102FF000C3F30D0342EA0343042B05D80A4805F046
:103000000AFA4FF0802003E0084805F004FA002097
:1030100002B070BDD45A0200DB5A0200E25A02002C
:10302000ED5A0200F45A0200FB5A0200025B020051
:103030002DE9F74380460D4691461E46FFF706FFF1
:1030400007460024FFF702FFC01B48453CD8D8F8CC
:1030500000004FF0FF3203680DF107011B6898472D
:1030600038B19DF807002CB980EA600313F0010F16
:1030700004E03CB3012C02D110F0010F22D0631CFC
:10308000DBB2052B285501D01C46DBE7B5F8030061
:1030900009F08EFF4FF07A5109F0DEFF3060B5F88D
:1030A0000100400809F084FF4FF0725109F0D4FF8D
:1030B00070602B7800209B1033722B7803F0010393
:1030C000737202E00023DFE7014803B0BDE8F0833C
:1030D0000280008010B50C46002120460AF078F9E5
:1030E00028B14C4920460AF05FF9002879D14949B6
:1030F00020460AF06DF928B1474920460AF054F9F4
:10310000002870D1444920460AF062F928B14349A9
:1031100020460AF049F9002867D1404920460AF0C4
:1031200057F928B13E4920460AF03EF900285ED101
:103130003B4920460AF04CF928B13A4920460AF0AA
:1031400033F9002855D1374920460AF041F928B112
:10315000354920460AF028F900284CD1324920464A
:103160000AF036F928B1314920460AF01DF9002845
:1031700043D12E4920460AF02BF928B12C4920468C
:103180000AF012F900283AD1294920460AF020F91C
:1031900028B1284920460AF007F9002831D12549ED
:1031A00020460AF015F920B1234920460AF0FCF820
:1031B00048BB214920460AF00BF920B11F4920469F
:1031C0000AF0F2F808BB1D4920460AF001F9F0B1F7
:1031D0001B4920460AF0E8F8002814BF0C200D20F7
:1031E00010BD012010BD022010BD032010BD042021
:1031F00010BD052010BD062010BD072010BD082001
:1032000010BD092010BD0A2010BD0B2010BD0D20DF
:1032100010BD00BF00007A430000FA4300803B4429
:1032200000007A4400409C440080BB4400C0DA4463
:103230000000FA4400A00C4500401C4500E02B456E
:1032400000803B452DE9F04F8BB0079108920D218E
:103250001022074658489A460AF02FFD574A002583
:10326000D1789478C1F3C2030693C4F3C2030593E3
:1032700004F00703504CA946A0460493079B01F0B5
:10328000070B1E1D039502950195089B994572DA5F
:10329000079B197A00296AD056F8041C30680991F6
:1032A0000AF0A0F8A0F5AD7EBEF10C0F099901D986
:1032B0000F2814D83846FFF70DFF2168CAF8001010
:1032C00021688842B8BFCAF80000C8F80000DAF8E0
:1032D000003003F0070304930123019347E0A0F1BA
:1032E000100EBEF11D0F13D83846FFF7F3FE6168CC
:1032F0008142D4BFCAF80810CAF80800C8F8040010
:10330000DAF8081001F007030593012302932EE079
:10331000A0F59E7EBEF11D0F13D83846FFF7DAFEEA
:10332000A1680123CAF80410A16803938842B8BFBA
:10333000CAF80400C8F80800DAF8041001F0070B16
:1033400015E0A6381D2812D83846FFF7C3FEE168FD
:103350000125CAF80C10E1688842B8BFCAF80C0011
:10336000C8F80C00DAF80C1001F00703069309F115
:1033700001090C3689E7019B2BB1104B04999A780F
:1033800061F302029A70029B2BB10C4B05999A785B
:1033900061F3C5029A70039B23B1084BDA786BF393
:1033A0000202DA702DB1054B0699DA7861F3C50295
:1033B000DA700BB0BDE8F08F00C007205ED50720A3
:1033C00013B500246423019400941A461946002082
:1033D00005F0B0FD0028F5D0002005F0D9FE012150
:1033E000024805F018F8012002B010BD095B020088
:1033F0001FB5394B394C18680AF01AF81022208092
:10340000002168460AF059FC2168354805F003F8A8
:1034100040F285220023A1788DF80F308DF80E3010
:103420008DF80D308DF80C308DF80B30238801F0BD
:103430000700934288BF22800428C2BF042060F3A3
:10344000020126482288C8BF8170A078C2F3090211
:103450008DF8082000F00701120A42EA8101C0F34A
:10346000C202042AC1BF042262F3C5001B4A907045
:10347000A278C2F3C20241EA42128DF80920E27832
:1034800002F007010429C1BF042161F302021349BC
:10349000CA70E278C2F3C2000428C8BF042002F058
:1034A0000701C2BF60F3C5020C48C270E378052271
:1034B00003F038030B438DF80A30682301939DF81D
:1034C0000230694662F30303002210468DF8023091
:1034D00005F00CFE04B010BD6CD907205ED50720A6
:1034E0001E5B02001FB51022002168460AF0E5FBB2
:1034F00001216F2304208DF8081001938DF802102C
:10350000FFF78EFB00226946104605F0EFFD05B07F
:103510005DF804FB10B5002005F0DAFD044620B18B
:1035200005F042FE002005F033FE204610BDFFFFEF
:1035300010B508F0A5FA0A4C6368A060C01A09F03B
:1035400085F905A3D3E9002309F0F6F909F026FC73
:10355000206010BDAFF30080967B1A61B9A7913F40
:103560006CD9072008B508F08BFA014B586008BDEC
:103570006CD9072008B50020FFF74AFB052005F0AD
:1035800083FB0120FFF744FBBDE80840192005F04C
:103590007BBBFFFF08B5FFF727FBFFF733FB074AAD
:1035A0000021012005F096FE0121054A084605F09C
:1035B00091FEBDE80840FFF7DDBF00BF65350100A3
:1035C00031350100704708B501F0E4F8012008BD6D
:1035D00010B50446FCF756FE204610BD37B59020C6
:1035E000FCF74EFE04460321FEF7D8FE204605F008
:1035F00083F83420FCF744FE054600244FF40072A3
:1036000012490094042305F0A5F8114B28462B60BD
:1036100005F072F83420FCF733FE05460421FFF76D
:1036200001FC284605F068F83420FCF729FE054621
:103630002146FFF7FBF9284605F05EF820462146B3
:1036400005F068F84FF0FF3003B030BD814F020045
:10365000545B020010B54FF6FF74242303FB0101F5
:10366000884209D043782BB1038C1344A34228BF6E
:10367000234603842430F3E710BDFFFF37B5002352
:1036800002A840F8043D0C4B04215B6898470B4BA3
:10369000019A1C680546141B1A600421224608483A
:1036A000FFF7D8FF224602210648FFF7D3FF281C68
:1036B00018BF012003B030BD64D5072034D60720E1
:1036C00078D5072051D6072008B50B4B1978037819
:1036D0008B420A4B0BBF1A889A880132013214BF01
:1036E0009A801A80064B8170DB6820219847003051
:1036F00018BF012008BD00BF15C0072009D607204C
:1037000064D507200A4B02781B789A42094B0BBFFD
:10371000DA881A89013201320CBFDA801A81037902
:10372000C3F3C202073262F3C5030371FFF7CCBFD4
:1037300015C0072009D6072010B50749002311F846
:1037400023409A00844202D10348104410BD013343
:10375000042BF4D1002010BD23D6072070B1C3780C
:103760000133DBB2FF2BC37008D105480023C11819
:10377000CA7804335208102BCA70F8D1704700BFC2
:1037800023D60720242202FB01010346024630B55E
:10379000914206D01446243212F8235C002DF7D152
:1037A0000FE00446002599420BD01A79C2F3C200FB
:1037B0001A8C42EA0042AA4284BF1C4615462433B2
:1037C000F1E7204630BDFFFF38B50546C90001F1DD
:1037D0000804FFF753FF1C4B2A781B789A4204D148
:1037E00002211A48FFF7CEFF0CE004211848FFF72A
:1037F000C9FFEB7833B990F82330042443F08003F9
:1038000080F82330002380F8203080F821300246F1
:103810002B4690F8231080F8224021F07F01C4F35A
:1038200006240C4380F8234005F1200153F8044B93
:103830008B4242F8044BF9D1064A0379127862F3BD
:10384000C503037138BD00BF15C0072051D607203E
:1038500078D5072014C0072008B5FFF76DFF034691
:10386000D8B9FFF769FF0346B8B90D4AD378D179C3
:10387000D07A8B4296BF1946131D1346814294BFDE
:103880000846084BD17B084A814238BF1346074996
:1038900000221A60CA7A0132CA72184608BD00BFF7
:1038A00023D607202BD607202FD6072009D607209E
:1038B0002DE9F84F05460C464FF0240909FB021983
:1038C000DFF868A1DFF868B14E1C4FF000084C45E6
:1038D00000F09A8094F823301A0624D5B5B12A78DE
:1038E00061788A4205D16F7816F8010C874200F0A2
:1038F0008D80E87850B16878884207D116F8011CAD
:10390000914203D1A979A27991427FD094F82220E3
:10391000218C03F07F0342EA0323994271DB2046A6
:10392000FFF7D2FE72E06278002A6AD06DB329797F
:1039300001F0C001C02917D116F8010C697888423E
:1039400002D12878904261D0E778A87887420CD1DC
:1039500091420AD116F8010C2978884205D1A07944
:10396000A979884201D151E079B1A878E1788842FB
:103970000BD16978914208D116F8010C2978884258
:1039800003D1A079A979884246D094F82210208CDE
:1039900003F07F0341EA0323984232DB237984F862
:1039A0002080C3F3C201CFB284F821801FB120462A
:1039B000FFF7A8FE25E003F0C003C02B19D016F8CE
:1039C000010C9AF80030984213D1E3789A4210D053
:1039D0007BB16379032262F307136371E1702046C0
:1039E000FFF790FE23799BF8002062F3C503237153
:1039F00000E001276078FFF79FFE08B1C0F8008063
:103A000027B92434243662E7BDE8F88F2422002148
:103A100020460AF052F9F4E7237984F820806FF306
:103A2000C50384F821802371EBE700BF15C0072090
:103A300014C00720431EDBB2FD2B9DBF024B187044
:103A400001200020704700BF15C00720014B1878E7
:103A5000704700BF15C0072007289CBF014B187096
:103A6000704700BF14C007202DE9F7430446914674
:103A70001E469DF828500F46002966D0364B93F815
:103A80000080414563D00F2E61D8002861D02022EC
:103A900000210AF012F9FF2F237914BF09F0030265
:103AA000002262F38713032262F302032B4A67703A
:103AB000127884F8008062F3C503294A23711378D1
:103AC00084F802800133DBB21370A3710BAB019356
:103AD00015B94FF001081BE004F10809019AE079DB
:103AE0001346526853F8081B00EB02085FFA88F887
:103AF000013DB8F1180F0193EDB207D848440AF020
:103B0000B6F884F80780002DE8D1E2E74FF000080E
:103B1000DFF850900123384689F80030FFF70CFE9B
:103B20000546FFF71BFE002389F80030637925B9AD
:103B300066F307136371E57005E0AA7862F3071373
:103B400063716B78E370404603E0084601E00020B3
:103B5000FFE703B0BDE8F08315C0072014C00720BD
:103B600008D6072015D60720124B012270B51A700F
:103B700004461E4608B9002518E0FFF7A5FD0546D6
:103B80000028F8D0237903F0C003402B06D0C02BC7
:103B90000AD1E37853B162789A4207D0617920461E
:103BA0000909FFF711FE01E0802BF7D000233370E5
:103BB000284670BD15D6072082B02DE9F043914606
:103BC000421ED2B28DB0FD2A05460E4615939DF8D1
:103BD000688001D9002057E0002BFBD0179F002FF1
:103BE000F8D0199B002BF5D0189B002BF2D0169B18
:103BF000002BEFD04822002126480AF05EF89022E0
:103C0000002125480AF059F81022002123480AF023
:103C100054F8234B00241C605C609C60214B1C60AA
:103C20005C609C60204B1D70204B214D1E7015AEBA
:103C30000FCE0FC53368182221461E482B600AF0AC
:103C40003CF8494617221B480BF07EFD21462046D2
:103C5000B8470028BED0B8F1000F02D1FFF70EFD23
:103C600012E006230293144B224601930123009392
:103C7000FF2104A8FFF7F8FE0028ABD004A8FFF747
:103C800073FF0028A6D0E9E70DB0BDE8F04302B00D
:103C9000704700BF51D6072078D5072023D60720CC
:103CA00017D6072009D6072015C0072016D60720EB
:103CB00064D5072038D607206C5B020030B5182B7E
:103CC0008DB016D8B2FA82F41D1C18BF0125640904
:103CD000AC420ED00293019200950A469DF8403006
:103CE000014604A8FFF7C0FE18B104A8FFF73CFF87
:103CF00000E000200DB030BD13B5537914781B09D6
:103D0000009302460B4620460321FFF7D7FF02B07F
:103D100010BDFFFF00231A4630B5084C14F823509D
:103D2000990035B1904202D10448084430BD0132B7
:103D3000D2B20133042BF1D1002030BD23D60720AD
:103D400000231846044A12F8231009B10130C0B20A
:103D50000133042BF7D1704723D607202DE9F0411A
:103D600088B020220021684609F0A7FFA14B1B78EC
:103D700003F0FF04002B40F039819F4F20213B6965
:103D800068469847002800F084809C4D6B8801337A
:103D90006B80FFF7D5FF9DF80420A87202F007039F
:103DA000032B04D0964A137843F0010309E0954BA6
:103DB0001D789DF80230AB4205D1914A137843F04B
:103DC00002031370E4E0C2F3C2029DF800E09DF824
:103DD00006008D49D6B204EB440313F801C0F44544
:103DE0000BD10B4493F801C0844506D19978012486
:103DF0008E1B18BF01269A7018E00134042CEAD1FA
:103E000082490B689A70804A587002F10900834217
:103E100083F800E040F0C9800A609DF800009DF83A
:103E20000230834240F0C480002426469DF8020000
:103E3000FFF712FD9DF8022002709DF802204270EB
:103E400000228270FFF78AFC04B116B39DF800309F
:103E5000AB4200F09C809DF80160FF2E1BD13B68B7
:103E600020216846984720B9654A137843F0040337
:103E700013709DF8053003F00F02511C61F303032A
:103E80008DF80530C3F303139A4202DA6846FFF750
:103E90001BFC00247CE0B5422BD164B99DF80730AF
:103EA0004BB13B6820216846984720B9544A1378A3
:103EB00043F0040313709DF8043003F0C003402B5B
:103EC00012D19DF807306A4613B91821504808E00E
:103ED0000C214A48FFF710FF002858D100216A46FC
:103EE0000846FFF709FF52E09DF80330002B4ED142
:103EF000F4E7484B1B78002BCBD09DF8054004F02D
:103F00000F074FEA14184745C3DA013767F3030474
:103F10003046FFF711FC8DF805409DF80340A5429F
:103F200021D19DF8041001F0C001402906D0A1F173
:103F300080035A425A41144610B90CE0012260B184
:103F4000C029437805D19E4203D0003318BF012316
:103F500004E0002302E0C0290ED10346134303F01E
:103F6000010420B908E094B908B941460CE043784F
:103F70008DF80330857802E000258DF803506846FF
:103F8000FFF7A2FB1CB129466846FFF71DFC6C46F3
:103F9000FFF774FB204604221F49FFF789FC022229
:103FA0001E492046FFF784FC20E003330B6034E712
:103FB00085423FF439AFFFF74FFC0446FFF7CEFBD5
:103FC00023783BB19DF80530A27803F00F039342AC
:103FD0003FF72AAF9DF8003023709DF802306370E0
:103FE0009DF80530C3F30303A3701DE708B0BDE8D7
:103FF000F08100BF15D6072064D5072009D6072019
:1040000050D6072015C0072017D6072010C007205C
:1040100038D6072016D6072078D5072051D6072096
:1040200000231846094AD118497809B10130C0B2B5
:104030002433902BF7D1064B5A780AB10130C0B225
:1040400093F825300BB10130C0B2704778D5072006
:1040500051D6072008B5FFF76FFB064B28B18278D1
:10406000187802FB0000C00008BD187818235843D8
:1040700008BD00BF14C0072003490B6803604B68EC
:1040800043608B688360704709D6072070B53E4C4B
:104090004FF48035E5613D4CA0602046C5683B4C3F
:1040A000ED06FBD4A0680D46C0B20BB923465FE015
:1040B0002346002A63D0072A0E782DDD9E604E78B5
:1040C000083A9E608E789E60CE789E600E799E60E3
:1040D0004E799E608E799E6001F10806C9799960DB
:1040E00099694907FCD5A1682970A1686970A16820
:1040F000A970A168E970D968C906FCD4A16808351F
:1041000005F8041CA16805F8031CA16805F8021C49
:10411000A16805F8011C1AE0032A1ADD9E604E789A
:10412000043A9E608E789E600E1DC9789960D968A9
:10413000C906FCD4A168043505F8041CA16805F87B
:10414000031CA16805F8021CA16805F8011C314692
:10415000AFE701319E60013ADE68F606FCD4A6683E
:10416000013505F8016CA4E7E668F606FCD4A668FC
:104170006E1AB24203DD15F8016B9E60F4E7024B44
:104180004FF480329A6170BD00C009200080084061
:1041900007B5002302A901F8013D01231A4600F0EA
:1041A0001F00FFF773FF9DF8070003B05DF804FBE5
:1041B00013B502AC04F8011D00F01F00002301221A
:1041C000214640F02000FFF761FF02B010BD08B5A6
:1041D0001720FFF7DDFFC0F3001008BD7021072096
:1041E000FFF7E6BF0A4600230146A020FFF74EBFB7
:1041F00008B50020FFF7CCFFBDE8084000F0FE0145
:104200000020FFF7D5BFFFFF024B4FF08072DA614D
:10421000704700BF20C0092008B50020FFF7B8FF95
:1042200040F00101C9B20020FFF7C2FF024B4FF07E
:1042300080729A6108BD00BF20C00920202107209C
:10424000FFF7B6BF00231A461946E120FFF71EBF4D
:1042500037B504460D46FFF7F5FF20462946FFF720
:10426000C1FF0D4B4FF080721C469A610022ADF8E1
:104270000620BDF8063001339BB2ADF8063033B9E5
:104280004FF08073E361FFF7DDFF03B030BDFFF750
:104290009EFF0028EDD0F3E720C0092008B51720C5
:1042A000FFF776FF00F0010080F0010008BD40211B
:1042B0000720FFF77DBF08B50A46012301466120AC
:1042C000FFF7E4FEC0F3420008BD00231A4619467A
:1042D000E220FFF7DBBE70B5064600200D4614460F
:1042E000FFF756FF16B100F0BF0002E040F04000BB
:1042F000C0B215B100F0DF0101E040F0200114B1BF
:1043000001F0EF0101E041F010010020BDE8704034
:10431000FFF74EBF10B504460020FFF739FF14B970
:1043200000F0F7010DE0012C04D100F0FB0141F099
:10433000080106E0022C14BF40F0080140F00C0117
:10434000C9B20020BDE81040FFF732BF08B5002019
:10435000FFF71EFFBDE8084040F00201C9B200208F
:10436000FFF726BF08B50020FFF712FFBDE80840A1
:1043700000F0FD010020FFF71BBF40F6DD1398425F
:1043800006D840F66213B0F5166F38BF184600E045
:104390001846A0F51661C9B20520FFF709BF10B590
:1043A00004460620FFF7F4FEFA2C00F0D70102D1F4
:1043B00041F0200104E0B4F5FA6F08BF41F00801B4
:1043C0000620BDE81040FFF7F3BE10B504460620F6
:1043D000FFF7DEFE032C28BF032420F0060040EA8E
:1043E0004401C9B20620BDE81040FFF7E1BEF9283C
:1043F0004FF0FA0305D9B0F57A6F88BF4FF47A60B1
:1044000000E01846B0FBF3F00F2900F1FF30C0B216
:1044100028BF0F2141EA0011C9B20420FFF7C8BE2E
:104420001130C0B2162804D8202928BF2021FFF758
:10443000BFBE7047032804D0042814BF0321022103
:1044400000E001210320FFF7B3BE0A460023014626
:104450003020FFF71BBE0A46002301462A20FFF743
:1044600015BEFFFF73B50E4615460446FFF72DFF38
:10447000FFF7E8FE2B4B4FF08072DA61FFF772FF17
:10448000002211460120FFF726FFFFF7A7FE0220BA
:10449000FFF740FF3046FFF770FF2846FFF77FFF2A
:1044A0000320FFF792FF03210220FFF781FE002186
:1044B0000120FFF77DFE03214FF4FA70FFF797FF0D
:1044C00021460020FFF7ACFF00211220FFF770FE0D
:1044D00000211320FFF76CFE00211420FFF768FE77
:1044E00000211520FFF764FE00211620FFF760FE73
:1044F0000D4B18681B79009005208DF80430FFF7EC
:1045000099FF68460521FFF7A0FF05216846FFF7E0
:10451000A2FFFFF71BFF4FF4FA6004F0B5FB02B0F7
:1045200070BD00BF20C00920735B020070B5174E3C
:10453000326822B92021032005F0BCFF3060144D01
:104540002A6822B92021012005F0B4FF2860114C0F
:10455000216821B90322012005F0ACFF20604FF44F
:10456000FA6240F6C3112020FFF77CFFFFF754FEEC
:104570001620094A012104F095FE306828B1286808
:1045800018B12068003018BF012070BDA0D60720E8
:104590009CD60720A4D607204546010070B50379B4
:1045A000014603F0C003C02B0CBF0E4B0E4B88B06E
:1045B0001D68002306461A46284605F09DFF04465E
:1045C00060B9034602466946284606F09BF8234632
:1045D00022463146284605F08FFF0446204608B0A3
:1045E00070BD00BF9CD60720A0D6072038B5044672
:1045F0000D46FFF72BFA237883420AD0E37843B9BC
:104600000AF08AFDBD2300F0030000FB033004F034
:104610003BFBFFF7F9FDFFF7EBFDA9B22046FFF7E3
:1046200017FEFFF70BFEFFF7F7FD06F06FFE0228FF
:1046300004D1034B0021186806F032F8012038BD80
:10464000A4D6072007B5002302A941F8043D084B72
:10465000186806F025F8019B3BB1064B4FF08052DD
:104660001A60BFF34F8FBFF36F8F03B05DF804FB89
:10467000A4D6072004ED00E038B504460D46FFF748
:104680000DFE48B1A9B22046FFF715FEFFF706FE62
:1046900008B9FFF70CFE012038BD2DE9704305462F
:1046A0000E46144606F032FE022807D122460023A9
:1046B0003146284606F026F8C4B21DE007F0E0F9BE
:1046C0004FF47A72002308F0D3FE10EB040841F196
:1046D000000900231A463146284606F013F8C4B2F2
:1046E00054B907F0CDF94FF47A72002308F0C0FEF8
:1046F000894508BF8045ECD22046BDE87083042977
:1047000038B5054603D1041C18BF012400E000247D
:1047100007F0B6F92CB14FF47A72002308F0A8FE26
:104720002860204638BDFFFF00B50C4B8DB00993C3
:104730000B4B0C4A0B930C4B0A930CAB43F8102D0C
:10474000002204920FCB8DE80F00084B084A01218C
:104750006A20FFF731FA0DB05DF804FB2D4501002A
:1047600079460100FF460100ED4501009D4501002D
:10477000785B0200024B0A4601461868FFF78DBFBE
:10478000A0D60720024B0A4601461868FFF785BFEE
:104790009CD6072008B506F0B9FD0F4B02285B69CF
:1047A00013D15A020DD5FFF73BFC00280B484FF000
:1047B000000314BF01224FF0FF321946006805F0D4
:1047C000A1FFBDE80840FFF7C9BA5B02F9D5FFF7C2
:1047D00027FC0028F5D108BD00C00920A4D6072079
:1047E000F0B5864687B0114F4C1101F01F0501AEA0
:1047F000457004700FCF0FC670463B6803213360CD
:1048000006AB03EB840353F8143C6D00CEF8043080
:10481000E30003F1804303F530331A6801FA05F52C
:1048200022EA05051D6007B0F0BD00BF805B0200F5
:10483000416840780A680123834022EA03030B6041
:1048400070474178426801238B40936170474178FB
:10485000426801238B40D361704709B1FFF7F1BF74
:10486000FFF7F5BF13460A460179006805F055BA0F
:104870001FB5002204AB047923F8042D0222009214
:1048800000680A46214605F033FA9DF80C009DF8B1
:104890000D3043EA002004B010BD10B504461922C3
:1048A0002A21FFF7DFFF0D222179206805F024FA85
:1048B000A0F12A035842584110BDFFFF044A138853
:1048C0001F2B9FBF581C1080024A42F823107047CC
:1048D000ACD60720B0D60720154AF0B51388164687
:1048E000012B21D9134A00201546013B984206DAD4
:1048F000516814680130091B42F8041BF6E70021D7
:104900000C466A684FF0010E02EB52008AB29342E5
:1049100008DD55F822700131B8423CBF0EFA02F2B0
:104920001443F3E7044B1C6000233380F0BD00BF49
:10493000ACD60720B0D60720A8D6072008B501219D
:10494000022007F031F8084B01209A6A22F0070292
:104950009A629A6A42F006029A62044AD36843F065
:104960003003D36008BD00BF0080004000C002409B
:1049700008B5044B417101F07F015A5C0321FFF738
:1049800071FF08BD945B020008B5044B817101F012
:104990007F015A5C0221FFF765FF08BD945B0200AE
:1049A00038B504460179006805F0C2F9054688B1BA
:1049B000002206212046FFF755FF0022072120464E
:1049C000FFF750FF2E212046FFF7D2FF2E21204671
:1049D000FFF7DAFF284638BD642370B5B1FBF3F466
:1049E00004FB1311CCB20A21B4FBF1F501FB154114
:1049F0003031C9B20646FFF7C7FF092C88BF05F161
:104A000030013046BDE8704094BF2021C9B2FFF7A5
:104A1000AFBF01207047FFFF38B50D46044606F0D2
:104A2000ABFD05F00F032370114B15F0010F4FF094
:104A3000010214BFDA619A61227812F0020F4FF07E
:104A4000020214BFDA619A61227812F0040F4FF06B
:104A5000100214BFDA619A61227812F0080F4FF445
:104A6000807214BFDA619A61BDE8384006F094BDE7
:104A700020C0092038B50D46044606F07DFD691EAC
:104A8000012303FA01F1237820461943C9B22170AA
:104A9000FFF7C2FFBDE8384006F07EBD38B50D46D1
:104AA000044606F069FD691E012303FA01F123782B
:104AB000204623EA01012170FFF7AEFFBDE8384030
:104AC00006F06ABD0AB1FFF7D5BFFFF7E7BF0120C7
:104AD0007047022004F074B901207047044B5B69F1
:104AE000180B00F00C00C3F341231843704700BFBC
:104AF00020C0092010B5044681220121FFF7B2FE33
:104B000001222179206805F0F7F810F0600F14BF3A
:104B10000120002010BD38B500210446FFF7A8FE93
:104B2000812205B201212046FFF79CFE102095FB53
:104B3000F0F008F03DFA4FF0765108F08DFAA168D8
:104B400008F082F938BDFFFF08B5FFF7E4FF05491B
:104B500008F082FA044908F033FB4FF0844108F072
:104B600073F908BD000010410000A0402DE9F04F8E
:104B7000ADF2546D0C4690460146012282A899463A
:104B800002F03EF8002867D121460A220DF22C409F
:104B900002F036F8044620B182A802F09AFA2046C4
:104BA0005AE06D46064607462860019006F068FF09
:104BB0004FF47A72002308F05BFC2B4683464FF4D7
:104BC000007202A982A802F0B5F88246E0B92A680C
:104BD000D2B106F055FF4FF47A72002308F048FC7A
:104BE000B0EB0B00074406F04BFF4FF47A72002342
:104BF00008F03EFC01AB83462A6802A90DF22C4066
:104C000002F050F98246B0B1B8F1000F01D0C8F8F7
:104C10000070B9F1000F01D0C9F80060DDF87836F6
:104C200003B11C6082A802F054FA0DF22C4002F08D
:104C300050FA504610E001992A689142E4D106F0FA
:104C40001FFF00234FF47A7208F012FC2B68B0EBC0
:104C50000B0006441C44A9E70DF2546DBDE8F08F2B
:104C6000F0B5ADF50B7D0E46174601461D460122F7
:104C7000002301A8009301F0C3FF044670B91DB1E1
:104C8000294601A802F037FA6B463A46314601A898
:104C900002F050F8044601A802F01BFA20460DF578
:104CA0000B7DF0BDF0B5ADF50B7D0E461746014608
:104CB0001D460A22002301A8009301F0A1FF04462B
:104CC00070B91DB1294601A802F015FA6B463A46A3
:104CD000314601A802F0E6F8044601A802F0F9F90D
:104CE00020460DF50B7DF0BDF0B5ADF50B7D0E4604
:104CF000174601461D461222002301A8009301F029
:104D00007FFF044680B90DB1294600E0049901A84F
:104D100002F0F1F96B463A46314601A802F0C2F8BA
:104D2000044601A802F0D5F920460DF50B7DF0BD33
:104D30007F2810B516D931B1FF2812D80A4B803818
:104D400033F8100010BD084A32F811408BB284428B
:104D500003D001318029F7D10B4603F18000C0B2A6
:104D600010BD002010BD00BFF45D02000649002305
:104D700031F8132032B1824201D00133F8E7034AFF
:104D800032F81300704700BFF45E0200145C0200AA
:104D900010B501200C4605F033FC2060003018BF30
:104DA000012010BD0120704710B5044606F0AEFA90
:104DB00002280AD1002319464FF0FF32204605F0A1
:104DC000A1FC431E5842584110BD012010BD10B532
:104DD000044606F09BFA022807D100232046BDE8CE
:104DE00010401A46194605F087BB10BD10B50446A1
:104DF00004F086FD24B1012C06D100F081F901E018
:104E000000F002FD044600E0042404F091FD204679
:104E100010BD28B1012801D00420704700F028BA45
:104E20007047F8B507460C4615461E4604F068FD67
:104E30003FB1012F0CD132462946204600F020FA1E
:104E400004E032462946204600F02AFD044600E0F0
:104E5000042404F06DFD2046F8BDF8B507460C4665
:104E600015461E4604F04CFD3FB1012F0CD13246D1
:104E70002946204600F050FA04E0324629462046F2
:104E800000F030FD044600E0042404F051FD20460B
:104E9000F8BD70B506460C46154604F031FD36B136
:104EA000012E0AD12946204600F090FA03E0294657
:104EB000204600F037FD044600E0042404F038FDED
:104EC000204670BD08B506F0DBFD4FF47A72002372
:104ED00008F0CEFA08BDFFFF10B5044606F052FFF9
:104EE000074BB0FBF3F00223B0FBF3F2944202D382
:104EF000044A136110BDB3F5807FF9D00233F3E7A4
:104F000040420F0000000340044B9860DA68D2066C
:104F1000FCD4024B9868C0B2704700BF0000034049
:104F200070B5FFF7CFFF00F5FA74FF20FFF7ECFF35
:104F30000025FF20FFF7E8FFFF28064605D0FFF712
:104F4000C1FFA94208BFA042F3D3304670BDFFFFA6
:104F500038B5064C4FF00075E561FFF7E1FF044AF4
:104F6000A561137843F00103137038BD20C00920F8
:104F700016C007202DE9704306460D46FFF7A2FF35
:104F8000643080464FF00009FF20FFF7BDFFFF2887
:104F900008D1FFF797FF494508BF4045F4D30020EB
:104FA000BDE87083FE28FAD1102D06D900224FF4F7
:104FB0000071304604F042FC19E0341D0435FF2036
:104FC000FFF7A2FF04F8040CFF20FFF79DFF04F891
:104FD000030CFF20FFF798FF04F8020CFF20FFF7F7
:104FE00093FF043404F8050C2B1BDE42E7D1FF20AD
:104FF000FFF78AFFFF20FFF787FF0120BDE87083DE
:1050000070B506460D46FFF78BFFFF28044619D101
:105010002846FFF779FFFD2D16D022464FF4007188
:10502000304604F00BFC2046FFF76EFF2046FFF7EA
:105030006BFF2046FFF768FF00F01F00431F584238
:10504000584170BD002070BD012070BD020638B50A
:1050500004460D4607D500217720FFF7F7FF01280A
:1050600038D804F07F041C4B4FF000729A61DA616B
:10507000FFF756FFFF28014628D12046FFF744FFDF
:10508000280EFFF741FFC5F30740FFF73DFFC5F3CB
:105090000720FFF739FFE8B2FFF736FF402C17D0A3
:1050A000482C14BF01208720FFF72EFF4C2C02D183
:1050B0000846FFF729FF0A21FF20FFF725FF030617
:1050C00008D5013911F0FF01F6D138BDFF2038BDF8
:1050D0009520EEE738BD00BF20C00920064A0749E9
:1050E00013784969DBB2490154BF03F0FD0343F073
:1050F00003031370704700BF16C0072020C00920AB
:105100002DE9F743FFF7EAFF564B1A781E4612F0D7
:10511000020F01D01878A1E00120FFF7DDFE0A247C
:10512000FF20013CFFF7F0FE14F0FF04F8D14E4FD2
:105130004FF00073FB6121464020FFF787FF0128F5
:1051400002D04FF0000875E0FFF7BCFE4FF4D571B8
:1051500000F57A754820FFF779FF012841D10DF15C
:105160000408FF20FFF7D0FE08F804000134042CE7
:10517000F7D19DF80630012BE3D19DF80730AA2B1B
:10518000DFD12C460025FFF79DFEA94208BFA042B3
:1051900006D3FFF797FEA94208BFA042D1D207E08D
:1051A0004FF08041E920FFF751FF0028EBD1F0E7F5
:1051B00000217A20FFF74AFF0028C2D10146FF20D4
:1051C000FFF7A2FE08F8010001310429F7D19DF88C
:1051D000043013F0400F14BF4FF00C084FF00408D8
:1051E00028E02146E920FFF731FF02282C4635BF91
:1051F0004FF002084FF001084FF0E9094FF0410964
:105200000025FFF75FFEA94208BFA0420BD3FFF7BE
:1052100059FEA94208BFA0420CD34FF400715020A0
:10522000FFF714FF06E000214846FFF70FFF0028B4
:10523000E7D1ECE70D4B83F800804FF00073BB61C2
:10524000B8F1000F07D03378182003F0FE03337055
:10525000FFF742FE01E0FFF77BFE3078C0B203B0FB
:10526000BDE8F08316C0072020C0092030D70720F2
:1052700008B5FFF733FF014B187808BD16C00720AB
:1052800070B5144606460846FFF728FF002C39D0B3
:105290001E4B1B78DB0737D41D4B4FF00072DA61D1
:1052A0001C4A1D46127812F0080F08BF4002012C5C
:1052B00001460CD15120FFF7C9FEE0B94FF400714F
:1052C0003046FFF757FEB0FA80F4640913E052202D
:1052D000FFF7BCFE78B94FF400713046FFF74AFE85
:1052E00028B1013C14F0FF0406F50076F3D100214B
:1052F0004C20FFF7ABFE4FF00073201CAB6118BFD2
:10530000012070BD042070BD032070BD16C00720B1
:1053100020C0092030D70720F8B5144606460F46AE
:10532000FFF7DCFE002C44D0254B1A78D20742D47C
:105330001B785B0741D4234B4FF00072DA61224A9D
:105340001D46127812F0080F08BF7F02012C0CD105
:1053500039465820FFF77AFE18BBFE213046FFF78A
:105360004FFEB0FA80F464091CE012F0060F03D07F
:105370002146D720FFF76AFE39465920FFF766FE1F
:1053800080B9FC213046FFF73BFE28B1013C14F008
:10539000FF0406F50076F4D1FD210020FFF730FE72
:1053A00000B901244FF00073201CAB6118BF01202D
:1053B000F8BD0420F8BD0320F8BD0220F8BD00BFF1
:1053C00016C0072020C0092030D707207FB50D4622
:1053D000FFF784FE05281AD12B78012B00F00481F9
:1053E00003D3022B0BD0042001E1824B586910F04B
:1053F000806440F0F980FFF7ABFD2046F7E07D4B7D
:105400005B6983F08063C3F380636B70ECE07A4B7D
:105410001B78DB0700F1EA800E2800F2DF80DFE86E
:1054200000F008124F53DDDDDDDDDDDDAAAFB2BBDC
:10543000CB00704B4FF00072DA61FFF771FDFF385F
:1054400018BF0120CBE000214920FFF7FFFD0446F3
:1054500008B10120C3E010216846FFF78BFD00284A
:10546000F7D09DF800309DF808109B09012B9DF89E
:10547000093006D1013303EB012189B28902296089
:105480006BE09DF807209DF80500920002EB91115A
:105490009DF806200131920202F4406211449DF809
:1054A0000A2000F00F0000EBD2105A00023002F088
:1054B00006028318DBB289B2093B01FA03F34BE021
:1054C0004FF400732B8059E04C4E337803F0040303
:1054D00003F0FF01F3B10021CD20FFF7B7FD002855
:1054E000B7D1FF20FFF710FD10216846FFF742FDFE
:1054F0000028AED03021FF20FFF706FD481E10F037
:10550000FF01F8D19DF80A3008461A09102393408C
:105510002B6064E04920FFF799FD0446002898D1EC
:1055200010216846FFF726FD002892D036789DF8B6
:105530000A2006F0020606F0FF009DF80B3076B157
:10554000520002F07E0202EBD3135A1C9DF80D307C
:105550009B09013B02FA03F32B6020463FE0D90090
:1055600001F01801C2F3840201EB5311531C01FB3B
:1055700003332B6033E0214B1B782B7000202EE08F
:105580000021492001E000214A20FFF75FFD0028AB
:105590007FF45FAF10211AE000217A20FFF756FD5B
:1055A00000287FF456AF291DFF20FFF7ADFC05F85A
:1055B000010B8D42F8D1E1E70021CD20FFF746FD38
:1055C00000287FF446AFFF20FFF79EFC40212846CD
:1055D000FFF7D0FCB0FA80F0400900E00420054B52
:1055E0004FF000729A6102E0002000E0032004B056
:1055F00070BD00BF20C0092016C0072030D707208B
:10560000054B1B78253BDBB2032B9ABF034A52F8AC
:1056100023000020704700BF34D70720DC60020061
:105620001B4B2DE9F0411D880646B5F5007F0F465E
:10563000144602D12A46214613E0B5F5807F09D1F0
:105640002A4621463846B0472A4604F5807107F5B8
:10565000807016E0B5F5047F05D1510A89024FF438
:10566000007238460DE0B5F5847F0ED1140A610250
:105670004FF480723846B047611C4FF48072490283
:10568000B8183346BDE8F0411847BDE8F08100BFC7
:1056900032D7072030B52F4C03462546002958DD68
:1056A00007291A782DDDA2605A780839A2609A7805
:1056B000A260DA78A2601A79A2605A79A2609A7917
:1056C000A26003F10802DB79A360A3695B07FCD544
:1056D000AB680370AB684370AB688370AB68C37032
:1056E000E368DB06FCD4AB68083000F8043CAB6828
:1056F00000F8033CAB6800F8023CAB6800F8013CE2
:105700001AE003291ADDA2605A780439A2609A7857
:10571000A2601A1DDB78A360E368DB06FCD4AB68EB
:10572000043000F8043CAB6800F8033CAB6800F8B8
:10573000023CAB6800F8013C1346AFE70133A260BE
:105740000139E268D206FCD4AA68013000F8012CC5
:10575000A4E730BD0000034007B50B0C8DF8053001
:105760008DF807100B0A04218DF804000DEB0100E1
:105770008DF80630FFF78EFF03B05DF804FBFFFFE6
:10578000F7B5174606460E4C40250323E5618DF814
:1057900004300B0C8DF805308DF807100B0A04212E
:1057A0000DEB01008DF80630FFF774FF002239463B
:1057B000304604F043F8A561A561A56103B0F0BDD2
:1057C00000C009200E4B4022DA610E4BD7229A60AE
:1057D0001A46D1680B4BC906FBD49A681A46FF21BA
:1057E0009960D068C006FCD4906810F0800FF7D0A4
:1057F000034B40229A61C0B29A619A61704700BF20
:1058000000C0092000000340F7B5FFF7DBFF1F4C85
:10581000002323801E4B1F4E40271A889B78F76178
:105820000321054601A8ADF804208DF80630FFF7E6
:1058300031FF9DF805209DF806301F2AB7612146EB
:10584000B761B7611CD1A3F12502032A18D8124A07
:10585000252B137005F0010006D1002814BF4FF46A
:1058600080734FF4847305E0002814BF4FF4007375
:105870004FF404730B80FFF7C3FE084B400A186017
:105880000888B0FA80F0400903B0F0BD32D7072095
:10589000D460020000C0092034D7072038D7072081
:1058A000F8B58B1817460D4A013B1268044693421F
:1058B00010D84D02FFF786FF00262D1BBE4204EBD9
:1058C000050209DA21460648FFF7AAFE04F500742E
:1058D0000136F3E70120F8BD0020F8BD38D70720D6
:1058E00081570100F8B58B1817460C4A013B126826
:1058F00093420FD804460026C0EB4125BE4204EB7C
:10590000050209DA21460648FFF78AFE04F500740D
:105910000136F3E70120F8BD0020F8BD38D7072095
:10592000055A010008B5072805D8DFE800F0060988
:105930000E1214141414042008BDFFF743FF0AE0EC
:10594000FFF75EFE400A086005E04FF400730B802D
:1059500001E001230B60002008BDFFFF70B590B08F
:1059600003466A466E4600F14005144618685968B9
:10597000083303C4AB422246F7D1084D4024EC6102
:1059800000219B20FFF7E8FE21463046FFF782FE0C
:10599000AC61AC61AC6110B070BD00BF00C009204B
:1059A00070B50646074D402400217720EC61FFF7D3
:1059B000D3FE21463046FFF76DFEAC61AC61AC61B1
:1059C00070BD00BF00C0092008B5064B198831F032
:1059D0001F0104D0FFF714FEB0FBF1F008BD08462C
:1059E00008BD00BF32D70720014B1888704700BFA1
:1059F00032D70720024B1878003018BF01207047BB
:105A000032D707202DE9F7434FF0FF330F46914679
:105A100001938046FFF7D6FEFFF7ECFF0646B8B1CC
:105A2000194C4025194BE5611B880320B3F5847F91
:105A30000CBF4FF480714FF400713943FFF78CFEB7
:105A400004210DEB0100FFF725FEA561A561A5610D
:105A50000D4C402339468220E361FFF77DFE012291
:105A60004946404603F0EAFE3EB1019B02A80133DD
:105A700040F8043D0421FFF70DFE4023A361A3611C
:105A8000A36103B0BDE8F08300C0092032D707202E
:105A9000124B37B51B88B3F5847F0CBF4FF4807170
:105AA0004FF400714FF0FF3341EA40210193FFF7BB
:105AB000A1FF68B10A4C40250320E561FFF74CFEC9
:105AC00004210DEB0100FFF7E5FDA561A561A561CE
:105AD0000198431C08BF002003B030BD32D7072017
