:020000021000EC
:10000000E03F082095010100FB000100E100010034
:10001000090101001901010029010100000000008F
:10002000000000000000000000000000E1B301003B
:10003000390101000000000041B401005901010034
:1000400031BA010031BA010031BA010031BA010000
:1000500031BA010031BA010031BA010031BA0100F0
:1000600031BA010031BA010031BA010031BA0100E0
:1000700031BA010031BA010031BA010031BA0100D0
:1000800031BA010031BA010031BA010031BA0100C0
:1000900031BA010031BA010031BA010031BA0100B0
:1000A00031BA010031BA010031BA010031BA0100A0
:1000B00031BA010031BA010031BA010031BA010090
:1000C00031BA010031BA010031BA0100B46D020049
:1000D00000C007208003000080C30720280500001F
:1000E00004207146084203D0EFF309800BF0C6BC30
:1000F000EFF308800BF0C2BC704708B5014808F068
:100100008BF9FEE77666020008B5024808F084F92C
:10011000FEE700BF8166020008B5024808F07CF9DE
:10012000FEE700BF8C66020008B5024808F074F9CB
:10013000FEE700BF9766020008B5024808F06CF9B8
:10014000FEE700BFA466020008B5024808F064F9A3
:10015000FEE700BFB266020008B50BF0F3F80BF043
:1001600091F9BDE808400BF001B90B4610B5401AF3
:100170005C1AA24203D9C45843F8044BF8E710BDF7
:10018000034610B500221C1AA14202D943F8042BE1
:10019000F9E710BD16480BF019FA15480BF019FADB
:1001A000144C154DAC4201D3144D07E094E8030004
:1001B0000C3454F8042CFFF7D8FFF3E7AC4206D216
:1001C00054F8080B54F8041CFFF7DAFFF6E70DF0BB
:1001D0001FFB0BF015FA01F0D9FD03F04DFA4FF4B7
:1001E00016400BF069FD064808F016F9FEE700BF5F
:1001F000E03F0820CC000100D8000100E000010031
:10020000C66602000BF000B90BF00EB9144B10B526
:100210001A68014612B94FF080521A60114C1868E2
:100220002468421894421A6007D20F4CA24204D8A4
:100230000E4A0B488C18046010460D4A1B68126861
:10024000934222BF064B00201A6039B1094A136855
:1002500001331360084B1860084B196010BD00BFD4
:1002600084C307208CC30720FFBF0720A8C807202E
:1002700090C3072094C3072080C3072088C30720AA
:100280000DF0FEBB0DF004BC0DF002BC30B5044611
:100290008BB068460DF0B0FE224B079A2360089B96
:1002A000214DA36062602149214B52B90A68186848
:1002B00082428ABF02F1604202F17042A2F5E82256
:1002C000626062681B68B2F5803F82BF02F17042D3
:1002D000A2F5E82262600022E2600A68934206D337
:1002E000991AC5F1005303F504230B440BE0114B9D
:1002F0001B68934208D9991AC5F1005303F5F823F6
:100300000B44002B00DDE36020460B4BE2611B68D1
:10031000A3610A4B1B686361094B1B6823610BB027
:1003200030BD00BFA8080000A8C8072084C307206C
:100330008CC3072090C3072080C3072088C30720F1
:1003400094C30720034A044B1A60044A044B1A6002
:10035000704700BF008000108CC3072000400820B9
:1003600090C30720014B1860704700BF9CC3072053
:10037000014B1860704700BF98C3072008B50248BA
:100380000EF0E2FDFEE700BFF03E020008B50248B5
:100390000EF0DAFDFEE700BF0A3F020000207047C2
:1003A00001207047F8B5084B16461A680F461C46E0
:1003B00042B10D46EB1B9E4204DD236815F8010B8C
:1003C0009847F7E73046F8BD9CC30720F8B5094BBE
:1003D0000F46186816461C4658B10D46EB1B9E4248
:1003E00005DD23680020984705F8010BF6E726EAAB
:1003F000E670F8BD98C30720704700207047FFFFE4
:10040000074B1B689A68824207D05A68824204D020
:10041000DB681B1A5842584170470120704700BFE3
:10042000C4C10720002070470020704730B5044643
:100430008DB0A8B3684609F0C9F89DF800300025D2
:1004400003F03F0303939DF8013003A803F03F033B
:1004500004939DF802300B9503F01F0305939DF85C
:10046000043003F01F0306939DF8053003F00F03DB
:10047000013B0793BDF80630C3F30B03A3F26C7383
:1004800008939DF8033003F007030993BDF8083083
:10049000C3F30B03013B0A930DF03CFC84E82100FD
:1004A00000200DB030BDFFFF70B50F4D0F4E2C6812
:1004B00014F0010415D128460BF09EFF88B14FF4CB
:1004C0000E70FFF7DDFE302380F835323A2380F8D6
:1004D000344280F8363280F83742306028460BF0DC
:1004E00097FF306870BD00BFB8C30720BCC30720AA
:1004F00070B50F4D0F4E2B6813F0010416D128462E
:100500000BF07AFF90B14FF40E70FFF7B9FE0123A4
:1005100080F83432312380F835323A2380F836328D
:1005200080F83742306028460BF072FF306870BDAB
:10053000B0C30720B4C307202DE9F04FADF51B7DF4
:100540000F4608F0F9FA041E04DD0AF0C3FE204647
:100550000AF006FC0DF114094C462A4D4FF0640BCD
:100560000FCD0FC42B6804AA2360102100240AA811
:1005700004940AF0B3FD244A82462449384609F01F
:1005800037FA26460AAD4FF00008D0451CD06B69FB
:10059000A34215D1AA69049B16441BB1B3FBFBF31C
:1005A000B2FBF3F3297B039202932B8C00949B0004
:1005B000019359F821306A681549384609F018FA4C
:1005C00008F101082435E0E701340A2CDAD1049B54
:1005D00064229E1BB3FBF2F30E49B6FBF3F30E4A03
:1005E0000096384609F004FA0AF08EFA102804D969
:1005F00010220A49384609F0FBF901200DF51B7D50
:10060000BDE8F08F243F0200433F0200483F020054
:100610006F3F0200973F02008C3F0200B63F02008E
:1006200010B50C46ADF5007D68460BF087F9204605
:100630004FF0FF32694609F0A5F901200DF5007D64
:1006400010BDFFFF30B50C4691B02C49054608F0AF
:100650007FF9002847D00CAB04930BAB03930AAB94
:10066000029309AB019308AB009306AA07AB244998
:10067000284608F0D5F8072801D000203BE09DF877
:100680003930069A0DA862F303038DF83930079AC2
:100690009DF8383062F304038DF83830089ABDF8BD
:1006A0003A3062F30B03ADF83A30099A9DF83630D0
:1006B00062F304038DF836300A9A9DF8353062F300
:1006C00005038DF835300B9A9DF8343062F305033D
:1006D0008DF834300C9A9DF8373062F302038DF8B0
:1006E000373008F09BFF09F035F8064902462046EE
:1006F00009F07EF9012011B030BD00BFE03F0200DB
:10070000E43F0200A55F0200F7B50D464E490446DE
:1007100008F00EFA064640B107F016FD4FF0FF3222
:100720004A49284609F02EF98BE04949204608F04D
:10073000FFF960B307F02CFD46490246284609F050
:1007400057F907F031FD44490246284609F050F9AF
:1007500007F024FD41490246284609F049F9304690
:1007600007F00CFD0446012007F008FD06460220B4
:1007700007F004FD0746032007F000FD00970190F5
:10078000334622463649284609F032F959E03549C0
:10079000204608F0DDF850B120220121204608F063
:1007A00075F9204608F0C6F907F016FE49E02E4913
:1007B000204608F0CDF8064620B92C49204608F01E
:1007C000C7F860B32A49204608F0B0F860B9294953
:1007D000204608F0ABF828B92046274908F0A6F8CB
:1007E000044602E0032400E002243146204607F0DC
:1007F0004BFD224A224B002E18BF1A463CB1012C59
:1008000007D01C491A4B022C18BF0B4602E01D4BA7
:1008100000E0194B1C49284609F0EAF811E020468F
:1008200008F088F9194A1A490090F623012007F0C8
:1008300039FD204608F07EF916490246284609F09F
:10084000D7F8012003B0F0BD1F4002002540020090
:100850003E400200454002005A4002006F40020044
:100860008E400200BE400200C2400200CA400200A8
:100870001A400200144002000E520200054002001D
:10088000FD3F02000E400200D3400200383F02004C
:10089000EC4002001F41020030B589B004AB0024D7
:1008A00000930D4603AB022218490394049407F009
:1008B000C5FF022827D107AB009305AA06AB049910
:1008C000039805940694079404F060F9024638B141
:1008D000049B0F4900932846039B09F089F810E018
:1008E000059A069B002A079908BF0122002B08BF22
:1008F0000123B1FBF3F3B1FBF2F22846054909F0FD
:1009000077F8012000E0204609B030BDAE5102006A
:100910002D4102004C4102002DE9F0470E46ADF595
:10092000856D3949054608F09DF83849074628463F
:1009300008F0C1F83549284608F0DDF8284608F0E7
:10094000F9F80122014681A806F06AF9044640B18F
:10095000284608F0EFF82E490246304609F048F8DC
:100960004CE00DF1040A01464FF4007250460DF0C0
:10097000ECF800940AF0CCFF804689466B464FF4B1
:100980000072514681A806F0E5F908B9009B23BB27
:1009900081A806F0AEFBCFB10AF0BAFF4FF47A722D
:1009A00000230CF0ADFC002305464FF47A7240465C
:1009B00049460CF0A5FC281A14BF03460123B4FBDA
:1009C000F3F322461349304609F012F84FF0FF3294
:1009D0001149304608F0D6FF10E01C44002FCDD15D
:1009E0003D46009B9D42C9D233681AF805105B68EA
:1009F0004FF0FF32304698470135F2E701200DF500
:100A0000856DBDE8F08700BF7A410200AE5102005B
:100A10008341020097410200254702002DE9F0477B
:100A20000023BEB00C46534905460C9308F080F8ED
:100A300020B9284608F07EF8064600E04E4E3146C2
:100A400015A806F00FFC054630B1034632464B4967
:100A5000204608F0CDFF89E032464949204608F09B
:100A6000C7FF2F460DF1780880230DA915A8CDF8F2
:100A70004C80149306F03AFC002861D19DF83D307B
:100A8000002B5DD09DF83C100DF13D00CA065BBF08
:100A90000D9B0C9A44229B185BBF0C932D220135B1
:100AA000013711F0010F14BF52232D23BDF83AA0D6
:100AB00011F0020F09900D9814BF4FF0480E4FF03F
:100AC0002D0E11F0040F14BF4FF0530C4FF02D0CEE
:100AD000089011F0200FCAF34510BDF838100790A8
:100AE0004FEAEA20069001F01F000590C1F3431081
:100AF0004FEA612114BF4FF041094FF02D0901F277
:100B0000BC71CDF804C0CDF800E004900391CDF89D
:100B100008901C49204608F06BFF4FF0FF321A493D
:100B2000204608F01BFF41464FF0FF32204608F0F8
:100B300015FF4FF0FF320F49204608F023FF91E7E1
:100B40003A46124900950C9B204608F051FF0BAA2B
:100B50000CA9304606F0F9FB40B90B9B0C499A787A
:100B60000C9B20465A43520808F042FF01203EB039
:100B7000BDE8F08725470200B2410200B5410200FE
:100B8000D9410200F4410200214202002542020044
:100B90004F42020070B50C46064607F0CBFF0546F3
:100BA000304607F0C7FF06F092FC064A064B07499D
:100BB000002808BF13462A46204608F019FF0120E6
:100BC00070BD00BF054402000F44020063420200F2
:100BD00070B50C46064607F0ADFF0546304607F0F7
:100BE000A9FF06F017FC064A064B0749002808BF74
:100BF00013462A46204608F0FBFE012070BD00BFC8
:100C0000054402000F4402007F4202007FB503AB9F
:100C1000002400930E4602AB02220F490294039473
:100C200007F00CFE022814D1029C039D20462946A1
:100C300006F0F6FC094B0A49224600280CBF08467C
:100C400018462B4600900749304608F0D1FE012097
:100C500000E0204604B070BDAE5102000F44020017
:100C6000054402009142020030B5ADF50D7D0C4601
:100C7000054607F05FFF0A22014603A805F0D0FFF2
:100C800040B1284607F056FF1F490246204608F0AB
:100C9000AFFE34E08DF8070002901C4942F2107359
:100CA0007E22204608F0A4FE1949204608F0A0FE46
:100CB000236842F210721B680DF107012046984725
:100CC00018B19DF807307E2B03D103A806F011FA66
:100CD00015E002AB01220DF1070103A806F0F2F8BE
:100CE00058B9029B012B08D123684FF0FF325B6893
:100CF0009DF8071020469847DAE70649D5E7012016
:100D00000DF50D7D30BD00BFA9420200D0420200AA
:100D100008430200284302002DE9F04FADF5417D64
:100D2000002304AC236003930D46009403AB02221E
:100D3000414907F083FD022806D04FF0FF323F49BA
:100D4000284608F01FFE72E0216817A806F08AFA0C
:100D500010B122683A4906E0039917A806F082FA12
:100D600028B1039A3749284608F042FE5FE04FF465
:100D700080720DEB020105A807F022FD4FF480728E
:100D800080A90AA807F01CFD20AE80270FA917A88C
:100D90001596169706F0AAFA002842D19DF845301C
:100DA000002B3ED09DF8443003F0100303F0FF0AFF
:100DB000002BEBD10DF14503039A234905A807F059
:100DC00003FF0DF1450322681F490AA807F0FCFE46
:100DD00005A807F0AFFE07460AA807F0ABFE80465D
:100DE00005A8DDF83C9007F0A5FE83460AA807F0A9
:100DF000A1FE534652460146CDF800A0584603F0E6
:100E0000C5FE124A124BCDF8009000280CBF1846C0
:100E100010461049019043463A46284608F0E8FD3E
:100E2000B3E70AA807F0E1FC05A807F0DEFC012003
:100E30000DF5417DBDE8F08FAE5102004F43020039
:100E400094430200B9430200D94302000F44020058
:100E500005440200DF430200F8B50D46244906466A
:100E600007F066FE0446074618B1FFF741FB002273
:100E700008E02049304607F05BFE044660B1FFF70A
:100E800013FB3A46114600F2352006F059FC4FF0AC
:100E9000FF32194B194922E01949304607F048FE44
:100EA000044658B1FFF724FB012200F2352105F07A
:100EB00079FE4FF0FF32134B134910E013493046CF
:100EC00007F036FE044680B1FFF7EEFA012200F289
:100ED000352105F067FE0E4B0E494FF0FF3200281A
:100EE00018BF1946284608F04DFD2046F8BD00BF42
:100EF000664402007044020008440200FE430200FF
:100F00007D4402002544020015440200864402008C
:100F10004A4402003C44020008B508464FF0FF3244
:100F2000084908F02FFD07F00FF94FF4FA6009F0B7
:100F300017FF4FF08043AA221A7200221A70012074
:100F400008BD00BF9244020010B501200C4607F016
:100F50002BFC40B100231A46194609F013FA4FF052
:100F6000FF32054902E005494FF0FF32204608F004
:100F700009FD012010BD00BFA3440200B9440200D6
:100F800038B5064C236833B91C20FFF779F90546BC
:100F900008F032FA2560206838BD00BFA8C30720DA
:100FA0002DE9F04F5F4C91B023680E4633B92C20E9
:100FB000FFF766F9054608F0AFFC25602768FFF7E4
:100FC00073FA00240CAA0DA900F235200D9406F046
:100FD000BCF948B90C9A0D9C95699378023D5C4325
:100FE0005D4364086D0800E025464F4B1A6898463B
:100FF0007AB90C20FFF744F98146FFF7C1FF90232F
:1010000089F804300023C9F80000C9F80830C8F88E
:101010000090D8F8000003F0A7FD81460CF02AF9F3
:101020000A900BF00DFF014648460BF053FE3F4976
:101030000BF05AFF0CF01EF981460DA80AF0D6FA03
:1010400004F0E8FC68B308F0FFFB04F0CDFC4FF0BF
:10105000000A0346D346D0469A450B930BD0504620
:1010600004F026FD804538BFD3460B9B38BF804631
:101070000AF1010AF0E708F0FFFB642303FB08F321
:101080002B4ACDF80880B3FBF2F3C3F1640300935D
:10109000CDF804B02B4622462649304608F0A8FC7D
:1010A00005E02B4622462449304608F0A1FC234C9B
:1010B00023681BB90120FFF7E3F82060206803F0E4
:1010C0000CFD044608F046FBFB8C0A9A0993BB8C86
:1010D0001B4908939DF83430019003F03F030793B8
:1010E0009DF83530009403F03F0306939DF83630A9
:1010F000304603F01F030593BDF83A30C3F30B03EA
:1011000004939DF8383003F01F0303939DF83930A2
:1011100003F00F0302934B4608F06AFC012011B064
:10112000BDE8F08FACC30720A0C30720000020411A
:10113000A0860100F244020026450200A4C3072055
:10114000344502002DE9F04F0D46C7B055498146A0
:1011500007F015FC54498246484607F010FC5349F5
:101160008346484607F00BFC00270DF1100805AE3A
:10117000044602970397C8F800703760BAF1000F71
:1011800045D0009603AB02AA4949484607F048FB00
:10119000012807DC28464FF0FF32464908F0F2FBF1
:1011A00038467CE00DF118084FF480742246394629
:1011B00040460CF0CAFC336813B90123336003E0E6
:1011C000B3F5807F88BF3460FFF7DAFE33689DF89F
:1011D0000C209DF808100093434608F0CFFC364AD7
:1011E000364B3749002818BF1346029A284608F0A4
:1011F000FFFB002433689C424ED2039A18F8043057
:1012000022443049284608F0F3FB0134F2E7BBF1F1
:10121000000F2CD0CDF8008003AB02AA2A49484623
:1012200007F0FEFA032807D028464FF0FF3227497F
:1012300008F0A8FB504632E0FFF7A2FE98F8003015
:101240009DF80C209DF8081008F0ADFC48B1039BF8
:101250001F490093D8F80020029B284608F0C8FBDD
:101260001AE0029A1B49284608F0C2FB14E0A8B114
:1012700002230293029BFE2B10DCFFF781FE9DF8F8
:10128000081008F09BFC20B1029A1349284608F088
:10129000AFFB029B0233ECE7012000E0204647B0A1
:1012A000BDE8F08FCD5202009D450200A34502002B
:1012B000AC450200BB450200054402000F44020099
:1012C000DC450200004602001046020020460200F3
:1012D00047460200614602007E46020070B5ADF549
:1012E0000A7D05460C4607F092FA0B2802DD0C2217
:1012F00022493CE0284607F01DFC0122014601A8D6
:1013000005F08EFC064668BB01A805F0F2FE2846F3
:1013100007F010FC1A490246049B204608F068FBBF
:10132000236820469B6898470A2009F019FD4FF072
:10133000100383F31188BFF36F8FBFF34F8F2846DD
:1013400007F0F8FB02460F4B0068516803C3906832
:101350000D4A186043F80C2C4FF08043AA221A72F1
:101360001E7007E0284607F0E5FB024607492046C5
:1013700008F03EFB01200DF50A7D70BDB846020065
:10138000DF460200484002400DD0ADDE2647020095
:101390002DE9F041404CA4B023680646DB070D461A
:1013A0000CD420460BF028F840B14FF480600CF0CC
:1013B00067FB3A4B186020460BF02AF83849304654
:1013C00007F0DDFA0746044600B38022002104A896
:1013D0000CF0BBFB00230293039303AB009304AA1E
:1013E00002AB3049304607F01BFA2C49029B039AA6
:1013F000096804A813B903F065FC01E003F084FC5C
:10140000294B2A49002818BF194638E02849304698
:1014100007F0B5FA074600283AD004AB304603AAD5
:101420002449039404948DF8084007F0F9F9039EC9
:10143000049B3344B3F5806F02DCDFF860800CE07E
:101440004FF480621C4920E0D8F800309DF8082055
:101450009A559DF8083001361C44039B049AF31AF0
:10146000934210DAB6F5806F0DDA2B684FF4FA620A
:101470001B6802A9284698470028E5D10F4928464D
:1014800008F0B6FA04E022460D49284608F0B0FA02
:10149000384624B0BDE8F081C4C30720C0C307208C
:1014A00051470200584702003F4702003B470200F5
:1014B000684702006F470200794702009D4702001B
:1014C000AD47020038B50D4607F036FB0446C0B202
:1014D00002F0F6FA054A064B0649002818BF1346E3
:1014E0002246284608F084FA012038BD054402004F
:1014F000BE470200C547020030B50C46054687B01E
:101500000A4908F075FAA188238804912189628824
:101510000391E18828460291E17A0191A17A009134
:10152000034908F065FA07B030BD00BFDC47020090
:10153000124802002DE9F0418CB003AB0026009365
:101540000D46904602AB022238490296039607F0F8
:1015500075F9B04266DD02980CF069F8C7B20398DD
:1015600018B10DF0F3FFC4B200E00446002104A856
:1015700003F046F930B14FF0FF322D49284608F00C
:1015800001FAF3E7022318F100010093039A2346BE
:1015900018BF0121384602F0D7FB064638B94FF094
:1015A000FF322449284608F0EDF901263AE0B8F167
:1015B000000F37D04FF47A7104A803F029F960B313
:1015C0009DF81030BB4228D19DF817300C2B04D168
:1015D0003A4606A92846FFF78FFFBCB916492846A8
:1015E00008F006FA9DF817309C420ADA04AB191984
:1015F0002B684FF0FF325B68097A28469847013420
:10160000F0E70E49284608F0F3F90BE04FF0FF32FF
:101610000B49284608F0B6F904E0029A0949284621
:1016200008F0E6F930460CB0BDE8F081AE5102009A
:1016300030480200524802007A480200A74E0200D9
:101640008E480200AB4802001FB501A80C4602F00C
:1016500059FD02F041FA01A902462046FFF74CFF6E
:10166000012004B010BDFFFF30B58BB00AAA4FF4C3
:101670007A730C4642F8243D174907F0D1F800254B
:10168000019902A803F0BCF8D8B19DF808201349CD
:10169000204608F0ADF900259DF80F309D420ADA8A
:1016A00002AB591923684FF0FF325B68097A204674
:1016B00098470135F0E70A49204608F099F90125D5
:1016C000DEE72DB94FF0FF320649204608F05AF9FF
:1016D00001200BB030BD00BF76470200D1480200A8
:1016E00024470200E848020037B50C4602F06EFBC2
:1016F00005461649204608F07BF915492A4620463A
:1017000008F076F91149204608F072F9D5B111496F
:10171000204608F06DF90D49204608F069F90025CA
:10172000E8B202F03DFB013540B1817843780278A0
:1017300000912046084908F05BF9F1E7034920468B
:1017400008F056F9012003B030BD00BFF94802008F
:10175000144902002E490200494902002DE9F347CD
:101760003C4C074626688946002E62D12420FEF7AD
:1017700087FD0423054680E848008660C660202176
:1017800030460DF04BFCAE68E8604FEA8608072E45
:101790000ED81020FEF774FD8246102200210CF0B6
:1017A000D4F9EB68013643F808A008F10408EEE725
:1017B000002608236B604FF00108274B274A284971
:1017C0002846009685F82080256006F02FFA254BE4
:1017D000254A26492068009606F028FA244B254A17
:1017E00025492068009606F021FA244B244A254911
:1017F0002068009606F01AFA234B244A24492068F0
:10180000009606F013FA234B234A24492068CDF8AA
:10181000008006F00BFA224B224A204920680096ED
:1018200006F004FA0096204B204A2149206806F071
:10183000FDF92049384607F07BF918B11E493846B2
:1018400007F030FA4A463946206802B0BDE8F04752
:1018500006F0CCBACCC30720644902009E490200BE
:10186000091B0100A5490200F9490200DD18010029
:10187000024A0200254A020069160100284A0200B5
:10188000874F0200C5140100524A02006E4A02004E
:10189000E9160100754A0200DC4A02003515010014
:1018A000B64A0200DB4A0200E04A0200FB4A02009C
:1018B0004916010025470200014B020038B5064CCD
:1018C000236833B95820FEF7DBFC054607F05EFEBF
:1018D0002560206838BD00BFC8C307202DE9F04F40
:1018E0000446ADF2DC5D802288460DA800210CF094
:1018F0002CF9802200212DA80CF027F906AE002338
:1019000033600DAA00962DAB7549204606F088FF7E
:10191000032801D00020DFE001220DA9EDA805F089
:101920007FF905460028F5D1FFF7C8FF336880220C
:1019300080F853304DA9044608A88DF81750079534
:1019400006F03EFF2DAB009333680DAA6549404673
:1019500008F04EF8A94607AE33464FF400726DA961
:10196000EDA805F0F7F9002840F0AF803368002BB0
:1019700000F0AB806F1C32685B49204608F038F8F5
:10198000236820469B6898477D1E0DF5DA7B4FF053
:10199000000A6DAB3268C3EB0B039A4223680CD983
:1019A000CDF80CB05B684FF0FF321BF8011B2046EE
:1019B0009847039B1B789A44EBE79B68204698471F
:1019C00008A807F0B7F8834608A806F023FF4FF4ED
:1019D0007A7302465946204607F0E2FF2022012191
:1019E0000DEB020007F052F808A807F0A5F88245B1
:1019F00020D008A807F0A0F8524603463B494046CD
:101A000007F0F6FF3A49204607F0F2FF2368204628
:101A10009B68984723684FF47A721B680DF1170191
:101A2000204698470028F5D1022F07F101034CD832
:101A30001F46A0E733682DAA2E49009320464B4647
:101A400007F0D6FF236820469B68984708A807F050
:101A500071F8824608A806F0DDFE514602464FF4B2
:101A60007A73204607F09CFF234908A806F05EFF22
:101A7000D0B908A807F05EF820490246404607F0B2
:101A8000B7FF1B49204607F0B3FF236820469B6839
:101A9000984723684FF47A721B680DF117012046AE
:101AA00098470028F5D1BFE7154908A807F0FAF8CC
:101AB0003368144999444A46F09B404607F098FF22
:101AC000002D3FF448AFBD1E45E7EDA805F011FB22
:101AD00008A806F08AFE01200DF2DC5DBDE8F08F5B
:101AE000064B0200154B02002C4B02003E4B02003D
:101AF00024470200654B02007B4B02007E4B020034
:101B000025470200B64B02002DE9F047074686B094
:101B100006AA002442F80C4D0E463D4906F080FE10
:101B200020220121384606F0B1FF039B002B65D02F
:101B3000384606F06CFE002860D0FFF7BFFE054671
:101B40000DF1180808F80D4D2B6805221B68414659
:101B50002846984704460028F6D1039B384685F866
:101B6000533006F0E7FF274601464FF0FF32284684
:101B700007F008FF2B6828469B689847254B0DF116
:101B80001809186849F8044D04902B684FF47A72CC
:101B90001B68414628469847D0B103220DF1150134
:101BA00048460BF0B7FF9DF80BA0042204A9484655
:101BB0008DF817A00BF094FF50B1336801225B68D9
:101BC00051463046013798470028DED10134DCE722
:101BD0001822B7FBF2F302FB137202B101333A464B
:101BE0000D49304607F004FF74B16123009322468B
:101BF0000A4B0B49304607F0FBFE05E04FF0FF3281
:101C00000849304607F0BEFE012006B0BDE8F08767
:101C100076470200BA470200C24B0200E94B0200BD
:101C2000254C0200DE4C020001480DF08DB900BFCA
:101C30000A4D020038B504460D4609F0EBFF074B8C
:101C4000B0FBF3F00223B0FBF3F2AA4204D9B3F5E0
:101C5000807F01D00233F6E7236138BD40420F0098
:101C60007FB500F235260C460122314604F09AFF7A
:101C7000054648BB039002AA03A9304605F065FB60
:101C800000BB0298039A837802FB03F18269134830
:101C9000023A5A435208B2F5004F38BF0120104BA8
:101CA0004FEA510124BF03464FF48060B1FBF0F1CD
:101CB000B2FBF0F20091019321460A480DF0D2F8F0
:101CC000012008E0084B00E0084B2A46214608485E
:101CD0000DF0C8F8002004B070BD00BF484D0200F0
:101CE000454D0200524D02004E4D02004B4D020088
:101CF000804D020038B5074C23684BB90820FEF729
:101D0000BFFA0546FFF73CF9402328602B71256098
:101D1000206838BDD8C3072038B5054C256825B9DB
:101D20000120FEF7ADFA05702060206838BD00BFC5
:101D3000D4C3072038B5084C23685BB90C20FEF7E4
:101D40009FFA0546FFF71CF990232B7100232860AA
:101D5000AB602560206838BDA0C3072010B5044CD7
:101D600023681BB90120FEF78BFA2060206810BDA4
:101D7000A4C3072010B5044C23681BB90120FEF74B
:101D80007FFA2060206810BDD0C30720AD49AE4A5D
:101D90004023F0B58B614FF0007393614FF48033B3
:101DA0008B61AA4BADF5057D1868072520F0F00082
:101DB00018601868022440F050001860186820F479
:101DC00040501860086840F040000860186820F42F
:101DD0007C201860186840F428201860186820F4E7
:101DE00070001860186840F420001860186820F02F
:101DF00040401860186840F000401860586820F0B3
:101E00003C005860586840F028005860586820F03E
:101E100003005860086840F480300860586820F477
:101E200040505860086820F480000860D96821F4A8
:101E30004031D960116841F080711160596821F416
:101E400040215960596841F480215960986880495F
:101E500001409960116841F4897141F001011160FC
:101E6000996821F470119960996821F07041996026
:101E7000116821F446411160D96821F03001D96020
:101E8000D96841F03001D960D96821F47011D96066
:101E9000136843F000731360136823F080631360CA
:101EA00006F05EFF01210A2009F0C6FC01210A208C
:101EB00009F0DAFC6748012105604460FFF7BAFECB
:101EC00007F052FC0121152009F0B6FC0121152074
:101ED00009F0CAFC6048012105604460FFF7AAFED2
:101EE000FFF74EF8642107F04BFA10B95B480DF08C
:101EF0002BF809F0DDFC02F05DFC10B958480DF03C
:101F000023F84FF4FA6006F0E4FEFFF78DFE09F0C7
:101F100081FE0AF091FF53490BF09AF80AF000FC99
:101F200002460B4650480CF09DFF09F059FB05286E
:101F300004AC14D1002363604C4B1B682360FFF793
:101F400073FE4B4B4B48D96C1A6D5B6D00940CF0D3
:101F500089FFFFF769FE41F2883006F0BAFEFEF70E
:101F6000A3FA4549FFF77CFE054668BB43480CF0E1
:101F700079FF03F0C7FDFEF797FA29462A4600F2DB
:101F8000352005F0DDFB3E4B3E4A00280CBF1046D5
:101F900018460CF0D9FFFEF787FA3749FFF760FEC5
:101FA00090B939480CF0D0FF03F02EFD01463748B8
:101FB0000CF058FF03F018FD054603F025FD00FB6B
:101FC00005F133480CF04EFF324E334F336813F0B7
:101FD000010516D130460AF00FFA90B14FF40E7099
:101FE000FEF74EF9012380F83432312380F8353280
:101FF0003A2380F8363280F83752386030460AF09B
:1020000007FA26493868264DFFF72AFE182111489D
:10201000FFF710FEFFF708FE2B684BB90820FEF70C
:102020002FF90646FEF7ACFF3823306033712E607F
:10203000286802F036FC0546B0BB1A480CF084FF55
:1020400033E000BF00C0092020C0092000C00240CA
:10205000F0FCFCFF0000034000800840C44D02007B
:10206000F54D0200002474491A4E0200444002401B
:1020700000400240324E0200AA4E0200B24E020060
:10208000B84D0200B34D0200EF4E02000E4F0200A9
:102090001D4F0200B0C30720B4C307203444020020
:1020A000E0C30720384F02000125FFF743FE02F08E
:1020B00031FD064618B972480CF046FF3546FFF769
:1020C00019FE02F071FC064618B96E480CF03CFF90
:1020D00035466D4E33681BB90120FEF7D1F83060EC
:1020E000306802F02FFCFFF739FE02F0F4FCFFF736
:1020F00013FE02F092FCFFF73DFE02F0F1FCFFF749
:102100000BFE002102F08CFC8DB9FFF78DFDFFF76F
:10211000F1FD2D2102F030FCFFF7ECFD2D2102F046
:1021200037FCFFF7F9FDFF2102F07AFC0CE0FFF726
:10213000E1FD0546FFF7FEFD02F016FD0BF0C0F8CD
:10214000C1B2284602F04CFC1022002120460BF0C0
:10215000FCFC00230F2221464C4802F091FD80B97F
:1021600020460BF064FAC5B2284601F0A9FC484AA3
:10217000484B2946002818BF1346444A46480CF0ED
:1021800071FEFFF7EBFD02F0A8FC054600200EF003
:1021900069F928440CF0E0FE4FF40072002120465B
:1021A0000BF0D3FC204609F0C9FB21463B480CF05C
:1021B00059FEFFF739FD8022002120460BF0C5FCB7
:1021C000204603F0FDFB2278FF2A04D02146344844
:1021D0000CF048FE29E0FFF7CDFD02F083FC092852
:1021E0001DD130480CF0B0FE21462F480CF0C0FF46
:1021F00021462E480CF036FE2D480CF0A5FE00239B
:1022000003A92C4803930CF0B3FF9DF80C30592B15
:1022100003D1204603F0B2FB07E0274803E027483C
:102220000CF092FE26480CF08FFE4FF208031D685A
:102230004FF20C031C684FF210031E684FF47043FA
:102240001A684FF20403AD0A1968A40A1D480CF07D
:1022500009FE2A4621461C480CF004FE31461B4864
:102260000CF000FEFFF7E0FC012005F0A3FF18488A
:102270000CF06AFEFFF7D8FC0DF5057DF0BD00BF40
:10228000534F02006D4F0200DCC30720864F02004F
:10229000BE4D0200BE4702008C4F0200A55F020047
:1022A000C04F0200DC4F0200FE4F0200035002004C
:1022B0001E50020061500200655002007D50020075
:1022C000AB500200DD5002000951020036510200FD
:1022D00053510200012070470120704701207047D0
:1022E00010B5044C23681BB90120FDF7C9FF20601D
:1022F000206810BDDCC307200120704738B50446B4
:102300000F4B00250360636DE06DAB4205D950F8BB
:102310002500FDF7B7FF0135F5E708B1FDF7B4FF7C
:102320000025A36B206CAB4205D950F82500FDF7C2
:10233000A9FF0135F5E708B1FDF7A6FF204638BD36
:102340008C51020010B50446FFF7D8FF2046FDF778
:1023500099FF204610BD2DE9F04104460E46C068A5
:1023600089000CF05BFEA568E060AF004FF000084C
:10237000AE420DD90C20FDF783FFE368C0F8008062
:10238000C0F8048080F808800135D8510437EFE7A1
:102390006660BDE8F081FFFFF7B5044600250B46F7
:1023A0004FF480520095254906F0E4F9244B0426A9
:1023B00023606663A563E5632564022104F13400AC
:1023C000FFF7C9FF26656565A565E56528466021B7
:1023D0000CF024FEA56DE065AE00172D0CD8102082
:1023E000FDF74EFF0746102200210BF0AEFBE36D18
:1023F00001359F510436F0E718236365012384F803
:102400007030104E0023A4F87430A4F87630A3671F
:10241000002200230027C4E92023C4E9226709F031
:1024200077FA4FF47A7200230AF06AFF8019794133
:10243000C4E92001204603B0F0BD00BFA451020052
:102440008C510200C0D401002DE9F0410F7A1446EE
:102450004D680E688FB1082A23D1284606F0D7F9B7
:1024600000281CDD4FF0FF321349304607F076FAA2
:102470000121284606F0CAFA08E00A2A19D00D2AD6
:1024800012D02146284606F0E2FB97B13368214678
:102490003046BDE8F0415B684FF0FF321847072433
:1024A000F4E70A2A02D1F1E7BDE8F0810D2AEDD068
:1024B000E7E7BDE8F08100BFAD510200F8B5044682
:1024C000142015460F46FDF7DBFE8021064606F078
:1024D0006EFBA36BE26B9A4206D3616B591803D271
:1024E00004F13400FFF737FFE36B226C591C52F8FC
:1024F0002330E1631F605E601D72F8BD2DE9FF4768
:10250000CF6B06460D4601AC3FB94FF47A7008F028
:1025100027FC01976760A76047E00B6C0DF110087E
:102520001B6893E8070084E80700002308F80D3DC6
:1025300008F0DEFA81460027EB6B9F4263D22B6CDA
:102540004FEA870A53F827301868037C002B34D0F1
:10255000036800221B684146984770B3EB6B9F42AB
:102560002DD22B6C53F80A3093E8070084E807005B
:102570009DF8032021462846FFF766FF09F0C8F9B9
:102580004FF47A7200230AF0BBFED5E922238018AB
:102590005941C5E92001029806F039F90746029829
:1025A00006F038F9013887420CDB94E8070086E82A
:1025B0000700304604B0BDE8F0870137BCE705F1FD
:1025C0004403D1E7D5E92223134324D009F0A0F92D
:1025D0004FF47A7200230AF093FED5E92023994242
:1025E00008BF904217D309F093F94FF47A72002391
:1025F0000AF086FED5E92223801859410023C5E957
:1026000020010193D1E708F073FA8145C3D102207C
:1026100008F0A6FBBFE79DF803300A2B88D1C4E77A
:10262000F0B5054685B020480CF01CFC294601A8F1
:10263000FFF764FF019C1CB91C480CF085FC30E0DE
:10264000029E304606F0E3F800282ADD09F060F922
:102650000746F8B1B5F8743005F150000133A5F81C
:1026600074302246314605F0C1FB114B0025186835
:10267000009023681DF805105B684FF0FF3220467C
:1026800001359847042DF4D109F042F9C11B0948DE
:102690000CF0E8FB304606F0BFF8236820469B6844
:1026A0009847012005B0F0BDB05102002547020057
:1026B00080510200B651020038B5064C236833B988
:1026C0002C20FDF7DDFD054607F026F92560206882
:1026D00038BD00BFACC3072010B50446FFF7ECFFC0
:1026E00003682146BDE810405B684FF0FF32184791
:1026F00013B5002302AC04F8013DFFF7DDFF0368CA
:102700004FF0FF321B68214698479DF8070002B042
:1027100010BDFFFF2DE9F04100F150048AB0002503
:102720000646009520465B4B5B4A5C4905F07EFA05
:10273000009520465A4B5B4A5B4905F077FA0095B5
:1027400020465A4B5A4A5B4905F070FA00952046DC
:10275000594B5A4A5A4905F069FA00952046594B97
:10276000594A5A4905F062FA00952046584B594A91
:10277000594905F05BFA00952046584B584A59498B
:1027800005F054FA00952046574B584A584905F031
:102790004DFA00952046574B574A584905F046FADE
:1027A00000952046564B574A574905F03FFA009589
:1027B0002046564B564A574905F038FA00952046B0
:1027C000554B564A564905F031FA00952046554B6F
:1027D000554A564905F02AFA00952046544B554A69
:1027E000554905F023FA00952046544B544A554963
:1027F00005F01CFA00952046534B544A544905F005
:1028000015FA00952046534B534A544905F00EFAE9
:1028100000952046524B534A534905F007FA00955C
:102820002046524B524A534905F000FA0095524B4C
:10283000524A5349204605F0F9F9FFF73DFF4FF49E
:10284000807320224FF41641054607F03BF880467E
:1028500001272F744B48FDF78BFD4B48FDF782FD98
:102860003A4629463046FFF729FE082203A905A863
:1028700005F0A6FF05A8454906F014FA2A4605A961
:10288000204605F0B3FA05A805F0AFFF40460AB0B0
:10289000BDE8F081CC5102000E5202003905010062
:1028A0000352020013520200210601001B520200D3
:1028B00029520200A10F01003052020071520200A1
:1028C0004506010076520200D252020019090100A9
:1028D000D652020064530200990801001853020006
:1028E00063530200190D0100675302009553020063
:1028F0001D0A010098530200BD530200950B010010
:10290000C3530200F05302000D0C0100F353020008
:10291000456A0200690C0100185402003B54020091
:10292000D10B01003E540200115502004511010077
:102930001555020028550200190F01002F550200FD
:1029400072550200590E01007A55020079560200B4
:10295000090701007D560200A5560200490F01003B
:10296000AB560200114E02005D170100D556020061
:10297000C9570200911301009257020077440200E8
:10298000DD120100F1260100D9260100014B0200F1
:1029900008B500F093FA012008BD0120704708B582
:1029A00000F022FD00F054FDBDE8084000F036BD07
:1029B00008B500F067FC084B1B784BB900F028FD08
:1029C00010B100F093FA03E000F09EFD00F0CEFDA0
:1029D000BDE8084000F0B8BC40C407207047FFFFC6
:1029E00008B5FFF7C7F9012102F088F820B1194AAC
:1029F000137883F001031370FFF7BCF9022102F092
:102A00007DF850B1144A137883F00103137013B1A9
:102A100000F054FD01E000F077FDFFF7ABF9032172
:102A200002F06CF808B100F061FDFFF7A3F9042192
:102A300002F064F868B1094A137883F00103137057
:102A40001BB1BDE8084000F073BDBDE8084000F0D0
:102A500067BD08BD40C4072060C4072061C40720CB
:102A60007047FFF795BFFFF798BF10B50446FDF715
:102A700009FC204610BDFFFF70B50B4E05010B4B46
:102A8000741953F82010201D08F03EF9E368A0687F
:102A90009847A36870590133A36000231A46BDE824
:102AA0007040194607F06EBCE4C30720A05802002E
:102AB00008B50020FFF7E0FFFBE708B50120FFF7AE
:102AC000DBFFFBE708B50220FFF7D6FFFBE708B501
:102AD0000320FFF7D1FFFBE7F7B507460D462D4A68
:102AE00000240D2312682C49009405F043FE2B4B63
:102AF00087F831503B602A4D2A4B0322EB602A4B6A
:102B00002146EB61294B0120EB62294BEB6307F077
:102B100017FC032228602146012007F011FC032244
:102B200028612146012007F00BFC224B28621E6819
:102B30000523C6F38F060093324623461E490194AF
:102B40001E4807F08FFE06230093324623461C4999
:102B500001941C4807F086FE072300930194234646
:102B600032461949194807F07DFE97F8313073B1A4
:102B700003222146012007F0E3FB082328633246A5
:102B80000093019423461249124807F06BFE384621
:102B900003B0F0BDF057020004580200B85802001C
:102BA000E4C307209F290100E1290100B1290100A8
:102BB000DD290100EC5702000B580200B12A010088
:102BC0000F580200BB2A010014580200C52A010058
:102BD0001A580200CF2A010038B517480C46415C4C
:102BE00000230131C9B2914202D00155184638BDC7
:102BF000124D0355200128581A46194607F0C8FC03
:102C00000546B0B90E4B53F8244020460CF09CF911
:102C100020460CF09BFC2B4602462146094802F058
:102C200073F8094A094B9A644FF08043AA221A723A
:102C30001D70012038BD00BF24C40720E4C3072055
:102C4000F457020021580200EFBEADDE0040024002
:102C5000044608B5012008F083F894F8313023B118
:102C6000012203212046FFF7B7FF0A220221204656
:102C7000FFF7B2FF0028EDD00A2201212046FFF71E
:102C8000ABFF0028E6D00A2200212046FFF7A4FF70
:102C9000E0E7FFFF0D4A1379012B0D4B0CD11268B1
:102CA000672A09D10B491A78097A61F300021A7070
:102CB0005A686FF35F025A601B78074AC3F3000338
:102CC00000210120137000F029B800BF9CC8072024
:102CD00028C407208CC8072078C407200B4A137922
:102CE000012B0B4B0CD11268722A09D109491A78B1
:102CF000097A61F300021A705A686FF35F025A6032
:102D00001B78054AC3F30003137070479CC8072063
:102D10006CC407208CC8072076C40720F8B5084C7F
:102D2000064625680F4625B90120FDF7A9FA05706A
:102D300020603A4631462068BDE8F84001F0C6BE42
:102D4000D4C30720FFFFFFFF70B51B4B1A79082A79
:102D500026D11B686D2B23D1184D194C6E7A287A19
:102D6000330203F47063184309F0B8FC10A3D3E9ED
:102D7000002309F029FD09F059FF2060A87A00011D
:102D800040EA161009F0AAFC09A3D3E9002309F0D0
:102D90001BFD09F04BFFA36860606FF35F03A36046
:102DA00000210420BDE87040FFF7B8BFAFF30080FA
:102DB0009A9999999999B93F9CC807208CC807207E
:102DC0007CC40720FFFFFFFF70B5274B1A79082A44
:102DD0003FD11B686C2B3CD1244C254DA27AE67A5E
:102DE000637A1204217A42EA032330060B4300F08F
:102DF0007060184309F072FC19A3D3E9002309F0AD
:102E0000E3FC00221B4B09F02BFB09F00FFF237B97
:102E100028601B01607B43EA161343EA0033A07B62
:102E200043EA0053E07B000700F08050184309F0AC
:102E300055FC0BA3D3E9002309F0C6FC0E4B00227E
:102E400009F00EFB09F0F2FEAB6868606FF35F03F8
:102E5000AB6000210320BDE87040FFF75FBF00BFFB
:102E60008DEDB5A0F7C6B03E9CC807208CC80720E2
:102E700044C4072000805640008066400B4A137906
:102E8000012B0B4B0CD11268712A09D109491A7810
:102E9000097A61F300021A705A686FF35F025A6090
:102EA0001B78054AC3F30003137070479CC80720C2
:102EB00038C407208CC8072075C4072037B50A4DD1
:102EC0000024019400940A230F226421002006F0BC
:102ED00041F828700028F4D006F0BCF9002003B0B7
:102EE000BDE8304006F0AAB963C40720334970B585
:102EF000CB788D7803F00706022E0A88C5F3C20549
:102F00002F4C11D9022D1AD9632A02D900F0E2FA06
:102F10003AE000F0D3FAAE4202D200F009FB01E041
:102F200000F0FEFA002339E0022D1CD9632A4FF08D
:102F300000050DD900F0C2FA00F00EFB11E0632A83
:102F40004FF0000509D900F0B9FA00F0FBFA08E0EB
:102F500000F0B4FA00F0ECFA03E000F0AFFA00F091
:102F6000DFFA257070BD632A11D9AE4204D200F099
:102F7000A5FA00F0F1FAD5E704D900F09FFA00F0C5
:102F8000E1FACFE700F09AFA00F0F0FACAE7227807
:102F900032B900F0B9FA00F0E9FA0123237070BDEC
:102FA000C3F3C203012B02D800F0AEFA01E000F037
:102FB0009DFABDE8704000F0D9BA00BF58C40720A0
:102FC00041C4072010B540F6B734A04A53681079C1
:102FD000C3F35E01A14294BF0024012464F3000006
:102FE000C407107105D45368643161F35F03536003
:102FF00011E013F001030ED140F6B831136061F314
:103000005F035360012103F0710343F0010308469D
:103010001371FFF783FE40F6B7348D4A5368107979
:10302000C3F35E01A14294BF0024012464F30000B5
:103030001071C00705D45368643161F35F035360B6
:1030400011E013F001030ED140F6B831136061F3C3
:103050005F03536003F0710343F001030121022079
:103060001371FFF75BFE40F6B7347A4A9368107A23
:10307000C3F35E01A14294BF0024012464F3000065
:10308000C407107205D49368643161F35F039360E1
:1030900014E013F0010311D16F49032011606F494F
:1030A000516040F6B83161F35F03936003F0710340
:1030B00043F0010301211372FFF730FE40F6B734ED
:1030C000674A9368107AC3F35E01A14294BF00245B
:1030D000012464F300001072C00705D493686431C2
:1030E00061F35F03936014E013F0010311D15A49B7
:1030F000042011605949516040F6B83161F35F0313
:10310000936003F0710343F0010301211372FFF791
:1031100005FE41F28734534B5A681879C2F35E01B9
:10312000A14294BF0024012464F30000C407187175
:1031300005D45A68323161F35F025A6010E012F030
:1031400001020DD1114641F2883060F35F015960F0
:1031500001F0110141F001011A601971424B1A701E
:1031600041F28734414B5A681879C2F35E01A1429B
:1031700094BF0024012464F300001871C00705D433
:103180005A68323161F35F025A6010E012F00102B6
:103190000DD1114641F2883060F35F01596001F0B2
:1031A000110141F001011A601971314B1A7041F29D
:1031B0008734304B5A681879C2F35E01A14294BF3C
:1031C0000024012464F30000C407187105D45A6870
:1031D000323161F35F025A6010E012F001020DD14A
:1031E000114641F2883060F35F01596001F011012E
:1031F00041F001011A6019711F4B1A7041F28734B6
:103200001E4B5A681879C2F35E01A14294BF002494
:10321000012464F300001871C00705D45A683231E4
:1032200061F35F025A6010BD12F001020DD1114628
:1032300041F2883060F35F01596001F0110141F003
:1032400001011A6019710E4B1A7010BD28C40720B5
:1032500058C4072044C407207F791542A6D4F3C27E
:103260007CC4072064C4072074C4072050C407200E
:1032700062C4072038C4072075C407206CC4072027
:1032800076C4072038B5244C244D0022224910462C
:1032900005F02EFF00283BD0A378C3F303032B7166
:1032A00063682B60673B0B2BEFD801A252F823F029
:1032B000E13201008B320100E73201008B32010064
:1032C0008B320100ED320100F33201008B3201003C
:1032D000F9320100FF320100053301000B33010018
:1032E000FFF7D8FCD1E700F06BF9CEE7FFF76CFDF4
:1032F000CBE7FFF729FDC8E700F092F9C5E700F03A
:103300003FF9C2E7FFF7BAFDBFE7FFF7E7FCBCE70D
:10331000BDE83840FFF756BE8CC807209CC8072080
:10332000054B064A1878064B1B781840054B1B784E
:10333000034010781840704774C4072076C40720F3
:1033400062C4072075C40720F8B5234D234C2E789E
:103350000027002339466868E373A37363732373FC
:10336000E37206F01F0609F05DFF00B16F601C4FAD
:103370006868394609F074FF08B1174B5F606868E8
:1033800009F0CEF912A3D3E9002309F047FB00228C
:10339000144B09F067F809F029FCC0F30B035A0835
:1033A0005B0AA37268232371A378032146EAC0163F
:1033B00061F303036272002226726271A271E271EC
:1033C000A37006491046BDE8F84005F0E5BE00BF11
:1033D0007B14AE47E17A843F30C407208CC80720B5
:1033E0000000A0410000E03F10B5002005F0C6FE3F
:1033F000064B044638B101221A7005F02BFF00205D
:1034000005F01CFF00E01870204610BD77C40720AF
:10341000014B1878704700BF78C407200B496E2312
:103420000B718B780022012060F303030872CA73CA
:103430008A734A730A73CA728A724A7210464A7150
:103440008A71CA718B7005F0A7BE00BF8CC80720B7
:1034500038B5164B1D78FFF763FF154BC0001C787D
:10346000144BA4001B7804F004045B0003F0020377
:10347000234311492B4300F0080003430B727523CB
:103480000B718B780120002260F30303CA738A73E7
:103490004A730A73CA728A724A728B701046BDE808
:1034A00038404A718A71CA7105F076BE63C407203C
:1034B00040C4072077C407208CC80720034B1A7824
:1034C0006FF301021A70024A5A60704730C4072035
:1034D00000004040034B1A786FF301021A70024A51
:1034E0005A60704730C407200000A040044B0121FF
:1034F0001A7861F301021A70024A5A60704700BFDD
:1035000030C4072000004040044B02211A7861F3C8
:1035100001021A7000225A60704700BF30C40720B1
:10352000024B1A786FF384021A70704730C4072078
:10353000034B04211A7861F384021A70704700BFAC
:1035400030C40720034B01211A7861F384021A70FA
:10355000704700BF30C40720034B03211A7861F382
:1035600084021A70704700BF30C40720034B022149
:103570001A7861F384021A70704700BF30C40720C4
:103580000B4A1379012B0B4B0CD11268702A09D10D
:1035900009491A78097A61F300021A705A686FF3C0
:1035A0005F025A601B78054AC3F30003137070472B
:1035B0009CC8072050C407208CC8072062C407207D
:1035C00010B4144B1A79052A1FD11B68692B1CD122
:1035D0001148124B417A047A0A0202F440722243E3
:1035E0001A809A788C0864F30202490961F3C502D3
:1035F0009A70817ADA7861F30202C90861F3C50230
:10360000DA705A686FF35F025A600021022010BC22
:10361000FFF784BB9CC807208CC8072058C407202C
:103620000B4A1379012B0B4B0CD112686F2A09D16D
:1036300009491A78097A61F300021A705A686FF31F
:103640005F025A601B78054AC3F30003137070478A
:103650009CC8072064C407208CC8072074C40720B6
:10366000704708B501F0DCF8012008BD10B504462C
:10367000FCF708FE204610BD37B508F049F9902048
:10368000FCF7FEFD04460321FEF786FE204605F00A
:1036900043F83420FCF7F4FD054600244FF4007293
:1036A0000D490094042305F065F80C4B28462B6067
:1036B00005F032F83420FCF7E3FD05462146FFF71C
:1036C0000BFA284605F028F82046214605F032F886
:1036D0004FF0FF3003B030BD114E0200F45802002D
:1036E00010B54FF6FF74242303FB0101884209D073
:1036F00043782BB1038C1344A34228BF2346038491
:103700002430F3E710BDFFFF37B5002302A840F8CF
:10371000043D0C4B04215B6898470B4B019A1C68D5
:103720000546141B1A60042122460848FFF7D8FFFB
:10373000224602210648FFF7D3FF281C18BF0120AC
:1037400003B030BD88C4072058C507209CC407209B
:1037500075C5072008B50B4B197803788B420A4BC7
:103760000BBF1A889A880132013214BF9A801A80DE
:10377000064B8170DB6820219847003018BF01207C
:1037800008BD00BF05C007202DC5072088C407203D
:103790000A4B02781B789A42094B0BBFDA881A89C8
:1037A000013201320CBFDA801A810379C3F3C202FD
:1037B000073262F3C5030371FFF7CCBF05C00720D2
:1037C0002DC5072010B50749002311F823409A00A2
:1037D000844202D10348104410BD0133042BF4D1BC
:1037E000002010BD47C5072070B1C3780133DBB29C
:1037F000FF2BC37008D105480023C118CA780433D1
:103800005208102BCA70F8D1704700BF47C5072077
:10381000242202FB01010346024630B5914206D044
:103820001446243212F8235C002DF7D10FE0044631
:10383000002599420BD01A79C2F3C2001A8C42EAD1
:103840000042AA4284BF1C4615462433F1E72046B5
:1038500030BDFFFF38B50546C90001F10804FFF788
:1038600053FF1C4B2A781B789A4204D102211A4834
:10387000FFF7CEFF0CE004211848FFF7C9FFEB78F3
:1038800033B990F82330042443F0800380F82330C8
:10389000002380F8203080F8213002462B4690F833
:1038A000231080F8224021F07F01C4F306240C434A
:1038B00080F8234005F1200153F8044B8B4242F875
:1038C000044BF9D1064A0379127862F3C5030371F8
:1038D00038BD00BF05C0072075C507209CC4072060
:1038E00004C0072008B5FFF76DFF0346D8B9FFF7FE
:1038F00069FF0346B8B90D4AD378D179D07A8B42A3
:1039000096BF1946131D1346814294BF0846084BC3
:10391000D17B084A814238BF1346074900221A600A
:10392000CA7A0132CA72184608BD00BF47C50720CF
:103930004FC5072053C507202DC507202DE9F84F97
:1039400005460C464FF0240909FB0219DFF868A16F
:10395000DFF868B14E1C4FF000084C4500F09A802B
:1039600094F823301A0624D5B5B12A7861788A42B2
:1039700005D16F7816F8010C874200F08D80E87849
:1039800050B16878884207D116F8011C914203D1E2
:10399000A979A27991427FD094F82220218C03F05A
:1039A0007F0342EA0323994271DB2046FFF7D2FEF0
:1039B00072E06278002A6AD06DB3297901F0C00103
:1039C000C02917D116F8010C6978884202D12878ED
:1039D000904261D0E778A87887420CD191420AD111
:1039E00016F8010C2978884205D1A079A979884276
:1039F00001D151E079B1A878E17888420BD169789A
:103A0000914208D116F8010C2978884203D1A07997
:103A1000A979884246D094F82210208C03F07F03C5
:103A200041EA0323984232DB237984F82080C3F3F0
:103A3000C201CFB284F821801FB12046FFF7A8FE53
:103A400025E003F0C003C02B19D016F8010C9AF83A
:103A50000030984213D1E3789A4210D07BB1637959
:103A6000032262F307136371E1702046FFF790FEB3
:103A700023799BF8002062F3C503237100E001273E
:103A80006078FFF79FFE08B1C0F8008027B92434A2
:103A9000243662E7BDE8F88F2422002120460AF090
:103AA00054F8F4E7237984F820806FF3C50384F891
:103AB00021802371EBE700BF05C0072004C0072069
:103AC000431EDBB2FD2B9DBF024B1870012000206E
:103AD000704700BF05C00720014B1878704700BF32
:103AE00005C0072007289CBF014B1870704700BF16
:103AF00004C007202DE9F743044691461E469DF871
:103B000028500F46002966D0364B93F80080414577
:103B100063D00F2E61D8002861D0202200210AF046
:103B200014F8FF2F237914BF09F00302002262F377
:103B30008713032262F302032B4A6770127884F81A
:103B4000008062F3C503294A2371137884F8028048
:103B50000133DBB21370A3710BAB019315B94FF0B6
:103B600001081BE004F10809019AE0791346526844
:103B700053F8081B00EB02085FFA88F8013DB8F122
:103B8000180F0193EDB207D8484409F0B8FF84F844
:103B90000780002DE8D1E2E74FF00008DFF85090F1
:103BA0000123384689F80030FFF70CFE0546FFF781
:103BB0001BFE002389F80030637925B966F30713EB
:103BC0006371E57005E0AA7862F3071363716B789F
:103BD000E370404603E0084601E00020FFE703B041
:103BE000BDE8F08305C0072004C007202CC50720CE
:103BF00039C50720124B012270B51A7004461E46C3
:103C000008B9002518E0FFF7A5FD05460028F8D003
:103C1000237903F0C003402B06D0C02B0AD1E378F0
:103C200053B162789A4207D0617920460909FFF7BB
:103C300011FE01E0802BF7D000233370284670BDC1
:103C400039C5072082B02DE9F0439146421ED2B219
:103C50008DB0FD2A05460E4615939DF8688001D962
:103C6000002057E0002BFBD0179F002FF8D0199BA6
:103C7000002BF5D0189B002BF2D0169B002BEFD019
:103C800048220021264809F060FF902200212548A3
:103C900009F05BFF10220021234809F056FF234B57
:103CA00000241C605C609C60214B1C605C609C601C
:103CB000204B1D70204B214D1E7015AE0FCE0FC531
:103CC0003368182221461E482B6009F03EFF494602
:103CD00017221B480BF080FC21462046B8470028DD
:103CE000BED0B8F1000F02D1FFF70EFD12E006239F
:103CF0000293144B2246019301230093FF2104A851
:103D0000FFF7F8FE0028ABD004A8FFF773FF0028E8
:103D1000A6D0E9E70DB0BDE8F04302B0704700BFA0
:103D200075C507209CC4072047C507203BC5072051
:103D30002DC5072005C007203AC5072088C40720E5
:103D40005CC507200C59020030B5182B8DB016D871
:103D5000B2FA82F41D1C18BF01256409AC420ED0D2
:103D60000293019200950A469DF84030014604A84E
:103D7000FFF7C0FE18B104A8FFF73CFF00E00020E9
:103D80000DB030BD13B5537914781B09009302466A
:103D90000B4620460321FFF7D7FF02B010BDFFFFFF
:103DA00000231A4630B5084C14F82350990035B159
:103DB000904202D10448084430BD0132D2B20133EE
:103DC000042BF1D1002030BD47C507200023184641
:103DD000044A12F8231009B10130C0B20133042B98
:103DE000F7D1704747C507202DE9F04188B0202260
:103DF0000021684609F0A9FEA14B1B7803F0FF04DF
:103E0000002B40F039819F4F20213B69684698473D
:103E1000002800F084809C4D6B8801336B80FFF795
:103E2000D5FF9DF80420A87202F00703032B04D0ED
:103E3000964A137843F0010309E0954B1D789DF8ED
:103E40000230AB4205D1914A137843F0020313705C
:103E5000E4E0C2F3C2029DF800E09DF806008D493F
:103E6000D6B204EB440313F801C0F4450BD10B4464
:103E700093F801C0844506D1997801248E1B18BFA0
:103E800001269A7018E00134042CEAD182490B68AB
:103E90009A70804A587002F10900834283F800E06A
:103EA00040F0C9800A609DF800009DF8023083420E
:103EB00040F0C480002426469DF80200FFF712FD62
:103EC0009DF8022002709DF802204270002282704C
:103ED000FFF78AFC04B116B39DF80030AB4200F046
:103EE0009C809DF80160FF2E1BD13B682021684615
:103EF000984720B9654A137843F0040313709DF87E
:103F0000053003F00F02511C61F303038DF80530F7
:103F1000C3F303139A4202DA6846FFF71BFC00243E
:103F20007CE0B5422BD164B99DF807304BB13B68BA
:103F300020216846984720B9544A137843F0040377
:103F400013709DF8043003F0C003402B12D19DF88C
:103F500007306A4613B91821504808E00C214A4836
:103F6000FFF710FF002858D100216A460846FFF7E6
:103F700009FF52E09DF80330002B4ED1F4E7484B87
:103F80001B78002BCBD09DF8054004F00F074FEABB
:103F900014184745C3DA013767F303043046FFF7C7
:103FA00011FC8DF805409DF80340A54221D19DF8F4
:103FB000041001F0C001402906D0A1F180035A424B
:103FC0005A41144610B90CE0012260B1C02943786F
:103FD00005D19E4203D0003318BF012304E0002323
:103FE00002E0C0290ED10346134303F0010420B9B7
:103FF00008E094B908B941460CE043788DF80330E5
:10400000857802E000258DF803506846FFF7A2FB93
:104010001CB129466846FFF71DFC6C46FFF774FB90
:10402000204604221F49FFF789FC02221E49204630
:10403000FFF784FC20E003330B6034E785423FF454
:1040400039AFFFF74FFC0446FFF7CEFB23783BB1B7
:104050009DF80530A27803F00F0393423FF72AAF93
:104060009DF8003023709DF8023063709DF8053094
:10407000C3F30303A3701DE708B0BDE8F08100BFE0
:1040800039C5072088C407202DC5072074C507201F
:1040900005C007203BC5072000C007205CC50720DE
:1040A0003AC507209CC4072075C507200023184681
:1040B000094AD118497809B10130C0B22433902B94
:1040C000F7D1064B5A780AB10130C0B293F82530C7
:1040D0000BB10130C0B270479CC4072075C50720E2
:1040E00008B5FFF76FFB064B28B18278187802FB02
:1040F0000000C00008BD18781823584308BD00BF51
:1041000004C0072003490B6803604B6843608B6859
:10411000836070472DC5072070B53E4C4FF4803545
:10412000E5613D4CA0602046C5683B4CED06FBD4E4
:10413000A0680D46C0B20BB923465FE02346002AB3
:1041400063D0072A0E782DDD9E604E78083A9E6077
:104150008E789E60CE789E600E799E604E799E60CD
:104160008E799E6001F10806C979996099694907BD
:10417000FCD5A1682970A1686970A168A970A168BF
:10418000E970D968C906FCD4A168083505F8041C93
:10419000A16805F8031CA16805F8021CA16805F8D0
:1041A000011C1AE0032A1ADD9E604E78043A9E60D4
:1041B0008E789E600E1DC9789960D968C906FCD4B6
:1041C000A168043505F8041CA16805F8031CA16862
:1041D00005F8021CA16805F8011C3146AFE7013162
:1041E0009E60013ADE68F606FCD4A668013505F843
:1041F000016CA4E7E668F606FCD4A6686E1AB24223
:1042000003DD15F8016B9E60F4E7024B4FF480323A
:104210009A6170BD00C009200080084007B50023E6
:1042200002A901F8013D01231A4600F01F00FFF723
:1042300073FF9DF8070003B05DF804FB13B502ACF3
:1042400004F8011D00F01F0000230122214640F068
:104250002000FFF761FF02B010BD08B51720FFF77F
:10426000DDFFC0F3001008BD70210720FFF7E6BF97
:104270000A4600230146A020FFF74EBF08B50020E4
:10428000FFF7CCFFBDE8084000F0FE010020FFF77B
:10429000D5BFFFFF024B4FF08072DA61704700BF5D
:1042A00020C0092008B50020FFF7B8FF40F0010149
:1042B000C9B20020FFF7C2FF024B4FF080729A6133
:1042C00008BD00BF20C0092020210720FFF7B6BF8E
:1042D00000231A461946E120FFF71EBF37B50446F2
:1042E0000D46FFF7F5FF20462946FFF7C1FF0D4BAE
:1042F0004FF080721C469A610022ADF80620BDF88E
:10430000063001339BB2ADF8063033B94FF08073FD
:10431000E361FFF7DDFF03B030BDFFF79EFF00282C
:10432000EDD0F3E720C0092008B51720FFF776FF8E
:1043300000F0010080F0010008BD40210720FFF7D8
:104340007DBF08B50A46012301466120FFF7E4FE60
:10435000C0F3420008BD00231A461946E220FFF7C9
:10436000DBBE70B5064600200D461446FFF756FF2B
:1043700016B100F0BF0002E040F04000C0B215B13D
:1043800000F0DF0101E040F0200114B101F0EF0185
:1043900001E041F010010020BDE87040FFF74EBF82
:1043A00010B504460020FFF739FF14B900F0F701FB
:1043B0000DE0012C04D100F0FB0141F0080106E002
:1043C000022C14BF40F0080140F00C01C9B20020DB
:1043D000BDE81040FFF732BF08B50020FFF71EFF11
:1043E000BDE8084040F00201C9B20020FFF726BF37
:1043F00008B50020FFF712FFBDE8084000F0FD01FE
:104400000020FFF71BBF40F6DD13984206D840F6A8
:104410006213B0F5166F38BF184600E01846A0F5D5
:104420001661C9B20520FFF709BF10B50446062082
:10443000FFF7F4FEFA2C00F0D70102D141F0200181
:1044400004E0B4F5FA6F08BF41F008010620BDE8AA
:104450001040FFF7F3BE10B504460620FFF7DEFE5E
:10446000032C28BF032420F0060040EA4401C9B20F
:104470000620BDE81040FFF7E1BEF9284FF0FA032F
:1044800005D9B0F57A6F88BF4FF47A6000E018461E
:10449000B0FBF3F00F2900F1FF30C0B228BF0F21AD
:1044A00041EA0011C9B20420FFF7C8BE1130C0B202
:1044B000162804D8202928BF2021FFF7BFBE704747
:1044C000032804D0042814BF0321022100E00121A5
:1044D0000320FFF7B3BE0A46002301463020FFF752
:1044E0001BBE0A46002301462A20FFF715BEFFFF28
:1044F00073B50E4615460446FFF72DFFFFF7E8FE9D
:104500002B4B4FF08072DA61FFF772FF00221146E9
:104510000120FFF726FFFFF7A7FE0220FFF740FF6D
:104520003046FFF770FF2846FFF77FFF0320FFF7B5
:1045300092FF03210220FFF781FE00210120FFF7F7
:104540007DFE03214FF4FA70FFF797FF214600200C
:10455000FFF7ACFF00211220FFF770FE00211320AF
:10456000FFF76CFE00211420FFF768FE00211520E4
:10457000FFF764FE00211620FFF760FE0D4B186860
:104580001B79009005208DF80430FFF799FF6846ED
:104590000521FFF7A0FF05216846FFF7A2FFFFF7FF
:1045A0001BFF4FF4FA6004F07FFB02B070BD00BF48
:1045B00020C009201359020070B5174E326822B985
:1045C0002021032005F0BCFE3060144D2A6822B97A
:1045D0002021012005F0B4FE2860114C216821B98A
:1045E0000322012005F0ACFE20604FF4FA6240F691
:1045F000C3112020FFF77CFFFFF754FE1620094A65
:10460000012104F0A5FE306828B1286818B120689F
:10461000003018BF012070BDC4C50720C0C50720E9
:10462000C8C50720D146010070B50379014603F0E3
:10463000C003C02B0CBF0E4B0E4B88B01D6800236F
:1046400006461A46284605F09DFE044660B9034614
:1046500002466946284605F09BFF2346224631461E
:10466000284605F08FFE0446204608B070BD00BF06
:10467000C0C50720C4C5072038B504460D46FFF75E
:104680002BFA237883420AD0E37843B90AF08CFCF2
:10469000BD2300F0030000FB033004F005FBFFF72F
:1046A000F9FDFFF7EBFDA9B22046FFF717FEFFF774
:1046B0000BFEFFF7F7FD06F06FFD022804D1034B58
:1046C0000021186805F032FF012038BDC8C5072059
:1046D00007B5002302A941F8043D084B186805F00E
:1046E00025FF019B3BB1064B4FF080521A60BFF390
:1046F0004F8FBFF36F8F03B05DF804FBC8C5072071
:1047000004ED00E038B504460D46FFF70DFE48B154
:10471000A9B22046FFF715FEFFF706FE08B9FFF71E
:104720000CFE012038BD2DE9704305460E461446A7
:1047300006F032FD022807D12246002331462846E2
:1047400005F026FFC4B21DE007F0E2F84FF47A72DC
:10475000002308F0D5FD10EB040841F10009002307
:104760001A463146284605F013FFC4B254B907F083
:10477000CFF84FF47A72002308F0C2FD894508BFD4
:104780008045ECD22046BDE87083042938B5054643
:1047900003D1041C18BF012400E0002407F0B8F87E
:1047A0002CB14FF47A72002308F0AAFD286020464D
:1047B00038BDFFFF00B50C4B8DB009930B4B0C4A75
:1047C0000B930C4B0A930CAB43F8102D0022049270
:1047D0000FCB8DE80F00084B084A01216A20FFF734
:1047E00031FA0DB05DF804FBB94501000547010041
:1047F0008B47010079460100294601001859020043
:10480000024B0A4601461868FFF78DBFC4C5072052
:10481000024B0A4601461868FFF785BFC0C507204E
:1048200008B506F0B9FC0F4B02285B6913D15A0298
:104830000DD5FFF73BFC00280B484FF0000314BFD9
:1048400001224FF0FF321946006805F0A1FEBDE8D5
:104850000840FFF7C9BA5B02F9D5FFF727FC00282B
:10486000F5D108BD00C00920C8C5072013460A4677
:104870000179006805F097B91FB5002204AB0479EF
:1048800023F8042D0222009200680A46214605F012
:1048900075F99DF80C009DF80D3043EA002004B036
:1048A00010BD10B5044619222A21FFF7DFFF0D22A3
:1048B0002179206805F066F9A0F12A035842584191
:1048C00010BDFFFF044A13881F2B9FBF581C108088
:1048D000024A42F823107047D0C50720D4C50720EC
:1048E000154AF0B513881646012B21D9134A00202A
:1048F0001546013B984206DA516814680130091BDD
:1049000042F8041BF6E700210C466A684FF0010EDE
:1049100002EB52008AB2934208DD55F82270013151
:10492000B8423CBF0EFA02F21443F3E7044B1C609A
:1049300000233380F0BD00BFD0C50720D4C50720B9
:10494000CCC5072008B50121022006F075FF084BF1
:1049500001209A6A22F007029A629A6A42F00602DD
:104960009A62044AD36843F03003D36008BD00BFA5
:104970000080004000C0024008B5044B417101F0C6
:104980007F015A5C0321FFF771FF08BD1D5902002A
:1049900008B5044B817101F07F015A5C0221FFF7D9
:1049A00065FF08BD1D59020038B50446017900684D
:1049B00005F004F9054688B1002206212046FFF7DC
:1049C00055FF002207212046FFF750FF2E212046E9
:1049D000FFF7D2FF2E212046FFF7DAFF284638BD29
:1049E000642370B5B1FBF3F404FB1311CCB20A21BC
:1049F000B4FBF1F501FB15413031C9B20646FFF7B2
:104A0000C7FF092C88BF05F130013046BDE8704072
:104A100094BF2021C9B2FFF7AFBF01207047FFFF4D
:104A200038B50D46044606F0EFFC05F00F03237081
:104A3000114B15F0010F4FF0010214BFDA619A61BA
:104A4000227812F0020F4FF0020214BFDA619A616D
:104A5000227812F0040F4FF0100214BFDA619A614D
:104A6000227812F0080F4FF4807214BFDA619A6155
:104A7000BDE8384006F0D8BC20C0092038B50D4646
:104A8000044606F0C1FC691E012303FA01F12378F4
:104A900020461943C9B22170FFF7C2FFBDE8384074
:104AA00006F0C2BC38B50D46044606F0ADFC691EE2
:104AB000012303FA01F12378204623EA0101217042
:104AC000FFF7AEFFBDE8384006F0AEBC0AB1FFF715
:104AD000D5BFFFF7E7BF01207047022004F080B97F
:104AE00001207047044B5B69180B00F00C00C3F306
:104AF00041231843704700BF20C009200139032912
:104B000008B505D8FFF7EEFF084100F0010008BD29
:104B1000002008BD10B5044681220121FFF7A6FE42
:104B200001222179206805F02DF810F0600F14BFE4
:104B30000120002010BD38B500210446FFF79CFE7F
:104B4000812205B201212046FFF790FE102095FB3F
:104B5000F0F008F075F94FF0765108F0C5F9A1684A
:104B600008F0BAF838BDFFFF08B5FFF7E4FF0549C4
:104B700008F0BAF9044908F06BFA4FF0844108F0E4
:104B8000ABF808BD000010410000A0402DE9F04F37
:104B9000ADF2546D0C4690460146012282A899461A
:104BA00002F03EF8002867D121460A220DF22C407F
:104BB00002F036F8044620B182A802F09AFA2046A4
:104BC0005AE06D46064607462860019006F0A0FEB2
:104BD0004FF47A72002308F093FB2B4683464FF480
:104BE000007202A982A802F0B5F88246E0B92A68EC
:104BF000D2B106F08DFE4FF47A72002308F080FBEC
:104C0000B0EB0B00074406F083FE4FF47A720023EA
:104C100008F076FB01AB83462A6802A90DF22C400E
:104C200002F050F98246B0B1B8F1000F01D0C8F8D7
:104C30000070B9F1000F01D0C9F80060DDF87836D6
:104C400003B11C6082A802F054FA0DF22C4002F06D
:104C500050FA504610E001992A689142E4D106F0DA
:104C600057FE00234FF47A7208F04AFB2B68B0EB32
:104C70000B0006441C44A9E70DF2546DBDE8F08F0B
:104C8000F0B5ADF50B7D0E46174601461D460122D7
:104C9000002301A8009301F0C3FF044670B91DB1C1
:104CA000294601A802F037FA6B463A46314601A878
:104CB00002F050F8044601A802F01BFA20460DF558
:104CC0000B7DF0BDF0B5ADF50B7D0E4617460146E8
:104CD0001D460A22002301A8009301F0A1FF04460B
:104CE00070B91DB1294601A802F015FA6B463A4683
:104CF000314601A802F0E6F8044601A802F0F9F9ED
:104D000020460DF50B7DF0BDF0B5ADF50B7D0E46E3
:104D1000174601461D461222002301A8009301F008
:104D20007FFF044680B90DB1294600E0049901A82F
:104D300002F0F1F96B463A46314601A802F0C2F89A
:104D4000044601A802F0D5F920460DF50B7DF0BD13
:104D50007F2810B516D931B1FF2812D80A4B8038F8
:104D600033F8100010BD084A32F811408BB284426B
:104D700003D001318029F7D10B4603F18000C0B286
:104D800010BD002010BD00BF7E5B0200064900235D
:104D900031F8132032B1824201D00133F8E7034ADF
:104DA00032F81300704700BF7E5C02009E5902007B
:104DB00010B501200C4605F069FB2060003018BFDB
:104DC000012010BD0120704710B5044606F0E4F93B
:104DD00002280AD1002319464FF0FF32204605F081
:104DE000D7FB431E5842584110BD012010BD10B5DD
:104DF000044606F0D1F9022807D100232046BDE879
:104E000010401A46194605F0BDBA10BD10B504464B
:104E100004F01AFD24B1012C06D100F081F901E063
:104E200000F002FD044600E0042404F025FD2046C5
:104E300010BD28B1012801D00420704700F028BA25
:104E40007047F8B507460C4615461E4604F0FCFCB4
:104E50003FB1012F0CD132462946204600F020FAFE
:104E600004E032462946204600F02AFD044600E0D0
:104E7000042404F001FD2046F8BDF8B507460C46B1
:104E800015461E4604F0E0FC3FB1012F0CD132461E
:104E90002946204600F050FA04E0324629462046D2
:104EA00000F030FD044600E0042404F0E5FC204658
:104EB000F8BD70B506460C46154604F0C5FC36B183
:104EC000012E0AD12946204600F090FA03E0294637
:104ED000204600F037FD044600E0042404F0CCFC3A
:104EE000204670BD08B506F013FD4FF47A7200231A
:104EF00008F006FA08BDFFFF10B5044606F08AFE6A
:104F0000074BB0FBF3F00223B0FBF3F2944202D361
:104F1000044A136110BDB3F5807FF9D00233F3E783
:104F200040420F0000000340044B9860DA68D2064C
:104F3000FCD4024B9868C0B2704700BF0000034029
:104F400070B5FFF7CFFF00F5FA74FF20FFF7ECFF15
:104F50000025FF20FFF7E8FFFF28064605D0FFF7F2
:104F6000C1FFA94208BFA042F3D3304670BDFFFF86
:104F700038B5064C4FF00075E561FFF7E1FF044AD4
:104F8000A561137843F00103137038BD20C00920D8
:104F900006C007202DE9704306460D46FFF7A2FF25
:104FA000643080464FF00009FF20FFF7BDFFFF2867
:104FB00008D1FFF797FF494508BF4045F4D30020CB
:104FC000BDE87083FE28FAD1102D06D900224FF4D7
:104FD0000071304604F0D6FB19E0341D0435FF2083
:104FE000FFF7A2FF04F8040CFF20FFF79DFF04F871
:104FF000030CFF20FFF798FF04F8020CFF20FFF7D7
:1050000093FF043404F8050C2B1BDE42E7D1FF208C
:10501000FFF78AFFFF20FFF787FF0120BDE87083BD
:1050200070B506460D46FFF78BFFFF28044619D1E1
:105030002846FFF779FFFD2D16D022464FF4007168
:10504000304604F09FFB2046FFF76EFF2046FFF737
:105050006BFF2046FFF768FF00F01F00431F584218
:10506000584170BD002070BD012070BD020638B5EA
:1050700004460D4607D500217720FFF7F7FF0128EA
:1050800038D804F07F041C4B4FF000729A61DA614B
:10509000FFF756FFFF28014628D12046FFF744FFBF
:1050A000280EFFF741FFC5F30740FFF73DFFC5F3AB
:1050B0000720FFF739FFE8B2FFF736FF402C17D083
:1050C000482C14BF01208720FFF72EFF4C2C02D163
:1050D0000846FFF729FF0A21FF20FFF725FF0306F7
:1050E00008D5013911F0FF01F6D138BDFF2038BDD8
:1050F0009520EEE738BD00BF20C00920064A0749C9
:1051000013784969DBB2490154BF03F0FD0343F052
:1051100003031370704700BF06C0072020C009209A
:105120002DE9F743FFF7EAFF564B1A781E4612F0B7
:10513000020F01D01878A1E00120FFF7DDFE0A245C
:10514000FF20013CFFF7F0FE14F0FF04F8D14E4FB2
:105150004FF00073FB6121464020FFF787FF0128D5
:1051600002D04FF0000875E0FFF7BCFE4FF4D57198
:1051700000F57A754820FFF779FF012841D10DF13C
:105180000408FF20FFF7D0FE08F804000134042CC7
:10519000F7D19DF80630012BE3D19DF80730AA2BFB
:1051A000DFD12C460025FFF79DFEA94208BFA04293
:1051B00006D3FFF797FEA94208BFA042D1D207E06D
:1051C0004FF08041E920FFF751FF0028EBD1F0E7D5
:1051D00000217A20FFF74AFF0028C2D10146FF20B4
:1051E000FFF7A2FE08F8010001310429F7D19DF86C
:1051F000043013F0400F14BF4FF00C084FF00408B8
:1052000028E02146E920FFF731FF02282C4635BF70
:105210004FF002084FF001084FF0E9094FF0410943
:105220000025FFF75FFEA94208BFA0420BD3FFF79E
:1052300059FEA94208BFA0420CD34FF40071502080
:10524000FFF714FF06E000214846FFF70FFF002894
:10525000E7D1ECE70D4B83F800804FF00073BB61A2
:10526000B8F1000F07D03378182003F0FE03337035
:10527000FFF742FE01E0FFF77BFE3078C0B203B0DB
:10528000BDE8F08306C0072020C0092054C60720CF
:1052900008B5FFF733FF014B187808BD06C007209B
:1052A00070B5144606460846FFF728FF002C39D093
:1052B0001E4B1B78DB0737D41D4B4FF00072DA61B1
:1052C0001C4A1D46127812F0080F08BF4002012C3C
:1052D00001460CD15120FFF7C9FEE0B94FF400712F
:1052E0003046FFF757FEB0FA80F4640913E052200D
:1052F000FFF7BCFE78B94FF400713046FFF74AFE65
:1053000028B1013C14F0FF0406F50076F3D100212A
:105310004C20FFF7ABFE4FF00073201CAB6118BFB1
:10532000012070BD042070BD032070BD06C00720A1
:1053300020C0092054C60720F8B5144606460F467B
:10534000FFF7DCFE002C44D0254B1A78D20742D45C
:105350001B785B0741D4234B4FF00072DA61224A7D
:105360001D46127812F0080F08BF7F02012C0CD1E5
:1053700039465820FFF77AFE18BBFE213046FFF76A
:105380004FFEB0FA80F464091CE012F0060F03D05F
:105390002146D720FFF76AFE39465920FFF766FEFF
:1053A00080B9FC213046FFF73BFE28B1013C14F0E8
:1053B000FF0406F50076F4D1FD210020FFF730FE52
:1053C00000B901244FF00073201CAB6118BF01200D
:1053D000F8BD0420F8BD0320F8BD0220F8BD00BFD1
:1053E00006C0072020C0092054C607207FB50D46FF
:1053F000FFF784FE05281AD12B78012B00F00481D9
:1054000003D3022B0BD0042001E1824B586910F02A
:10541000806440F0F980FFF7ABFD2046F7E07D4B5C
:105420005B6983F08063C3F380636B70ECE07A4B5D
:105430001B78DB0700F1EA800E2800F2DF80DFE84E
:1054400000F008124F53DDDDDDDDDDDDAAAFB2BBBC
:10545000CB00704B4FF00072DA61FFF771FDFF383F
:1054600018BF0120CBE000214920FFF7FFFD0446D3
:1054700008B10120C3E010216846FFF78BFD00282A
:10548000F7D09DF800309DF808109B09012B9DF87E
:10549000093006D1013303EB012189B28902296069
:1054A0006BE09DF807209DF80500920002EB91113A
:1054B0009DF806200131920202F4406211449DF8E9
:1054C0000A2000F00F0000EBD2105A00023002F068
:1054D00006028318DBB289B2093B01FA03F34BE001
:1054E0004FF400732B8059E04C4E337803F00403E3
:1054F00003F0FF01F3B10021CD20FFF7B7FD002835
:10550000B7D1FF20FFF710FD10216846FFF742FDDD
:105510000028AED03021FF20FFF706FD481E10F016
:10552000FF01F8D19DF80A3008461A09102393406C
:105530002B6064E04920FFF799FD0446002898D1CC
:1055400010216846FFF726FD002892D036789DF896
:105550000A2006F0020606F0FF009DF80B3076B137
:10556000520002F07E0202EBD3135A1C9DF80D305C
:105570009B09013B02FA03F32B6020463FE0D90070
:1055800001F01801C2F3840201EB5311531C01FB1B
:1055900003332B6033E0214B1B782B7000202EE06F
:1055A0000021492001E000214A20FFF75FFD00288B
:1055B0007FF45FAF10211AE000217A20FFF756FD3B
:1055C00000287FF456AF291DFF20FFF7ADFC05F83A
:1055D000010B8D42F8D1E1E70021CD20FFF746FD18
:1055E00000287FF446AFFF20FFF79EFC40212846AD
:1055F000FFF7D0FCB0FA80F0400900E00420054B32
:105600004FF000729A6102E0002000E0032004B035
:1056100070BD00BF20C0092006C0072054C6072067
:10562000054B1B78253BDBB2032B9ABF034A52F88C
:1056300023000020704700BF58C60720685E0200A4
:105640001B4B2DE9F0411D880646B5F5007F0F463E
:10565000144602D12A46214613E0B5F5807F09D1D0
:105660002A4621463846B0472A4604F5807107F598
:10567000807016E0B5F5047F05D1510A89024FF418
:10568000007238460DE0B5F5847F0ED1140A610230
:105690004FF480723846B047611C4FF48072490263
:1056A000B8183346BDE8F0411847BDE8F08100BFA7
:1056B00056C6072030B52F4C03462546002958DD35
:1056C00007291A782DDDA2605A780839A2609A78E5
:1056D000A260DA78A2601A79A2605A79A2609A79F7
:1056E000A26003F10802DB79A360A3695B07FCD524
:1056F000AB680370AB684370AB688370AB68C37012
:10570000E368DB06FCD4AB68083000F8043CAB6807
:1057100000F8033CAB6800F8023CAB6800F8013CC1
:105720001AE003291ADDA2605A780439A2609A7837
:10573000A2601A1DDB78A360E368DB06FCD4AB68CB
:10574000043000F8043CAB6800F8033CAB6800F898
:10575000023CAB6800F8013C1346AFE70133A2609E
:105760000139E268D206FCD4AA68013000F8012CA5
:10577000A4E730BD0000034007B50B0C8DF80530E1
:105780008DF807100B0A04218DF804000DEB0100C1
:105790008DF80630FFF78EFF03B05DF804FBFFFFC6
:1057A000F7B5174606460E4C40250323E5618DF8F4
:1057B00004300B0C8DF805308DF807100B0A04210E
:1057C0000DEB01008DF80630FFF774FF002239461B
:1057D000304603F0D7FFA561A561A56103B0F0BD18
:1057E00000C009200E4B4022DA610E4BD7229A608E
:1057F0001A46D1680B4BC906FBD49A681A46FF219A
:105800009960D068C006FCD4906810F0800FF7D083
:10581000034B40229A61C0B29A619A61704700BFFF
:1058200000C0092000000340F7B5FFF7DBFF1F4C65
:10583000002323801E4B1F4E40271A889B78F76158
:105840000321054601A8ADF804208DF80630FFF7C6
:1058500031FF9DF805209DF806301F2AB7612146CB
:10586000B761B7611CD1A3F12502032A18D8124AE7
:10587000252B137005F0010006D1002814BF4FF44A
:1058800080734FF4847305E0002814BF4FF4007355
:105890004FF404730B80FFF7C3FE084B400A1860F7
:1058A0000888B0FA80F0400903B0F0BD56C6072062
:1058B0005E5E020000C0092058C607205CC60720B3
:1058C000F8B58B1817460D4A013B126804469342FF
:1058D00010D84D02FFF786FF00262D1BBE4204EBB9
:1058E000050209DA21460648FFF7AAFE04F500740E
:1058F0000136F3E70120F8BD0020F8BD5CC60720A3
:10590000A1570100F8B58B1817460C4A013B1268E5
:1059100093420FD804460026C0EB4125BE4204EB5B
:10592000050209DA21460648FFF78AFE04F50074ED
:105930000136F3E70120F8BD0020F8BD5CC6072062
:10594000255A010008B5072805D8DFE800F0060948
:105950000E1214141414042008BDFFF743FF0AE0CC
:10596000FFF75EFE400A086005E04FF400730B800D
:1059700001E001230B60002008BDFFFF70B590B06F
:1059800003466A466E4600F1400514461868596899
:10599000083303C4AB422246F7D1084D4024EC61E2
:1059A00000219B20FFF7E8FE21463046FFF782FEEC
:1059B000AC61AC61AC6110B070BD00BF00C009202B
:1059C00070B50646074D402400217720EC61FFF7B3
:1059D000D3FE21463046FFF76DFEAC61AC61AC6191
:1059E00070BD00BF00C0092008B5064B198831F012
:1059F0001F0104D0FFF714FEB0FBF1F008BD08460C
:105A000008BD00BF56C60720014B1888704700BF6D
:105A100056C60720024B1878003018BF0120704787
:105A200056C607202DE9F7434FF0FF330F46914646
:105A300001938046FFF7D6FEFFF7ECFF0646B8B1AC
:105A4000194C4025194BE5611B880320B3F5847F71
:105A50000CBF4FF480714FF400713943FFF78CFE97
:105A600004210DEB0100FFF725FEA561A561A561ED
:105A70000D4C402339468220E361FFF77DFE012271
:105A80004946404603F07EFE3EB1019B02A8013329
:105A900040F8043D0421FFF70DFE4023A361A361FC
:105AA000A36103B0BDE8F08300C0092056C60720FB
:105AB000124B37B51B88B3F5847F0CBF4FF4807150
:105AC0004FF400714FF0FF3341EA40210193FFF79B
:105AD000A1FF68B10A4C40250320E561FFF74CFEA9
